{
  "contractName": "CycleChain",
  "abi": [
    {
      "inputs": [],
      "stateMutability": "nonpayable",
      "type": "constructor"
    },
    {
      "anonymous": false,
      "inputs": [
        {
          "indexed": true,
          "internalType": "address",
          "name": "owner",
          "type": "address"
        },
        {
          "indexed": true,
          "internalType": "address",
          "name": "approved",
          "type": "address"
        },
        {
          "indexed": true,
          "internalType": "uint256",
          "name": "tokenId",
          "type": "uint256"
        }
      ],
      "name": "Approval",
      "type": "event"
    },
    {
      "anonymous": false,
      "inputs": [
        {
          "indexed": true,
          "internalType": "address",
          "name": "owner",
          "type": "address"
        },
        {
          "indexed": true,
          "internalType": "address",
          "name": "operator",
          "type": "address"
        },
        {
          "indexed": false,
          "internalType": "bool",
          "name": "approved",
          "type": "bool"
        }
      ],
      "name": "ApprovalForAll",
      "type": "event"
    },
    {
      "anonymous": false,
      "inputs": [
        {
          "indexed": false,
          "internalType": "uint256",
          "name": "componentId",
          "type": "uint256"
        }
      ],
      "name": "ComponentCreated",
      "type": "event"
    },
    {
      "anonymous": false,
      "inputs": [
        {
          "indexed": false,
          "internalType": "uint256",
          "name": "_equipmentId",
          "type": "uint256"
        }
      ],
      "name": "EquipmentCreated",
      "type": "event"
    },
    {
      "anonymous": false,
      "inputs": [
        {
          "indexed": false,
          "internalType": "uint256",
          "name": "_equipmentId",
          "type": "uint256"
        }
      ],
      "name": "EquipmentDeleted",
      "type": "event"
    },
    {
      "anonymous": false,
      "inputs": [
        {
          "indexed": false,
          "internalType": "address",
          "name": "creator",
          "type": "address"
        }
      ],
      "name": "NFTCreatorRegistered",
      "type": "event"
    },
    {
      "anonymous": false,
      "inputs": [
        {
          "indexed": false,
          "internalType": "address",
          "name": "creator",
          "type": "address"
        }
      ],
      "name": "NFTCreatorRemoved",
      "type": "event"
    },
    {
      "anonymous": false,
      "inputs": [
        {
          "indexed": false,
          "internalType": "uint256",
          "name": "_NFTid",
          "type": "uint256"
        },
        {
          "indexed": false,
          "internalType": "uint256",
          "name": "_equipmentId",
          "type": "uint256"
        }
      ],
      "name": "NftInstalledOnEquipment",
      "type": "event"
    },
    {
      "anonymous": false,
      "inputs": [
        {
          "indexed": false,
          "internalType": "uint256",
          "name": "_NFTid",
          "type": "uint256"
        },
        {
          "indexed": false,
          "internalType": "uint256",
          "name": "_equipmentId",
          "type": "uint256"
        }
      ],
      "name": "NftRemovedFromEquipment",
      "type": "event"
    },
    {
      "anonymous": false,
      "inputs": [
        {
          "indexed": true,
          "internalType": "address",
          "name": "previousOwner",
          "type": "address"
        },
        {
          "indexed": true,
          "internalType": "address",
          "name": "newOwner",
          "type": "address"
        }
      ],
      "name": "OwnershipTransferred",
      "type": "event"
    },
    {
      "anonymous": false,
      "inputs": [
        {
          "indexed": true,
          "internalType": "address",
          "name": "from",
          "type": "address"
        },
        {
          "indexed": true,
          "internalType": "address",
          "name": "to",
          "type": "address"
        },
        {
          "indexed": true,
          "internalType": "uint256",
          "name": "tokenId",
          "type": "uint256"
        }
      ],
      "name": "Transfer",
      "type": "event"
    },
    {
      "inputs": [
        {
          "internalType": "address",
          "name": "to",
          "type": "address"
        },
        {
          "internalType": "uint256",
          "name": "tokenId",
          "type": "uint256"
        }
      ],
      "name": "approve",
      "outputs": [],
      "stateMutability": "nonpayable",
      "type": "function"
    },
    {
      "inputs": [
        {
          "internalType": "address",
          "name": "owner",
          "type": "address"
        }
      ],
      "name": "balanceOf",
      "outputs": [
        {
          "internalType": "uint256",
          "name": "",
          "type": "uint256"
        }
      ],
      "stateMutability": "view",
      "type": "function",
      "constant": true
    },
    {
      "inputs": [
        {
          "internalType": "uint256",
          "name": "tokenId",
          "type": "uint256"
        }
      ],
      "name": "getApproved",
      "outputs": [
        {
          "internalType": "address",
          "name": "",
          "type": "address"
        }
      ],
      "stateMutability": "view",
      "type": "function",
      "constant": true
    },
    {
      "inputs": [
        {
          "internalType": "address",
          "name": "owner",
          "type": "address"
        },
        {
          "internalType": "address",
          "name": "operator",
          "type": "address"
        }
      ],
      "name": "isApprovedForAll",
      "outputs": [
        {
          "internalType": "bool",
          "name": "",
          "type": "bool"
        }
      ],
      "stateMutability": "view",
      "type": "function",
      "constant": true
    },
    {
      "inputs": [],
      "name": "name",
      "outputs": [
        {
          "internalType": "string",
          "name": "",
          "type": "string"
        }
      ],
      "stateMutability": "view",
      "type": "function",
      "constant": true
    },
    {
      "inputs": [],
      "name": "owner",
      "outputs": [
        {
          "internalType": "address",
          "name": "",
          "type": "address"
        }
      ],
      "stateMutability": "view",
      "type": "function",
      "constant": true
    },
    {
      "inputs": [
        {
          "internalType": "uint256",
          "name": "tokenId",
          "type": "uint256"
        }
      ],
      "name": "ownerOf",
      "outputs": [
        {
          "internalType": "address",
          "name": "",
          "type": "address"
        }
      ],
      "stateMutability": "view",
      "type": "function",
      "constant": true
    },
    {
      "inputs": [],
      "name": "renounceOwnership",
      "outputs": [],
      "stateMutability": "nonpayable",
      "type": "function"
    },
    {
      "inputs": [
        {
          "internalType": "address",
          "name": "from",
          "type": "address"
        },
        {
          "internalType": "address",
          "name": "to",
          "type": "address"
        },
        {
          "internalType": "uint256",
          "name": "tokenId",
          "type": "uint256"
        }
      ],
      "name": "safeTransferFrom",
      "outputs": [],
      "stateMutability": "nonpayable",
      "type": "function"
    },
    {
      "inputs": [
        {
          "internalType": "address",
          "name": "from",
          "type": "address"
        },
        {
          "internalType": "address",
          "name": "to",
          "type": "address"
        },
        {
          "internalType": "uint256",
          "name": "tokenId",
          "type": "uint256"
        },
        {
          "internalType": "bytes",
          "name": "data",
          "type": "bytes"
        }
      ],
      "name": "safeTransferFrom",
      "outputs": [],
      "stateMutability": "nonpayable",
      "type": "function"
    },
    {
      "inputs": [
        {
          "internalType": "address",
          "name": "operator",
          "type": "address"
        },
        {
          "internalType": "bool",
          "name": "approved",
          "type": "bool"
        }
      ],
      "name": "setApprovalForAll",
      "outputs": [],
      "stateMutability": "nonpayable",
      "type": "function"
    },
    {
      "inputs": [
        {
          "internalType": "bytes4",
          "name": "interfaceId",
          "type": "bytes4"
        }
      ],
      "name": "supportsInterface",
      "outputs": [
        {
          "internalType": "bool",
          "name": "",
          "type": "bool"
        }
      ],
      "stateMutability": "view",
      "type": "function",
      "constant": true
    },
    {
      "inputs": [],
      "name": "symbol",
      "outputs": [
        {
          "internalType": "string",
          "name": "",
          "type": "string"
        }
      ],
      "stateMutability": "view",
      "type": "function",
      "constant": true
    },
    {
      "inputs": [
        {
          "internalType": "uint256",
          "name": "tokenId",
          "type": "uint256"
        }
      ],
      "name": "tokenURI",
      "outputs": [
        {
          "internalType": "string",
          "name": "",
          "type": "string"
        }
      ],
      "stateMutability": "view",
      "type": "function",
      "constant": true
    },
    {
      "inputs": [
        {
          "internalType": "address",
          "name": "from",
          "type": "address"
        },
        {
          "internalType": "address",
          "name": "to",
          "type": "address"
        },
        {
          "internalType": "uint256",
          "name": "tokenId",
          "type": "uint256"
        }
      ],
      "name": "transferFrom",
      "outputs": [],
      "stateMutability": "nonpayable",
      "type": "function"
    },
    {
      "inputs": [
        {
          "internalType": "address",
          "name": "newOwner",
          "type": "address"
        }
      ],
      "name": "transferOwnership",
      "outputs": [],
      "stateMutability": "nonpayable",
      "type": "function"
    },
    {
      "inputs": [
        {
          "internalType": "address",
          "name": "_producer",
          "type": "address"
        },
        {
          "internalType": "string",
          "name": "_tokenURI",
          "type": "string"
        }
      ],
      "name": "createComponent",
      "outputs": [
        {
          "internalType": "uint256",
          "name": "",
          "type": "uint256"
        }
      ],
      "stateMutability": "nonpayable",
      "type": "function"
    },
    {
      "inputs": [
        {
          "internalType": "address",
          "name": "_producer",
          "type": "address"
        }
      ],
      "name": "registerNFTCreator",
      "outputs": [],
      "stateMutability": "nonpayable",
      "type": "function"
    },
    {
      "inputs": [
        {
          "internalType": "address",
          "name": "_producer",
          "type": "address"
        }
      ],
      "name": "removeNFTCreator",
      "outputs": [],
      "stateMutability": "nonpayable",
      "type": "function"
    },
    {
      "inputs": [
        {
          "internalType": "uint256",
          "name": "_NFTid",
          "type": "uint256"
        },
        {
          "internalType": "uint256",
          "name": "_equipmentId",
          "type": "uint256"
        }
      ],
      "name": "installNftOnEquipment",
      "outputs": [],
      "stateMutability": "nonpayable",
      "type": "function"
    },
    {
      "inputs": [
        {
          "internalType": "uint256",
          "name": "_NFTid",
          "type": "uint256"
        },
        {
          "internalType": "uint256",
          "name": "_equipmentId",
          "type": "uint256"
        }
      ],
      "name": "removeNftFromEquipment",
      "outputs": [],
      "stateMutability": "nonpayable",
      "type": "function"
    },
    {
      "inputs": [
        {
          "internalType": "uint256",
          "name": "_equipmentId",
          "type": "uint256"
        },
        {
          "internalType": "enum CycleChain.EquipmentType",
          "name": "_equipmentType",
          "type": "uint8"
        }
      ],
      "name": "createEquipment",
      "outputs": [],
      "stateMutability": "nonpayable",
      "type": "function"
    },
    {
      "inputs": [
        {
          "internalType": "uint256",
          "name": "_equipmentId",
          "type": "uint256"
        }
      ],
      "name": "deleteEquipment",
      "outputs": [],
      "stateMutability": "nonpayable",
      "type": "function"
    }
  ],
  "bytecode": "0x60806040523480156200001157600080fd5b506040518060400160405280600981526020017f436f6d706f6e656e7400000000000000000000000000000000000000000000008152506040518060400160405280600281526020017f4343000000000000000000000000000000000000000000000000000000000000815250816000908051906020019062000096929190620001a6565b508060019080519060200190620000af929190620001a6565b505050620000d2620000c6620000d860201b60201c565b620000e060201b60201c565b620002ba565b600033905090565b6000600760009054906101000a900473ffffffffffffffffffffffffffffffffffffffff16905081600760006101000a81548173ffffffffffffffffffffffffffffffffffffffff021916908373ffffffffffffffffffffffffffffffffffffffff1602179055508173ffffffffffffffffffffffffffffffffffffffff168173ffffffffffffffffffffffffffffffffffffffff167f8be0079c531659141344cd1fd0a4f28419497f9722a3daafe3b4186f6b6457e060405160405180910390a35050565b828054620001b49062000285565b90600052602060002090601f016020900481019282620001d8576000855562000224565b82601f10620001f357805160ff191683800117855562000224565b8280016001018555821562000224579182015b828111156200022357825182559160200191906001019062000206565b5b50905062000233919062000237565b5090565b5b808211156200025257600081600090555060010162000238565b5090565b7f4e487b7100000000000000000000000000000000000000000000000000000000600052602260045260246000fd5b600060028204905060018216806200029e57607f821691505b602082108103620002b457620002b362000256565b5b50919050565b61416f80620002ca6000396000f3fe608060405234801561001057600080fd5b506004361061014d5760003560e01c80636352211e116100c3578063a666772c1161007c578063a666772c14610386578063b88d4fde146103a2578063c87b56dd146103be578063dc4a5366146103ee578063e985e9c51461040a578063f2fde38b1461043a5761014d565b80636352211e146102c457806370a08231146102f4578063715018a6146103245780638da5cb5b1461032e57806395d89b411461034c578063a22cb4651461036a5761014d565b80631794bcc0116101155780631794bcc01461020857806323b872dd146102245780632e9526501461024057806342842e0e1461025c5780634ff0da6a14610278578063574cfb5a146102945761014d565b806301ffc9a71461015257806306fdde0314610182578063081812fc146101a0578063095ea7b3146101d057806315c17a25146101ec575b600080fd5b61016c60048036038101906101679190612add565b610456565b6040516101799190612b25565b60405180910390f35b61018a610538565b6040516101979190612bd9565b60405180910390f35b6101ba60048036038101906101b59190612c31565b6105ca565b6040516101c79190612c9f565b60405180910390f35b6101ea60048036038101906101e59190612ce6565b610610565b005b61020660048036038101906102019190612d4b565b610727565b005b610222600480360381019061021d9190612d8b565b6109d1565b005b61023e60048036038101906102399190612dcb565b610bd4565b005b61025a60048036038101906102559190612d8b565b610c34565b005b61027660048036038101906102719190612dcb565b610e38565b005b610292600480360381019061028d9190612e1e565b610e58565b005b6102ae60048036038101906102a99190612f80565b610f85565b6040516102bb9190612feb565b60405180910390f35b6102de60048036038101906102d99190612c31565b611087565b6040516102eb9190612c9f565b60405180910390f35b61030e60048036038101906103099190612e1e565b61110d565b60405161031b9190612feb565b60405180910390f35b61032c6111c4565b005b6103366111d8565b6040516103439190612c9f565b60405180910390f35b610354611202565b6040516103619190612bd9565b60405180910390f35b610384600480360381019061037f9190613032565b611294565b005b6103a0600480360381019061039b9190612c31565b6112aa565b005b6103bc60048036038101906103b79190613113565b611512565b005b6103d860048036038101906103d39190612c31565b611574565b6040516103e59190612bd9565b60405180910390f35b61040860048036038101906104039190612e1e565b611686565b005b610424600480360381019061041f9190613196565b6117b3565b6040516104319190612b25565b60405180910390f35b610454600480360381019061044f9190612e1e565b611847565b005b60007f80ac58cd000000000000000000000000000000000000000000000000000000007bffffffffffffffffffffffffffffffffffffffffffffffffffffffff1916827bffffffffffffffffffffffffffffffffffffffffffffffffffffffff1916148061052157507f5b5e139f000000000000000000000000000000000000000000000000000000007bffffffffffffffffffffffffffffffffffffffffffffffffffffffff1916827bffffffffffffffffffffffffffffffffffffffffffffffffffffffff1916145b806105315750610530826118ca565b5b9050919050565b60606000805461054790613205565b80601f016020809104026020016040519081016040528092919081815260200182805461057390613205565b80156105c05780601f10610595576101008083540402835291602001916105c0565b820191906000526020600020905b8154815290600101906020018083116105a357829003601f168201915b5050505050905090565b60006105d582611934565b6004600083815260200190815260200160002060009054906101000a900473ffffffffffffffffffffffffffffffffffffffff169050919050565b600061061b82611087565b90508073ffffffffffffffffffffffffffffffffffffffff168373ffffffffffffffffffffffffffffffffffffffff160361068b576040517f08c379a0000000000000000000000000000000000000000000000000000000008152600401610682906132a8565b60405180910390fd5b8073ffffffffffffffffffffffffffffffffffffffff166106aa61197f565b73ffffffffffffffffffffffffffffffffffffffff1614806106d957506106d8816106d361197f565b6117b3565b5b610718576040517f08c379a000000000000000000000000000000000000000000000000000000000815260040161070f9061333a565b60405180910390fd5b6107228383611987565b505050565b60011515600d60003373ffffffffffffffffffffffffffffffffffffffff1673ffffffffffffffffffffffffffffffffffffffff16815260200190815260200160002060009054906101000a900460ff161515146107ba576040517f08c379a00000000000000000000000000000000000000000000000000000000081526004016107b1906133a6565b60405180910390fd5b60001515600b60003373ffffffffffffffffffffffffffffffffffffffff1673ffffffffffffffffffffffffffffffffffffffff168152602001908152602001600020600084815260200190815260200160002060000160159054906101000a900460ff16151514610861576040517f08c379a000000000000000000000000000000000000000000000000000000000815260040161085890613412565b60405180910390fd5b610869612983565b818160200190600181111561088157610880613432565b5b9081600181111561089557610894613432565b5b81525050600181604001901515908115158152505080600b60003373ffffffffffffffffffffffffffffffffffffffff1673ffffffffffffffffffffffffffffffffffffffff168152602001908152602001600020600085815260200190815260200160002060008201518160000160006101000a81548173ffffffffffffffffffffffffffffffffffffffff021916908373ffffffffffffffffffffffffffffffffffffffff16021790555060208201518160000160146101000a81548160ff0219169083600181111561096d5761096c613432565b5b021790555060408201518160000160156101000a81548160ff0219169083151502179055509050507fed2820e91c87cd0840b1c796bbde9d387a5f3b0cd055f5428de0685c6480ca2a836040516109c49190612feb565b60405180910390a1505050565b3373ffffffffffffffffffffffffffffffffffffffff166109f183611087565b73ffffffffffffffffffffffffffffffffffffffff1614610a47576040517f08c379a0000000000000000000000000000000000000000000000000000000008152600401610a3e906134d3565b60405180910390fd5b60011515600b60003373ffffffffffffffffffffffffffffffffffffffff1673ffffffffffffffffffffffffffffffffffffffff168152602001908152602001600020600083815260200190815260200160002060000160159054906101000a900460ff16151514610aee576040517f08c379a0000000000000000000000000000000000000000000000000000000008152600401610ae590613565565b60405180910390fd5b6000600c60008481526020019081526020016000206000015414610b47576040517f08c379a0000000000000000000000000000000000000000000000000000000008152600401610b3e906135f7565b60405180910390fd5b60011515600a6000838152602001908152602001600020600084815260200190815260200160002060009054906101000a9050505080600c6000848152602001908152602001600020600001819055507ffa0048a4701c097662a280f62b14b2d7d016786b7dfc1874b44dedaab4b6b7b38282604051610bc8929190613617565b60405180910390a15050565b610be5610bdf61197f565b82611a40565b610c24576040517f08c379a0000000000000000000000000000000000000000000000000000000008152600401610c1b906136b2565b60405180910390fd5b610c2f838383611ad5565b505050565b3373ffffffffffffffffffffffffffffffffffffffff16610c5483611087565b73ffffffffffffffffffffffffffffffffffffffff1614610caa576040517f08c379a0000000000000000000000000000000000000000000000000000000008152600401610ca1906134d3565b60405180910390fd5b60011515600b60003373ffffffffffffffffffffffffffffffffffffffff1673ffffffffffffffffffffffffffffffffffffffff168152602001908152602001600020600083815260200190815260200160002060000160159054906101000a900460ff16151514610d51576040517f08c379a0000000000000000000000000000000000000000000000000000000008152600401610d4890613565565b60405180910390fd5b6000600c60008481526020019081526020016000206000015403610daa576040517f08c379a0000000000000000000000000000000000000000000000000000000008152600401610da190613744565b60405180910390fd5b60001515600a6000838152602001908152602001600020600084815260200190815260200160002060009054906101000a905050506000600c6000848152602001908152602001600020600001819055507fca76ad90a3be957c5d3fc0ec0f721a319b2c29b209f49eb447280d2f260f73cb8282604051610e2c929190613617565b60405180910390a15050565b610e5383838360405180602001604052806000815250611512565b505050565b610e60611dce565b60001515600d60008373ffffffffffffffffffffffffffffffffffffffff1673ffffffffffffffffffffffffffffffffffffffff16815260200190815260200160002060009054906101000a900460ff16151514610ef3576040517f08c379a0000000000000000000000000000000000000000000000000000000008152600401610eea906137d6565b60405180910390fd5b6001600d60008373ffffffffffffffffffffffffffffffffffffffff1673ffffffffffffffffffffffffffffffffffffffff16815260200190815260200160002060006101000a81548160ff0219169083151502179055507fa8667886741fb9a54880e58c88f4870675cf95d08029855acbc9a85190559ef381604051610f7a9190612c9f565b60405180910390a150565b600060011515600d60008573ffffffffffffffffffffffffffffffffffffffff1673ffffffffffffffffffffffffffffffffffffffff16815260200190815260200160002060009054906101000a900460ff1615151461101a576040517f08c379a000000000000000000000000000000000000000000000000000000000815260040161101190613868565b60405180910390fd5b6110246008611e4c565b60006110306008611e62565b905061103c8482611e70565b611046818461208d565b7f6161aebeea2cce41dfff1b41b6b6771b5979b525485f1429ee4c52be9a87bb48816040516110759190612feb565b60405180910390a18091505092915050565b60008061109383612101565b9050600073ffffffffffffffffffffffffffffffffffffffff168173ffffffffffffffffffffffffffffffffffffffff1603611104576040517f08c379a00000000000000000000000000000000000000000000000000000000081526004016110fb906138d4565b60405180910390fd5b80915050919050565b60008073ffffffffffffffffffffffffffffffffffffffff168273ffffffffffffffffffffffffffffffffffffffff160361117d576040517f08c379a000000000000000000000000000000000000000000000000000000000815260040161117490613966565b60405180910390fd5b600360008373ffffffffffffffffffffffffffffffffffffffff1673ffffffffffffffffffffffffffffffffffffffff168152602001908152602001600020549050919050565b6111cc611dce565b6111d6600061213e565b565b6000600760009054906101000a900473ffffffffffffffffffffffffffffffffffffffff16905090565b60606001805461121190613205565b80601f016020809104026020016040519081016040528092919081815260200182805461123d90613205565b801561128a5780601f1061125f5761010080835404028352916020019161128a565b820191906000526020600020905b81548152906001019060200180831161126d57829003601f168201915b5050505050905090565b6112a661129f61197f565b8383612204565b5050565b60011515600d60003373ffffffffffffffffffffffffffffffffffffffff1673ffffffffffffffffffffffffffffffffffffffff16815260200190815260200160002060009054906101000a900460ff1615151461133d576040517f08c379a0000000000000000000000000000000000000000000000000000000008152600401611334906133a6565b60405180910390fd5b60011515600b60003373ffffffffffffffffffffffffffffffffffffffff1673ffffffffffffffffffffffffffffffffffffffff168152602001908152602001600020600083815260200190815260200160002060000160159054906101000a900460ff161515146113e4576040517f08c379a00000000000000000000000000000000000000000000000000000000081526004016113db906139d2565b60405180910390fd5b6113ec612983565b80600b60003373ffffffffffffffffffffffffffffffffffffffff1673ffffffffffffffffffffffffffffffffffffffff168152602001908152602001600020600084815260200190815260200160002060008201518160000160006101000a81548173ffffffffffffffffffffffffffffffffffffffff021916908373ffffffffffffffffffffffffffffffffffffffff16021790555060208201518160000160146101000a81548160ff021916908360018111156114af576114ae613432565b5b021790555060408201518160000160156101000a81548160ff0219169083151502179055509050507f1832481a30dcb2a998b6333c25e6aed43a89a530c70599c032b10fda1a65c4f2826040516115069190612feb565b60405180910390a15050565b61152361151d61197f565b83611a40565b611562576040517f08c379a0000000000000000000000000000000000000000000000000000000008152600401611559906136b2565b60405180910390fd5b61156e84848484612370565b50505050565b606061157f82611934565b600060066000848152602001908152602001600020805461159f90613205565b80601f01602080910402602001604051908101604052809291908181526020018280546115cb90613205565b80156116185780601f106115ed57610100808354040283529160200191611618565b820191906000526020600020905b8154815290600101906020018083116115fb57829003601f168201915b5050505050905060006116296123cc565b9050600081510361163e578192505050611681565b60008251111561167357808260405160200161165b929190613a2e565b60405160208183030381529060405292505050611681565b61167c846123e3565b925050505b919050565b61168e611dce565b60011515600d60008373ffffffffffffffffffffffffffffffffffffffff1673ffffffffffffffffffffffffffffffffffffffff16815260200190815260200160002060009054906101000a900460ff16151514611721576040517f08c379a000000000000000000000000000000000000000000000000000000000815260040161171890613ac4565b60405180910390fd5b6000600d60008373ffffffffffffffffffffffffffffffffffffffff1673ffffffffffffffffffffffffffffffffffffffff16815260200190815260200160002060006101000a81548160ff0219169083151502179055507f48d067876ac7de8457b99bb8ab2a3fae5df7eb8b084116190bff4422f6bd2ab8816040516117a89190612c9f565b60405180910390a150565b6000600560008473ffffffffffffffffffffffffffffffffffffffff1673ffffffffffffffffffffffffffffffffffffffff16815260200190815260200160002060008373ffffffffffffffffffffffffffffffffffffffff1673ffffffffffffffffffffffffffffffffffffffff16815260200190815260200160002060009054906101000a900460ff16905092915050565b61184f611dce565b600073ffffffffffffffffffffffffffffffffffffffff168173ffffffffffffffffffffffffffffffffffffffff16036118be576040517f08c379a00000000000000000000000000000000000000000000000000000000081526004016118b590613b56565b60405180910390fd5b6118c78161213e565b50565b60007f01ffc9a7000000000000000000000000000000000000000000000000000000007bffffffffffffffffffffffffffffffffffffffffffffffffffffffff1916827bffffffffffffffffffffffffffffffffffffffffffffffffffffffff1916149050919050565b61193d8161244b565b61197c576040517f08c379a0000000000000000000000000000000000000000000000000000000008152600401611973906138d4565b60405180910390fd5b50565b600033905090565b816004600083815260200190815260200160002060006101000a81548173ffffffffffffffffffffffffffffffffffffffff021916908373ffffffffffffffffffffffffffffffffffffffff160217905550808273ffffffffffffffffffffffffffffffffffffffff166119fa83611087565b73ffffffffffffffffffffffffffffffffffffffff167f8c5be1e5ebec7d5bd14f71427d1e84f3dd0314c0f7b2291e5b200ac8c7c3b92560405160405180910390a45050565b600080611a4c83611087565b90508073ffffffffffffffffffffffffffffffffffffffff168473ffffffffffffffffffffffffffffffffffffffff161480611a8e5750611a8d81856117b3565b5b80611acc57508373ffffffffffffffffffffffffffffffffffffffff16611ab4846105ca565b73ffffffffffffffffffffffffffffffffffffffff16145b91505092915050565b8273ffffffffffffffffffffffffffffffffffffffff16611af582611087565b73ffffffffffffffffffffffffffffffffffffffff1614611b4b576040517f08c379a0000000000000000000000000000000000000000000000000000000008152600401611b4290613be8565b60405180910390fd5b600073ffffffffffffffffffffffffffffffffffffffff168273ffffffffffffffffffffffffffffffffffffffff1603611bba576040517f08c379a0000000000000000000000000000000000000000000000000000000008152600401611bb190613c7a565b60405180910390fd5b611bc7838383600161248c565b8273ffffffffffffffffffffffffffffffffffffffff16611be782611087565b73ffffffffffffffffffffffffffffffffffffffff1614611c3d576040517f08c379a0000000000000000000000000000000000000000000000000000000008152600401611c3490613be8565b60405180910390fd5b6004600082815260200190815260200160002060006101000a81549073ffffffffffffffffffffffffffffffffffffffff02191690556001600360008573ffffffffffffffffffffffffffffffffffffffff1673ffffffffffffffffffffffffffffffffffffffff168152602001908152602001600020600082825403925050819055506001600360008473ffffffffffffffffffffffffffffffffffffffff1673ffffffffffffffffffffffffffffffffffffffff16815260200190815260200160002060008282540192505081905550816002600083815260200190815260200160002060006101000a81548173ffffffffffffffffffffffffffffffffffffffff021916908373ffffffffffffffffffffffffffffffffffffffff160217905550808273ffffffffffffffffffffffffffffffffffffffff168473ffffffffffffffffffffffffffffffffffffffff167fddf252ad1be2c89b69c2b068fc378daa952ba7f163c4a11628f55a4df523b3ef60405160405180910390a4611dc983838360016125b2565b505050565b611dd661197f565b73ffffffffffffffffffffffffffffffffffffffff16611df46111d8565b73ffffffffffffffffffffffffffffffffffffffff1614611e4a576040517f08c379a0000000000000000000000000000000000000000000000000000000008152600401611e4190613ce6565b60405180910390fd5b565b6001816000016000828254019250508190555050565b600081600001549050919050565b600073ffffffffffffffffffffffffffffffffffffffff168273ffffffffffffffffffffffffffffffffffffffff1603611edf576040517f08c379a0000000000000000000000000000000000000000000000000000000008152600401611ed690613d52565b60405180910390fd5b611ee88161244b565b15611f28576040517f08c379a0000000000000000000000000000000000000000000000000000000008152600401611f1f90613dbe565b60405180910390fd5b611f3660008383600161248c565b611f3f8161244b565b15611f7f576040517f08c379a0000000000000000000000000000000000000000000000000000000008152600401611f7690613dbe565b60405180910390fd5b6001600360008473ffffffffffffffffffffffffffffffffffffffff1673ffffffffffffffffffffffffffffffffffffffff16815260200190815260200160002060008282540192505081905550816002600083815260200190815260200160002060006101000a81548173ffffffffffffffffffffffffffffffffffffffff021916908373ffffffffffffffffffffffffffffffffffffffff160217905550808273ffffffffffffffffffffffffffffffffffffffff16600073ffffffffffffffffffffffffffffffffffffffff167fddf252ad1be2c89b69c2b068fc378daa952ba7f163c4a11628f55a4df523b3ef60405160405180910390a46120896000838360016125b2565b5050565b6120968261244b565b6120d5576040517f08c379a00000000000000000000000000000000000000000000000000000000081526004016120cc90613e50565b60405180910390fd5b806006600084815260200190815260200160002090805190602001906120fc9291906129ce565b505050565b60006002600083815260200190815260200160002060009054906101000a900473ffffffffffffffffffffffffffffffffffffffff169050919050565b6000600760009054906101000a900473ffffffffffffffffffffffffffffffffffffffff16905081600760006101000a81548173ffffffffffffffffffffffffffffffffffffffff021916908373ffffffffffffffffffffffffffffffffffffffff1602179055508173ffffffffffffffffffffffffffffffffffffffff168173ffffffffffffffffffffffffffffffffffffffff167f8be0079c531659141344cd1fd0a4f28419497f9722a3daafe3b4186f6b6457e060405160405180910390a35050565b8173ffffffffffffffffffffffffffffffffffffffff168373ffffffffffffffffffffffffffffffffffffffff1603612272576040517f08c379a000000000000000000000000000000000000000000000000000000000815260040161226990613ebc565b60405180910390fd5b80600560008573ffffffffffffffffffffffffffffffffffffffff1673ffffffffffffffffffffffffffffffffffffffff16815260200190815260200160002060008473ffffffffffffffffffffffffffffffffffffffff1673ffffffffffffffffffffffffffffffffffffffff16815260200190815260200160002060006101000a81548160ff0219169083151502179055508173ffffffffffffffffffffffffffffffffffffffff168373ffffffffffffffffffffffffffffffffffffffff167f17307eab39ab6107e8899845ad3d59bd9653f200f220920489ca2b5937696c31836040516123639190612b25565b60405180910390a3505050565b61237b848484611ad5565b612387848484846125b8565b6123c6576040517f08c379a00000000000000000000000000000000000000000000000000000000081526004016123bd90613f4e565b60405180910390fd5b50505050565b606060405180602001604052806000815250905090565b60606123ee82611934565b60006123f86123cc565b905060008151116124185760405180602001604052806000815250612443565b806124228461273f565b604051602001612433929190613a2e565b6040516020818303038152906040525b915050919050565b60008073ffffffffffffffffffffffffffffffffffffffff1661246d83612101565b73ffffffffffffffffffffffffffffffffffffffff1614159050919050565b60018111156125ac57600073ffffffffffffffffffffffffffffffffffffffff168473ffffffffffffffffffffffffffffffffffffffff16146125205780600360008673ffffffffffffffffffffffffffffffffffffffff1673ffffffffffffffffffffffffffffffffffffffff16815260200190815260200160002060008282546125189190613f9d565b925050819055505b600073ffffffffffffffffffffffffffffffffffffffff168373ffffffffffffffffffffffffffffffffffffffff16146125ab5780600360008573ffffffffffffffffffffffffffffffffffffffff1673ffffffffffffffffffffffffffffffffffffffff16815260200190815260200160002060008282546125a39190613fd1565b925050819055505b5b50505050565b50505050565b60006125d98473ffffffffffffffffffffffffffffffffffffffff1661280d565b15612732578373ffffffffffffffffffffffffffffffffffffffff1663150b7a0261260261197f565b8786866040518563ffffffff1660e01b8152600401612624949392919061407c565b6020604051808303816000875af192505050801561266057506040513d601f19601f8201168201806040525081019061265d91906140dd565b60015b6126e2573d8060008114612690576040519150601f19603f3d011682016040523d82523d6000602084013e612695565b606091505b5060008151036126da576040517f08c379a00000000000000000000000000000000000000000000000000000000081526004016126d190613f4e565b60405180910390fd5b805181602001fd5b63150b7a0260e01b7bffffffffffffffffffffffffffffffffffffffffffffffffffffffff1916817bffffffffffffffffffffffffffffffffffffffffffffffffffffffff191614915050612737565b600190505b949350505050565b60606000600161274e84612830565b01905060008167ffffffffffffffff81111561276d5761276c612e55565b5b6040519080825280601f01601f19166020018201604052801561279f5781602001600182028036833780820191505090505b509050600082602001820190505b600115612802578080600190039150507f3031323334353637383961626364656600000000000000000000000000000000600a86061a8153600a85816127f6576127f561410a565b5b049450600085036127ad575b819350505050919050565b6000808273ffffffffffffffffffffffffffffffffffffffff163b119050919050565b600080600090507a184f03e93ff9f4daa797ed6e38ed64bf6a1f010000000000000000831061288e577a184f03e93ff9f4daa797ed6e38ed64bf6a1f01000000000000000083816128845761288361410a565b5b0492506040810190505b6d04ee2d6d415b85acef810000000083106128cb576d04ee2d6d415b85acef810000000083816128c1576128c061410a565b5b0492506020810190505b662386f26fc1000083106128fa57662386f26fc1000083816128f0576128ef61410a565b5b0492506010810190505b6305f5e1008310612923576305f5e10083816129195761291861410a565b5b0492506008810190505b612710831061294857612710838161293e5761293d61410a565b5b0492506004810190505b6064831061296b57606483816129615761296061410a565b5b0492506002810190505b600a831061297a576001810190505b80915050919050565b6040518060600160405280600073ffffffffffffffffffffffffffffffffffffffff168152602001600060018111156129bf576129be613432565b5b81526020016000151581525090565b8280546129da90613205565b90600052602060002090601f0160209004810192826129fc5760008555612a43565b82601f10612a1557805160ff1916838001178555612a43565b82800160010185558215612a43579182015b82811115612a42578251825591602001919060010190612a27565b5b509050612a509190612a54565b5090565b5b80821115612a6d576000816000905550600101612a55565b5090565b6000604051905090565b600080fd5b600080fd5b60007fffffffff0000000000000000000000000000000000000000000000000000000082169050919050565b612aba81612a85565b8114612ac557600080fd5b50565b600081359050612ad781612ab1565b92915050565b600060208284031215612af357612af2612a7b565b5b6000612b0184828501612ac8565b91505092915050565b60008115159050919050565b612b1f81612b0a565b82525050565b6000602082019050612b3a6000830184612b16565b92915050565b600081519050919050565b600082825260208201905092915050565b60005b83811015612b7a578082015181840152602081019050612b5f565b83811115612b89576000848401525b50505050565b6000601f19601f8301169050919050565b6000612bab82612b40565b612bb58185612b4b565b9350612bc5818560208601612b5c565b612bce81612b8f565b840191505092915050565b60006020820190508181036000830152612bf38184612ba0565b905092915050565b6000819050919050565b612c0e81612bfb565b8114612c1957600080fd5b50565b600081359050612c2b81612c05565b92915050565b600060208284031215612c4757612c46612a7b565b5b6000612c5584828501612c1c565b91505092915050565b600073ffffffffffffffffffffffffffffffffffffffff82169050919050565b6000612c8982612c5e565b9050919050565b612c9981612c7e565b82525050565b6000602082019050612cb46000830184612c90565b92915050565b612cc381612c7e565b8114612cce57600080fd5b50565b600081359050612ce081612cba565b92915050565b60008060408385031215612cfd57612cfc612a7b565b5b6000612d0b85828601612cd1565b9250506020612d1c85828601612c1c565b9150509250929050565b60028110612d3357600080fd5b50565b600081359050612d4581612d26565b92915050565b60008060408385031215612d6257612d61612a7b565b5b6000612d7085828601612c1c565b9250506020612d8185828601612d36565b9150509250929050565b60008060408385031215612da257612da1612a7b565b5b6000612db085828601612c1c565b9250506020612dc185828601612c1c565b9150509250929050565b600080600060608486031215612de457612de3612a7b565b5b6000612df286828701612cd1565b9350506020612e0386828701612cd1565b9250506040612e1486828701612c1c565b9150509250925092565b600060208284031215612e3457612e33612a7b565b5b6000612e4284828501612cd1565b91505092915050565b600080fd5b600080fd5b7f4e487b7100000000000000000000000000000000000000000000000000000000600052604160045260246000fd5b612e8d82612b8f565b810181811067ffffffffffffffff82111715612eac57612eab612e55565b5b80604052505050565b6000612ebf612a71565b9050612ecb8282612e84565b919050565b600067ffffffffffffffff821115612eeb57612eea612e55565b5b612ef482612b8f565b9050602081019050919050565b82818337600083830152505050565b6000612f23612f1e84612ed0565b612eb5565b905082815260208101848484011115612f3f57612f3e612e50565b5b612f4a848285612f01565b509392505050565b600082601f830112612f6757612f66612e4b565b5b8135612f77848260208601612f10565b91505092915050565b60008060408385031215612f9757612f96612a7b565b5b6000612fa585828601612cd1565b925050602083013567ffffffffffffffff811115612fc657612fc5612a80565b5b612fd285828601612f52565b9150509250929050565b612fe581612bfb565b82525050565b60006020820190506130006000830184612fdc565b92915050565b61300f81612b0a565b811461301a57600080fd5b50565b60008135905061302c81613006565b92915050565b6000806040838503121561304957613048612a7b565b5b600061305785828601612cd1565b92505060206130688582860161301d565b9150509250929050565b600067ffffffffffffffff82111561308d5761308c612e55565b5b61309682612b8f565b9050602081019050919050565b60006130b66130b184613072565b612eb5565b9050828152602081018484840111156130d2576130d1612e50565b5b6130dd848285612f01565b509392505050565b600082601f8301126130fa576130f9612e4b565b5b813561310a8482602086016130a3565b91505092915050565b6000806000806080858703121561312d5761312c612a7b565b5b600061313b87828801612cd1565b945050602061314c87828801612cd1565b935050604061315d87828801612c1c565b925050606085013567ffffffffffffffff81111561317e5761317d612a80565b5b61318a878288016130e5565b91505092959194509250565b600080604083850312156131ad576131ac612a7b565b5b60006131bb85828601612cd1565b92505060206131cc85828601612cd1565b9150509250929050565b7f4e487b7100000000000000000000000000000000000000000000000000000000600052602260045260246000fd5b6000600282049050600182168061321d57607f821691505b6020821081036132305761322f6131d6565b5b50919050565b7f4552433732313a20617070726f76616c20746f2063757272656e74206f776e6560008201527f7200000000000000000000000000000000000000000000000000000000000000602082015250565b6000613292602183612b4b565b915061329d82613236565b604082019050919050565b600060208201905081810360008301526132c181613285565b9050919050565b7f4552433732313a20617070726f76652063616c6c6572206973206e6f7420746f60008201527f6b656e206f776e6572206f7220617070726f76656420666f7220616c6c000000602082015250565b6000613324603d83612b4b565b915061332f826132c8565b604082019050919050565b6000602082019050818103600083015261335381613317565b9050919050565b7f596f7520617265206e6f7420612070726f64756365722e000000000000000000600082015250565b6000613390601783612b4b565b915061339b8261335a565b602082019050919050565b600060208201905081810360008301526133bf81613383565b9050919050565b7f596f7520616c7265616479206861766520746869732065717569706d656e742e600082015250565b60006133fc602083612b4b565b9150613407826133c6565b602082019050919050565b6000602082019050818103600083015261342b816133ef565b9050919050565b7f4e487b7100000000000000000000000000000000000000000000000000000000600052602160045260246000fd5b7f596f7520646f206e6f7420706f7373657373207468697320636f6d706f6e656e60008201527f742e000000000000000000000000000000000000000000000000000000000000602082015250565b60006134bd602283612b4b565b91506134c882613461565b604082019050919050565b600060208201905081810360008301526134ec816134b0565b9050919050565b7f596f7520646f206e6f7420706f737365737320746869732065717569706d656e60008201527f742e000000000000000000000000000000000000000000000000000000000000602082015250565b600061354f602283612b4b565b915061355a826134f3565b604082019050919050565b6000602082019050818103600083015261357e81613542565b9050919050565b7f5468697320636f6d706f6e656e7420697320616c726561647920696e7374616c60008201527f6c6564206f6e20616e2065717569706d656e742e000000000000000000000000602082015250565b60006135e1603483612b4b565b91506135ec82613585565b604082019050919050565b60006020820190508181036000830152613610816135d4565b9050919050565b600060408201905061362c6000830185612fdc565b6136396020830184612fdc565b9392505050565b7f4552433732313a2063616c6c6572206973206e6f7420746f6b656e206f776e6560008201527f72206f7220617070726f76656400000000000000000000000000000000000000602082015250565b600061369c602d83612b4b565b91506136a782613640565b604082019050919050565b600060208201905081810360008301526136cb8161368f565b9050919050565b7f5468697320636f6d706f6e656e74206973206e6f7420696e7374616c6c65642060008201527f6f6e20616e2065717569706d656e742e00000000000000000000000000000000602082015250565b600061372e603083612b4b565b9150613739826136d2565b604082019050919050565b6000602082019050818103600083015261375d81613721565b9050919050565b7f54686973206164647265737320697320616c726561647920726567697374657260008201527f65642061732061204e46542043726561746f722e000000000000000000000000602082015250565b60006137c0603483612b4b565b91506137cb82613764565b604082019050919050565b600060208201905081810360008301526137ef816137b3565b9050919050565b7f596f7520617265206e6f7420726567697374657265642061732061204e46542060008201527f43726561746f722e000000000000000000000000000000000000000000000000602082015250565b6000613852602883612b4b565b915061385d826137f6565b604082019050919050565b6000602082019050818103600083015261388181613845565b9050919050565b7f4552433732313a20696e76616c696420746f6b656e2049440000000000000000600082015250565b60006138be601883612b4b565b91506138c982613888565b602082019050919050565b600060208201905081810360008301526138ed816138b1565b9050919050565b7f4552433732313a2061646472657373207a65726f206973206e6f74206120766160008201527f6c6964206f776e65720000000000000000000000000000000000000000000000602082015250565b6000613950602983612b4b565b915061395b826138f4565b604082019050919050565b6000602082019050818103600083015261397f81613943565b9050919050565b7f596f7520646f6e2774206861766520746869732065717569706d656e742e0000600082015250565b60006139bc601e83612b4b565b91506139c782613986565b602082019050919050565b600060208201905081810360008301526139eb816139af565b9050919050565b600081905092915050565b6000613a0882612b40565b613a1281856139f2565b9350613a22818560208601612b5c565b80840191505092915050565b6000613a3a82856139fd565b9150613a4682846139fd565b91508190509392505050565b7f546869732061646472657373206973206e6f742072656769737465726564206160008201527f732061204e46542043726561746f722e00000000000000000000000000000000602082015250565b6000613aae603083612b4b565b9150613ab982613a52565b604082019050919050565b60006020820190508181036000830152613add81613aa1565b9050919050565b7f4f776e61626c653a206e6577206f776e657220697320746865207a65726f206160008201527f6464726573730000000000000000000000000000000000000000000000000000602082015250565b6000613b40602683612b4b565b9150613b4b82613ae4565b604082019050919050565b60006020820190508181036000830152613b6f81613b33565b9050919050565b7f4552433732313a207472616e736665722066726f6d20696e636f72726563742060008201527f6f776e6572000000000000000000000000000000000000000000000000000000602082015250565b6000613bd2602583612b4b565b9150613bdd82613b76565b604082019050919050565b60006020820190508181036000830152613c0181613bc5565b9050919050565b7f4552433732313a207472616e7366657220746f20746865207a65726f2061646460008201527f7265737300000000000000000000000000000000000000000000000000000000602082015250565b6000613c64602483612b4b565b9150613c6f82613c08565b604082019050919050565b60006020820190508181036000830152613c9381613c57565b9050919050565b7f4f776e61626c653a2063616c6c6572206973206e6f7420746865206f776e6572600082015250565b6000613cd0602083612b4b565b9150613cdb82613c9a565b602082019050919050565b60006020820190508181036000830152613cff81613cc3565b9050919050565b7f4552433732313a206d696e7420746f20746865207a65726f2061646472657373600082015250565b6000613d3c602083612b4b565b9150613d4782613d06565b602082019050919050565b60006020820190508181036000830152613d6b81613d2f565b9050919050565b7f4552433732313a20746f6b656e20616c7265616479206d696e74656400000000600082015250565b6000613da8601c83612b4b565b9150613db382613d72565b602082019050919050565b60006020820190508181036000830152613dd781613d9b565b9050919050565b7f45524337323155524953746f726167653a2055524920736574206f66206e6f6e60008201527f6578697374656e7420746f6b656e000000000000000000000000000000000000602082015250565b6000613e3a602e83612b4b565b9150613e4582613dde565b604082019050919050565b60006020820190508181036000830152613e6981613e2d565b9050919050565b7f4552433732313a20617070726f766520746f2063616c6c657200000000000000600082015250565b6000613ea6601983612b4b565b9150613eb182613e70565b602082019050919050565b60006020820190508181036000830152613ed581613e99565b9050919050565b7f4552433732313a207472616e7366657220746f206e6f6e20455243373231526560008201527f63656976657220696d706c656d656e7465720000000000000000000000000000602082015250565b6000613f38603283612b4b565b9150613f4382613edc565b604082019050919050565b60006020820190508181036000830152613f6781613f2b565b9050919050565b7f4e487b7100000000000000000000000000000000000000000000000000000000600052601160045260246000fd5b6000613fa882612bfb565b9150613fb383612bfb565b925082821015613fc657613fc5613f6e565b5b828203905092915050565b6000613fdc82612bfb565b9150613fe783612bfb565b9250827fffffffffffffffffffffffffffffffffffffffffffffffffffffffffffffffff0382111561401c5761401b613f6e565b5b828201905092915050565b600081519050919050565b600082825260208201905092915050565b600061404e82614027565b6140588185614032565b9350614068818560208601612b5c565b61407181612b8f565b840191505092915050565b60006080820190506140916000830187612c90565b61409e6020830186612c90565b6140ab6040830185612fdc565b81810360608301526140bd8184614043565b905095945050505050565b6000815190506140d781612ab1565b92915050565b6000602082840312156140f3576140f2612a7b565b5b6000614101848285016140c8565b91505092915050565b7f4e487b7100000000000000000000000000000000000000000000000000000000600052601260045260246000fdfea2646970667358221220f57cf2b0bd28f6532f456c0b381d3be7b2835dde0404d8e1574943027b4324ba64736f6c634300080d0033",
  "immutableReferences": {},
  "source": "// SPDX-License-Identifier: MIT\npragma solidity 0.8.13;\n\nimport \"../node_modules/@openzeppelin/contracts/access/Ownable.sol\";\nimport \"../node_modules/@openzeppelin/contracts/token/ERC721/extensions/ERC721URIStorage.sol\";\nimport \"../node_modules/@openzeppelin/contracts/utils/Counters.sol\";\n\ncontract CycleChain is ERC721URIStorage, Ownable  {\n  using Counters for Counters.Counter;\n  Counters.Counter private _tokenIds;\n\n  enum EquipmentType {GRUE, TRACTEUR}\n  EquipmentType equipmentType;\n\n  struct Equipment {\n    address producer;\n    EquipmentType equipmentType;\n    bool isValue;\n  }\n\n  // Equipment's ID => NFT's ID => is installed\n  mapping (uint => mapping (uint => bool)) componentsInstalled;\n\n  // Equipment's Owner => Equipment's ID => Equipment\n  mapping (address => mapping (uint => Equipment)) equipments;\n\n  struct Component {\n    uint equipmentId;\n    bool isValue;\n  }\n\n  // NFT's ID => Component\n  mapping (uint => Component) components;\n\n  // Address => is registered as a producer\n  mapping (address => bool) producers;\n\n  // List of events\n  event ComponentCreated(uint componentId);\n  event NFTCreatorRegistered(address creator);\n  event NFTCreatorRemoved(address creator);\n  event NftInstalledOnEquipment(uint _NFTid, uint _equipmentId);\n  event NftRemovedFromEquipment(uint _NFTid, uint _equipmentId);\n  event EquipmentCreated(uint _equipmentId);\n  event EquipmentDeleted(uint _equipmentId);\n\n  constructor() ERC721(\"Component\", \"CC\") {}\n\n  /// @notice Check if the msg.sender is an equipment producer\n  modifier onlyProducers() {\n      require(producers[msg.sender] == true, \"You are not a producer.\");\n      _;\n  }\n\n  /// @notice Create one component (NFT)\n  /// @param _producer Address of the entity creating the NFT\n  /// @return uint NFT's ID\n  function createComponent(address _producer, string memory _tokenURI)\n    public\n    returns (uint256)\n  {\n    require(producers[_producer] == true, \"You are not registered as a NFT Creator.\");\n\n    _tokenIds.increment();\n\n    uint256 newItemId = _tokenIds.current();\n    _mint(_producer, newItemId);\n    _setTokenURI(newItemId, _tokenURI);\n\n    emit ComponentCreated(newItemId);\n\n    return newItemId;\n  }\n\n  /// @notice Register a new NFT creator\n  /// @param _producer Address of the entity that will be allowed to create a NFT\n  function registerNFTCreator(address _producer) external onlyOwner {\n    require(producers[_producer] == false, \"This address is already registered as a NFT Creator.\");\n\n    producers[_producer] = true;\n    emit NFTCreatorRegistered(_producer);\n  }\n\n  /// @notice Remove a NFT creator\n  /// @param _producer Address of the entity that will be fordidden to create a NFT\n  function removeNFTCreator(address _producer) external onlyOwner {\n    require(producers[_producer] == true, \"This address is not registered as a NFT Creator.\");\n\n    producers[_producer] = false;\n    emit NFTCreatorRemoved(_producer);\n  }\n\n  /// @notice Install a NFT on an equipment\n  /// @param _NFTid NFT's ID\n  /// @param _equipmentId NFT's ID\n  function installNftOnEquipment(uint _NFTid, uint _equipmentId) external {\n    require(ownerOf(_NFTid) == msg.sender, \"You do not possess this component.\");\n    require(equipments[msg.sender][_equipmentId].isValue == true, \"You do not possess this equipment.\");\n    require(components[_NFTid].equipmentId == 0, \"This component is already installed on an equipment.\");\n\n    componentsInstalled[_equipmentId][_NFTid] == true;\n    components[_NFTid].equipmentId = _equipmentId;\n\n    emit NftInstalledOnEquipment(_NFTid, _equipmentId);\n  }\n\n  /// @notice Remove a NFT from an equipment\n  /// @param _NFTid NFT's ID\n  /// @param _equipmentId NFT's ID\n  function removeNftFromEquipment(uint _NFTid, uint _equipmentId) external {\n    require(ownerOf(_NFTid) == msg.sender, \"You do not possess this component.\");\n    require(equipments[msg.sender][_equipmentId].isValue == true, \"You do not possess this equipment.\");\n    require(components[_NFTid].equipmentId != 0, \"This component is not installed on an equipment.\");\n\n    componentsInstalled[_equipmentId][_NFTid] == false;\n    components[_NFTid].equipmentId = 0;\n\n    emit NftRemovedFromEquipment(_NFTid, _equipmentId);\n  }\n\n  /// @notice Create an equipment\n  /// @param _equipmentId Equipment's ID\n  function createEquipment(uint _equipmentId, EquipmentType _equipmentType) external onlyProducers {\n    require(equipments[msg.sender][_equipmentId].isValue == false, \"You already have this equipment.\");\n\n    Equipment memory equipment;\n    equipment.equipmentType = _equipmentType;\n    equipment.isValue = true;\n\n    equipments[msg.sender][_equipmentId] = equipment;\n    emit EquipmentCreated(_equipmentId);\n  }\n\n  /// @notice Delete an equipment\n  /// @param _equipmentId Equipment's ID\n  function deleteEquipment(uint _equipmentId) external onlyProducers {\n    require(equipments[msg.sender][_equipmentId].isValue == true, \"You don't have this equipment.\");\n\n    Equipment memory equipment;\n    equipments[msg.sender][_equipmentId] = equipment;\n    emit EquipmentDeleted(_equipmentId);\n  }\n}\n",
  "sourcePath": "/Users/thomasdouche/Documents/ProjetsPerso/Dev/Alyra/cycle-chain/Cycle-Chain/truffle/contracts/CycleChain.sol",
  "compiler": {
    "name": "solc",
    "version": "0.8.13+commit.abaa5c0e.Emscripten.clang"
  },
  "schemaVersion": "3.4.10",
  "updatedAt": "2022-12-05T13:19:15.898Z",
  "networkType": "ethereum",
  "devdoc": {
    "kind": "dev",
    "methods": {
      "approve(address,uint256)": {
        "details": "See {IERC721-approve}."
      },
      "balanceOf(address)": {
        "details": "See {IERC721-balanceOf}."
      },
      "createComponent(address,string)": {
        "params": {
          "_producer": "Address of the entity creating the NFT"
        },
        "returns": {
          "_0": "uint NFT's ID"
        }
      },
      "createEquipment(uint256,uint8)": {
        "params": {
          "_equipmentId": "Equipment's ID"
        }
      },
      "deleteEquipment(uint256)": {
        "params": {
          "_equipmentId": "Equipment's ID"
        }
      },
      "getApproved(uint256)": {
        "details": "See {IERC721-getApproved}."
      },
      "installNftOnEquipment(uint256,uint256)": {
        "params": {
          "_NFTid": "NFT's ID",
          "_equipmentId": "NFT's ID"
        }
      },
      "isApprovedForAll(address,address)": {
        "details": "See {IERC721-isApprovedForAll}."
      },
      "name()": {
        "details": "See {IERC721Metadata-name}."
      },
      "owner()": {
        "details": "Returns the address of the current owner."
      },
      "ownerOf(uint256)": {
        "details": "See {IERC721-ownerOf}."
      },
      "registerNFTCreator(address)": {
        "params": {
          "_producer": "Address of the entity that will be allowed to create a NFT"
        }
      },
      "removeNFTCreator(address)": {
        "params": {
          "_producer": "Address of the entity that will be fordidden to create a NFT"
        }
      },
      "removeNftFromEquipment(uint256,uint256)": {
        "params": {
          "_NFTid": "NFT's ID",
          "_equipmentId": "NFT's ID"
        }
      },
      "renounceOwnership()": {
        "details": "Leaves the contract without owner. It will not be possible to call `onlyOwner` functions anymore. Can only be called by the current owner. NOTE: Renouncing ownership will leave the contract without an owner, thereby removing any functionality that is only available to the owner."
      },
      "safeTransferFrom(address,address,uint256)": {
        "details": "See {IERC721-safeTransferFrom}."
      },
      "safeTransferFrom(address,address,uint256,bytes)": {
        "details": "See {IERC721-safeTransferFrom}."
      },
      "setApprovalForAll(address,bool)": {
        "details": "See {IERC721-setApprovalForAll}."
      },
      "supportsInterface(bytes4)": {
        "details": "See {IERC165-supportsInterface}."
      },
      "symbol()": {
        "details": "See {IERC721Metadata-symbol}."
      },
      "tokenURI(uint256)": {
        "details": "See {IERC721Metadata-tokenURI}."
      },
      "transferFrom(address,address,uint256)": {
        "details": "See {IERC721-transferFrom}."
      },
      "transferOwnership(address)": {
        "details": "Transfers ownership of the contract to a new account (`newOwner`). Can only be called by the current owner."
      }
    },
    "version": 1
  },
  "userdoc": {
    "kind": "user",
    "methods": {
      "createComponent(address,string)": {
        "notice": "Create one component (NFT)"
      },
      "createEquipment(uint256,uint8)": {
        "notice": "Create an equipment"
      },
      "deleteEquipment(uint256)": {
        "notice": "Delete an equipment"
      },
      "installNftOnEquipment(uint256,uint256)": {
        "notice": "Install a NFT on an equipment"
      },
      "registerNFTCreator(address)": {
        "notice": "Register a new NFT creator"
      },
      "removeNFTCreator(address)": {
        "notice": "Remove a NFT creator"
      },
      "removeNftFromEquipment(uint256,uint256)": {
        "notice": "Remove a NFT from an equipment"
      }
    },
    "version": 1
  }
}