{
  "contractName": "CycleChain",
  "abi": [
    {
      "inputs": [],
      "stateMutability": "nonpayable",
      "type": "constructor"
    },
    {
      "anonymous": false,
      "inputs": [
        {
          "indexed": true,
          "internalType": "address",
          "name": "owner",
          "type": "address"
        },
        {
          "indexed": true,
          "internalType": "address",
          "name": "approved",
          "type": "address"
        },
        {
          "indexed": true,
          "internalType": "uint256",
          "name": "tokenId",
          "type": "uint256"
        }
      ],
      "name": "Approval",
      "type": "event"
    },
    {
      "anonymous": false,
      "inputs": [
        {
          "indexed": true,
          "internalType": "address",
          "name": "owner",
          "type": "address"
        },
        {
          "indexed": true,
          "internalType": "address",
          "name": "operator",
          "type": "address"
        },
        {
          "indexed": false,
          "internalType": "bool",
          "name": "approved",
          "type": "bool"
        }
      ],
      "name": "ApprovalForAll",
      "type": "event"
    },
    {
      "anonymous": false,
      "inputs": [
        {
          "indexed": false,
          "internalType": "string",
          "name": "equipmentId",
          "type": "string"
        }
      ],
      "name": "EquipmentCreated",
      "type": "event"
    },
    {
      "anonymous": false,
      "inputs": [
        {
          "indexed": false,
          "internalType": "address",
          "name": "_address",
          "type": "address"
        }
      ],
      "name": "EquipmentManufacturerRegistered",
      "type": "event"
    },
    {
      "anonymous": false,
      "inputs": [
        {
          "indexed": false,
          "internalType": "address",
          "name": "_address",
          "type": "address"
        }
      ],
      "name": "EquipmentManufacturerRemoved",
      "type": "event"
    },
    {
      "anonymous": false,
      "inputs": [
        {
          "indexed": true,
          "internalType": "address",
          "name": "previousOwner",
          "type": "address"
        },
        {
          "indexed": true,
          "internalType": "address",
          "name": "newOwner",
          "type": "address"
        }
      ],
      "name": "OwnershipTransferred",
      "type": "event"
    },
    {
      "anonymous": false,
      "inputs": [
        {
          "indexed": false,
          "internalType": "uint256",
          "name": "NftId",
          "type": "uint256"
        }
      ],
      "name": "PartCreated",
      "type": "event"
    },
    {
      "anonymous": false,
      "inputs": [
        {
          "indexed": false,
          "internalType": "uint256",
          "name": "_partId",
          "type": "uint256"
        },
        {
          "indexed": false,
          "internalType": "string",
          "name": "_equipmentSerialNumber",
          "type": "string"
        }
      ],
      "name": "PartInstalledOnEquipment",
      "type": "event"
    },
    {
      "anonymous": false,
      "inputs": [
        {
          "indexed": false,
          "internalType": "uint256",
          "name": "partId",
          "type": "uint256"
        },
        {
          "indexed": false,
          "internalType": "uint256",
          "name": "equipmentId",
          "type": "uint256"
        }
      ],
      "name": "PartRemovedFromEquipment",
      "type": "event"
    },
    {
      "anonymous": false,
      "inputs": [
        {
          "indexed": true,
          "internalType": "address",
          "name": "from",
          "type": "address"
        },
        {
          "indexed": true,
          "internalType": "address",
          "name": "to",
          "type": "address"
        },
        {
          "indexed": true,
          "internalType": "uint256",
          "name": "tokenId",
          "type": "uint256"
        }
      ],
      "name": "Transfer",
      "type": "event"
    },
    {
      "anonymous": false,
      "inputs": [
        {
          "indexed": false,
          "internalType": "uint256",
          "name": "partId",
          "type": "uint256"
        }
      ],
      "name": "partDelisted",
      "type": "event"
    },
    {
      "anonymous": false,
      "inputs": [
        {
          "indexed": false,
          "internalType": "uint256",
          "name": "partId",
          "type": "uint256"
        },
        {
          "indexed": false,
          "internalType": "uint256",
          "name": "price",
          "type": "uint256"
        }
      ],
      "name": "partListed",
      "type": "event"
    },
    {
      "inputs": [],
      "name": "_tokenIds",
      "outputs": [
        {
          "internalType": "uint256",
          "name": "_value",
          "type": "uint256"
        }
      ],
      "stateMutability": "view",
      "type": "function",
      "constant": true
    },
    {
      "inputs": [
        {
          "internalType": "address",
          "name": "to",
          "type": "address"
        },
        {
          "internalType": "uint256",
          "name": "tokenId",
          "type": "uint256"
        }
      ],
      "name": "approve",
      "outputs": [],
      "stateMutability": "nonpayable",
      "type": "function"
    },
    {
      "inputs": [
        {
          "internalType": "address",
          "name": "owner",
          "type": "address"
        }
      ],
      "name": "balanceOf",
      "outputs": [
        {
          "internalType": "uint256",
          "name": "",
          "type": "uint256"
        }
      ],
      "stateMutability": "view",
      "type": "function",
      "constant": true
    },
    {
      "inputs": [
        {
          "internalType": "address",
          "name": "",
          "type": "address"
        }
      ],
      "name": "equipmentManufacturers",
      "outputs": [
        {
          "internalType": "bool",
          "name": "",
          "type": "bool"
        }
      ],
      "stateMutability": "view",
      "type": "function",
      "constant": true
    },
    {
      "inputs": [
        {
          "internalType": "uint256",
          "name": "tokenId",
          "type": "uint256"
        }
      ],
      "name": "getApproved",
      "outputs": [
        {
          "internalType": "address",
          "name": "",
          "type": "address"
        }
      ],
      "stateMutability": "view",
      "type": "function",
      "constant": true
    },
    {
      "inputs": [
        {
          "internalType": "address",
          "name": "owner",
          "type": "address"
        },
        {
          "internalType": "address",
          "name": "operator",
          "type": "address"
        }
      ],
      "name": "isApprovedForAll",
      "outputs": [
        {
          "internalType": "bool",
          "name": "",
          "type": "bool"
        }
      ],
      "stateMutability": "view",
      "type": "function",
      "constant": true
    },
    {
      "inputs": [],
      "name": "name",
      "outputs": [
        {
          "internalType": "string",
          "name": "",
          "type": "string"
        }
      ],
      "stateMutability": "view",
      "type": "function",
      "constant": true
    },
    {
      "inputs": [],
      "name": "owner",
      "outputs": [
        {
          "internalType": "address",
          "name": "",
          "type": "address"
        }
      ],
      "stateMutability": "view",
      "type": "function",
      "constant": true
    },
    {
      "inputs": [
        {
          "internalType": "uint256",
          "name": "tokenId",
          "type": "uint256"
        }
      ],
      "name": "ownerOf",
      "outputs": [
        {
          "internalType": "address",
          "name": "",
          "type": "address"
        }
      ],
      "stateMutability": "view",
      "type": "function",
      "constant": true
    },
    {
      "inputs": [
        {
          "internalType": "uint256",
          "name": "",
          "type": "uint256"
        }
      ],
      "name": "parts",
      "outputs": [
        {
          "internalType": "bool",
          "name": "isListed",
          "type": "bool"
        },
        {
          "internalType": "uint256",
          "name": "listedPrice",
          "type": "uint256"
        }
      ],
      "stateMutability": "view",
      "type": "function",
      "constant": true
    },
    {
      "inputs": [],
      "name": "renounceOwnership",
      "outputs": [],
      "stateMutability": "nonpayable",
      "type": "function"
    },
    {
      "inputs": [
        {
          "internalType": "address",
          "name": "from",
          "type": "address"
        },
        {
          "internalType": "address",
          "name": "to",
          "type": "address"
        },
        {
          "internalType": "uint256",
          "name": "tokenId",
          "type": "uint256"
        }
      ],
      "name": "safeTransferFrom",
      "outputs": [],
      "stateMutability": "nonpayable",
      "type": "function"
    },
    {
      "inputs": [
        {
          "internalType": "address",
          "name": "from",
          "type": "address"
        },
        {
          "internalType": "address",
          "name": "to",
          "type": "address"
        },
        {
          "internalType": "uint256",
          "name": "tokenId",
          "type": "uint256"
        },
        {
          "internalType": "bytes",
          "name": "data",
          "type": "bytes"
        }
      ],
      "name": "safeTransferFrom",
      "outputs": [],
      "stateMutability": "nonpayable",
      "type": "function"
    },
    {
      "inputs": [
        {
          "internalType": "address",
          "name": "operator",
          "type": "address"
        },
        {
          "internalType": "bool",
          "name": "approved",
          "type": "bool"
        }
      ],
      "name": "setApprovalForAll",
      "outputs": [],
      "stateMutability": "nonpayable",
      "type": "function"
    },
    {
      "inputs": [
        {
          "internalType": "bytes4",
          "name": "interfaceId",
          "type": "bytes4"
        }
      ],
      "name": "supportsInterface",
      "outputs": [
        {
          "internalType": "bool",
          "name": "",
          "type": "bool"
        }
      ],
      "stateMutability": "view",
      "type": "function",
      "constant": true
    },
    {
      "inputs": [],
      "name": "symbol",
      "outputs": [
        {
          "internalType": "string",
          "name": "",
          "type": "string"
        }
      ],
      "stateMutability": "view",
      "type": "function",
      "constant": true
    },
    {
      "inputs": [
        {
          "internalType": "uint256",
          "name": "tokenId",
          "type": "uint256"
        }
      ],
      "name": "tokenURI",
      "outputs": [
        {
          "internalType": "string",
          "name": "",
          "type": "string"
        }
      ],
      "stateMutability": "view",
      "type": "function",
      "constant": true
    },
    {
      "inputs": [
        {
          "internalType": "address",
          "name": "from",
          "type": "address"
        },
        {
          "internalType": "address",
          "name": "to",
          "type": "address"
        },
        {
          "internalType": "uint256",
          "name": "tokenId",
          "type": "uint256"
        }
      ],
      "name": "transferFrom",
      "outputs": [],
      "stateMutability": "nonpayable",
      "type": "function"
    },
    {
      "inputs": [
        {
          "internalType": "address",
          "name": "newOwner",
          "type": "address"
        }
      ],
      "name": "transferOwnership",
      "outputs": [],
      "stateMutability": "nonpayable",
      "type": "function"
    },
    {
      "inputs": [
        {
          "internalType": "string",
          "name": "_serialNumber",
          "type": "string"
        }
      ],
      "name": "getOneEquipment",
      "outputs": [
        {
          "components": [
            {
              "internalType": "string",
              "name": "serialNumber",
              "type": "string"
            },
            {
              "internalType": "string",
              "name": "category",
              "type": "string"
            },
            {
              "internalType": "address",
              "name": "manufacturer",
              "type": "address"
            },
            {
              "internalType": "address",
              "name": "owner",
              "type": "address"
            },
            {
              "internalType": "string",
              "name": "model",
              "type": "string"
            },
            {
              "internalType": "bool",
              "name": "isValue",
              "type": "bool"
            }
          ],
          "internalType": "struct CycleChain.Equipment",
          "name": "",
          "type": "tuple"
        }
      ],
      "stateMutability": "view",
      "type": "function",
      "constant": true
    },
    {
      "inputs": [
        {
          "internalType": "string",
          "name": "_serialNumber",
          "type": "string"
        }
      ],
      "name": "getOneAssembly",
      "outputs": [
        {
          "components": [
            {
              "internalType": "string",
              "name": "equipmentSerialNumber",
              "type": "string"
            },
            {
              "internalType": "uint256[]",
              "name": "partsIds",
              "type": "uint256[]"
            }
          ],
          "internalType": "struct CycleChain.Assembly",
          "name": "",
          "type": "tuple"
        }
      ],
      "stateMutability": "view",
      "type": "function",
      "constant": true
    },
    {
      "inputs": [],
      "name": "getAllEquipments",
      "outputs": [
        {
          "components": [
            {
              "internalType": "string",
              "name": "serialNumber",
              "type": "string"
            },
            {
              "internalType": "string",
              "name": "category",
              "type": "string"
            },
            {
              "internalType": "address",
              "name": "manufacturer",
              "type": "address"
            },
            {
              "internalType": "address",
              "name": "owner",
              "type": "address"
            },
            {
              "internalType": "string",
              "name": "model",
              "type": "string"
            },
            {
              "internalType": "bool",
              "name": "isValue",
              "type": "bool"
            }
          ],
          "internalType": "struct CycleChain.Equipment[]",
          "name": "",
          "type": "tuple[]"
        }
      ],
      "stateMutability": "view",
      "type": "function",
      "constant": true
    },
    {
      "inputs": [],
      "name": "getAllAssemblies",
      "outputs": [
        {
          "components": [
            {
              "internalType": "string",
              "name": "equipmentSerialNumber",
              "type": "string"
            },
            {
              "internalType": "uint256[]",
              "name": "partsIds",
              "type": "uint256[]"
            }
          ],
          "internalType": "struct CycleChain.Assembly[]",
          "name": "",
          "type": "tuple[]"
        }
      ],
      "stateMutability": "view",
      "type": "function",
      "constant": true
    },
    {
      "inputs": [
        {
          "internalType": "address",
          "name": "_producer",
          "type": "address"
        }
      ],
      "name": "registerEquipmentManufacturer",
      "outputs": [],
      "stateMutability": "nonpayable",
      "type": "function"
    },
    {
      "inputs": [
        {
          "internalType": "address",
          "name": "_producer",
          "type": "address"
        }
      ],
      "name": "removeEquipmentManufacturer",
      "outputs": [],
      "stateMutability": "nonpayable",
      "type": "function"
    },
    {
      "inputs": [
        {
          "internalType": "string",
          "name": "_serialNumber",
          "type": "string"
        },
        {
          "internalType": "string",
          "name": "_category",
          "type": "string"
        },
        {
          "internalType": "address",
          "name": "_owner",
          "type": "address"
        },
        {
          "internalType": "string",
          "name": "_model",
          "type": "string"
        }
      ],
      "name": "createEquipment",
      "outputs": [],
      "stateMutability": "nonpayable",
      "type": "function"
    },
    {
      "inputs": [
        {
          "internalType": "string",
          "name": "_equipmentSerialNumber",
          "type": "string"
        },
        {
          "internalType": "uint256",
          "name": "_partId",
          "type": "uint256"
        }
      ],
      "name": "addPartToAssembly",
      "outputs": [],
      "stateMutability": "nonpayable",
      "type": "function"
    },
    {
      "inputs": [
        {
          "internalType": "address",
          "name": "_forManufacturer",
          "type": "address"
        },
        {
          "internalType": "string",
          "name": "_partURI",
          "type": "string"
        }
      ],
      "name": "createPart",
      "outputs": [
        {
          "internalType": "uint256",
          "name": "",
          "type": "uint256"
        }
      ],
      "stateMutability": "nonpayable",
      "type": "function"
    },
    {
      "inputs": [
        {
          "internalType": "uint256",
          "name": "_nftId",
          "type": "uint256"
        },
        {
          "internalType": "uint256",
          "name": "_price",
          "type": "uint256"
        }
      ],
      "name": "listPart",
      "outputs": [],
      "stateMutability": "nonpayable",
      "type": "function"
    },
    {
      "inputs": [
        {
          "internalType": "uint256",
          "name": "_nftId",
          "type": "uint256"
        }
      ],
      "name": "delistPart",
      "outputs": [],
      "stateMutability": "nonpayable",
      "type": "function"
    },
    {
      "inputs": [
        {
          "internalType": "uint256",
          "name": "_nftId",
          "type": "uint256"
        },
        {
          "internalType": "uint256",
          "name": "_price",
          "type": "uint256"
        }
      ],
      "name": "updateListingPrice",
      "outputs": [],
      "stateMutability": "nonpayable",
      "type": "function"
    },
    {
      "inputs": [
        {
          "internalType": "uint256",
          "name": "_nftId",
          "type": "uint256"
        }
      ],
      "name": "marketBuyPart",
      "outputs": [],
      "stateMutability": "payable",
      "type": "function",
      "payable": true
    }
  ],
  "bytecode": "0x60806040523480156200001157600080fd5b506040518060400160405280600481526020017f50617274000000000000000000000000000000000000000000000000000000008152506040518060400160405280600281526020017f434300000000000000000000000000000000000000000000000000000000000081525081600090805190602001906200009692919062000980565b508060019080519060200190620000af92919062000980565b505050620000d2620000c6620005e560201b60201c565b620005ed60201b60201c565b620000dc62000a11565b600981908060018154018082558091505060019003906000526020600020906002020160009091909190915060008201518160000160006101000a81548160ff021916908315150217905550602082015181600101555050620001fb6040518060400160405280600381526020017f54443100000000000000000000000000000000000000000000000000000000008152506040518060400160405280600481526020017f4772756500000000000000000000000000000000000000000000000000000000815250730aa9547ee37e6b9064f9fb95cd2e8864dc6d35696040518060400160405280600981526020017f4d4f44454c5f3132330000000000000000000000000000000000000000000000815250620006b360201b60201c565b620002c26040518060400160405280600381526020017f54443200000000000000000000000000000000000000000000000000000000008152506040518060400160405280600481526020017f4772756500000000000000000000000000000000000000000000000000000000815250730aa9547ee37e6b9064f9fb95cd2e8864dc6d35696040518060400160405280600981526020017f4d4f44454c5f3132330000000000000000000000000000000000000000000000815250620006b360201b60201c565b620003896040518060400160405280600381526020017f54443300000000000000000000000000000000000000000000000000000000008152506040518060400160405280600a81526020017f50656c6c65746575736500000000000000000000000000000000000000000000815250730aa9547ee37e6b9064f9fb95cd2e8864dc6d35696040518060400160405280600981526020017f4d4f44454c5f3132330000000000000000000000000000000000000000000000815250620006b360201b60201c565b620004506040518060400160405280600381526020017f4a503100000000000000000000000000000000000000000000000000000000008152506040518060400160405280600481526020017f4772756500000000000000000000000000000000000000000000000000000000815250731e3cdc405728560eebc4ab093d9c461b36e28aa36040518060400160405280600981526020017f4d4f44454c5f3132330000000000000000000000000000000000000000000000815250620006b360201b60201c565b620005176040518060400160405280600381526020017f4a503200000000000000000000000000000000000000000000000000000000008152506040518060400160405280600a81526020017f50656c6c65746575736500000000000000000000000000000000000000000000815250731e3cdc405728560eebc4ab093d9c461b36e28aa36040518060400160405280600981526020017f4d4f44454c5f3132330000000000000000000000000000000000000000000000815250620006b360201b60201c565b620005de6040518060400160405280600381526020017f4a503300000000000000000000000000000000000000000000000000000000008152506040518060400160405280600a81526020017f50656c6c65746575736500000000000000000000000000000000000000000000815250731e3cdc405728560eebc4ab093d9c461b36e28aa36040518060400160405280600981526020017f4d4f44454c5f3132330000000000000000000000000000000000000000000000815250620006b360201b60201c565b5062000ca9565b600033905090565b6000600760009054906101000a900473ffffffffffffffffffffffffffffffffffffffff16905081600760006101000a81548173ffffffffffffffffffffffffffffffffffffffff021916908373ffffffffffffffffffffffffffffffffffffffff1602179055508173ffffffffffffffffffffffffffffffffffffffff168173ffffffffffffffffffffffffffffffffffffffff167f8be0079c531659141344cd1fd0a4f28419497f9722a3daafe3b4186f6b6457e060405160405180910390a35050565b60001515600a85604051620006c9919062000b33565b908152602001604051809103902060050160009054906101000a900460ff161515146200072d576040517f08c379a0000000000000000000000000000000000000000000000000000000008152600401620007249062000bad565b60405180910390fd5b6200073762000a2d565b84816000018190525083816020018190525033816040019073ffffffffffffffffffffffffffffffffffffffff16908173ffffffffffffffffffffffffffffffffffffffff168152505082816060019073ffffffffffffffffffffffffffffffffffffffff16908173ffffffffffffffffffffffffffffffffffffffff168152505081816080018190525060018160a001901515908115158152505080600a86604051620007e6919062000b33565b908152602001604051809103902060008201518160000190805190602001906200081292919062000980565b5060208201518160010190805190602001906200083192919062000980565b5060408201518160020160006101000a81548173ffffffffffffffffffffffffffffffffffffffff021916908373ffffffffffffffffffffffffffffffffffffffff16021790555060608201518160030160006101000a81548173ffffffffffffffffffffffffffffffffffffffff021916908373ffffffffffffffffffffffffffffffffffffffff1602179055506080820151816004019080519060200190620008de92919062000980565b5060a08201518160050160006101000a81548160ff021916908315150217905550905050600b859080600181540180825580915050600190039060005260206000200160009091909190915090805190602001906200093f92919062000980565b507f0330abb18afb046aa53f3236d1093acb79782997597401dda81f7934c7d91f2a8560405162000971919062000c21565b60405180910390a15050505050565b8280546200098e9062000c74565b90600052602060002090601f016020900481019282620009b25760008555620009fe565b82601f10620009cd57805160ff1916838001178555620009fe565b82800160010185558215620009fe579182015b82811115620009fd578251825591602001919060010190620009e0565b5b50905062000a0d919062000a91565b5090565b6040518060400160405280600015158152602001600081525090565b6040518060c001604052806060815260200160608152602001600073ffffffffffffffffffffffffffffffffffffffff168152602001600073ffffffffffffffffffffffffffffffffffffffff168152602001606081526020016000151581525090565b5b8082111562000aac57600081600090555060010162000a92565b5090565b600081519050919050565b600081905092915050565b60005b8381101562000ae657808201518184015260208101905062000ac9565b8381111562000af6576000848401525b50505050565b600062000b098262000ab0565b62000b15818562000abb565b935062000b2781856020860162000ac6565b80840191505092915050565b600062000b41828462000afc565b915081905092915050565b600082825260208201905092915050565b7f546869732065717569706d656e7420616c7265616479206578697374732e0000600082015250565b600062000b95601e8362000b4c565b915062000ba28262000b5d565b602082019050919050565b6000602082019050818103600083015262000bc88162000b86565b9050919050565b6000601f19601f8301169050919050565b600062000bed8262000ab0565b62000bf9818562000b4c565b935062000c0b81856020860162000ac6565b62000c168162000bcf565b840191505092915050565b6000602082019050818103600083015262000c3d818462000be0565b905092915050565b7f4e487b7100000000000000000000000000000000000000000000000000000000600052602260045260246000fd5b6000600282049050600182168062000c8d57607f821691505b60208210810362000ca35762000ca262000c45565b5b50919050565b615e368062000cb96000396000f3fe6080604052600436106101e35760003560e01c806395d89b4111610102578063c9eb466211610095578063d8a89c4e11610064578063d8a89c4e14610706578063ddbf332e1461072f578063e985e9c51461076c578063f2fde38b146107a9576101e3565b8063c9eb466214610658578063d0ad0f4f14610696578063d2685825146106bf578063d48eee29146106ea576101e3565b8063b88d4fde116100d1578063b88d4fde1461058c578063c4604943146105b5578063c7352663146105de578063c87b56dd1461061b576101e3565b806395d89b41146104e4578063a22cb4651461050f578063aa46a40014610538578063b04cdee314610563576101e3565b806342842e0e1161017a57806370e871321161014957806370e8713214610450578063715018a6146104795780638da5cb5b1461049057806392a66f35146104bb576101e3565b806342842e0e1461037057806353219acc146103995780636352211e146103d657806370a0823114610413576101e3565b8063095ea7b3116101b6578063095ea7b3146102b85780631ae01fb2146102e157806323b872dd1461031e5780632a18a57c14610347576101e3565b806301ffc9a7146101e857806304dd15f91461022557806306fdde0314610250578063081812fc1461027b575b600080fd5b3480156101f457600080fd5b5061020f600480360381019061020a9190613e0e565b6107d2565b60405161021c9190613e56565b60405180910390f35b34801561023157600080fd5b5061023a6108b4565b60405161024791906140d8565b60405180910390f35b34801561025c57600080fd5b50610265610a8d565b6040516102729190614144565b60405180910390f35b34801561028757600080fd5b506102a2600480360381019061029d9190614192565b610b1f565b6040516102af9190614200565b60405180910390f35b3480156102c457600080fd5b506102df60048036038101906102da9190614247565b610b65565b005b3480156102ed57600080fd5b50610308600480360381019061030391906143bc565b610c7c565b6040516103159190614427565b60405180910390f35b34801561032a57600080fd5b5061034560048036038101906103409190614442565b610e4e565b005b34801561035357600080fd5b5061036e60048036038101906103699190614495565b610eae565b005b34801561037c57600080fd5b5061039760048036038101906103929190614442565b611168565b005b3480156103a557600080fd5b506103c060048036038101906103bb9190614550565b611188565b6040516103cd919061464e565b60405180910390f35b3480156103e257600080fd5b506103fd60048036038101906103f89190614192565b611449565b60405161040a9190614200565b60405180910390f35b34801561041f57600080fd5b5061043a60048036038101906104359190614670565b6114cf565b6040516104479190614427565b60405180910390f35b34801561045c57600080fd5b5061047760048036038101906104729190614192565b611586565b005b34801561048557600080fd5b5061048e611789565b005b34801561049c57600080fd5b506104a561179d565b6040516104b29190614200565b60405180910390f35b3480156104c757600080fd5b506104e260048036038101906104dd919061469d565b6117c7565b005b3480156104f057600080fd5b506104f9611a11565b6040516105069190614144565b60405180910390f35b34801561051b57600080fd5b5061053660048036038101906105319190614725565b611aa3565b005b34801561054457600080fd5b5061054d611ab9565b60405161055a9190614427565b60405180910390f35b34801561056f57600080fd5b5061058a60048036038101906105859190614670565b611ac5565b005b34801561059857600080fd5b506105b360048036038101906105ae9190614806565b611bf2565b005b3480156105c157600080fd5b506105dc60048036038101906105d79190614889565b611c54565b005b3480156105ea57600080fd5b5061060560048036038101906106009190614550565b611e1b565b604051610612919061490d565b60405180910390f35b34801561062757600080fd5b50610642600480360381019061063d9190614192565b611f49565b60405161064f9190614144565b60405180910390f35b34801561066457600080fd5b5061067f600480360381019061067a9190614192565b61205b565b60405161068d92919061492f565b60405180910390f35b3480156106a257600080fd5b506106bd60048036038101906106b89190614670565b61209c565b005b3480156106cb57600080fd5b506106d46121c9565b6040516106e19190614ab1565b60405180910390f35b61070460048036038101906106ff9190614192565b612535565b005b34801561071257600080fd5b5061072d60048036038101906107289190614889565b6127cf565b005b34801561073b57600080fd5b5061075660048036038101906107519190614670565b6129d4565b6040516107639190613e56565b60405180910390f35b34801561077857600080fd5b50610793600480360381019061078e9190614ad3565b6129f4565b6040516107a09190613e56565b60405180910390f35b3480156107b557600080fd5b506107d060048036038101906107cb9190614670565b612a88565b005b60007f80ac58cd000000000000000000000000000000000000000000000000000000007bffffffffffffffffffffffffffffffffffffffffffffffffffffffff1916827bffffffffffffffffffffffffffffffffffffffffffffffffffffffff1916148061089d57507f5b5e139f000000000000000000000000000000000000000000000000000000007bffffffffffffffffffffffffffffffffffffffffffffffffffffffff1916827bffffffffffffffffffffffffffffffffffffffffffffffffffffffff1916145b806108ad57506108ac82612b0b565b5b9050919050565b60606000600b80549050905060008167ffffffffffffffff8111156108dc576108db614291565b5b60405190808252806020026020018201604052801561091557816020015b610902613c65565b8152602001906001900390816108fa5790505b50905060005b82811015610a8457600c600b828154811061093957610938614b13565b5b906000526020600020016040516109509190614c41565b908152602001604051809103902060405180604001604052908160008201805461097990614b71565b80601f01602080910402602001604051908101604052809291908181526020018280546109a590614b71565b80156109f25780601f106109c7576101008083540402835291602001916109f2565b820191906000526020600020905b8154815290600101906020018083116109d557829003601f168201915b5050505050815260200160018201805480602002602001604051908101604052809291908181526020018280548015610a4a57602002820191906000526020600020905b815481526020019060010190808311610a36575b505050505081525050828281518110610a6657610a65614b13565b5b60200260200101819052508080610a7c90614c87565b91505061091b565b50809250505090565b606060008054610a9c90614b71565b80601f0160208091040260200160405190810160405280929190818152602001828054610ac890614b71565b8015610b155780601f10610aea57610100808354040283529160200191610b15565b820191906000526020600020905b815481529060010190602001808311610af857829003601f168201915b5050505050905090565b6000610b2a82612b75565b6004600083815260200190815260200160002060009054906101000a900473ffffffffffffffffffffffffffffffffffffffff169050919050565b6000610b7082611449565b90508073ffffffffffffffffffffffffffffffffffffffff168373ffffffffffffffffffffffffffffffffffffffff1603610be0576040517f08c379a0000000000000000000000000000000000000000000000000000000008152600401610bd790614d41565b60405180910390fd5b8073ffffffffffffffffffffffffffffffffffffffff16610bff612bc0565b73ffffffffffffffffffffffffffffffffffffffff161480610c2e5750610c2d81610c28612bc0565b6129f4565b5b610c6d576040517f08c379a0000000000000000000000000000000000000000000000000000000008152600401610c6490614dd3565b60405180910390fd5b610c778383612bc8565b505050565b600060011515600d60003373ffffffffffffffffffffffffffffffffffffffff1673ffffffffffffffffffffffffffffffffffffffff16815260200190815260200160002060009054906101000a900460ff16151514610d11576040517f08c379a0000000000000000000000000000000000000000000000000000000008152600401610d0890614e65565b60405180910390fd5b600073ffffffffffffffffffffffffffffffffffffffff168373ffffffffffffffffffffffffffffffffffffffff1603610d80576040517f08c379a0000000000000000000000000000000000000000000000000000000008152600401610d7790614ef7565b60405180910390fd5b610d8a6008612c81565b6000610d966008612c97565b9050610da28482612ca5565b610dac8184612ec2565b610db4613c7f565b600981908060018154018082558091505060019003906000526020600020906002020160009091909190915060008201518160000160006101000a81548160ff0219169083151502179055506020820151816001015550507fbeb6ef1e252bba53ccc7403a1dbbfed2526fd6136f583a36b73c4adb67331b8a82604051610e3b9190614427565b60405180910390a1819250505092915050565b610e5f610e59612bc0565b82612f36565b610e9e576040517f08c379a0000000000000000000000000000000000000000000000000000000008152600401610e9590614f89565b60405180910390fd5b610ea9838383612fcb565b505050565b60001515600a85604051610ec29190614fda565b908152602001604051809103902060050160009054906101000a900460ff16151514610f23576040517f08c379a0000000000000000000000000000000000000000000000000000000008152600401610f1a9061503d565b60405180910390fd5b610f2b613c9b565b84816000018190525083816020018190525033816040019073ffffffffffffffffffffffffffffffffffffffff16908173ffffffffffffffffffffffffffffffffffffffff168152505082816060019073ffffffffffffffffffffffffffffffffffffffff16908173ffffffffffffffffffffffffffffffffffffffff168152505081816080018190525060018160a001901515908115158152505080600a86604051610fd89190614fda565b90815260200160405180910390206000820151816000019080519060200190611002929190613cff565b50602082015181600101908051906020019061101f929190613cff565b5060408201518160020160006101000a81548173ffffffffffffffffffffffffffffffffffffffff021916908373ffffffffffffffffffffffffffffffffffffffff16021790555060608201518160030160006101000a81548173ffffffffffffffffffffffffffffffffffffffff021916908373ffffffffffffffffffffffffffffffffffffffff16021790555060808201518160040190805190602001906110ca929190613cff565b5060a08201518160050160006101000a81548160ff021916908315150217905550905050600b85908060018154018082558091505060019003906000526020600020016000909190919091509080519060200190611129929190613cff565b507f0330abb18afb046aa53f3236d1093acb79782997597401dda81f7934c7d91f2a856040516111599190614144565b60405180910390a15050505050565b61118383838360405180602001604052806000815250611bf2565b505050565b611190613c9b565b611198613c9b565b600a836040516111a89190614fda565b90815260200160405180910390206040518060c00160405290816000820180546111d190614b71565b80601f01602080910402602001604051908101604052809291908181526020018280546111fd90614b71565b801561124a5780601f1061121f5761010080835404028352916020019161124a565b820191906000526020600020905b81548152906001019060200180831161122d57829003601f168201915b5050505050815260200160018201805461126390614b71565b80601f016020809104026020016040519081016040528092919081815260200182805461128f90614b71565b80156112dc5780601f106112b1576101008083540402835291602001916112dc565b820191906000526020600020905b8154815290600101906020018083116112bf57829003601f168201915b505050505081526020016002820160009054906101000a900473ffffffffffffffffffffffffffffffffffffffff1673ffffffffffffffffffffffffffffffffffffffff1673ffffffffffffffffffffffffffffffffffffffff1681526020016003820160009054906101000a900473ffffffffffffffffffffffffffffffffffffffff1673ffffffffffffffffffffffffffffffffffffffff1673ffffffffffffffffffffffffffffffffffffffff1681526020016004820180546113a190614b71565b80601f01602080910402602001604051908101604052809291908181526020018280546113cd90614b71565b801561141a5780601f106113ef5761010080835404028352916020019161141a565b820191906000526020600020905b8154815290600101906020018083116113fd57829003601f168201915b505050505081526020016005820160009054906101000a900460ff161515151581525050905080915050919050565b600080611455836132c4565b9050600073ffffffffffffffffffffffffffffffffffffffff168173ffffffffffffffffffffffffffffffffffffffff16036114c6576040517f08c379a00000000000000000000000000000000000000000000000000000000081526004016114bd906150a9565b60405180910390fd5b80915050919050565b60008073ffffffffffffffffffffffffffffffffffffffff168273ffffffffffffffffffffffffffffffffffffffff160361153f576040517f08c379a00000000000000000000000000000000000000000000000000000000081526004016115369061513b565b60405180910390fd5b600360008373ffffffffffffffffffffffffffffffffffffffff1673ffffffffffffffffffffffffffffffffffffffff168152602001908152602001600020549050919050565b3073ffffffffffffffffffffffffffffffffffffffff16636352211e826040518263ffffffff1660e01b81526004016115bf9190614427565b602060405180830381865afa1580156115dc573d6000803e3d6000fd5b505050506040513d601f19601f820116820180604052508101906116009190615170565b73ffffffffffffffffffffffffffffffffffffffff163373ffffffffffffffffffffffffffffffffffffffff161461166d576040517f08c379a0000000000000000000000000000000000000000000000000000000008152600401611664906151e9565b60405180910390fd5b600115156009828154811061168557611684614b13565b5b906000526020600020906002020160000160009054906101000a900460ff161515146116e6576040517f08c379a00000000000000000000000000000000000000000000000000000000081526004016116dd90615255565b60405180910390fd5b6000600982815481106116fc576116fb614b13565b5b906000526020600020906002020160000160006101000a81548160ff02191690831515021790555060006009828154811061173a57611739614b13565b5b9060005260206000209060020201600101819055507f37b601bebae61c1dfbe5247b3812e25d3e4e8aac92c9c428eb320d5af035f5ab8160405161177e9190614427565b60405180910390a150565b611791613301565b61179b600061337f565b565b6000600760009054906101000a900473ffffffffffffffffffffffffffffffffffffffff16905090565b3373ffffffffffffffffffffffffffffffffffffffff166117e782611449565b73ffffffffffffffffffffffffffffffffffffffff161461183d576040517f08c379a0000000000000000000000000000000000000000000000000000000008152600401611834906152c1565b60405180910390fd5b60011515600a836040516118519190614fda565b908152602001604051809103902060050160009054906101000a900460ff161515146118b2576040517f08c379a00000000000000000000000000000000000000000000000000000000081526004016118a99061532d565b60405180910390fd5b8060016009805490506118c5919061534d565b1015611906576040517f08c379a00000000000000000000000000000000000000000000000000000000081526004016118fd906153cd565b60405180910390fd5b600015156119148383613445565b151514611956576040517f08c379a000000000000000000000000000000000000000000000000000000000815260040161194d9061545f565b60405180910390fd5b81600c836040516119679190614fda565b9081526020016040518091039020600001908051906020019061198b929190613cff565b50600c8260405161199c9190614fda565b90815260200160405180910390206001018190806001815401808255809150506001900390600052602060002001600090919091909150557fbb4d6b6abd8902cd59f14245efed628ddc53a2aa6a9be614a034ef8b5cd0cd428183604051611a0592919061547f565b60405180910390a15050565b606060018054611a2090614b71565b80601f0160208091040260200160405190810160405280929190818152602001828054611a4c90614b71565b8015611a995780601f10611a6e57610100808354040283529160200191611a99565b820191906000526020600020905b815481529060010190602001808311611a7c57829003601f168201915b5050505050905090565b611ab5611aae612bc0565b83836134e6565b5050565b60088060000154905081565b611acd613301565b60011515600d60008373ffffffffffffffffffffffffffffffffffffffff1673ffffffffffffffffffffffffffffffffffffffff16815260200190815260200160002060009054906101000a900460ff16151514611b60576040517f08c379a0000000000000000000000000000000000000000000000000000000008152600401611b5790615521565b60405180910390fd5b6000600d60008373ffffffffffffffffffffffffffffffffffffffff1673ffffffffffffffffffffffffffffffffffffffff16815260200190815260200160002060006101000a81548160ff0219169083151502179055507f92c90891f30af5540345fc8c8ec18f723490f6c19874f507d125a186a9e8164881604051611be79190614200565b60405180910390a150565b611c03611bfd612bc0565b83612f36565b611c42576040517f08c379a0000000000000000000000000000000000000000000000000000000008152600401611c3990614f89565b60405180910390fd5b611c4e84848484613652565b50505050565b3073ffffffffffffffffffffffffffffffffffffffff16636352211e836040518263ffffffff1660e01b8152600401611c8d9190614427565b602060405180830381865afa158015611caa573d6000803e3d6000fd5b505050506040513d601f19601f82011682018060405250810190611cce9190615170565b73ffffffffffffffffffffffffffffffffffffffff163373ffffffffffffffffffffffffffffffffffffffff1614611d3b576040517f08c379a0000000000000000000000000000000000000000000000000000000008152600401611d32906151e9565b60405180910390fd5b6001151560098381548110611d5357611d52614b13565b5b906000526020600020906002020160000160009054906101000a900460ff16151514611db4576040517f08c379a0000000000000000000000000000000000000000000000000000000008152600401611dab90615255565b60405180910390fd5b8060098381548110611dc957611dc8614b13565b5b9060005260206000209060020201600101819055507f6ef7f5c0328392c4b3ccca1774f1aecaaa818eb7b2087a2f41b359b7afbf36f48282604051611e0f929190615541565b60405180910390a15050565b611e23613c65565b611e2b613c65565b600c83604051611e3b9190614fda565b9081526020016040518091039020604051806040016040529081600082018054611e6490614b71565b80601f0160208091040260200160405190810160405280929190818152602001828054611e9090614b71565b8015611edd5780601f10611eb257610100808354040283529160200191611edd565b820191906000526020600020905b815481529060010190602001808311611ec057829003601f168201915b5050505050815260200160018201805480602002602001604051908101604052809291908181526020018280548015611f3557602002820191906000526020600020905b815481526020019060010190808311611f21575b505050505081525050905080915050919050565b6060611f5482612b75565b6000600660008481526020019081526020016000208054611f7490614b71565b80601f0160208091040260200160405190810160405280929190818152602001828054611fa090614b71565b8015611fed5780601f10611fc257610100808354040283529160200191611fed565b820191906000526020600020905b815481529060010190602001808311611fd057829003601f168201915b505050505090506000611ffe6136ae565b90506000815103612013578192505050612056565b60008251111561204857808260405160200161203092919061556a565b60405160208183030381529060405292505050612056565b612051846136c5565b925050505b919050565b6009818154811061206b57600080fd5b90600052602060002090600202016000915090508060000160009054906101000a900460ff16908060010154905082565b6120a4613301565b60001515600d60008373ffffffffffffffffffffffffffffffffffffffff1673ffffffffffffffffffffffffffffffffffffffff16815260200190815260200160002060009054906101000a900460ff16151514612137576040517f08c379a000000000000000000000000000000000000000000000000000000000815260040161212e90615600565b60405180910390fd5b6001600d60008373ffffffffffffffffffffffffffffffffffffffff1673ffffffffffffffffffffffffffffffffffffffff16815260200190815260200160002060006101000a81548160ff0219169083151502179055507f621e8a3c5020fa65b50660c1e3322f1148d06a55036ec15bec3b55422c1afad4816040516121be9190614200565b60405180910390a150565b60606000600b80549050905060008167ffffffffffffffff8111156121f1576121f0614291565b5b60405190808252806020026020018201604052801561222a57816020015b612217613c9b565b81526020019060019003908161220f5790505b50905060005b8281101561252c57600a600b828154811061224e5761224d614b13565b5b906000526020600020016040516122659190614c41565b90815260200160405180910390206040518060c001604052908160008201805461228e90614b71565b80601f01602080910402602001604051908101604052809291908181526020018280546122ba90614b71565b80156123075780601f106122dc57610100808354040283529160200191612307565b820191906000526020600020905b8154815290600101906020018083116122ea57829003601f168201915b5050505050815260200160018201805461232090614b71565b80601f016020809104026020016040519081016040528092919081815260200182805461234c90614b71565b80156123995780601f1061236e57610100808354040283529160200191612399565b820191906000526020600020905b81548152906001019060200180831161237c57829003601f168201915b505050505081526020016002820160009054906101000a900473ffffffffffffffffffffffffffffffffffffffff1673ffffffffffffffffffffffffffffffffffffffff1673ffffffffffffffffffffffffffffffffffffffff1681526020016003820160009054906101000a900473ffffffffffffffffffffffffffffffffffffffff1673ffffffffffffffffffffffffffffffffffffffff1673ffffffffffffffffffffffffffffffffffffffff16815260200160048201805461245e90614b71565b80601f016020809104026020016040519081016040528092919081815260200182805461248a90614b71565b80156124d75780601f106124ac576101008083540402835291602001916124d7565b820191906000526020600020905b8154815290600101906020018083116124ba57829003601f168201915b505050505081526020016005820160009054906101000a900460ff16151515158152505082828151811061250e5761250d614b13565b5b6020026020010181905250808061252490614c87565b915050612230565b50809250505090565b6000670de0b6b3a76400006009838154811061255457612553614b13565b5b9060005260206000209060020201600101546125709190615620565b9050600115156009838154811061258a57612589614b13565b5b906000526020600020906002020160000160009054906101000a900460ff161515146125eb576040517f08c379a00000000000000000000000000000000000000000000000000000000081526004016125e290615255565b60405180910390fd5b80341461262d576040517f08c379a0000000000000000000000000000000000000000000000000000000008152600401612624906156ec565b60405180910390fd5b60003073ffffffffffffffffffffffffffffffffffffffff16636352211e846040518263ffffffff1660e01b81526004016126689190614427565b602060405180830381865afa158015612685573d6000803e3d6000fd5b505050506040513d601f19601f820116820180604052508101906126a99190615170565b90503073ffffffffffffffffffffffffffffffffffffffff166342842e0e8233866040518463ffffffff1660e01b81526004016126e89392919061576b565b600060405180830381600087803b15801561270257600080fd5b505af1158015612716573d6000803e3d6000fd5b505050508073ffffffffffffffffffffffffffffffffffffffff166108fc839081150290604051600060405180830381858888f19350505050158015612760573d6000803e3d6000fd5b5060006009848154811061277757612776614b13565b5b906000526020600020906002020160000160006101000a81548160ff0219169083151502179055506000600984815481106127b5576127b4614b13565b5b906000526020600020906002020160010181905550505050565b3073ffffffffffffffffffffffffffffffffffffffff16636352211e836040518263ffffffff1660e01b81526004016128089190614427565b602060405180830381865afa158015612825573d6000803e3d6000fd5b505050506040513d601f19601f820116820180604052508101906128499190615170565b73ffffffffffffffffffffffffffffffffffffffff163373ffffffffffffffffffffffffffffffffffffffff16146128b6576040517f08c379a00000000000000000000000000000000000000000000000000000000081526004016128ad906151e9565b60405180910390fd5b60001515600983815481106128ce576128cd614b13565b5b906000526020600020906002020160000160009054906101000a900460ff1615151461292f576040517f08c379a0000000000000000000000000000000000000000000000000000000008152600401612926906157ee565b60405180910390fd5b60016009838154811061294557612944614b13565b5b906000526020600020906002020160000160006101000a81548160ff021916908315150217905550806009838154811061298257612981614b13565b5b9060005260206000209060020201600101819055507f6ef7f5c0328392c4b3ccca1774f1aecaaa818eb7b2087a2f41b359b7afbf36f482826040516129c8929190615541565b60405180910390a15050565b600d6020528060005260406000206000915054906101000a900460ff1681565b6000600560008473ffffffffffffffffffffffffffffffffffffffff1673ffffffffffffffffffffffffffffffffffffffff16815260200190815260200160002060008373ffffffffffffffffffffffffffffffffffffffff1673ffffffffffffffffffffffffffffffffffffffff16815260200190815260200160002060009054906101000a900460ff16905092915050565b612a90613301565b600073ffffffffffffffffffffffffffffffffffffffff168173ffffffffffffffffffffffffffffffffffffffff1603612aff576040517f08c379a0000000000000000000000000000000000000000000000000000000008152600401612af690615880565b60405180910390fd5b612b088161337f565b50565b60007f01ffc9a7000000000000000000000000000000000000000000000000000000007bffffffffffffffffffffffffffffffffffffffffffffffffffffffff1916827bffffffffffffffffffffffffffffffffffffffffffffffffffffffff1916149050919050565b612b7e8161372d565b612bbd576040517f08c379a0000000000000000000000000000000000000000000000000000000008152600401612bb4906150a9565b60405180910390fd5b50565b600033905090565b816004600083815260200190815260200160002060006101000a81548173ffffffffffffffffffffffffffffffffffffffff021916908373ffffffffffffffffffffffffffffffffffffffff160217905550808273ffffffffffffffffffffffffffffffffffffffff16612c3b83611449565b73ffffffffffffffffffffffffffffffffffffffff167f8c5be1e5ebec7d5bd14f71427d1e84f3dd0314c0f7b2291e5b200ac8c7c3b92560405160405180910390a45050565b6001816000016000828254019250508190555050565b600081600001549050919050565b600073ffffffffffffffffffffffffffffffffffffffff168273ffffffffffffffffffffffffffffffffffffffff1603612d14576040517f08c379a0000000000000000000000000000000000000000000000000000000008152600401612d0b906158ec565b60405180910390fd5b612d1d8161372d565b15612d5d576040517f08c379a0000000000000000000000000000000000000000000000000000000008152600401612d5490615958565b60405180910390fd5b612d6b60008383600161376e565b612d748161372d565b15612db4576040517f08c379a0000000000000000000000000000000000000000000000000000000008152600401612dab90615958565b60405180910390fd5b6001600360008473ffffffffffffffffffffffffffffffffffffffff1673ffffffffffffffffffffffffffffffffffffffff16815260200190815260200160002060008282540192505081905550816002600083815260200190815260200160002060006101000a81548173ffffffffffffffffffffffffffffffffffffffff021916908373ffffffffffffffffffffffffffffffffffffffff160217905550808273ffffffffffffffffffffffffffffffffffffffff16600073ffffffffffffffffffffffffffffffffffffffff167fddf252ad1be2c89b69c2b068fc378daa952ba7f163c4a11628f55a4df523b3ef60405160405180910390a4612ebe600083836001613894565b5050565b612ecb8261372d565b612f0a576040517f08c379a0000000000000000000000000000000000000000000000000000000008152600401612f01906159ea565b60405180910390fd5b80600660008481526020019081526020016000209080519060200190612f31929190613cff565b505050565b600080612f4283611449565b90508073ffffffffffffffffffffffffffffffffffffffff168473ffffffffffffffffffffffffffffffffffffffff161480612f845750612f8381856129f4565b5b80612fc257508373ffffffffffffffffffffffffffffffffffffffff16612faa84610b1f565b73ffffffffffffffffffffffffffffffffffffffff16145b91505092915050565b8273ffffffffffffffffffffffffffffffffffffffff16612feb82611449565b73ffffffffffffffffffffffffffffffffffffffff1614613041576040517f08c379a000000000000000000000000000000000000000000000000000000000815260040161303890615a7c565b60405180910390fd5b600073ffffffffffffffffffffffffffffffffffffffff168273ffffffffffffffffffffffffffffffffffffffff16036130b0576040517f08c379a00000000000000000000000000000000000000000000000000000000081526004016130a790615b0e565b60405180910390fd5b6130bd838383600161376e565b8273ffffffffffffffffffffffffffffffffffffffff166130dd82611449565b73ffffffffffffffffffffffffffffffffffffffff1614613133576040517f08c379a000000000000000000000000000000000000000000000000000000000815260040161312a90615a7c565b60405180910390fd5b6004600082815260200190815260200160002060006101000a81549073ffffffffffffffffffffffffffffffffffffffff02191690556001600360008573ffffffffffffffffffffffffffffffffffffffff1673ffffffffffffffffffffffffffffffffffffffff168152602001908152602001600020600082825403925050819055506001600360008473ffffffffffffffffffffffffffffffffffffffff1673ffffffffffffffffffffffffffffffffffffffff16815260200190815260200160002060008282540192505081905550816002600083815260200190815260200160002060006101000a81548173ffffffffffffffffffffffffffffffffffffffff021916908373ffffffffffffffffffffffffffffffffffffffff160217905550808273ffffffffffffffffffffffffffffffffffffffff168473ffffffffffffffffffffffffffffffffffffffff167fddf252ad1be2c89b69c2b068fc378daa952ba7f163c4a11628f55a4df523b3ef60405160405180910390a46132bf8383836001613894565b505050565b60006002600083815260200190815260200160002060009054906101000a900473ffffffffffffffffffffffffffffffffffffffff169050919050565b613309612bc0565b73ffffffffffffffffffffffffffffffffffffffff1661332761179d565b73ffffffffffffffffffffffffffffffffffffffff161461337d576040517f08c379a000000000000000000000000000000000000000000000000000000000815260040161337490615b7a565b60405180910390fd5b565b6000600760009054906101000a900473ffffffffffffffffffffffffffffffffffffffff16905081600760006101000a81548173ffffffffffffffffffffffffffffffffffffffff021916908373ffffffffffffffffffffffffffffffffffffffff1602179055508173ffffffffffffffffffffffffffffffffffffffff168173ffffffffffffffffffffffffffffffffffffffff167f8be0079c531659141344cd1fd0a4f28419497f9722a3daafe3b4186f6b6457e060405160405180910390a35050565b600080600090505b600c8460405161345d9190614fda565b9081526020016040518091039020600101805490508110156134da5782600c8560405161348a9190614fda565b908152602001604051809103902060010182815481106134ad576134ac614b13565b5b9060005260206000200154036134c75760019150506134e0565b80806134d290614c87565b91505061344d565b50600090505b92915050565b8173ffffffffffffffffffffffffffffffffffffffff168373ffffffffffffffffffffffffffffffffffffffff1603613554576040517f08c379a000000000000000000000000000000000000000000000000000000000815260040161354b90615be6565b60405180910390fd5b80600560008573ffffffffffffffffffffffffffffffffffffffff1673ffffffffffffffffffffffffffffffffffffffff16815260200190815260200160002060008473ffffffffffffffffffffffffffffffffffffffff1673ffffffffffffffffffffffffffffffffffffffff16815260200190815260200160002060006101000a81548160ff0219169083151502179055508173ffffffffffffffffffffffffffffffffffffffff168373ffffffffffffffffffffffffffffffffffffffff167f17307eab39ab6107e8899845ad3d59bd9653f200f220920489ca2b5937696c31836040516136459190613e56565b60405180910390a3505050565b61365d848484612fcb565b6136698484848461389a565b6136a8576040517f08c379a000000000000000000000000000000000000000000000000000000000815260040161369f90615c78565b60405180910390fd5b50505050565b606060405180602001604052806000815250905090565b60606136d082612b75565b60006136da6136ae565b905060008151116136fa5760405180602001604052806000815250613725565b8061370484613a21565b60405160200161371592919061556a565b6040516020818303038152906040525b915050919050565b60008073ffffffffffffffffffffffffffffffffffffffff1661374f836132c4565b73ffffffffffffffffffffffffffffffffffffffff1614159050919050565b600181111561388e57600073ffffffffffffffffffffffffffffffffffffffff168473ffffffffffffffffffffffffffffffffffffffff16146138025780600360008673ffffffffffffffffffffffffffffffffffffffff1673ffffffffffffffffffffffffffffffffffffffff16815260200190815260200160002060008282546137fa919061534d565b925050819055505b600073ffffffffffffffffffffffffffffffffffffffff168373ffffffffffffffffffffffffffffffffffffffff161461388d5780600360008573ffffffffffffffffffffffffffffffffffffffff1673ffffffffffffffffffffffffffffffffffffffff16815260200190815260200160002060008282546138859190615c98565b925050819055505b5b50505050565b50505050565b60006138bb8473ffffffffffffffffffffffffffffffffffffffff16613aef565b15613a14578373ffffffffffffffffffffffffffffffffffffffff1663150b7a026138e4612bc0565b8786866040518563ffffffff1660e01b81526004016139069493929190615d43565b6020604051808303816000875af192505050801561394257506040513d601f19601f8201168201806040525081019061393f9190615da4565b60015b6139c4573d8060008114613972576040519150601f19603f3d011682016040523d82523d6000602084013e613977565b606091505b5060008151036139bc576040517f08c379a00000000000000000000000000000000000000000000000000000000081526004016139b390615c78565b60405180910390fd5b805181602001fd5b63150b7a0260e01b7bffffffffffffffffffffffffffffffffffffffffffffffffffffffff1916817bffffffffffffffffffffffffffffffffffffffffffffffffffffffff191614915050613a19565b600190505b949350505050565b606060006001613a3084613b12565b01905060008167ffffffffffffffff811115613a4f57613a4e614291565b5b6040519080825280601f01601f191660200182016040528015613a815781602001600182028036833780820191505090505b509050600082602001820190505b600115613ae4578080600190039150507f3031323334353637383961626364656600000000000000000000000000000000600a86061a8153600a8581613ad857613ad7615dd1565b5b04945060008503613a8f575b819350505050919050565b6000808273ffffffffffffffffffffffffffffffffffffffff163b119050919050565b600080600090507a184f03e93ff9f4daa797ed6e38ed64bf6a1f0100000000000000008310613b70577a184f03e93ff9f4daa797ed6e38ed64bf6a1f0100000000000000008381613b6657613b65615dd1565b5b0492506040810190505b6d04ee2d6d415b85acef81000000008310613bad576d04ee2d6d415b85acef81000000008381613ba357613ba2615dd1565b5b0492506020810190505b662386f26fc100008310613bdc57662386f26fc100008381613bd257613bd1615dd1565b5b0492506010810190505b6305f5e1008310613c05576305f5e1008381613bfb57613bfa615dd1565b5b0492506008810190505b6127108310613c2a576127108381613c2057613c1f615dd1565b5b0492506004810190505b60648310613c4d5760648381613c4357613c42615dd1565b5b0492506002810190505b600a8310613c5c576001810190505b80915050919050565b604051806040016040528060608152602001606081525090565b6040518060400160405280600015158152602001600081525090565b6040518060c001604052806060815260200160608152602001600073ffffffffffffffffffffffffffffffffffffffff168152602001600073ffffffffffffffffffffffffffffffffffffffff168152602001606081526020016000151581525090565b828054613d0b90614b71565b90600052602060002090601f016020900481019282613d2d5760008555613d74565b82601f10613d4657805160ff1916838001178555613d74565b82800160010185558215613d74579182015b82811115613d73578251825591602001919060010190613d58565b5b509050613d819190613d85565b5090565b5b80821115613d9e576000816000905550600101613d86565b5090565b6000604051905090565b600080fd5b600080fd5b60007fffffffff0000000000000000000000000000000000000000000000000000000082169050919050565b613deb81613db6565b8114613df657600080fd5b50565b600081359050613e0881613de2565b92915050565b600060208284031215613e2457613e23613dac565b5b6000613e3284828501613df9565b91505092915050565b60008115159050919050565b613e5081613e3b565b82525050565b6000602082019050613e6b6000830184613e47565b92915050565b600081519050919050565b600082825260208201905092915050565b6000819050602082019050919050565b600081519050919050565b600082825260208201905092915050565b60005b83811015613ed7578082015181840152602081019050613ebc565b83811115613ee6576000848401525b50505050565b6000601f19601f8301169050919050565b6000613f0882613e9d565b613f128185613ea8565b9350613f22818560208601613eb9565b613f2b81613eec565b840191505092915050565b600081519050919050565b600082825260208201905092915050565b6000819050602082019050919050565b6000819050919050565b613f7581613f62565b82525050565b6000613f878383613f6c565b60208301905092915050565b6000602082019050919050565b6000613fab82613f36565b613fb58185613f41565b9350613fc083613f52565b8060005b83811015613ff1578151613fd88882613f7b565b9750613fe383613f93565b925050600181019050613fc4565b5085935050505092915050565b6000604083016000830151848203600086015261401b8282613efd565b915050602083015184820360208601526140358282613fa0565b9150508091505092915050565b600061404e8383613ffe565b905092915050565b6000602082019050919050565b600061406e82613e71565b6140788185613e7c565b93508360208202850161408a85613e8d565b8060005b858110156140c657848403895281516140a78582614042565b94506140b283614056565b925060208a0199505060018101905061408e565b50829750879550505050505092915050565b600060208201905081810360008301526140f28184614063565b905092915050565b600082825260208201905092915050565b600061411682613e9d565b61412081856140fa565b9350614130818560208601613eb9565b61413981613eec565b840191505092915050565b6000602082019050818103600083015261415e818461410b565b905092915050565b61416f81613f62565b811461417a57600080fd5b50565b60008135905061418c81614166565b92915050565b6000602082840312156141a8576141a7613dac565b5b60006141b68482850161417d565b91505092915050565b600073ffffffffffffffffffffffffffffffffffffffff82169050919050565b60006141ea826141bf565b9050919050565b6141fa816141df565b82525050565b600060208201905061421560008301846141f1565b92915050565b614224816141df565b811461422f57600080fd5b50565b6000813590506142418161421b565b92915050565b6000806040838503121561425e5761425d613dac565b5b600061426c85828601614232565b925050602061427d8582860161417d565b9150509250929050565b600080fd5b600080fd5b7f4e487b7100000000000000000000000000000000000000000000000000000000600052604160045260246000fd5b6142c982613eec565b810181811067ffffffffffffffff821117156142e8576142e7614291565b5b80604052505050565b60006142fb613da2565b905061430782826142c0565b919050565b600067ffffffffffffffff82111561432757614326614291565b5b61433082613eec565b9050602081019050919050565b82818337600083830152505050565b600061435f61435a8461430c565b6142f1565b90508281526020810184848401111561437b5761437a61428c565b5b61438684828561433d565b509392505050565b600082601f8301126143a3576143a2614287565b5b81356143b384826020860161434c565b91505092915050565b600080604083850312156143d3576143d2613dac565b5b60006143e185828601614232565b925050602083013567ffffffffffffffff81111561440257614401613db1565b5b61440e8582860161438e565b9150509250929050565b61442181613f62565b82525050565b600060208201905061443c6000830184614418565b92915050565b60008060006060848603121561445b5761445a613dac565b5b600061446986828701614232565b935050602061447a86828701614232565b925050604061448b8682870161417d565b9150509250925092565b600080600080608085870312156144af576144ae613dac565b5b600085013567ffffffffffffffff8111156144cd576144cc613db1565b5b6144d98782880161438e565b945050602085013567ffffffffffffffff8111156144fa576144f9613db1565b5b6145068782880161438e565b935050604061451787828801614232565b925050606085013567ffffffffffffffff81111561453857614537613db1565b5b6145448782880161438e565b91505092959194509250565b60006020828403121561456657614565613dac565b5b600082013567ffffffffffffffff81111561458457614583613db1565b5b6145908482850161438e565b91505092915050565b6145a2816141df565b82525050565b6145b181613e3b565b82525050565b600060c08301600083015184820360008601526145d48282613efd565b915050602083015184820360208601526145ee8282613efd565b91505060408301516146036040860182614599565b5060608301516146166060860182614599565b506080830151848203608086015261462e8282613efd565b91505060a083015161464360a08601826145a8565b508091505092915050565b6000602082019050818103600083015261466881846145b7565b905092915050565b60006020828403121561468657614685613dac565b5b600061469484828501614232565b91505092915050565b600080604083850312156146b4576146b3613dac565b5b600083013567ffffffffffffffff8111156146d2576146d1613db1565b5b6146de8582860161438e565b92505060206146ef8582860161417d565b9150509250929050565b61470281613e3b565b811461470d57600080fd5b50565b60008135905061471f816146f9565b92915050565b6000806040838503121561473c5761473b613dac565b5b600061474a85828601614232565b925050602061475b85828601614710565b9150509250929050565b600067ffffffffffffffff8211156147805761477f614291565b5b61478982613eec565b9050602081019050919050565b60006147a96147a484614765565b6142f1565b9050828152602081018484840111156147c5576147c461428c565b5b6147d084828561433d565b509392505050565b600082601f8301126147ed576147ec614287565b5b81356147fd848260208601614796565b91505092915050565b600080600080608085870312156148205761481f613dac565b5b600061482e87828801614232565b945050602061483f87828801614232565b93505060406148508782880161417d565b925050606085013567ffffffffffffffff81111561487157614870613db1565b5b61487d878288016147d8565b91505092959194509250565b600080604083850312156148a05761489f613dac565b5b60006148ae8582860161417d565b92505060206148bf8582860161417d565b9150509250929050565b600060408301600083015184820360008601526148e68282613efd565b915050602083015184820360208601526149008282613fa0565b9150508091505092915050565b6000602082019050818103600083015261492781846148c9565b905092915050565b60006040820190506149446000830185613e47565b6149516020830184614418565b9392505050565b600081519050919050565b600082825260208201905092915050565b6000819050602082019050919050565b600060c08301600083015184820360008601526149a18282613efd565b915050602083015184820360208601526149bb8282613efd565b91505060408301516149d06040860182614599565b5060608301516149e36060860182614599565b50608083015184820360808601526149fb8282613efd565b91505060a0830151614a1060a08601826145a8565b508091505092915050565b6000614a278383614984565b905092915050565b6000602082019050919050565b6000614a4782614958565b614a518185614963565b935083602082028501614a6385614974565b8060005b85811015614a9f5784840389528151614a808582614a1b565b9450614a8b83614a2f565b925060208a01995050600181019050614a67565b50829750879550505050505092915050565b60006020820190508181036000830152614acb8184614a3c565b905092915050565b60008060408385031215614aea57614ae9613dac565b5b6000614af885828601614232565b9250506020614b0985828601614232565b9150509250929050565b7f4e487b7100000000000000000000000000000000000000000000000000000000600052603260045260246000fd5b7f4e487b7100000000000000000000000000000000000000000000000000000000600052602260045260246000fd5b60006002820490506001821680614b8957607f821691505b602082108103614b9c57614b9b614b42565b5b50919050565b600081905092915050565b60008190508160005260206000209050919050565b60008154614bcf81614b71565b614bd98186614ba2565b94506001821660008114614bf45760018114614c0557614c38565b60ff19831686528186019350614c38565b614c0e85614bad565b60005b83811015614c3057815481890152600182019150602081019050614c11565b838801955050505b50505092915050565b6000614c4d8284614bc2565b915081905092915050565b7f4e487b7100000000000000000000000000000000000000000000000000000000600052601160045260246000fd5b6000614c9282613f62565b91507fffffffffffffffffffffffffffffffffffffffffffffffffffffffffffffffff8203614cc457614cc3614c58565b5b600182019050919050565b7f4552433732313a20617070726f76616c20746f2063757272656e74206f776e6560008201527f7200000000000000000000000000000000000000000000000000000000000000602082015250565b6000614d2b6021836140fa565b9150614d3682614ccf565b604082019050919050565b60006020820190508181036000830152614d5a81614d1e565b9050919050565b7f4552433732313a20617070726f76652063616c6c6572206973206e6f7420746f60008201527f6b656e206f776e6572206f7220617070726f76656420666f7220616c6c000000602082015250565b6000614dbd603d836140fa565b9150614dc882614d61565b604082019050919050565b60006020820190508181036000830152614dec81614db0565b9050919050565b7f596f7520617265206e6f7420616e2065717569706d656e74206d616e7566616360008201527f74757265722e0000000000000000000000000000000000000000000000000000602082015250565b6000614e4f6026836140fa565b9150614e5a82614df3565b604082019050919050565b60006020820190508181036000830152614e7e81614e42565b9050919050565b7f4552433732312063616e6e6f74206265206d696e74656420746f20746865207a60008201527f65726f2061646472657373000000000000000000000000000000000000000000602082015250565b6000614ee1602b836140fa565b9150614eec82614e85565b604082019050919050565b60006020820190508181036000830152614f1081614ed4565b9050919050565b7f4552433732313a2063616c6c6572206973206e6f7420746f6b656e206f776e6560008201527f72206f7220617070726f76656400000000000000000000000000000000000000602082015250565b6000614f73602d836140fa565b9150614f7e82614f17565b604082019050919050565b60006020820190508181036000830152614fa281614f66565b9050919050565b6000614fb482613e9d565b614fbe8185614ba2565b9350614fce818560208601613eb9565b80840191505092915050565b6000614fe68284614fa9565b915081905092915050565b7f546869732065717569706d656e7420616c7265616479206578697374732e0000600082015250565b6000615027601e836140fa565b915061503282614ff1565b602082019050919050565b600060208201905081810360008301526150568161501a565b9050919050565b7f4552433732313a20696e76616c696420746f6b656e2049440000000000000000600082015250565b60006150936018836140fa565b915061509e8261505d565b602082019050919050565b600060208201905081810360008301526150c281615086565b9050919050565b7f4552433732313a2061646472657373207a65726f206973206e6f74206120766160008201527f6c6964206f776e65720000000000000000000000000000000000000000000000602082015250565b60006151256029836140fa565b9150615130826150c9565b604082019050919050565b6000602082019050818103600083015261515481615118565b9050919050565b60008151905061516a8161421b565b92915050565b60006020828403121561518657615185613dac565b5b60006151948482850161515b565b91505092915050565b7f596f7520646f6e277420706f7373657373207468697320706172742e00000000600082015250565b60006151d3601c836140fa565b91506151de8261519d565b602082019050919050565b60006020820190508181036000830152615202816151c6565b9050919050565b7f546869732070617274206973206e6f74206c69737465642e0000000000000000600082015250565b600061523f6018836140fa565b915061524a82615209565b602082019050919050565b6000602082019050818103600083015261526e81615232565b9050919050565b7f596f7520646f206e6f7420706f73736573732074686973207061727400000000600082015250565b60006152ab601c836140fa565b91506152b682615275565b602082019050919050565b600060208201905081810360008301526152da8161529e565b9050919050565b7f596f7520646f206e6f74206861766520746869732065717569706d656e740000600082015250565b6000615317601e836140fa565b9150615322826152e1565b602082019050919050565b600060208201905081810360008301526153468161530a565b9050919050565b600061535882613f62565b915061536383613f62565b92508282101561537657615375614c58565b5b828203905092915050565b7f596f7520646f206e6f7420686176652074686973207061727400000000000000600082015250565b60006153b76019836140fa565b91506153c282615381565b602082019050919050565b600060208201905081810360008301526153e6816153aa565b9050919050565b7f5061727420616c726561647920696e7374616c6c656420696e20617373656d6260008201527f6c79000000000000000000000000000000000000000000000000000000000000602082015250565b60006154496022836140fa565b9150615454826153ed565b604082019050919050565b600060208201905081810360008301526154788161543c565b9050919050565b60006040820190506154946000830185614418565b81810360208301526154a6818461410b565b90509392505050565b7f546869732061646472657373206973206e6f742072656769737465726564206160008201527f7320616e2045717569706d656e74204d616e7566616374757265722e00000000602082015250565b600061550b603c836140fa565b9150615516826154af565b604082019050919050565b6000602082019050818103600083015261553a816154fe565b9050919050565b60006040820190506155566000830185614418565b6155636020830184614418565b9392505050565b60006155768285614fa9565b91506155828284614fa9565b91508190509392505050565b7f54686973206164647265737320697320616c726561647920726567697374657260008201527f656420617320616e2045717569706d656e74204d616e7566616374757265722e602082015250565b60006155ea6040836140fa565b91506155f58261558e565b604082019050919050565b60006020820190508181036000830152615619816155dd565b9050919050565b600061562b82613f62565b915061563683613f62565b9250817fffffffffffffffffffffffffffffffffffffffffffffffffffffffffffffffff048311821515161561566f5761566e614c58565b5b828202905092915050565b7f4d6573736167652076616c7565206973206e6f7420657175616c20746f206c6960008201527f7374656420707269636500000000000000000000000000000000000000000000602082015250565b60006156d6602a836140fa565b91506156e18261567a565b604082019050919050565b60006020820190508181036000830152615705816156c9565b9050919050565b6000819050919050565b600061573161572c615727846141bf565b61570c565b6141bf565b9050919050565b600061574382615716565b9050919050565b600061575582615738565b9050919050565b6157658161574a565b82525050565b6000606082019050615780600083018661575c565b61578d60208301856141f1565b61579a6040830184614418565b949350505050565b7f54686973207061727420697320616c7265616479206c69737465642e00000000600082015250565b60006157d8601c836140fa565b91506157e3826157a2565b602082019050919050565b60006020820190508181036000830152615807816157cb565b9050919050565b7f4f776e61626c653a206e6577206f776e657220697320746865207a65726f206160008201527f6464726573730000000000000000000000000000000000000000000000000000602082015250565b600061586a6026836140fa565b91506158758261580e565b604082019050919050565b600060208201905081810360008301526158998161585d565b9050919050565b7f4552433732313a206d696e7420746f20746865207a65726f2061646472657373600082015250565b60006158d66020836140fa565b91506158e1826158a0565b602082019050919050565b60006020820190508181036000830152615905816158c9565b9050919050565b7f4552433732313a20746f6b656e20616c7265616479206d696e74656400000000600082015250565b6000615942601c836140fa565b915061594d8261590c565b602082019050919050565b6000602082019050818103600083015261597181615935565b9050919050565b7f45524337323155524953746f726167653a2055524920736574206f66206e6f6e60008201527f6578697374656e7420746f6b656e000000000000000000000000000000000000602082015250565b60006159d4602e836140fa565b91506159df82615978565b604082019050919050565b60006020820190508181036000830152615a03816159c7565b9050919050565b7f4552433732313a207472616e736665722066726f6d20696e636f72726563742060008201527f6f776e6572000000000000000000000000000000000000000000000000000000602082015250565b6000615a666025836140fa565b9150615a7182615a0a565b604082019050919050565b60006020820190508181036000830152615a9581615a59565b9050919050565b7f4552433732313a207472616e7366657220746f20746865207a65726f2061646460008201527f7265737300000000000000000000000000000000000000000000000000000000602082015250565b6000615af86024836140fa565b9150615b0382615a9c565b604082019050919050565b60006020820190508181036000830152615b2781615aeb565b9050919050565b7f4f776e61626c653a2063616c6c6572206973206e6f7420746865206f776e6572600082015250565b6000615b646020836140fa565b9150615b6f82615b2e565b602082019050919050565b60006020820190508181036000830152615b9381615b57565b9050919050565b7f4552433732313a20617070726f766520746f2063616c6c657200000000000000600082015250565b6000615bd06019836140fa565b9150615bdb82615b9a565b602082019050919050565b60006020820190508181036000830152615bff81615bc3565b9050919050565b7f4552433732313a207472616e7366657220746f206e6f6e20455243373231526560008201527f63656976657220696d706c656d656e7465720000000000000000000000000000602082015250565b6000615c626032836140fa565b9150615c6d82615c06565b604082019050919050565b60006020820190508181036000830152615c9181615c55565b9050919050565b6000615ca382613f62565b9150615cae83613f62565b9250827fffffffffffffffffffffffffffffffffffffffffffffffffffffffffffffffff03821115615ce357615ce2614c58565b5b828201905092915050565b600081519050919050565b600082825260208201905092915050565b6000615d1582615cee565b615d1f8185615cf9565b9350615d2f818560208601613eb9565b615d3881613eec565b840191505092915050565b6000608082019050615d5860008301876141f1565b615d6560208301866141f1565b615d726040830185614418565b8181036060830152615d848184615d0a565b905095945050505050565b600081519050615d9e81613de2565b92915050565b600060208284031215615dba57615db9613dac565b5b6000615dc884828501615d8f565b91505092915050565b7f4e487b7100000000000000000000000000000000000000000000000000000000600052601260045260246000fdfea2646970667358221220278cdc57fa282e9dafb1a385bd4ed5be0ce078315de0b7226116796f6f81e8eb64736f6c634300080d0033",
  "immutableReferences": {},
  "source": "// SPDX-License-Identifier: MIT\npragma solidity 0.8.13;\n\nimport \"../node_modules/@openzeppelin/contracts/access/Ownable.sol\";\nimport \"../node_modules/@openzeppelin/contracts/token/ERC721/extensions/ERC721URIStorage.sol\";\nimport \"../node_modules/@openzeppelin/contracts/utils/Counters.sol\";\n\ncontract CycleChain is ERC721URIStorage, Ownable  {\n    using Counters for Counters.Counter;\n    Counters.Counter public _tokenIds;\n\n    // Part object\n    struct Part {\n        bool isListed;\n        uint listedPrice;\n    }\n\n    // Part array with index that will be equal to the NFT' ID\n    Part[] public parts;\n\n    // Equipment object\n    struct Equipment {\n        string serialNumber;\n        string category;\n        address manufacturer;\n        address owner;\n        string model;\n        // string photoURL; To add in V2\n        bool isValue;\n    }\n\n    // Equipment serialNumber => Equipment\n    mapping (string => Equipment) equipments;\n\n    // A table of all equipments serial numbers to make the mapping enumerable\n    string[] equipmentsSerialNumbers;\n\n\n    // An equipment can contain parts, forming an \"assembly\"\n    struct Assembly {\n        string equipmentSerialNumber;\n        uint[] partsIds;\n    }\n\n    // Equipment serialNumber => Assembly\n    mapping (string => Assembly) assemblies;\n\n    // Equipment manufacturers mapping\n    mapping (address => bool) public equipmentManufacturers;\n\n    // List of events\n    event PartCreated(uint NftId);\n    event EquipmentManufacturerRegistered(address _address);\n    event EquipmentManufacturerRemoved(address _address);\n    event PartInstalledOnEquipment(uint _partId, string _equipmentSerialNumber);\n    event PartRemovedFromEquipment(uint partId, uint equipmentId);\n    event EquipmentCreated(string equipmentId);\n    event partListed(uint partId, uint price);\n    event partDelisted(uint partId);\n\n    constructor() ERC721(\"Part\", \"CC\") {\n      // In order to have the index of parts equal to the NFT ID, we need to fill the index 0 of parts\n      Part memory part;\n      parts.push(part);\n\n      // Create mock equipments\n      createEquipment('TD1', 'Grue',        0x0Aa9547EE37E6B9064f9FB95cd2E8864DC6D3569, 'MODEL_123');\n      createEquipment('TD2', 'Grue',        0x0Aa9547EE37E6B9064f9FB95cd2E8864DC6D3569, 'MODEL_123');\n      createEquipment('TD3', 'Pelleteuse',  0x0Aa9547EE37E6B9064f9FB95cd2E8864DC6D3569, 'MODEL_123');\n      createEquipment('JP1', 'Grue',        0x1e3CdC405728560eebC4ab093D9c461b36E28Aa3, 'MODEL_123');\n      createEquipment('JP2', 'Pelleteuse',  0x1e3CdC405728560eebC4ab093D9c461b36E28Aa3, 'MODEL_123');\n      createEquipment('JP3', 'Pelleteuse',  0x1e3CdC405728560eebC4ab093D9c461b36E28Aa3, 'MODEL_123');\n    }\n\n    /// @notice Check if the msg.sender is an equipment manufacturer\n    modifier onlyEquipmentManufacturers() {\n        require(equipmentManufacturers[msg.sender] == true, \"You are not an equipment manufacturer.\");\n        _;\n    }\n    \n    // ::::::::::::: GETTERS ::::::::::::: //\n\n    function getOneEquipment(string memory _serialNumber) public view returns (Equipment memory) {\n        Equipment memory equipment;\n\n        equipment = equipments[_serialNumber];\n        return equipment;\n    }\n\n    function getOneAssembly(string memory _serialNumber) public view returns (Assembly memory) {\n        Assembly memory oneAssembly;\n\n        oneAssembly = assemblies[_serialNumber];\n        return oneAssembly;\n    }\n\n    function getAllEquipments() public view returns (Equipment[] memory) {\n        uint len = equipmentsSerialNumbers.length;\n        Equipment[] memory equipmentsArray = new Equipment[](len);\n\n        for (uint i=0; i<len; i++) {\n            equipmentsArray[i] = equipments[equipmentsSerialNumbers[i]];\n        }\n        return equipmentsArray;\n    }\n\n    function getAllAssemblies() public view returns (Assembly[] memory) {\n        uint len = equipmentsSerialNumbers.length;\n        Assembly[] memory assembliesArray = new Assembly[](len);\n\n        for (uint i=0; i<len; i++) {\n            assembliesArray[i] = assemblies[equipmentsSerialNumbers[i]];\n        }\n        return assembliesArray;\n    }\n\n\n    // ::::::::::::: FUNCTIONS ::::::::::::: //\n\n\n    /// @notice Register a new Equipment Manufacturer\n    /// @param _producer Address of the Equipment Manufacturer that will be allowed to create a Part (NFT)\n    function registerEquipmentManufacturer(address _producer) external onlyOwner {\n      require(equipmentManufacturers[_producer] == false, \"This address is already registered as an Equipment Manufacturer.\");\n\n      equipmentManufacturers[_producer] = true;\n      emit EquipmentManufacturerRegistered(_producer);\n    }\n\n    /// @notice Remove an Equipment Manufacturer\n    /// @param _producer Address of the Equipment Manufacturer that will be allowed to create a Part (NFT)\n    function removeEquipmentManufacturer(address _producer) external onlyOwner {\n      require(equipmentManufacturers[_producer] == true, \"This address is not registered as an Equipment Manufacturer.\");\n\n      equipmentManufacturers[_producer] = false;\n      emit EquipmentManufacturerRemoved(_producer);\n    }\n\n    /// TODO PUT BACK MODIFIER onlyEquipmentManufacturers\n    /// @notice Adds an equipment to the equipments mapping and update the equipmentsSerialNumbers array\n    /// @param _serialNumber Serial Number\n    /// @param _category Category\n    /// @param _owner The owner of the equipment (company name)\n    /// @param _model Equipment model\n    function createEquipment(string memory _serialNumber, string memory _category, address _owner, string memory _model) public {\n      require(equipments[_serialNumber].isValue == false, \"This equipment already exists.\");\n      Equipment memory eq;\n      eq.serialNumber = _serialNumber;\n      eq.category = _category;\n      eq.manufacturer = msg.sender;\n      eq.owner = _owner;\n      eq.model = _model;\n      eq.isValue = true;\n\n      equipments[_serialNumber] = eq;\n      equipmentsSerialNumbers.push(_serialNumber);\n\n      emit EquipmentCreated(_serialNumber);\n    }\n\n    function checkIfPartExistsInAssembly(string memory _equipmentSerialNumber, uint _partId) internal view returns(bool) {\n      for (uint i = 0; i <assemblies[_equipmentSerialNumber].partsIds.length; i++) {\n        if (assemblies[_equipmentSerialNumber].partsIds[i] == _partId) return true;\n      }\n      return false;\n    }\n\n    /// @notice Adds a part to an assembly (or creates he assembly if it doesn't exist)\n    /// @param _equipmentSerialNumber The serial number of the equipment\n    /// @param _partId The id of the part to be installed\n    function addPartToAssembly(string memory _equipmentSerialNumber, uint _partId) external {\n      require(ownerOf(_partId) == msg.sender, \"You do not possess this part\");\n      require(equipments[_equipmentSerialNumber].isValue == true, \"You do not have this equipment\");\n      require(parts.length - 1 >= _partId, \"You do not have this part\");\n      require(checkIfPartExistsInAssembly(_equipmentSerialNumber, _partId) == false, \"Part already installed in assembly\");\n\n      assemblies[_equipmentSerialNumber].equipmentSerialNumber = _equipmentSerialNumber;\n      assemblies[_equipmentSerialNumber].partsIds.push(_partId);\n      emit PartInstalledOnEquipment(_partId, _equipmentSerialNumber);\n    }\n\n    /// @notice As an equipment manufacturer, create a part NFT and transfer it to a part manufacturer\n    /// @param _forManufacturer Address of the part producer that will get the Part (NFT)\n    /// @return uint NFT's ID\n    function createPart(address _forManufacturer, string  memory _partURI) public onlyEquipmentManufacturers returns (uint256) {\n        require(_forManufacturer != address(0), \"ERC721 cannot be minted to the zero address\");\n\n        _tokenIds.increment();\n        uint256 newItemId = _tokenIds.current();\n        _mint(_forManufacturer, newItemId);\n        _setTokenURI(newItemId, _partURI);\n\n        Part memory part;\n        parts.push(part);\n\n        emit PartCreated(newItemId);\n\n        return newItemId;\n    }\n\n    /// @notice List a part\n    /// @param _nftId Part's NFT ID\n    /// @param _price Part's price\n    function listPart(uint _nftId, uint _price) external {\n      require(msg.sender == this.ownerOf(_nftId), \"You don't possess this part.\");\n      require(parts[_nftId].isListed == false, \"This part is already listed.\");\n\n      parts[_nftId].isListed = true;\n      parts[_nftId].listedPrice = _price;\n      emit partListed(_nftId, _price);\n    }\n\n    /// @notice Delist a part\n    /// @param _nftId Part's NFT ID\n    function delistPart(uint _nftId) external {\n      require(msg.sender == this.ownerOf(_nftId), \"You don't possess this part.\");\n      require(parts[_nftId].isListed == true, \"This part is not listed.\");\n\n      parts[_nftId].isListed = false;\n      parts[_nftId].listedPrice = 0;\n      emit partDelisted(_nftId);\n    }\n\n    /// @notice Update the listing price\n    /// @param _nftId Part's NFT ID\n    /// @param _price Part's price\n    function updateListingPrice(uint _nftId, uint _price) external {\n      require(msg.sender == this.ownerOf(_nftId), \"You don't possess this part.\");\n      require(parts[_nftId].isListed == true, \"This part is not listed.\");\n\n      parts[_nftId].listedPrice = _price;\n      emit partListed(_nftId, _price);\n    }\n\n\n    /// @notice Buy a part at market price\n    /// @param _nftId Part's NFT ID\n    function marketBuyPart(uint256 _nftId) public payable {\n      uint listedPrice = parts[_nftId].listedPrice * 10**18;\n      require(parts[_nftId].isListed == true, \"This part is not listed.\");\n      require(msg.value == listedPrice, \"Message value is not equal to listed price\");\n\n      address payable owner = payable(this.ownerOf(_nftId));\n      this.safeTransferFrom(owner, msg.sender, _nftId);\n      payable(owner).transfer(listedPrice);\n      parts[_nftId].isListed = false;\n      parts[_nftId].listedPrice = 0;\n    }\n\n    /*\n    // This function removes a part from an assembly\n    function removePartFromAssembly(string memory _equipmentSerialNumber, string memory _partSerialNumber) public {\n      // TODO: Check if msg.sender is the owner of the part\n      // TODO: Check if equipment exists\n      // TODO: Check if part exists\n      uint len = assemblies[_equipmentSerialNumber].partsSerialNumbers.length;\n      string[] memory existingPartsArray = new string[](len);\n      existingPartsArray = assemblies[_equipmentSerialNumber].partsSerialNumbers;\n\n      bool found = false;\n      for(uint i=0; i<len; i++){\n        // Compare part with part to be deleted\n        if(keccak256(abi.encodePacked(partsArray[i])) == keccak256(abi.encodePacked(_partSerialNumber))) {\n          found = true;\n          // Replace the part to be deleted with the last part of the array\n          partsArray[i] = partsArray[len-1];\n        }\n      }\n\n      if (found) {\n        partsArray.pop();\n      }\n\n      partsArray[len] = _partSerialNumber;\n      setAssembly(_equipmentSerialNumber, partsArray);\n\n      //emit PartRemovedFromEquipment(_partSerialNumber, _equipmentSerialNumber);\n    }\n    */\n}",
  "sourcePath": "/home/student/Bureau/Alyra/Cycle-Chain/truffle/contracts/CycleChain.sol",
  "compiler": {
    "name": "solc",
    "version": "0.8.13+commit.abaa5c0e.Emscripten.clang"
  },
  "schemaVersion": "3.4.10",
  "updatedAt": "2022-12-11T18:18:26.789Z",
  "networkType": "ethereum",
  "devdoc": {
    "kind": "dev",
    "methods": {
      "addPartToAssembly(string,uint256)": {
        "params": {
          "_equipmentSerialNumber": "The serial number of the equipment",
          "_partId": "The id of the part to be installed"
        }
      },
      "approve(address,uint256)": {
        "details": "See {IERC721-approve}."
      },
      "balanceOf(address)": {
        "details": "See {IERC721-balanceOf}."
      },
      "createEquipment(string,string,address,string)": {
        "params": {
          "_category": "Category",
          "_model": "Equipment model",
          "_owner": "The owner of the equipment (company name)",
          "_serialNumber": "Serial Number"
        }
      },
      "createPart(address,string)": {
        "params": {
          "_forManufacturer": "Address of the part producer that will get the Part (NFT)"
        },
        "returns": {
          "_0": "uint NFT's ID"
        }
      },
      "delistPart(uint256)": {
        "params": {
          "_nftId": "Part's NFT ID"
        }
      },
      "getApproved(uint256)": {
        "details": "See {IERC721-getApproved}."
      },
      "isApprovedForAll(address,address)": {
        "details": "See {IERC721-isApprovedForAll}."
      },
      "listPart(uint256,uint256)": {
        "params": {
          "_nftId": "Part's NFT ID",
          "_price": "Part's price"
        }
      },
      "marketBuyPart(uint256)": {
        "params": {
          "_nftId": "Part's NFT ID"
        }
      },
      "name()": {
        "details": "See {IERC721Metadata-name}."
      },
      "owner()": {
        "details": "Returns the address of the current owner."
      },
      "ownerOf(uint256)": {
        "details": "See {IERC721-ownerOf}."
      },
      "registerEquipmentManufacturer(address)": {
        "params": {
          "_producer": "Address of the Equipment Manufacturer that will be allowed to create a Part (NFT)"
        }
      },
      "removeEquipmentManufacturer(address)": {
        "params": {
          "_producer": "Address of the Equipment Manufacturer that will be allowed to create a Part (NFT)"
        }
      },
      "renounceOwnership()": {
        "details": "Leaves the contract without owner. It will not be possible to call `onlyOwner` functions anymore. Can only be called by the current owner. NOTE: Renouncing ownership will leave the contract without an owner, thereby removing any functionality that is only available to the owner."
      },
      "safeTransferFrom(address,address,uint256)": {
        "details": "See {IERC721-safeTransferFrom}."
      },
      "safeTransferFrom(address,address,uint256,bytes)": {
        "details": "See {IERC721-safeTransferFrom}."
      },
      "setApprovalForAll(address,bool)": {
        "details": "See {IERC721-setApprovalForAll}."
      },
      "supportsInterface(bytes4)": {
        "details": "See {IERC165-supportsInterface}."
      },
      "symbol()": {
        "details": "See {IERC721Metadata-symbol}."
      },
      "tokenURI(uint256)": {
        "details": "See {IERC721Metadata-tokenURI}."
      },
      "transferFrom(address,address,uint256)": {
        "details": "See {IERC721-transferFrom}."
      },
      "transferOwnership(address)": {
        "details": "Transfers ownership of the contract to a new account (`newOwner`). Can only be called by the current owner."
      },
      "updateListingPrice(uint256,uint256)": {
        "params": {
          "_nftId": "Part's NFT ID",
          "_price": "Part's price"
        }
      }
    },
    "version": 1
  },
  "userdoc": {
    "kind": "user",
    "methods": {
      "addPartToAssembly(string,uint256)": {
        "notice": "Adds a part to an assembly (or creates he assembly if it doesn't exist)"
      },
      "createEquipment(string,string,address,string)": {
        "notice": "TODO PUT BACK MODIFIER onlyEquipmentManufacturersAdds an equipment to the equipments mapping and update the equipmentsSerialNumbers array"
      },
      "createPart(address,string)": {
        "notice": "As an equipment manufacturer, create a part NFT and transfer it to a part manufacturer"
      },
      "delistPart(uint256)": {
        "notice": "Delist a part"
      },
      "listPart(uint256,uint256)": {
        "notice": "List a part"
      },
      "marketBuyPart(uint256)": {
        "notice": "Buy a part at market price"
      },
      "registerEquipmentManufacturer(address)": {
        "notice": "Register a new Equipment Manufacturer"
      },
      "removeEquipmentManufacturer(address)": {
        "notice": "Remove an Equipment Manufacturer"
      },
      "updateListingPrice(uint256,uint256)": {
        "notice": "Update the listing price"
      }
    },
    "version": 1
  }
}