{
  "contractName": "CycleChain",
  "abi": [
    {
      "inputs": [],
      "stateMutability": "nonpayable",
      "type": "constructor"
    },
    {
      "anonymous": false,
      "inputs": [
        {
          "indexed": true,
          "internalType": "address",
          "name": "owner",
          "type": "address"
        },
        {
          "indexed": true,
          "internalType": "address",
          "name": "approved",
          "type": "address"
        },
        {
          "indexed": true,
          "internalType": "uint256",
          "name": "tokenId",
          "type": "uint256"
        }
      ],
      "name": "Approval",
      "type": "event"
    },
    {
      "anonymous": false,
      "inputs": [
        {
          "indexed": true,
          "internalType": "address",
          "name": "owner",
          "type": "address"
        },
        {
          "indexed": true,
          "internalType": "address",
          "name": "operator",
          "type": "address"
        },
        {
          "indexed": false,
          "internalType": "bool",
          "name": "approved",
          "type": "bool"
        }
      ],
      "name": "ApprovalForAll",
      "type": "event"
    },
    {
      "anonymous": false,
      "inputs": [
        {
          "indexed": false,
          "internalType": "uint256",
          "name": "equipmentId",
          "type": "uint256"
        }
      ],
      "name": "EquipmentCreated",
      "type": "event"
    },
    {
      "anonymous": false,
      "inputs": [
        {
          "indexed": false,
          "internalType": "uint256",
          "name": "equipmentId",
          "type": "uint256"
        }
      ],
      "name": "EquipmentDeleted",
      "type": "event"
    },
    {
      "anonymous": false,
      "inputs": [
        {
          "indexed": true,
          "internalType": "address",
          "name": "previousOwner",
          "type": "address"
        },
        {
          "indexed": true,
          "internalType": "address",
          "name": "newOwner",
          "type": "address"
        }
      ],
      "name": "OwnershipTransferred",
      "type": "event"
    },
    {
      "anonymous": false,
      "inputs": [
        {
          "indexed": false,
          "internalType": "uint256",
          "name": "partId",
          "type": "uint256"
        }
      ],
      "name": "PartCreated",
      "type": "event"
    },
    {
      "anonymous": false,
      "inputs": [
        {
          "indexed": false,
          "internalType": "address",
          "name": "creator",
          "type": "address"
        }
      ],
      "name": "PartCreatorRegistered",
      "type": "event"
    },
    {
      "anonymous": false,
      "inputs": [
        {
          "indexed": false,
          "internalType": "address",
          "name": "creator",
          "type": "address"
        }
      ],
      "name": "PartCreatorRemoved",
      "type": "event"
    },
    {
      "anonymous": false,
      "inputs": [
        {
          "indexed": false,
          "internalType": "uint256",
          "name": "partId",
          "type": "uint256"
        },
        {
          "indexed": false,
          "internalType": "uint256",
          "name": "equipmentId",
          "type": "uint256"
        }
      ],
      "name": "PartInstalledOnEquipment",
      "type": "event"
    },
    {
      "anonymous": false,
      "inputs": [
        {
          "indexed": false,
          "internalType": "uint256",
          "name": "partId",
          "type": "uint256"
        },
        {
          "indexed": false,
          "internalType": "uint256",
          "name": "equipmentId",
          "type": "uint256"
        }
      ],
      "name": "PartRemovedFromEquipment",
      "type": "event"
    },
    {
      "anonymous": false,
      "inputs": [
        {
          "indexed": true,
          "internalType": "address",
          "name": "from",
          "type": "address"
        },
        {
          "indexed": true,
          "internalType": "address",
          "name": "to",
          "type": "address"
        },
        {
          "indexed": true,
          "internalType": "uint256",
          "name": "tokenId",
          "type": "uint256"
        }
      ],
      "name": "Transfer",
      "type": "event"
    },
    {
      "anonymous": false,
      "inputs": [
        {
          "indexed": false,
          "internalType": "uint256",
          "name": "partId",
          "type": "uint256"
        }
      ],
      "name": "partDelisted",
      "type": "event"
    },
    {
      "anonymous": false,
      "inputs": [
        {
          "indexed": false,
          "internalType": "uint256",
          "name": "partId",
          "type": "uint256"
        },
        {
          "indexed": false,
          "internalType": "uint256",
          "name": "price",
          "type": "uint256"
        }
      ],
      "name": "partListed",
      "type": "event"
    },
    {
      "inputs": [
        {
          "internalType": "address",
          "name": "to",
          "type": "address"
        },
        {
          "internalType": "uint256",
          "name": "tokenId",
          "type": "uint256"
        }
      ],
      "name": "approve",
      "outputs": [],
      "stateMutability": "nonpayable",
      "type": "function"
    },
    {
      "inputs": [
        {
          "internalType": "address",
          "name": "owner",
          "type": "address"
        }
      ],
      "name": "balanceOf",
      "outputs": [
        {
          "internalType": "uint256",
          "name": "",
          "type": "uint256"
        }
      ],
      "stateMutability": "view",
      "type": "function",
      "constant": true
    },
    {
      "inputs": [
        {
          "internalType": "uint256",
          "name": "tokenId",
          "type": "uint256"
        }
      ],
      "name": "getApproved",
      "outputs": [
        {
          "internalType": "address",
          "name": "",
          "type": "address"
        }
      ],
      "stateMutability": "view",
      "type": "function",
      "constant": true
    },
    {
      "inputs": [
        {
          "internalType": "address",
          "name": "owner",
          "type": "address"
        },
        {
          "internalType": "address",
          "name": "operator",
          "type": "address"
        }
      ],
      "name": "isApprovedForAll",
      "outputs": [
        {
          "internalType": "bool",
          "name": "",
          "type": "bool"
        }
      ],
      "stateMutability": "view",
      "type": "function",
      "constant": true
    },
    {
      "inputs": [],
      "name": "name",
      "outputs": [
        {
          "internalType": "string",
          "name": "",
          "type": "string"
        }
      ],
      "stateMutability": "view",
      "type": "function",
      "constant": true
    },
    {
      "inputs": [],
      "name": "owner",
      "outputs": [
        {
          "internalType": "address",
          "name": "",
          "type": "address"
        }
      ],
      "stateMutability": "view",
      "type": "function",
      "constant": true
    },
    {
      "inputs": [
        {
          "internalType": "uint256",
          "name": "tokenId",
          "type": "uint256"
        }
      ],
      "name": "ownerOf",
      "outputs": [
        {
          "internalType": "address",
          "name": "",
          "type": "address"
        }
      ],
      "stateMutability": "view",
      "type": "function",
      "constant": true
    },
    {
      "inputs": [
        {
          "internalType": "address",
          "name": "",
          "type": "address"
        }
      ],
      "name": "producers",
      "outputs": [
        {
          "internalType": "bool",
          "name": "",
          "type": "bool"
        }
      ],
      "stateMutability": "view",
      "type": "function",
      "constant": true
    },
    {
      "inputs": [],
      "name": "renounceOwnership",
      "outputs": [],
      "stateMutability": "nonpayable",
      "type": "function"
    },
    {
      "inputs": [
        {
          "internalType": "address",
          "name": "from",
          "type": "address"
        },
        {
          "internalType": "address",
          "name": "to",
          "type": "address"
        },
        {
          "internalType": "uint256",
          "name": "tokenId",
          "type": "uint256"
        }
      ],
      "name": "safeTransferFrom",
      "outputs": [],
      "stateMutability": "nonpayable",
      "type": "function"
    },
    {
      "inputs": [
        {
          "internalType": "address",
          "name": "from",
          "type": "address"
        },
        {
          "internalType": "address",
          "name": "to",
          "type": "address"
        },
        {
          "internalType": "uint256",
          "name": "tokenId",
          "type": "uint256"
        },
        {
          "internalType": "bytes",
          "name": "data",
          "type": "bytes"
        }
      ],
      "name": "safeTransferFrom",
      "outputs": [],
      "stateMutability": "nonpayable",
      "type": "function"
    },
    {
      "inputs": [
        {
          "internalType": "address",
          "name": "operator",
          "type": "address"
        },
        {
          "internalType": "bool",
          "name": "approved",
          "type": "bool"
        }
      ],
      "name": "setApprovalForAll",
      "outputs": [],
      "stateMutability": "nonpayable",
      "type": "function"
    },
    {
      "inputs": [
        {
          "internalType": "bytes4",
          "name": "interfaceId",
          "type": "bytes4"
        }
      ],
      "name": "supportsInterface",
      "outputs": [
        {
          "internalType": "bool",
          "name": "",
          "type": "bool"
        }
      ],
      "stateMutability": "view",
      "type": "function",
      "constant": true
    },
    {
      "inputs": [],
      "name": "symbol",
      "outputs": [
        {
          "internalType": "string",
          "name": "",
          "type": "string"
        }
      ],
      "stateMutability": "view",
      "type": "function",
      "constant": true
    },
    {
      "inputs": [
        {
          "internalType": "uint256",
          "name": "tokenId",
          "type": "uint256"
        }
      ],
      "name": "tokenURI",
      "outputs": [
        {
          "internalType": "string",
          "name": "",
          "type": "string"
        }
      ],
      "stateMutability": "view",
      "type": "function",
      "constant": true
    },
    {
      "inputs": [
        {
          "internalType": "address",
          "name": "from",
          "type": "address"
        },
        {
          "internalType": "address",
          "name": "to",
          "type": "address"
        },
        {
          "internalType": "uint256",
          "name": "tokenId",
          "type": "uint256"
        }
      ],
      "name": "transferFrom",
      "outputs": [],
      "stateMutability": "nonpayable",
      "type": "function"
    },
    {
      "inputs": [
        {
          "internalType": "address",
          "name": "newOwner",
          "type": "address"
        }
      ],
      "name": "transferOwnership",
      "outputs": [],
      "stateMutability": "nonpayable",
      "type": "function"
    },
    {
      "inputs": [
        {
          "internalType": "uint256",
          "name": "_partId",
          "type": "uint256"
        }
      ],
      "name": "getListingPrice",
      "outputs": [
        {
          "internalType": "uint256",
          "name": "",
          "type": "uint256"
        }
      ],
      "stateMutability": "view",
      "type": "function",
      "constant": true
    },
    {
      "inputs": [
        {
          "internalType": "address",
          "name": "_producer",
          "type": "address"
        },
        {
          "internalType": "string",
          "name": "_tokenURI",
          "type": "string"
        }
      ],
      "name": "createPart",
      "outputs": [
        {
          "internalType": "uint256",
          "name": "",
          "type": "uint256"
        }
      ],
      "stateMutability": "nonpayable",
      "type": "function"
    },
    {
      "inputs": [
        {
          "internalType": "address",
          "name": "_producer",
          "type": "address"
        }
      ],
      "name": "registerPartCreator",
      "outputs": [],
      "stateMutability": "nonpayable",
      "type": "function"
    },
    {
      "inputs": [
        {
          "internalType": "address",
          "name": "_producer",
          "type": "address"
        }
      ],
      "name": "removePartCreator",
      "outputs": [],
      "stateMutability": "nonpayable",
      "type": "function"
    },
    {
      "inputs": [
        {
          "internalType": "uint256",
          "name": "_PartId",
          "type": "uint256"
        },
        {
          "internalType": "uint256",
          "name": "_equipmentId",
          "type": "uint256"
        }
      ],
      "name": "installPartOnEquipment",
      "outputs": [],
      "stateMutability": "nonpayable",
      "type": "function"
    },
    {
      "inputs": [
        {
          "internalType": "uint256",
          "name": "_PartId",
          "type": "uint256"
        },
        {
          "internalType": "uint256",
          "name": "_equipmentId",
          "type": "uint256"
        }
      ],
      "name": "removePartFromEquipment",
      "outputs": [],
      "stateMutability": "nonpayable",
      "type": "function"
    },
    {
      "inputs": [
        {
          "internalType": "uint256",
          "name": "_equipmentId",
          "type": "uint256"
        },
        {
          "internalType": "enum CycleChain.EquipmentCategory",
          "name": "_equipmentCategory",
          "type": "uint8"
        },
        {
          "internalType": "string",
          "name": "_equipmentModel",
          "type": "string"
        },
        {
          "internalType": "address",
          "name": "_owner",
          "type": "address"
        }
      ],
      "name": "createEquipment",
      "outputs": [],
      "stateMutability": "nonpayable",
      "type": "function"
    },
    {
      "inputs": [
        {
          "internalType": "uint256",
          "name": "_equipmentId",
          "type": "uint256"
        }
      ],
      "name": "deleteEquipment",
      "outputs": [],
      "stateMutability": "nonpayable",
      "type": "function"
    },
    {
      "inputs": [
        {
          "internalType": "uint256",
          "name": "_partId",
          "type": "uint256"
        },
        {
          "internalType": "uint256",
          "name": "_price",
          "type": "uint256"
        }
      ],
      "name": "listPart",
      "outputs": [],
      "stateMutability": "nonpayable",
      "type": "function"
    },
    {
      "inputs": [
        {
          "internalType": "uint256",
          "name": "_partId",
          "type": "uint256"
        }
      ],
      "name": "delistPart",
      "outputs": [],
      "stateMutability": "nonpayable",
      "type": "function"
    },
    {
      "inputs": [
        {
          "internalType": "uint256",
          "name": "_partId",
          "type": "uint256"
        },
        {
          "internalType": "uint256",
          "name": "_price",
          "type": "uint256"
        }
      ],
      "name": "updateListingPrice",
      "outputs": [],
      "stateMutability": "nonpayable",
      "type": "function"
    },
    {
      "inputs": [
        {
          "internalType": "uint256",
          "name": "_partId",
          "type": "uint256"
        }
      ],
      "name": "marketBuyPart",
      "outputs": [],
      "stateMutability": "payable",
      "type": "function",
      "payable": true
    }
  ],
  "bytecode": "0x60806040523480156200001157600080fd5b506040518060400160405280600481526020017f50617274000000000000000000000000000000000000000000000000000000008152506040518060400160405280600281526020017f4343000000000000000000000000000000000000000000000000000000000000815250816000908051906020019062000096929190620001a6565b508060019080519060200190620000af929190620001a6565b505050620000d2620000c6620000d860201b60201c565b620000e060201b60201c565b620002ba565b600033905090565b6000600760009054906101000a900473ffffffffffffffffffffffffffffffffffffffff16905081600760006101000a81548173ffffffffffffffffffffffffffffffffffffffff021916908373ffffffffffffffffffffffffffffffffffffffff1602179055508173ffffffffffffffffffffffffffffffffffffffff168173ffffffffffffffffffffffffffffffffffffffff167f8be0079c531659141344cd1fd0a4f28419497f9722a3daafe3b4186f6b6457e060405160405180910390a35050565b828054620001b49062000285565b90600052602060002090601f016020900481019282620001d8576000855562000224565b82601f10620001f357805160ff191683800117855562000224565b8280016001018555821562000224579182015b828111156200022357825182559160200191906001019062000206565b5b50905062000233919062000237565b5090565b5b808211156200025257600081600090555060010162000238565b5090565b7f4e487b7100000000000000000000000000000000000000000000000000000000600052602260045260246000fd5b600060028204905060018216806200029e57607f821691505b602082108103620002b457620002b362000256565b5b50919050565b6150c580620002ca6000396000f3fe6080604052600436106101c25760003560e01c8063715018a6116100f7578063b88d4fde11610095578063d6077fbf11610064578063d6077fbf1461063b578063d8a89c4e14610678578063e985e9c5146106a1578063f2fde38b146106de576101c2565b8063b88d4fde14610590578063c4604943146105b9578063c87b56dd146105e2578063d48eee291461061f576101c2565b806395d89b41116100d157806395d89b41146104ea578063a14b98a814610515578063a22cb4651461053e578063a666772c14610567576101c2565b8063715018a61461047f5780638da5cb5b14610496578063940b434f146104c1576101c2565b806326324eff1161016457806361856aca1161013e57806361856aca146103b35780636352211e146103dc57806370a082311461041957806370e8713214610456576101c2565b806326324eff1461032457806342842e0e146103615780634fc5e9c01461038a576101c2565b8063095ea7b3116101a0578063095ea7b31461026c5780630a451131146102955780631ae01fb2146102be57806323b872dd146102fb576101c2565b806301ffc9a7146101c757806306fdde0314610204578063081812fc1461022f575b600080fd5b3480156101d357600080fd5b506101ee60048036038101906101e991906136fc565b610707565b6040516101fb9190613744565b60405180910390f35b34801561021057600080fd5b506102196107e9565b60405161022691906137f8565b60405180910390f35b34801561023b57600080fd5b5061025660048036038101906102519190613850565b61087b565b60405161026391906138be565b60405180910390f35b34801561027857600080fd5b50610293600480360381019061028e9190613905565b6108c1565b005b3480156102a157600080fd5b506102bc60048036038101906102b79190613945565b6109d8565b005b3480156102ca57600080fd5b506102e560048036038101906102e09190613aa7565b610b05565b6040516102f29190613b12565b60405180910390f35b34801561030757600080fd5b50610322600480360381019061031d9190613b2d565b610ca5565b005b34801561033057600080fd5b5061034b60048036038101906103469190613945565b610d05565b6040516103589190613744565b60405180910390f35b34801561036d57600080fd5b5061038860048036038101906103839190613b2d565b610d25565b005b34801561039657600080fd5b506103b160048036038101906103ac9190613b80565b610d45565b005b3480156103bf57600080fd5b506103da60048036038101906103d59190613b80565b610f49565b005b3480156103e857600080fd5b5061040360048036038101906103fe9190613850565b61114c565b60405161041091906138be565b60405180910390f35b34801561042557600080fd5b50610440600480360381019061043b9190613945565b6111d2565b60405161044d9190613b12565b60405180910390f35b34801561046257600080fd5b5061047d60048036038101906104789190613850565b611289565b005b34801561048b57600080fd5b5061049461145f565b005b3480156104a257600080fd5b506104ab611473565b6040516104b891906138be565b60405180910390f35b3480156104cd57600080fd5b506104e860048036038101906104e39190613be5565b61149d565b005b3480156104f657600080fd5b506104ff6117a7565b60405161050c91906137f8565b60405180910390f35b34801561052157600080fd5b5061053c60048036038101906105379190613945565b611839565b005b34801561054a57600080fd5b5061056560048036038101906105609190613c94565b611966565b005b34801561057357600080fd5b5061058e60048036038101906105899190613850565b61197c565b005b34801561059c57600080fd5b506105b760048036038101906105b29190613d75565b611c01565b005b3480156105c557600080fd5b506105e060048036038101906105db9190613b80565b611c63565b005b3480156105ee57600080fd5b5061060960048036038101906106049190613850565b611e0c565b60405161061691906137f8565b60405180910390f35b61063960048036038101906106349190613850565b611f1e565b005b34801561064757600080fd5b50610662600480360381019061065d9190613850565b612169565b60405161066f9190613b12565b60405180910390f35b34801561068457600080fd5b5061069f600480360381019061069a9190613b80565b6121f3565b005b3480156106ad57600080fd5b506106c860048036038101906106c39190613df8565b6123cb565b6040516106d59190613744565b60405180910390f35b3480156106ea57600080fd5b5061070560048036038101906107009190613945565b61245f565b005b60007f80ac58cd000000000000000000000000000000000000000000000000000000007bffffffffffffffffffffffffffffffffffffffffffffffffffffffff1916827bffffffffffffffffffffffffffffffffffffffffffffffffffffffff191614806107d257507f5b5e139f000000000000000000000000000000000000000000000000000000007bffffffffffffffffffffffffffffffffffffffffffffffffffffffff1916827bffffffffffffffffffffffffffffffffffffffffffffffffffffffff1916145b806107e257506107e1826124e2565b5b9050919050565b6060600080546107f890613e67565b80601f016020809104026020016040519081016040528092919081815260200182805461082490613e67565b80156108715780601f1061084657610100808354040283529160200191610871565b820191906000526020600020905b81548152906001019060200180831161085457829003601f168201915b5050505050905090565b60006108868261254c565b6004600083815260200190815260200160002060009054906101000a900473ffffffffffffffffffffffffffffffffffffffff169050919050565b60006108cc8261114c565b90508073ffffffffffffffffffffffffffffffffffffffff168373ffffffffffffffffffffffffffffffffffffffff160361093c576040517f08c379a000000000000000000000000000000000000000000000000000000000815260040161093390613f0a565b60405180910390fd5b8073ffffffffffffffffffffffffffffffffffffffff1661095b612597565b73ffffffffffffffffffffffffffffffffffffffff16148061098a575061098981610984612597565b6123cb565b5b6109c9576040517f08c379a00000000000000000000000000000000000000000000000000000000081526004016109c090613f9c565b60405180910390fd5b6109d3838361259f565b505050565b6109e0612658565b60011515600d60008373ffffffffffffffffffffffffffffffffffffffff1673ffffffffffffffffffffffffffffffffffffffff16815260200190815260200160002060009054906101000a900460ff16151514610a73576040517f08c379a0000000000000000000000000000000000000000000000000000000008152600401610a6a9061402e565b60405180910390fd5b6000600d60008373ffffffffffffffffffffffffffffffffffffffff1673ffffffffffffffffffffffffffffffffffffffff16815260200190815260200160002060006101000a81548160ff0219169083151502179055507f5d14231873f0da6e86febb13b24f5e3f4066068207cbbbfe1cd4dad732d79d0381604051610afa91906138be565b60405180910390a150565b600060011515600d60003373ffffffffffffffffffffffffffffffffffffffff1673ffffffffffffffffffffffffffffffffffffffff16815260200190815260200160002060009054906101000a900460ff16151514610b9a576040517f08c379a0000000000000000000000000000000000000000000000000000000008152600401610b919061409a565b60405180910390fd5b600073ffffffffffffffffffffffffffffffffffffffff168373ffffffffffffffffffffffffffffffffffffffff1603610c09576040517f08c379a0000000000000000000000000000000000000000000000000000000008152600401610c009061412c565b60405180910390fd5b610c1360086126d6565b6000610c1f60086126ec565b9050610c2b84826126fa565b610c358184612917565b6001600c600083815260200190815260200160002060010160006101000a81548160ff0219169083151502179055507fbeb6ef1e252bba53ccc7403a1dbbfed2526fd6136f583a36b73c4adb67331b8a81604051610c939190613b12565b60405180910390a18091505092915050565b610cb6610cb0612597565b8261298b565b610cf5576040517f08c379a0000000000000000000000000000000000000000000000000000000008152600401610cec906141be565b60405180910390fd5b610d00838383612a20565b505050565b600d6020528060005260406000206000915054906101000a900460ff1681565b610d4083838360405180602001604052806000815250611c01565b505050565b3373ffffffffffffffffffffffffffffffffffffffff16610d658361114c565b73ffffffffffffffffffffffffffffffffffffffff1614610dbb576040517f08c379a0000000000000000000000000000000000000000000000000000000008152600401610db29061422a565b60405180910390fd5b60011515600b60003373ffffffffffffffffffffffffffffffffffffffff1673ffffffffffffffffffffffffffffffffffffffff168152602001908152602001600020600083815260200190815260200160002060020160009054906101000a900460ff16151514610e62576040517f08c379a0000000000000000000000000000000000000000000000000000000008152600401610e59906142bc565b60405180910390fd5b6000600c60008481526020019081526020016000206000015403610ebb576040517f08c379a0000000000000000000000000000000000000000000000000000000008152600401610eb29061434e565b60405180910390fd5b60001515600a6000838152602001908152602001600020600084815260200190815260200160002060009054906101000a905050506000600c6000848152602001908152602001600020600001819055507f867e463624c65b27e598a7c01832fe9181e5f9a6dab0af51fb8f485c270ddba28282604051610f3d92919061436e565b60405180910390a15050565b3373ffffffffffffffffffffffffffffffffffffffff16610f698361114c565b73ffffffffffffffffffffffffffffffffffffffff1614610fbf576040517f08c379a0000000000000000000000000000000000000000000000000000000008152600401610fb69061422a565b60405180910390fd5b60011515600b60003373ffffffffffffffffffffffffffffffffffffffff1673ffffffffffffffffffffffffffffffffffffffff168152602001908152602001600020600083815260200190815260200160002060020160009054906101000a900460ff16151514611066576040517f08c379a000000000000000000000000000000000000000000000000000000000815260040161105d906142bc565b60405180910390fd5b6000600c600084815260200190815260200160002060000154146110bf576040517f08c379a00000000000000000000000000000000000000000000000000000000081526004016110b690614409565b60405180910390fd5b60011515600a6000838152602001908152602001600020600084815260200190815260200160002060009054906101000a9050505080600c6000848152602001908152602001600020600001819055507f50d86bad08fcf7d4ecb6ee7876280f8e985045fd5570849fd23aafb3450c6cfe828260405161114092919061436e565b60405180910390a15050565b60008061115883612d19565b9050600073ffffffffffffffffffffffffffffffffffffffff168173ffffffffffffffffffffffffffffffffffffffff16036111c9576040517f08c379a00000000000000000000000000000000000000000000000000000000081526004016111c090614475565b60405180910390fd5b80915050919050565b60008073ffffffffffffffffffffffffffffffffffffffff168273ffffffffffffffffffffffffffffffffffffffff1603611242576040517f08c379a000000000000000000000000000000000000000000000000000000000815260040161123990614507565b60405180910390fd5b600360008373ffffffffffffffffffffffffffffffffffffffff1673ffffffffffffffffffffffffffffffffffffffff168152602001908152602001600020549050919050565b3073ffffffffffffffffffffffffffffffffffffffff16636352211e826040518263ffffffff1660e01b81526004016112c29190613b12565b602060405180830381865afa1580156112df573d6000803e3d6000fd5b505050506040513d601f19601f82011682018060405250810190611303919061453c565b73ffffffffffffffffffffffffffffffffffffffff163373ffffffffffffffffffffffffffffffffffffffff1614611370576040517f08c379a0000000000000000000000000000000000000000000000000000000008152600401611367906145b5565b60405180910390fd5b60011515600c600083815260200190815260200160002060010160019054906101000a900460ff161515146113da576040517f08c379a00000000000000000000000000000000000000000000000000000000081526004016113d190614621565b60405180910390fd5b6000600c600083815260200190815260200160002060010160016101000a81548160ff0219169083151502179055506000600c6000838152602001908152602001600020600201819055507f37b601bebae61c1dfbe5247b3812e25d3e4e8aac92c9c428eb320d5af035f5ab816040516114549190613b12565b60405180910390a150565b611467612658565b6114716000612d56565b565b6000600760009054906101000a900473ffffffffffffffffffffffffffffffffffffffff16905090565b60011515600d60003373ffffffffffffffffffffffffffffffffffffffff1673ffffffffffffffffffffffffffffffffffffffff16815260200190815260200160002060009054906101000a900460ff16151514611530576040517f08c379a00000000000000000000000000000000000000000000000000000000081526004016115279061409a565b60405180910390fd5b60001515600b60003373ffffffffffffffffffffffffffffffffffffffff1673ffffffffffffffffffffffffffffffffffffffff168152602001908152602001600020600086815260200190815260200160002060020160009054906101000a900460ff161515146115d7576040517f08c379a00000000000000000000000000000000000000000000000000000000081526004016115ce9061468d565b60405180910390fd5b6115df61359b565b83816020019060018111156115f7576115f66146ad565b5b9081600181111561160b5761160a6146ad565b5b8152505033816000019073ffffffffffffffffffffffffffffffffffffffff16908173ffffffffffffffffffffffffffffffffffffffff1681525050828160400181905250600181606001901515908115158152505080600b60008473ffffffffffffffffffffffffffffffffffffffff1673ffffffffffffffffffffffffffffffffffffffff168152602001908152602001600020600087815260200190815260200160002060008201518160000160006101000a81548173ffffffffffffffffffffffffffffffffffffffff021916908373ffffffffffffffffffffffffffffffffffffffff16021790555060208201518160000160146101000a81548160ff02191690836001811115611724576117236146ad565b5b021790555060408201518160010190805190602001906117459291906135ed565b5060608201518160020160006101000a81548160ff0219169083151502179055509050507fed2820e91c87cd0840b1c796bbde9d387a5f3b0cd055f5428de0685c6480ca2a856040516117989190613b12565b60405180910390a15050505050565b6060600180546117b690613e67565b80601f01602080910402602001604051908101604052809291908181526020018280546117e290613e67565b801561182f5780601f106118045761010080835404028352916020019161182f565b820191906000526020600020905b81548152906001019060200180831161181257829003601f168201915b5050505050905090565b611841612658565b60001515600d60008373ffffffffffffffffffffffffffffffffffffffff1673ffffffffffffffffffffffffffffffffffffffff16815260200190815260200160002060009054906101000a900460ff161515146118d4576040517f08c379a00000000000000000000000000000000000000000000000000000000081526004016118cb9061474e565b60405180910390fd5b6001600d60008373ffffffffffffffffffffffffffffffffffffffff1673ffffffffffffffffffffffffffffffffffffffff16815260200190815260200160002060006101000a81548160ff0219169083151502179055507f38ef3ae2f41c76b0a3544fdd2460f483802a9d3e8b9c5f8d6c7798531463a9348160405161195b91906138be565b60405180910390a150565b611978611971612597565b8383612e1c565b5050565b60011515600d60003373ffffffffffffffffffffffffffffffffffffffff1673ffffffffffffffffffffffffffffffffffffffff16815260200190815260200160002060009054906101000a900460ff16151514611a0f576040517f08c379a0000000000000000000000000000000000000000000000000000000008152600401611a069061409a565b60405180910390fd5b60011515600b60003373ffffffffffffffffffffffffffffffffffffffff1673ffffffffffffffffffffffffffffffffffffffff168152602001908152602001600020600083815260200190815260200160002060020160009054906101000a900460ff16151514611ab6576040517f08c379a0000000000000000000000000000000000000000000000000000000008152600401611aad906147ba565b60405180910390fd5b611abe61359b565b80600b60003373ffffffffffffffffffffffffffffffffffffffff1673ffffffffffffffffffffffffffffffffffffffff168152602001908152602001600020600084815260200190815260200160002060008201518160000160006101000a81548173ffffffffffffffffffffffffffffffffffffffff021916908373ffffffffffffffffffffffffffffffffffffffff16021790555060208201518160000160146101000a81548160ff02191690836001811115611b8157611b806146ad565b5b02179055506040820151816001019080519060200190611ba29291906135ed565b5060608201518160020160006101000a81548160ff0219169083151502179055509050507f1832481a30dcb2a998b6333c25e6aed43a89a530c70599c032b10fda1a65c4f282604051611bf59190613b12565b60405180910390a15050565b611c12611c0c612597565b8361298b565b611c51576040517f08c379a0000000000000000000000000000000000000000000000000000000008152600401611c48906141be565b60405180910390fd5b611c5d84848484612f88565b50505050565b3073ffffffffffffffffffffffffffffffffffffffff16636352211e836040518263ffffffff1660e01b8152600401611c9c9190613b12565b602060405180830381865afa158015611cb9573d6000803e3d6000fd5b505050506040513d601f19601f82011682018060405250810190611cdd919061453c565b73ffffffffffffffffffffffffffffffffffffffff163373ffffffffffffffffffffffffffffffffffffffff1614611d4a576040517f08c379a0000000000000000000000000000000000000000000000000000000008152600401611d41906145b5565b60405180910390fd5b60011515600c600084815260200190815260200160002060010160019054906101000a900460ff16151514611db4576040517f08c379a0000000000000000000000000000000000000000000000000000000008152600401611dab90614621565b60405180910390fd5b80600c6000848152602001908152602001600020600201819055507f6ef7f5c0328392c4b3ccca1774f1aecaaa818eb7b2087a2f41b359b7afbf36f48282604051611e0092919061436e565b60405180910390a15050565b6060611e178261254c565b6000600660008481526020019081526020016000208054611e3790613e67565b80601f0160208091040260200160405190810160405280929190818152602001828054611e6390613e67565b8015611eb05780601f10611e8557610100808354040283529160200191611eb0565b820191906000526020600020905b815481529060010190602001808311611e9357829003601f168201915b505050505090506000611ec1612fe4565b90506000815103611ed6578192505050611f19565b600082511115611f0b578082604051602001611ef3929190614816565b60405160208183030381529060405292505050611f19565b611f1484612ffb565b925050505b919050565b6000600c600083815260200190815260200160002060020154905060011515600c600084815260200190815260200160002060010160019054906101000a900460ff16151514611fa3576040517f08c379a0000000000000000000000000000000000000000000000000000000008152600401611f9a90614621565b60405180910390fd5b803414611fe5576040517f08c379a0000000000000000000000000000000000000000000000000000000008152600401611fdc906148ac565b60405180910390fd5b60003073ffffffffffffffffffffffffffffffffffffffff16636352211e846040518263ffffffff1660e01b81526004016120209190613b12565b602060405180830381865afa15801561203d573d6000803e3d6000fd5b505050506040513d601f19601f82011682018060405250810190612061919061453c565b90503073ffffffffffffffffffffffffffffffffffffffff166342842e0e8233866040518463ffffffff1660e01b81526004016120a09392919061492b565b600060405180830381600087803b1580156120ba57600080fd5b505af11580156120ce573d6000803e3d6000fd5b505050508073ffffffffffffffffffffffffffffffffffffffff166108fc839081150290604051600060405180830381858888f19350505050158015612118573d6000803e3d6000fd5b506000600c600085815260200190815260200160002060010160016101000a81548160ff0219169083151502179055506000600c600085815260200190815260200160002060020181905550505050565b600060011515600c600084815260200190815260200160002060010160009054906101000a900460ff161515146121d5576040517f08c379a00000000000000000000000000000000000000000000000000000000081526004016121cc906149ae565b60405180910390fd5b600c6000838152602001908152602001600020600201549050919050565b3073ffffffffffffffffffffffffffffffffffffffff16636352211e836040518263ffffffff1660e01b815260040161222c9190613b12565b602060405180830381865afa158015612249573d6000803e3d6000fd5b505050506040513d601f19601f8201168201806040525081019061226d919061453c565b73ffffffffffffffffffffffffffffffffffffffff163373ffffffffffffffffffffffffffffffffffffffff16146122da576040517f08c379a00000000000000000000000000000000000000000000000000000000081526004016122d1906145b5565b60405180910390fd5b60001515600c600084815260200190815260200160002060010160019054906101000a900460ff16151514612344576040517f08c379a000000000000000000000000000000000000000000000000000000000815260040161233b90614a1a565b60405180910390fd5b6001600c600084815260200190815260200160002060010160016101000a81548160ff02191690831515021790555080600c6000848152602001908152602001600020600201819055507f6ef7f5c0328392c4b3ccca1774f1aecaaa818eb7b2087a2f41b359b7afbf36f482826040516123bf92919061436e565b60405180910390a15050565b6000600560008473ffffffffffffffffffffffffffffffffffffffff1673ffffffffffffffffffffffffffffffffffffffff16815260200190815260200160002060008373ffffffffffffffffffffffffffffffffffffffff1673ffffffffffffffffffffffffffffffffffffffff16815260200190815260200160002060009054906101000a900460ff16905092915050565b612467612658565b600073ffffffffffffffffffffffffffffffffffffffff168173ffffffffffffffffffffffffffffffffffffffff16036124d6576040517f08c379a00000000000000000000000000000000000000000000000000000000081526004016124cd90614aac565b60405180910390fd5b6124df81612d56565b50565b60007f01ffc9a7000000000000000000000000000000000000000000000000000000007bffffffffffffffffffffffffffffffffffffffffffffffffffffffff1916827bffffffffffffffffffffffffffffffffffffffffffffffffffffffff1916149050919050565b61255581613063565b612594576040517f08c379a000000000000000000000000000000000000000000000000000000000815260040161258b90614475565b60405180910390fd5b50565b600033905090565b816004600083815260200190815260200160002060006101000a81548173ffffffffffffffffffffffffffffffffffffffff021916908373ffffffffffffffffffffffffffffffffffffffff160217905550808273ffffffffffffffffffffffffffffffffffffffff166126128361114c565b73ffffffffffffffffffffffffffffffffffffffff167f8c5be1e5ebec7d5bd14f71427d1e84f3dd0314c0f7b2291e5b200ac8c7c3b92560405160405180910390a45050565b612660612597565b73ffffffffffffffffffffffffffffffffffffffff1661267e611473565b73ffffffffffffffffffffffffffffffffffffffff16146126d4576040517f08c379a00000000000000000000000000000000000000000000000000000000081526004016126cb90614b18565b60405180910390fd5b565b6001816000016000828254019250508190555050565b600081600001549050919050565b600073ffffffffffffffffffffffffffffffffffffffff168273ffffffffffffffffffffffffffffffffffffffff1603612769576040517f08c379a000000000000000000000000000000000000000000000000000000000815260040161276090614b84565b60405180910390fd5b61277281613063565b156127b2576040517f08c379a00000000000000000000000000000000000000000000000000000000081526004016127a990614bf0565b60405180910390fd5b6127c06000838360016130a4565b6127c981613063565b15612809576040517f08c379a000000000000000000000000000000000000000000000000000000000815260040161280090614bf0565b60405180910390fd5b6001600360008473ffffffffffffffffffffffffffffffffffffffff1673ffffffffffffffffffffffffffffffffffffffff16815260200190815260200160002060008282540192505081905550816002600083815260200190815260200160002060006101000a81548173ffffffffffffffffffffffffffffffffffffffff021916908373ffffffffffffffffffffffffffffffffffffffff160217905550808273ffffffffffffffffffffffffffffffffffffffff16600073ffffffffffffffffffffffffffffffffffffffff167fddf252ad1be2c89b69c2b068fc378daa952ba7f163c4a11628f55a4df523b3ef60405160405180910390a46129136000838360016131ca565b5050565b61292082613063565b61295f576040517f08c379a000000000000000000000000000000000000000000000000000000000815260040161295690614c82565b60405180910390fd5b806006600084815260200190815260200160002090805190602001906129869291906135ed565b505050565b6000806129978361114c565b90508073ffffffffffffffffffffffffffffffffffffffff168473ffffffffffffffffffffffffffffffffffffffff1614806129d957506129d881856123cb565b5b80612a1757508373ffffffffffffffffffffffffffffffffffffffff166129ff8461087b565b73ffffffffffffffffffffffffffffffffffffffff16145b91505092915050565b8273ffffffffffffffffffffffffffffffffffffffff16612a408261114c565b73ffffffffffffffffffffffffffffffffffffffff1614612a96576040517f08c379a0000000000000000000000000000000000000000000000000000000008152600401612a8d90614d14565b60405180910390fd5b600073ffffffffffffffffffffffffffffffffffffffff168273ffffffffffffffffffffffffffffffffffffffff1603612b05576040517f08c379a0000000000000000000000000000000000000000000000000000000008152600401612afc90614da6565b60405180910390fd5b612b1283838360016130a4565b8273ffffffffffffffffffffffffffffffffffffffff16612b328261114c565b73ffffffffffffffffffffffffffffffffffffffff1614612b88576040517f08c379a0000000000000000000000000000000000000000000000000000000008152600401612b7f90614d14565b60405180910390fd5b6004600082815260200190815260200160002060006101000a81549073ffffffffffffffffffffffffffffffffffffffff02191690556001600360008573ffffffffffffffffffffffffffffffffffffffff1673ffffffffffffffffffffffffffffffffffffffff168152602001908152602001600020600082825403925050819055506001600360008473ffffffffffffffffffffffffffffffffffffffff1673ffffffffffffffffffffffffffffffffffffffff16815260200190815260200160002060008282540192505081905550816002600083815260200190815260200160002060006101000a81548173ffffffffffffffffffffffffffffffffffffffff021916908373ffffffffffffffffffffffffffffffffffffffff160217905550808273ffffffffffffffffffffffffffffffffffffffff168473ffffffffffffffffffffffffffffffffffffffff167fddf252ad1be2c89b69c2b068fc378daa952ba7f163c4a11628f55a4df523b3ef60405160405180910390a4612d1483838360016131ca565b505050565b60006002600083815260200190815260200160002060009054906101000a900473ffffffffffffffffffffffffffffffffffffffff169050919050565b6000600760009054906101000a900473ffffffffffffffffffffffffffffffffffffffff16905081600760006101000a81548173ffffffffffffffffffffffffffffffffffffffff021916908373ffffffffffffffffffffffffffffffffffffffff1602179055508173ffffffffffffffffffffffffffffffffffffffff168173ffffffffffffffffffffffffffffffffffffffff167f8be0079c531659141344cd1fd0a4f28419497f9722a3daafe3b4186f6b6457e060405160405180910390a35050565b8173ffffffffffffffffffffffffffffffffffffffff168373ffffffffffffffffffffffffffffffffffffffff1603612e8a576040517f08c379a0000000000000000000000000000000000000000000000000000000008152600401612e8190614e12565b60405180910390fd5b80600560008573ffffffffffffffffffffffffffffffffffffffff1673ffffffffffffffffffffffffffffffffffffffff16815260200190815260200160002060008473ffffffffffffffffffffffffffffffffffffffff1673ffffffffffffffffffffffffffffffffffffffff16815260200190815260200160002060006101000a81548160ff0219169083151502179055508173ffffffffffffffffffffffffffffffffffffffff168373ffffffffffffffffffffffffffffffffffffffff167f17307eab39ab6107e8899845ad3d59bd9653f200f220920489ca2b5937696c3183604051612f7b9190613744565b60405180910390a3505050565b612f93848484612a20565b612f9f848484846131d0565b612fde576040517f08c379a0000000000000000000000000000000000000000000000000000000008152600401612fd590614ea4565b60405180910390fd5b50505050565b606060405180602001604052806000815250905090565b60606130068261254c565b6000613010612fe4565b90506000815111613030576040518060200160405280600081525061305b565b8061303a84613357565b60405160200161304b929190614816565b6040516020818303038152906040525b915050919050565b60008073ffffffffffffffffffffffffffffffffffffffff1661308583612d19565b73ffffffffffffffffffffffffffffffffffffffff1614159050919050565b60018111156131c457600073ffffffffffffffffffffffffffffffffffffffff168473ffffffffffffffffffffffffffffffffffffffff16146131385780600360008673ffffffffffffffffffffffffffffffffffffffff1673ffffffffffffffffffffffffffffffffffffffff16815260200190815260200160002060008282546131309190614ef3565b925050819055505b600073ffffffffffffffffffffffffffffffffffffffff168373ffffffffffffffffffffffffffffffffffffffff16146131c35780600360008573ffffffffffffffffffffffffffffffffffffffff1673ffffffffffffffffffffffffffffffffffffffff16815260200190815260200160002060008282546131bb9190614f27565b925050819055505b5b50505050565b50505050565b60006131f18473ffffffffffffffffffffffffffffffffffffffff16613425565b1561334a578373ffffffffffffffffffffffffffffffffffffffff1663150b7a0261321a612597565b8786866040518563ffffffff1660e01b815260040161323c9493929190614fd2565b6020604051808303816000875af192505050801561327857506040513d601f19601f820116820180604052508101906132759190615033565b60015b6132fa573d80600081146132a8576040519150601f19603f3d011682016040523d82523d6000602084013e6132ad565b606091505b5060008151036132f2576040517f08c379a00000000000000000000000000000000000000000000000000000000081526004016132e990614ea4565b60405180910390fd5b805181602001fd5b63150b7a0260e01b7bffffffffffffffffffffffffffffffffffffffffffffffffffffffff1916817bffffffffffffffffffffffffffffffffffffffffffffffffffffffff19161491505061334f565b600190505b949350505050565b60606000600161336684613448565b01905060008167ffffffffffffffff8111156133855761338461397c565b5b6040519080825280601f01601f1916602001820160405280156133b75781602001600182028036833780820191505090505b509050600082602001820190505b60011561341a578080600190039150507f3031323334353637383961626364656600000000000000000000000000000000600a86061a8153600a858161340e5761340d615060565b5b049450600085036133c5575b819350505050919050565b6000808273ffffffffffffffffffffffffffffffffffffffff163b119050919050565b600080600090507a184f03e93ff9f4daa797ed6e38ed64bf6a1f01000000000000000083106134a6577a184f03e93ff9f4daa797ed6e38ed64bf6a1f010000000000000000838161349c5761349b615060565b5b0492506040810190505b6d04ee2d6d415b85acef810000000083106134e3576d04ee2d6d415b85acef810000000083816134d9576134d8615060565b5b0492506020810190505b662386f26fc10000831061351257662386f26fc10000838161350857613507615060565b5b0492506010810190505b6305f5e100831061353b576305f5e100838161353157613530615060565b5b0492506008810190505b612710831061356057612710838161355657613555615060565b5b0492506004810190505b60648310613583576064838161357957613578615060565b5b0492506002810190505b600a8310613592576001810190505b80915050919050565b6040518060800160405280600073ffffffffffffffffffffffffffffffffffffffff168152602001600060018111156135d7576135d66146ad565b5b8152602001606081526020016000151581525090565b8280546135f990613e67565b90600052602060002090601f01602090048101928261361b5760008555613662565b82601f1061363457805160ff1916838001178555613662565b82800160010185558215613662579182015b82811115613661578251825591602001919060010190613646565b5b50905061366f9190613673565b5090565b5b8082111561368c576000816000905550600101613674565b5090565b6000604051905090565b600080fd5b600080fd5b60007fffffffff0000000000000000000000000000000000000000000000000000000082169050919050565b6136d9816136a4565b81146136e457600080fd5b50565b6000813590506136f6816136d0565b92915050565b6000602082840312156137125761371161369a565b5b6000613720848285016136e7565b91505092915050565b60008115159050919050565b61373e81613729565b82525050565b60006020820190506137596000830184613735565b92915050565b600081519050919050565b600082825260208201905092915050565b60005b8381101561379957808201518184015260208101905061377e565b838111156137a8576000848401525b50505050565b6000601f19601f8301169050919050565b60006137ca8261375f565b6137d4818561376a565b93506137e481856020860161377b565b6137ed816137ae565b840191505092915050565b6000602082019050818103600083015261381281846137bf565b905092915050565b6000819050919050565b61382d8161381a565b811461383857600080fd5b50565b60008135905061384a81613824565b92915050565b6000602082840312156138665761386561369a565b5b60006138748482850161383b565b91505092915050565b600073ffffffffffffffffffffffffffffffffffffffff82169050919050565b60006138a88261387d565b9050919050565b6138b88161389d565b82525050565b60006020820190506138d360008301846138af565b92915050565b6138e28161389d565b81146138ed57600080fd5b50565b6000813590506138ff816138d9565b92915050565b6000806040838503121561391c5761391b61369a565b5b600061392a858286016138f0565b925050602061393b8582860161383b565b9150509250929050565b60006020828403121561395b5761395a61369a565b5b6000613969848285016138f0565b91505092915050565b600080fd5b600080fd5b7f4e487b7100000000000000000000000000000000000000000000000000000000600052604160045260246000fd5b6139b4826137ae565b810181811067ffffffffffffffff821117156139d3576139d261397c565b5b80604052505050565b60006139e6613690565b90506139f282826139ab565b919050565b600067ffffffffffffffff821115613a1257613a1161397c565b5b613a1b826137ae565b9050602081019050919050565b82818337600083830152505050565b6000613a4a613a45846139f7565b6139dc565b905082815260208101848484011115613a6657613a65613977565b5b613a71848285613a28565b509392505050565b600082601f830112613a8e57613a8d613972565b5b8135613a9e848260208601613a37565b91505092915050565b60008060408385031215613abe57613abd61369a565b5b6000613acc858286016138f0565b925050602083013567ffffffffffffffff811115613aed57613aec61369f565b5b613af985828601613a79565b9150509250929050565b613b0c8161381a565b82525050565b6000602082019050613b276000830184613b03565b92915050565b600080600060608486031215613b4657613b4561369a565b5b6000613b54868287016138f0565b9350506020613b65868287016138f0565b9250506040613b768682870161383b565b9150509250925092565b60008060408385031215613b9757613b9661369a565b5b6000613ba58582860161383b565b9250506020613bb68582860161383b565b9150509250929050565b60028110613bcd57600080fd5b50565b600081359050613bdf81613bc0565b92915050565b60008060008060808587031215613bff57613bfe61369a565b5b6000613c0d8782880161383b565b9450506020613c1e87828801613bd0565b935050604085013567ffffffffffffffff811115613c3f57613c3e61369f565b5b613c4b87828801613a79565b9250506060613c5c878288016138f0565b91505092959194509250565b613c7181613729565b8114613c7c57600080fd5b50565b600081359050613c8e81613c68565b92915050565b60008060408385031215613cab57613caa61369a565b5b6000613cb9858286016138f0565b9250506020613cca85828601613c7f565b9150509250929050565b600067ffffffffffffffff821115613cef57613cee61397c565b5b613cf8826137ae565b9050602081019050919050565b6000613d18613d1384613cd4565b6139dc565b905082815260208101848484011115613d3457613d33613977565b5b613d3f848285613a28565b509392505050565b600082601f830112613d5c57613d5b613972565b5b8135613d6c848260208601613d05565b91505092915050565b60008060008060808587031215613d8f57613d8e61369a565b5b6000613d9d878288016138f0565b9450506020613dae878288016138f0565b9350506040613dbf8782880161383b565b925050606085013567ffffffffffffffff811115613de057613ddf61369f565b5b613dec87828801613d47565b91505092959194509250565b60008060408385031215613e0f57613e0e61369a565b5b6000613e1d858286016138f0565b9250506020613e2e858286016138f0565b9150509250929050565b7f4e487b7100000000000000000000000000000000000000000000000000000000600052602260045260246000fd5b60006002820490506001821680613e7f57607f821691505b602082108103613e9257613e91613e38565b5b50919050565b7f4552433732313a20617070726f76616c20746f2063757272656e74206f776e6560008201527f7200000000000000000000000000000000000000000000000000000000000000602082015250565b6000613ef460218361376a565b9150613eff82613e98565b604082019050919050565b60006020820190508181036000830152613f2381613ee7565b9050919050565b7f4552433732313a20617070726f76652063616c6c6572206973206e6f7420746f60008201527f6b656e206f776e6572206f7220617070726f76656420666f7220616c6c000000602082015250565b6000613f86603d8361376a565b9150613f9182613f2a565b604082019050919050565b60006020820190508181036000830152613fb581613f79565b9050919050565b7f546869732061646472657373206973206e6f742072656769737465726564206160008201527f73206120506172742043726561746f722e000000000000000000000000000000602082015250565b600061401860318361376a565b915061402382613fbc565b604082019050919050565b600060208201905081810360008301526140478161400b565b9050919050565b7f596f7520617265206e6f7420612070726f64756365722e000000000000000000600082015250565b600061408460178361376a565b915061408f8261404e565b602082019050919050565b600060208201905081810360008301526140b381614077565b9050919050565b7f4552433732312063616e6e6f74206265206d696e74656420746f20746865207a60008201527f65726f2061646472657373000000000000000000000000000000000000000000602082015250565b6000614116602b8361376a565b9150614121826140ba565b604082019050919050565b6000602082019050818103600083015261414581614109565b9050919050565b7f4552433732313a2063616c6c6572206973206e6f7420746f6b656e206f776e6560008201527f72206f7220617070726f76656400000000000000000000000000000000000000602082015250565b60006141a8602d8361376a565b91506141b38261414c565b604082019050919050565b600060208201905081810360008301526141d78161419b565b9050919050565b7f596f7520646f206e6f7420706f7373657373207468697320706172742e000000600082015250565b6000614214601d8361376a565b915061421f826141de565b602082019050919050565b6000602082019050818103600083015261424381614207565b9050919050565b7f596f7520646f206e6f7420706f737365737320746869732065717569706d656e60008201527f742e000000000000000000000000000000000000000000000000000000000000602082015250565b60006142a660228361376a565b91506142b18261424a565b604082019050919050565b600060208201905081810360008301526142d581614299565b9050919050565b7f546869732070617274206973206e6f7420696e7374616c6c6564206f6e20616e60008201527f2065717569706d656e742e000000000000000000000000000000000000000000602082015250565b6000614338602b8361376a565b9150614343826142dc565b604082019050919050565b600060208201905081810360008301526143678161432b565b9050919050565b60006040820190506143836000830185613b03565b6143906020830184613b03565b9392505050565b7f54686973207061727420697320616c726561647920696e7374616c6c6564206f60008201527f6e20616e2065717569706d656e742e0000000000000000000000000000000000602082015250565b60006143f3602f8361376a565b91506143fe82614397565b604082019050919050565b60006020820190508181036000830152614422816143e6565b9050919050565b7f4552433732313a20696e76616c696420746f6b656e2049440000000000000000600082015250565b600061445f60188361376a565b915061446a82614429565b602082019050919050565b6000602082019050818103600083015261448e81614452565b9050919050565b7f4552433732313a2061646472657373207a65726f206973206e6f74206120766160008201527f6c6964206f776e65720000000000000000000000000000000000000000000000602082015250565b60006144f160298361376a565b91506144fc82614495565b604082019050919050565b60006020820190508181036000830152614520816144e4565b9050919050565b600081519050614536816138d9565b92915050565b6000602082840312156145525761455161369a565b5b600061456084828501614527565b91505092915050565b7f596f7520646f6e277420706f7373657373207468697320706172742e00000000600082015250565b600061459f601c8361376a565b91506145aa82614569565b602082019050919050565b600060208201905081810360008301526145ce81614592565b9050919050565b7f546869732070617274206973206e6f74206c69737465642e0000000000000000600082015250565b600061460b60188361376a565b9150614616826145d5565b602082019050919050565b6000602082019050818103600083015261463a816145fe565b9050919050565b7f596f7520616c7265616479206861766520746869732065717569706d656e742e600082015250565b600061467760208361376a565b915061468282614641565b602082019050919050565b600060208201905081810360008301526146a68161466a565b9050919050565b7f4e487b7100000000000000000000000000000000000000000000000000000000600052602160045260246000fd5b7f54686973206164647265737320697320616c726561647920726567697374657260008201527f6564206173206120506172742043726561746f722e0000000000000000000000602082015250565b600061473860358361376a565b9150614743826146dc565b604082019050919050565b600060208201905081810360008301526147678161472b565b9050919050565b7f596f7520646f6e2774206861766520746869732065717569706d656e742e0000600082015250565b60006147a4601e8361376a565b91506147af8261476e565b602082019050919050565b600060208201905081810360008301526147d381614797565b9050919050565b600081905092915050565b60006147f08261375f565b6147fa81856147da565b935061480a81856020860161377b565b80840191505092915050565b600061482282856147e5565b915061482e82846147e5565b91508190509392505050565b7f4d6573736167652076616c7565206973206e6f7420657175616c20746f206c6960008201527f7374656420707269636500000000000000000000000000000000000000000000602082015250565b6000614896602a8361376a565b91506148a18261483a565b604082019050919050565b600060208201905081810360008301526148c581614889565b9050919050565b6000819050919050565b60006148f16148ec6148e78461387d565b6148cc565b61387d565b9050919050565b6000614903826148d6565b9050919050565b6000614915826148f8565b9050919050565b6149258161490a565b82525050565b6000606082019050614940600083018661491c565b61494d60208301856138af565b61495a6040830184613b03565b949350505050565b7f54686973207061727420646f6573206e6f742065786973740000000000000000600082015250565b600061499860188361376a565b91506149a382614962565b602082019050919050565b600060208201905081810360008301526149c78161498b565b9050919050565b7f54686973207061727420697320616c7265616479206c69737465642e00000000600082015250565b6000614a04601c8361376a565b9150614a0f826149ce565b602082019050919050565b60006020820190508181036000830152614a33816149f7565b9050919050565b7f4f776e61626c653a206e6577206f776e657220697320746865207a65726f206160008201527f6464726573730000000000000000000000000000000000000000000000000000602082015250565b6000614a9660268361376a565b9150614aa182614a3a565b604082019050919050565b60006020820190508181036000830152614ac581614a89565b9050919050565b7f4f776e61626c653a2063616c6c6572206973206e6f7420746865206f776e6572600082015250565b6000614b0260208361376a565b9150614b0d82614acc565b602082019050919050565b60006020820190508181036000830152614b3181614af5565b9050919050565b7f4552433732313a206d696e7420746f20746865207a65726f2061646472657373600082015250565b6000614b6e60208361376a565b9150614b7982614b38565b602082019050919050565b60006020820190508181036000830152614b9d81614b61565b9050919050565b7f4552433732313a20746f6b656e20616c7265616479206d696e74656400000000600082015250565b6000614bda601c8361376a565b9150614be582614ba4565b602082019050919050565b60006020820190508181036000830152614c0981614bcd565b9050919050565b7f45524337323155524953746f726167653a2055524920736574206f66206e6f6e60008201527f6578697374656e7420746f6b656e000000000000000000000000000000000000602082015250565b6000614c6c602e8361376a565b9150614c7782614c10565b604082019050919050565b60006020820190508181036000830152614c9b81614c5f565b9050919050565b7f4552433732313a207472616e736665722066726f6d20696e636f72726563742060008201527f6f776e6572000000000000000000000000000000000000000000000000000000602082015250565b6000614cfe60258361376a565b9150614d0982614ca2565b604082019050919050565b60006020820190508181036000830152614d2d81614cf1565b9050919050565b7f4552433732313a207472616e7366657220746f20746865207a65726f2061646460008201527f7265737300000000000000000000000000000000000000000000000000000000602082015250565b6000614d9060248361376a565b9150614d9b82614d34565b604082019050919050565b60006020820190508181036000830152614dbf81614d83565b9050919050565b7f4552433732313a20617070726f766520746f2063616c6c657200000000000000600082015250565b6000614dfc60198361376a565b9150614e0782614dc6565b602082019050919050565b60006020820190508181036000830152614e2b81614def565b9050919050565b7f4552433732313a207472616e7366657220746f206e6f6e20455243373231526560008201527f63656976657220696d706c656d656e7465720000000000000000000000000000602082015250565b6000614e8e60328361376a565b9150614e9982614e32565b604082019050919050565b60006020820190508181036000830152614ebd81614e81565b9050919050565b7f4e487b7100000000000000000000000000000000000000000000000000000000600052601160045260246000fd5b6000614efe8261381a565b9150614f098361381a565b925082821015614f1c57614f1b614ec4565b5b828203905092915050565b6000614f328261381a565b9150614f3d8361381a565b9250827fffffffffffffffffffffffffffffffffffffffffffffffffffffffffffffffff03821115614f7257614f71614ec4565b5b828201905092915050565b600081519050919050565b600082825260208201905092915050565b6000614fa482614f7d565b614fae8185614f88565b9350614fbe81856020860161377b565b614fc7816137ae565b840191505092915050565b6000608082019050614fe760008301876138af565b614ff460208301866138af565b6150016040830185613b03565b81810360608301526150138184614f99565b905095945050505050565b60008151905061502d816136d0565b92915050565b6000602082840312156150495761504861369a565b5b60006150578482850161501e565b91505092915050565b7f4e487b7100000000000000000000000000000000000000000000000000000000600052601260045260246000fdfea2646970667358221220ead32ad8d53561fa7d9574a84c094f1b12e1058fd0fcb7968fcd9ff7a51451d864736f6c634300080d0033",
  "immutableReferences": {},
  "source": "// SPDX-License-Identifier: MIT\npragma solidity 0.8.13;\n\nimport \"../node_modules/@openzeppelin/contracts/access/Ownable.sol\";\nimport \"../node_modules/@openzeppelin/contracts/token/ERC721/extensions/ERC721URIStorage.sol\";\nimport \"../node_modules/@openzeppelin/contracts/utils/Counters.sol\";\n\ncontract CycleChain is ERC721URIStorage, Ownable  {\n  using Counters for Counters.Counter;\n  Counters.Counter private _tokenIds;\n\n  enum EquipmentCategory {GRUE, TRACTEUR}\n  EquipmentCategory equipmentCategory;\n\n  struct Equipment {\n    address producer;\n    EquipmentCategory equipmentCategory;\n    string model;\n    bool isValue;\n  }\n\n  // Equipment's ID => Part's ID => is installed\n  mapping (uint => mapping (uint => bool)) partsInstalled;\n\n  // Equipment's Owner => Equipment's ID => Equipment\n  mapping (address => mapping (uint => Equipment)) equipments;\n\n  struct Part {\n    uint equipmentId;\n    bool isValue;\n    bool isListed;\n    uint listedPrice;\n  }\n\n  // NFT's ID => Part\n  mapping (uint => Part) parts;\n\n  // Address => is registered as a producer\n  mapping (address => bool) public producers;\n\n  // List of events\n  event PartCreated(uint partId);\n  event PartCreatorRegistered(address creator);\n  event PartCreatorRemoved(address creator);\n  event PartInstalledOnEquipment(uint partId, uint equipmentId);\n  event PartRemovedFromEquipment(uint partId, uint equipmentId);\n  event EquipmentCreated(uint equipmentId);\n  event EquipmentDeleted(uint equipmentId);\n  event partListed(uint partId, uint price);\n  event partDelisted(uint partId);\n\n  constructor() ERC721(\"Part\", \"CC\") {}\n\n  /// @notice Check if the msg.sender is an equipment producer\n  modifier onlyProducers() {\n      require(producers[msg.sender] == true, \"You are not a producer.\");\n      _;\n  }\n\n  // ::::::::::::: GETTERS ::::::::::::: //\n\n  function getListingPrice(uint _partId) public view returns (uint256) {\n    require(parts[_partId].isValue == true, \"This part does not exist\");\n\n    return parts[_partId].listedPrice;\n  }\n\n  // ::::::::::::: FUNCTIONS ::::::::::::: //\n\n  /// @notice Create one Part (NFT) for a producer\n  /// @param _producer Address of the entity creating the NFT\n  /// @return uint NFT's ID\n  function createPart(address _producer, string memory _tokenURI)\n    public\n    onlyProducers\n    returns (uint256)\n  {\n    require(_producer != address(0), \"ERC721 cannot be minted to the zero address\");\n    _tokenIds.increment();\n\n    uint256 newItemId = _tokenIds.current();\n    _mint(_producer, newItemId);\n    _setTokenURI(newItemId, _tokenURI);\n\n    parts[newItemId].isValue = true;\n\n    emit PartCreated(newItemId);\n\n    return newItemId;\n  }\n\n  /// @notice Register a new Part creator\n  /// @param _producer Address of the entity that will be allowed to create a Part NFT\n  function registerPartCreator(address _producer) external onlyOwner {\n    require(producers[_producer] == false, \"This address is already registered as a Part Creator.\");\n\n    producers[_producer] = true;\n    emit PartCreatorRegistered(_producer);\n  }\n\n  /// @notice Remove a Part creator\n  /// @param _producer Address of the entity that will be fordidden to create a Part NFT\n  function removePartCreator(address _producer) external onlyOwner {\n    require(producers[_producer] == true, \"This address is not registered as a Part Creator.\");\n\n    producers[_producer] = false;\n    emit PartCreatorRemoved(_producer);\n  }\n\n  /// @notice Install a NFT on an equipment\n  /// @param _PartId Part's ID\n  /// @param _equipmentId Equipment's ID\n  function installPartOnEquipment(uint _PartId, uint _equipmentId) external {\n    require(ownerOf(_PartId) == msg.sender, \"You do not possess this part.\");\n    require(equipments[msg.sender][_equipmentId].isValue == true, \"You do not possess this equipment.\");\n    require(parts[_PartId].equipmentId == 0, \"This part is already installed on an equipment.\");\n\n    partsInstalled[_equipmentId][_PartId] == true;\n    parts[_PartId].equipmentId = _equipmentId;\n\n    emit PartInstalledOnEquipment(_PartId, _equipmentId);\n  }\n\n  /// @notice Remove a NFT from an equipment\n  /// @param _PartId NFT's ID\n  /// @param _equipmentId NFT's ID\n  function removePartFromEquipment(uint _PartId, uint _equipmentId) external {\n    require(ownerOf(_PartId) == msg.sender, \"You do not possess this part.\");\n    require(equipments[msg.sender][_equipmentId].isValue == true, \"You do not possess this equipment.\");\n    require(parts[_PartId].equipmentId != 0, \"This part is not installed on an equipment.\");\n\n    partsInstalled[_equipmentId][_PartId] == false;\n    parts[_PartId].equipmentId = 0;\n\n    emit PartRemovedFromEquipment(_PartId, _equipmentId);\n  }\n\n  /// @notice Create an equipment\n  /// @param _equipmentId Equipment's ID\n  function createEquipment(uint _equipmentId, EquipmentCategory _equipmentCategory, string memory _equipmentModel, address _owner) external onlyProducers {\n    require(equipments[msg.sender][_equipmentId].isValue == false, \"You already have this equipment.\");\n\n    Equipment memory equipment;\n    equipment.equipmentCategory = _equipmentCategory;\n    equipment.producer = msg.sender;\n    equipment.model = _equipmentModel;\n    equipment.isValue = true;\n\n    equipments[_owner][_equipmentId] = equipment;\n    emit EquipmentCreated(_equipmentId);\n  }\n\n  /// @notice Delete an equipment\n  /// @param _equipmentId Equipment's ID\n  function deleteEquipment(uint _equipmentId) external onlyProducers {\n    require(equipments[msg.sender][_equipmentId].isValue == true, \"You don't have this equipment.\");\n\n    Equipment memory equipment;\n    equipments[msg.sender][_equipmentId] = equipment;\n    emit EquipmentDeleted(_equipmentId);\n  }\n\n  /// @notice List a part\n  /// @param _partId Part's ID\n  /// @param _price Part's price\n  function listPart(uint _partId, uint _price) external {\n    require(msg.sender == this.ownerOf(_partId), \"You don't possess this part.\");\n    require(parts[_partId].isListed == false, \"This part is already listed.\");\n\n    parts[_partId].isListed = true;\n    parts[_partId].listedPrice = _price;\n    emit partListed(_partId, _price);\n  }\n\n  /// @notice Delist a part\n  /// @param _partId Part's ID\n  function delistPart(uint _partId) external {\n    require(msg.sender == this.ownerOf(_partId), \"You don't possess this part.\");\n    require(parts[_partId].isListed == true, \"This part is not listed.\");\n\n    parts[_partId].isListed = false;\n    parts[_partId].listedPrice = 0;\n    emit partDelisted(_partId);\n  }\n\n  /// @notice Update the listing price\n  /// @param _partId Part's ID\n  /// @param _price Part's price\n  function updateListingPrice(uint _partId, uint _price) public {\n    require(msg.sender == this.ownerOf(_partId), \"You don't possess this part.\");\n    require(parts[_partId].isListed == true, \"This part is not listed.\");\n\n    parts[_partId].listedPrice = _price;\n    emit partListed(_partId, _price);\n  }\n\n  /// @notice Buy a part at market price\n  /// @param _partId Part's ID\n  function marketBuyPart(uint256 _partId) public payable {\n    uint listedPrice = parts[_partId].listedPrice;\n    require(parts[_partId].isListed == true, \"This part is not listed.\");\n    require(msg.value == listedPrice, \"Message value is not equal to listed price\");\n\n    address payable owner = payable(this.ownerOf(_partId));\n    this.safeTransferFrom(owner, msg.sender, _partId);\n    payable(owner).transfer(listedPrice);\n    parts[_partId].isListed = false;\n    parts[_partId].listedPrice = 0;\n  }\n}\n",
  "sourcePath": "/home/student/Bureau/Alyra/Cycle-Chain/truffle/contracts/CycleChain.sol",
  "compiler": {
    "name": "solc",
    "version": "0.8.13+commit.abaa5c0e.Emscripten.clang"
  },
  "schemaVersion": "3.4.10",
  "updatedAt": "2022-12-09T08:54:19.427Z",
  "networkType": "ethereum",
  "devdoc": {
    "kind": "dev",
    "methods": {
      "approve(address,uint256)": {
        "details": "See {IERC721-approve}."
      },
      "balanceOf(address)": {
        "details": "See {IERC721-balanceOf}."
      },
      "createEquipment(uint256,uint8,string,address)": {
        "params": {
          "_equipmentId": "Equipment's ID"
        }
      },
      "createPart(address,string)": {
        "params": {
          "_producer": "Address of the entity creating the NFT"
        },
        "returns": {
          "_0": "uint NFT's ID"
        }
      },
      "deleteEquipment(uint256)": {
        "params": {
          "_equipmentId": "Equipment's ID"
        }
      },
      "delistPart(uint256)": {
        "params": {
          "_partId": "Part's ID"
        }
      },
      "getApproved(uint256)": {
        "details": "See {IERC721-getApproved}."
      },
      "installPartOnEquipment(uint256,uint256)": {
        "params": {
          "_PartId": "Part's ID",
          "_equipmentId": "Equipment's ID"
        }
      },
      "isApprovedForAll(address,address)": {
        "details": "See {IERC721-isApprovedForAll}."
      },
      "listPart(uint256,uint256)": {
        "params": {
          "_partId": "Part's ID",
          "_price": "Part's price"
        }
      },
      "marketBuyPart(uint256)": {
        "params": {
          "_partId": "Part's ID"
        }
      },
      "name()": {
        "details": "See {IERC721Metadata-name}."
      },
      "owner()": {
        "details": "Returns the address of the current owner."
      },
      "ownerOf(uint256)": {
        "details": "See {IERC721-ownerOf}."
      },
      "registerPartCreator(address)": {
        "params": {
          "_producer": "Address of the entity that will be allowed to create a Part NFT"
        }
      },
      "removePartCreator(address)": {
        "params": {
          "_producer": "Address of the entity that will be fordidden to create a Part NFT"
        }
      },
      "removePartFromEquipment(uint256,uint256)": {
        "params": {
          "_PartId": "NFT's ID",
          "_equipmentId": "NFT's ID"
        }
      },
      "renounceOwnership()": {
        "details": "Leaves the contract without owner. It will not be possible to call `onlyOwner` functions anymore. Can only be called by the current owner. NOTE: Renouncing ownership will leave the contract without an owner, thereby removing any functionality that is only available to the owner."
      },
      "safeTransferFrom(address,address,uint256)": {
        "details": "See {IERC721-safeTransferFrom}."
      },
      "safeTransferFrom(address,address,uint256,bytes)": {
        "details": "See {IERC721-safeTransferFrom}."
      },
      "setApprovalForAll(address,bool)": {
        "details": "See {IERC721-setApprovalForAll}."
      },
      "supportsInterface(bytes4)": {
        "details": "See {IERC165-supportsInterface}."
      },
      "symbol()": {
        "details": "See {IERC721Metadata-symbol}."
      },
      "tokenURI(uint256)": {
        "details": "See {IERC721Metadata-tokenURI}."
      },
      "transferFrom(address,address,uint256)": {
        "details": "See {IERC721-transferFrom}."
      },
      "transferOwnership(address)": {
        "details": "Transfers ownership of the contract to a new account (`newOwner`). Can only be called by the current owner."
      },
      "updateListingPrice(uint256,uint256)": {
        "params": {
          "_partId": "Part's ID",
          "_price": "Part's price"
        }
      }
    },
    "version": 1
  },
  "userdoc": {
    "kind": "user",
    "methods": {
      "createEquipment(uint256,uint8,string,address)": {
        "notice": "Create an equipment"
      },
      "createPart(address,string)": {
        "notice": "Create one Part (NFT) for a producer"
      },
      "deleteEquipment(uint256)": {
        "notice": "Delete an equipment"
      },
      "delistPart(uint256)": {
        "notice": "Delist a part"
      },
      "installPartOnEquipment(uint256,uint256)": {
        "notice": "Install a NFT on an equipment"
      },
      "listPart(uint256,uint256)": {
        "notice": "List a part"
      },
      "marketBuyPart(uint256)": {
        "notice": "Buy a part at market price"
      },
      "registerPartCreator(address)": {
        "notice": "Register a new Part creator"
      },
      "removePartCreator(address)": {
        "notice": "Remove a Part creator"
      },
      "removePartFromEquipment(uint256,uint256)": {
        "notice": "Remove a NFT from an equipment"
      },
      "updateListingPrice(uint256,uint256)": {
        "notice": "Update the listing price"
      }
    },
    "version": 1
  }
}