{
  "contractName": "CycleChain",
  "abi": [
    {
      "inputs": [],
      "stateMutability": "nonpayable",
      "type": "constructor"
    },
    {
      "anonymous": false,
      "inputs": [
        {
          "indexed": true,
          "internalType": "address",
          "name": "owner",
          "type": "address"
        },
        {
          "indexed": true,
          "internalType": "address",
          "name": "approved",
          "type": "address"
        },
        {
          "indexed": true,
          "internalType": "uint256",
          "name": "tokenId",
          "type": "uint256"
        }
      ],
      "name": "Approval",
      "type": "event"
    },
    {
      "anonymous": false,
      "inputs": [
        {
          "indexed": true,
          "internalType": "address",
          "name": "owner",
          "type": "address"
        },
        {
          "indexed": true,
          "internalType": "address",
          "name": "operator",
          "type": "address"
        },
        {
          "indexed": false,
          "internalType": "bool",
          "name": "approved",
          "type": "bool"
        }
      ],
      "name": "ApprovalForAll",
      "type": "event"
    },
    {
      "anonymous": false,
      "inputs": [
        {
          "indexed": false,
          "internalType": "string",
          "name": "equipmentId",
          "type": "string"
        }
      ],
      "name": "EquipmentCreated",
      "type": "event"
    },
    {
      "anonymous": false,
      "inputs": [
        {
          "indexed": false,
          "internalType": "address",
          "name": "_address",
          "type": "address"
        }
      ],
      "name": "EquipmentManufacturerRegistered",
      "type": "event"
    },
    {
      "anonymous": false,
      "inputs": [
        {
          "indexed": false,
          "internalType": "address",
          "name": "_address",
          "type": "address"
        }
      ],
      "name": "EquipmentManufacturerRemoved",
      "type": "event"
    },
    {
      "anonymous": false,
      "inputs": [
        {
          "indexed": true,
          "internalType": "address",
          "name": "previousOwner",
          "type": "address"
        },
        {
          "indexed": true,
          "internalType": "address",
          "name": "newOwner",
          "type": "address"
        }
      ],
      "name": "OwnershipTransferred",
      "type": "event"
    },
    {
      "anonymous": false,
      "inputs": [
        {
          "indexed": false,
          "internalType": "uint256",
          "name": "NftId",
          "type": "uint256"
        }
      ],
      "name": "PartCreated",
      "type": "event"
    },
    {
      "anonymous": false,
      "inputs": [
        {
          "indexed": false,
          "internalType": "uint256",
          "name": "_partId",
          "type": "uint256"
        },
        {
          "indexed": false,
          "internalType": "string",
          "name": "_equipmentSerialNumber",
          "type": "string"
        }
      ],
      "name": "PartInstalledOnEquipment",
      "type": "event"
    },
    {
      "anonymous": false,
      "inputs": [
        {
          "indexed": false,
          "internalType": "uint256",
          "name": "partId",
          "type": "uint256"
        },
        {
          "indexed": false,
          "internalType": "uint256",
          "name": "equipmentId",
          "type": "uint256"
        }
      ],
      "name": "PartRemovedFromEquipment",
      "type": "event"
    },
    {
      "anonymous": false,
      "inputs": [
        {
          "indexed": true,
          "internalType": "address",
          "name": "from",
          "type": "address"
        },
        {
          "indexed": true,
          "internalType": "address",
          "name": "to",
          "type": "address"
        },
        {
          "indexed": true,
          "internalType": "uint256",
          "name": "tokenId",
          "type": "uint256"
        }
      ],
      "name": "Transfer",
      "type": "event"
    },
    {
      "anonymous": false,
      "inputs": [
        {
          "indexed": false,
          "internalType": "uint256",
          "name": "partId",
          "type": "uint256"
        }
      ],
      "name": "partDelisted",
      "type": "event"
    },
    {
      "anonymous": false,
      "inputs": [
        {
          "indexed": false,
          "internalType": "uint256",
          "name": "partId",
          "type": "uint256"
        },
        {
          "indexed": false,
          "internalType": "uint256",
          "name": "price",
          "type": "uint256"
        }
      ],
      "name": "partListed",
      "type": "event"
    },
    {
      "inputs": [],
      "name": "_tokenIds",
      "outputs": [
        {
          "internalType": "uint256",
          "name": "_value",
          "type": "uint256"
        }
      ],
      "stateMutability": "view",
      "type": "function",
      "constant": true
    },
    {
      "inputs": [
        {
          "internalType": "address",
          "name": "to",
          "type": "address"
        },
        {
          "internalType": "uint256",
          "name": "tokenId",
          "type": "uint256"
        }
      ],
      "name": "approve",
      "outputs": [],
      "stateMutability": "nonpayable",
      "type": "function"
    },
    {
      "inputs": [
        {
          "internalType": "address",
          "name": "owner",
          "type": "address"
        }
      ],
      "name": "balanceOf",
      "outputs": [
        {
          "internalType": "uint256",
          "name": "",
          "type": "uint256"
        }
      ],
      "stateMutability": "view",
      "type": "function",
      "constant": true
    },
    {
      "inputs": [
        {
          "internalType": "address",
          "name": "",
          "type": "address"
        }
      ],
      "name": "equipmentManufacturers",
      "outputs": [
        {
          "internalType": "bool",
          "name": "",
          "type": "bool"
        }
      ],
      "stateMutability": "view",
      "type": "function",
      "constant": true
    },
    {
      "inputs": [
        {
          "internalType": "uint256",
          "name": "tokenId",
          "type": "uint256"
        }
      ],
      "name": "getApproved",
      "outputs": [
        {
          "internalType": "address",
          "name": "",
          "type": "address"
        }
      ],
      "stateMutability": "view",
      "type": "function",
      "constant": true
    },
    {
      "inputs": [
        {
          "internalType": "address",
          "name": "owner",
          "type": "address"
        },
        {
          "internalType": "address",
          "name": "operator",
          "type": "address"
        }
      ],
      "name": "isApprovedForAll",
      "outputs": [
        {
          "internalType": "bool",
          "name": "",
          "type": "bool"
        }
      ],
      "stateMutability": "view",
      "type": "function",
      "constant": true
    },
    {
      "inputs": [],
      "name": "name",
      "outputs": [
        {
          "internalType": "string",
          "name": "",
          "type": "string"
        }
      ],
      "stateMutability": "view",
      "type": "function",
      "constant": true
    },
    {
      "inputs": [],
      "name": "owner",
      "outputs": [
        {
          "internalType": "address",
          "name": "",
          "type": "address"
        }
      ],
      "stateMutability": "view",
      "type": "function",
      "constant": true
    },
    {
      "inputs": [
        {
          "internalType": "uint256",
          "name": "tokenId",
          "type": "uint256"
        }
      ],
      "name": "ownerOf",
      "outputs": [
        {
          "internalType": "address",
          "name": "",
          "type": "address"
        }
      ],
      "stateMutability": "view",
      "type": "function",
      "constant": true
    },
    {
      "inputs": [
        {
          "internalType": "uint256",
          "name": "",
          "type": "uint256"
        }
      ],
      "name": "parts",
      "outputs": [
        {
          "internalType": "bool",
          "name": "isListed",
          "type": "bool"
        },
        {
          "internalType": "uint256",
          "name": "listedPrice",
          "type": "uint256"
        }
      ],
      "stateMutability": "view",
      "type": "function",
      "constant": true
    },
    {
      "inputs": [],
      "name": "renounceOwnership",
      "outputs": [],
      "stateMutability": "nonpayable",
      "type": "function"
    },
    {
      "inputs": [
        {
          "internalType": "address",
          "name": "from",
          "type": "address"
        },
        {
          "internalType": "address",
          "name": "to",
          "type": "address"
        },
        {
          "internalType": "uint256",
          "name": "tokenId",
          "type": "uint256"
        }
      ],
      "name": "safeTransferFrom",
      "outputs": [],
      "stateMutability": "nonpayable",
      "type": "function"
    },
    {
      "inputs": [
        {
          "internalType": "address",
          "name": "from",
          "type": "address"
        },
        {
          "internalType": "address",
          "name": "to",
          "type": "address"
        },
        {
          "internalType": "uint256",
          "name": "tokenId",
          "type": "uint256"
        },
        {
          "internalType": "bytes",
          "name": "data",
          "type": "bytes"
        }
      ],
      "name": "safeTransferFrom",
      "outputs": [],
      "stateMutability": "nonpayable",
      "type": "function"
    },
    {
      "inputs": [
        {
          "internalType": "address",
          "name": "operator",
          "type": "address"
        },
        {
          "internalType": "bool",
          "name": "approved",
          "type": "bool"
        }
      ],
      "name": "setApprovalForAll",
      "outputs": [],
      "stateMutability": "nonpayable",
      "type": "function"
    },
    {
      "inputs": [
        {
          "internalType": "bytes4",
          "name": "interfaceId",
          "type": "bytes4"
        }
      ],
      "name": "supportsInterface",
      "outputs": [
        {
          "internalType": "bool",
          "name": "",
          "type": "bool"
        }
      ],
      "stateMutability": "view",
      "type": "function",
      "constant": true
    },
    {
      "inputs": [],
      "name": "symbol",
      "outputs": [
        {
          "internalType": "string",
          "name": "",
          "type": "string"
        }
      ],
      "stateMutability": "view",
      "type": "function",
      "constant": true
    },
    {
      "inputs": [
        {
          "internalType": "uint256",
          "name": "tokenId",
          "type": "uint256"
        }
      ],
      "name": "tokenURI",
      "outputs": [
        {
          "internalType": "string",
          "name": "",
          "type": "string"
        }
      ],
      "stateMutability": "view",
      "type": "function",
      "constant": true
    },
    {
      "inputs": [
        {
          "internalType": "address",
          "name": "from",
          "type": "address"
        },
        {
          "internalType": "address",
          "name": "to",
          "type": "address"
        },
        {
          "internalType": "uint256",
          "name": "tokenId",
          "type": "uint256"
        }
      ],
      "name": "transferFrom",
      "outputs": [],
      "stateMutability": "nonpayable",
      "type": "function"
    },
    {
      "inputs": [
        {
          "internalType": "address",
          "name": "newOwner",
          "type": "address"
        }
      ],
      "name": "transferOwnership",
      "outputs": [],
      "stateMutability": "nonpayable",
      "type": "function"
    },
    {
      "inputs": [],
      "name": "getAllEquipments",
      "outputs": [
        {
          "components": [
            {
              "internalType": "string",
              "name": "serialNumber",
              "type": "string"
            },
            {
              "internalType": "string",
              "name": "category",
              "type": "string"
            },
            {
              "internalType": "address",
              "name": "manufacturer",
              "type": "address"
            },
            {
              "internalType": "address",
              "name": "owner",
              "type": "address"
            },
            {
              "internalType": "string",
              "name": "model",
              "type": "string"
            },
            {
              "internalType": "bool",
              "name": "isValue",
              "type": "bool"
            }
          ],
          "internalType": "struct CycleChain.Equipment[]",
          "name": "",
          "type": "tuple[]"
        }
      ],
      "stateMutability": "view",
      "type": "function",
      "constant": true
    },
    {
      "inputs": [],
      "name": "getAllAssemblies",
      "outputs": [
        {
          "components": [
            {
              "internalType": "string",
              "name": "equipmentSerialNumber",
              "type": "string"
            },
            {
              "internalType": "uint256[]",
              "name": "partsIds",
              "type": "uint256[]"
            }
          ],
          "internalType": "struct CycleChain.Assembly[]",
          "name": "",
          "type": "tuple[]"
        }
      ],
      "stateMutability": "view",
      "type": "function",
      "constant": true
    },
    {
      "inputs": [
        {
          "internalType": "address",
          "name": "_producer",
          "type": "address"
        }
      ],
      "name": "registerEquipmentManufacturer",
      "outputs": [],
      "stateMutability": "nonpayable",
      "type": "function"
    },
    {
      "inputs": [
        {
          "internalType": "address",
          "name": "_producer",
          "type": "address"
        }
      ],
      "name": "removeEquipmentManufacturer",
      "outputs": [],
      "stateMutability": "nonpayable",
      "type": "function"
    },
    {
      "inputs": [
        {
          "internalType": "string",
          "name": "_serialNumber",
          "type": "string"
        },
        {
          "internalType": "string",
          "name": "_category",
          "type": "string"
        },
        {
          "internalType": "address",
          "name": "_owner",
          "type": "address"
        },
        {
          "internalType": "string",
          "name": "_model",
          "type": "string"
        }
      ],
      "name": "createEquipment",
      "outputs": [],
      "stateMutability": "nonpayable",
      "type": "function"
    },
    {
      "inputs": [
        {
          "internalType": "string",
          "name": "_equipmentSerialNumber",
          "type": "string"
        },
        {
          "internalType": "uint256",
          "name": "_partId",
          "type": "uint256"
        }
      ],
      "name": "addPartToAssembly",
      "outputs": [],
      "stateMutability": "nonpayable",
      "type": "function"
    },
    {
      "inputs": [
        {
          "internalType": "address",
          "name": "_forManufacturer",
          "type": "address"
        },
        {
          "internalType": "string",
          "name": "_partURI",
          "type": "string"
        }
      ],
      "name": "createPart",
      "outputs": [
        {
          "internalType": "uint256",
          "name": "",
          "type": "uint256"
        }
      ],
      "stateMutability": "nonpayable",
      "type": "function"
    },
    {
      "inputs": [
        {
          "internalType": "uint256",
          "name": "_nftId",
          "type": "uint256"
        },
        {
          "internalType": "uint256",
          "name": "_price",
          "type": "uint256"
        }
      ],
      "name": "listPart",
      "outputs": [],
      "stateMutability": "nonpayable",
      "type": "function"
    },
    {
      "inputs": [
        {
          "internalType": "uint256",
          "name": "_nftId",
          "type": "uint256"
        }
      ],
      "name": "delistPart",
      "outputs": [],
      "stateMutability": "nonpayable",
      "type": "function"
    },
    {
      "inputs": [
        {
          "internalType": "uint256",
          "name": "_nftId",
          "type": "uint256"
        },
        {
          "internalType": "uint256",
          "name": "_price",
          "type": "uint256"
        }
      ],
      "name": "updateListingPrice",
      "outputs": [],
      "stateMutability": "nonpayable",
      "type": "function"
    },
    {
      "inputs": [
        {
          "internalType": "uint256",
          "name": "_nftId",
          "type": "uint256"
        }
      ],
      "name": "marketBuyPart",
      "outputs": [],
      "stateMutability": "payable",
      "type": "function",
      "payable": true
    }
  ],
  "bytecode": "0x60806040523480156200001157600080fd5b506040518060400160405280600481526020017f50617274000000000000000000000000000000000000000000000000000000008152506040518060400160405280600281526020017f434300000000000000000000000000000000000000000000000000000000000081525081600090805190602001906200009692919062000980565b508060019080519060200190620000af92919062000980565b505050620000d2620000c6620005e560201b60201c565b620005ed60201b60201c565b620000dc62000a11565b600981908060018154018082558091505060019003906000526020600020906002020160009091909190915060008201518160000160006101000a81548160ff021916908315150217905550602082015181600101555050620001fb6040518060400160405280600381526020017f54443100000000000000000000000000000000000000000000000000000000008152506040518060400160405280600481526020017f47727565000000000000000000000000000000000000000000000000000000008152507359f3fcdd50315c5309d2cc72e6cbffac9133418c6040518060400160405280600981526020017f4d4f44454c5f3132330000000000000000000000000000000000000000000000815250620006b360201b60201c565b620002c26040518060400160405280600381526020017f54443200000000000000000000000000000000000000000000000000000000008152506040518060400160405280600481526020017f47727565000000000000000000000000000000000000000000000000000000008152507359f3fcdd50315c5309d2cc72e6cbffac9133418c6040518060400160405280600981526020017f4d4f44454c5f3132330000000000000000000000000000000000000000000000815250620006b360201b60201c565b620003896040518060400160405280600381526020017f54443300000000000000000000000000000000000000000000000000000000008152506040518060400160405280600a81526020017f50656c6c657465757365000000000000000000000000000000000000000000008152507359f3fcdd50315c5309d2cc72e6cbffac9133418c6040518060400160405280600981526020017f4d4f44454c5f3132330000000000000000000000000000000000000000000000815250620006b360201b60201c565b620004506040518060400160405280600381526020017f4a503100000000000000000000000000000000000000000000000000000000008152506040518060400160405280600481526020017f4772756500000000000000000000000000000000000000000000000000000000815250731e3cdc405728560eebc4ab093d9c461b36e28aa36040518060400160405280600981526020017f4d4f44454c5f3132330000000000000000000000000000000000000000000000815250620006b360201b60201c565b620005176040518060400160405280600381526020017f4a503200000000000000000000000000000000000000000000000000000000008152506040518060400160405280600a81526020017f50656c6c65746575736500000000000000000000000000000000000000000000815250731e3cdc405728560eebc4ab093d9c461b36e28aa36040518060400160405280600981526020017f4d4f44454c5f3132330000000000000000000000000000000000000000000000815250620006b360201b60201c565b620005de6040518060400160405280600381526020017f4a503300000000000000000000000000000000000000000000000000000000008152506040518060400160405280600a81526020017f50656c6c65746575736500000000000000000000000000000000000000000000815250731e3cdc405728560eebc4ab093d9c461b36e28aa36040518060400160405280600981526020017f4d4f44454c5f3132330000000000000000000000000000000000000000000000815250620006b360201b60201c565b5062000ca9565b600033905090565b6000600760009054906101000a900473ffffffffffffffffffffffffffffffffffffffff16905081600760006101000a81548173ffffffffffffffffffffffffffffffffffffffff021916908373ffffffffffffffffffffffffffffffffffffffff1602179055508173ffffffffffffffffffffffffffffffffffffffff168173ffffffffffffffffffffffffffffffffffffffff167f8be0079c531659141344cd1fd0a4f28419497f9722a3daafe3b4186f6b6457e060405160405180910390a35050565b60001515600a85604051620006c9919062000b33565b908152602001604051809103902060050160009054906101000a900460ff161515146200072d576040517f08c379a0000000000000000000000000000000000000000000000000000000008152600401620007249062000bad565b60405180910390fd5b6200073762000a2d565b84816000018190525083816020018190525033816040019073ffffffffffffffffffffffffffffffffffffffff16908173ffffffffffffffffffffffffffffffffffffffff168152505082816060019073ffffffffffffffffffffffffffffffffffffffff16908173ffffffffffffffffffffffffffffffffffffffff168152505081816080018190525060018160a001901515908115158152505080600a86604051620007e6919062000b33565b908152602001604051809103902060008201518160000190805190602001906200081292919062000980565b5060208201518160010190805190602001906200083192919062000980565b5060408201518160020160006101000a81548173ffffffffffffffffffffffffffffffffffffffff021916908373ffffffffffffffffffffffffffffffffffffffff16021790555060608201518160030160006101000a81548173ffffffffffffffffffffffffffffffffffffffff021916908373ffffffffffffffffffffffffffffffffffffffff1602179055506080820151816004019080519060200190620008de92919062000980565b5060a08201518160050160006101000a81548160ff021916908315150217905550905050600b859080600181540180825580915050600190039060005260206000200160009091909190915090805190602001906200093f92919062000980565b507f0330abb18afb046aa53f3236d1093acb79782997597401dda81f7934c7d91f2a8560405162000971919062000c21565b60405180910390a15050505050565b8280546200098e9062000c74565b90600052602060002090601f016020900481019282620009b25760008555620009fe565b82601f10620009cd57805160ff1916838001178555620009fe565b82800160010185558215620009fe579182015b82811115620009fd578251825591602001919060010190620009e0565b5b50905062000a0d919062000a91565b5090565b6040518060400160405280600015158152602001600081525090565b6040518060c001604052806060815260200160608152602001600073ffffffffffffffffffffffffffffffffffffffff168152602001600073ffffffffffffffffffffffffffffffffffffffff168152602001606081526020016000151581525090565b5b8082111562000aac57600081600090555060010162000a92565b5090565b600081519050919050565b600081905092915050565b60005b8381101562000ae657808201518184015260208101905062000ac9565b8381111562000af6576000848401525b50505050565b600062000b098262000ab0565b62000b15818562000abb565b935062000b2781856020860162000ac6565b80840191505092915050565b600062000b41828462000afc565b915081905092915050565b600082825260208201905092915050565b7f546869732065717569706d656e7420616c7265616479206578697374732e0000600082015250565b600062000b95601e8362000b4c565b915062000ba28262000b5d565b602082019050919050565b6000602082019050818103600083015262000bc88162000b86565b9050919050565b6000601f19601f8301169050919050565b600062000bed8262000ab0565b62000bf9818562000b4c565b935062000c0b81856020860162000ac6565b62000c168162000bcf565b840191505092915050565b6000602082019050818103600083015262000c3d818462000be0565b905092915050565b7f4e487b7100000000000000000000000000000000000000000000000000000000600052602260045260246000fd5b6000600282049050600182168062000c8d57607f821691505b60208210810362000ca35762000ca262000c45565b5b50919050565b6157e28062000cb96000396000f3fe6080604052600436106101cd5760003560e01c806395d89b41116100f7578063c9eb466211610095578063d8a89c4e11610064578063d8a89c4e14610676578063ddbf332e1461069f578063e985e9c5146106dc578063f2fde38b14610719576101cd565b8063c9eb4662146105c8578063d0ad0f4f14610606578063d26858251461062f578063d48eee291461065a576101cd565b8063b04cdee3116100d1578063b04cdee314610510578063b88d4fde14610539578063c460494314610562578063c87b56dd1461058b576101cd565b806395d89b4114610491578063a22cb465146104bc578063aa46a400146104e5576101cd565b80632a18a57c1161016f57806370e871321161013e57806370e87132146103fd578063715018a6146104265780638da5cb5b1461043d57806392a66f3514610468576101cd565b80632a18a57c1461033157806342842e0e1461035a5780636352211e1461038357806370a08231146103c0576101cd565b8063081812fc116101ab578063081812fc14610265578063095ea7b3146102a25780631ae01fb2146102cb57806323b872dd14610308576101cd565b806301ffc9a7146101d257806304dd15f91461020f57806306fdde031461023a575b600080fd5b3480156101de57600080fd5b506101f960048036038101906101f4919061397c565b610742565b60405161020691906139c4565b60405180910390f35b34801561021b57600080fd5b50610224610824565b6040516102319190613c46565b60405180910390f35b34801561024657600080fd5b5061024f6109fd565b60405161025c9190613cb2565b60405180910390f35b34801561027157600080fd5b5061028c60048036038101906102879190613d00565b610a8f565b6040516102999190613d6e565b60405180910390f35b3480156102ae57600080fd5b506102c960048036038101906102c49190613db5565b610ad5565b005b3480156102d757600080fd5b506102f260048036038101906102ed9190613f2a565b610bec565b6040516102ff9190613f95565b60405180910390f35b34801561031457600080fd5b5061032f600480360381019061032a9190613fb0565b610dbe565b005b34801561033d57600080fd5b5061035860048036038101906103539190614003565b610e1e565b005b34801561036657600080fd5b50610381600480360381019061037c9190613fb0565b6110d8565b005b34801561038f57600080fd5b506103aa60048036038101906103a59190613d00565b6110f8565b6040516103b79190613d6e565b60405180910390f35b3480156103cc57600080fd5b506103e760048036038101906103e291906140be565b61117e565b6040516103f49190613f95565b60405180910390f35b34801561040957600080fd5b50610424600480360381019061041f9190613d00565b611235565b005b34801561043257600080fd5b5061043b611438565b005b34801561044957600080fd5b5061045261144c565b60405161045f9190613d6e565b60405180910390f35b34801561047457600080fd5b5061048f600480360381019061048a91906140eb565b611476565b005b34801561049d57600080fd5b506104a66116c0565b6040516104b39190613cb2565b60405180910390f35b3480156104c857600080fd5b506104e360048036038101906104de9190614173565b611752565b005b3480156104f157600080fd5b506104fa611768565b6040516105079190613f95565b60405180910390f35b34801561051c57600080fd5b50610537600480360381019061053291906140be565b611774565b005b34801561054557600080fd5b50610560600480360381019061055b9190614254565b6118a1565b005b34801561056e57600080fd5b50610589600480360381019061058491906142d7565b611903565b005b34801561059757600080fd5b506105b260048036038101906105ad9190613d00565b611aca565b6040516105bf9190613cb2565b60405180910390f35b3480156105d457600080fd5b506105ef60048036038101906105ea9190613d00565b611bdc565b6040516105fd929190614317565b60405180910390f35b34801561061257600080fd5b5061062d600480360381019061062891906140be565b611c1d565b005b34801561063b57600080fd5b50610644611d4a565b60405161065191906144b7565b60405180910390f35b610674600480360381019061066f9190613d00565b6120b6565b005b34801561068257600080fd5b5061069d600480360381019061069891906142d7565b61233d565b005b3480156106ab57600080fd5b506106c660048036038101906106c191906140be565b612542565b6040516106d391906139c4565b60405180910390f35b3480156106e857600080fd5b5061070360048036038101906106fe91906144d9565b612562565b60405161071091906139c4565b60405180910390f35b34801561072557600080fd5b50610740600480360381019061073b91906140be565b6125f6565b005b60007f80ac58cd000000000000000000000000000000000000000000000000000000007bffffffffffffffffffffffffffffffffffffffffffffffffffffffff1916827bffffffffffffffffffffffffffffffffffffffffffffffffffffffff1916148061080d57507f5b5e139f000000000000000000000000000000000000000000000000000000007bffffffffffffffffffffffffffffffffffffffffffffffffffffffff1916827bffffffffffffffffffffffffffffffffffffffffffffffffffffffff1916145b8061081d575061081c82612679565b5b9050919050565b60606000600b80549050905060008167ffffffffffffffff81111561084c5761084b613dff565b5b60405190808252806020026020018201604052801561088557816020015b6108726137d3565b81526020019060019003908161086a5790505b50905060005b828110156109f457600c600b82815481106108a9576108a8614519565b5b906000526020600020016040516108c09190614647565b90815260200160405180910390206040518060400160405290816000820180546108e990614577565b80601f016020809104026020016040519081016040528092919081815260200182805461091590614577565b80156109625780601f1061093757610100808354040283529160200191610962565b820191906000526020600020905b81548152906001019060200180831161094557829003601f168201915b50505050508152602001600182018054806020026020016040519081016040528092919081815260200182805480156109ba57602002820191906000526020600020905b8154815260200190600101908083116109a6575b5050505050815250508282815181106109d6576109d5614519565b5b602002602001018190525080806109ec9061468d565b91505061088b565b50809250505090565b606060008054610a0c90614577565b80601f0160208091040260200160405190810160405280929190818152602001828054610a3890614577565b8015610a855780601f10610a5a57610100808354040283529160200191610a85565b820191906000526020600020905b815481529060010190602001808311610a6857829003601f168201915b5050505050905090565b6000610a9a826126e3565b6004600083815260200190815260200160002060009054906101000a900473ffffffffffffffffffffffffffffffffffffffff169050919050565b6000610ae0826110f8565b90508073ffffffffffffffffffffffffffffffffffffffff168373ffffffffffffffffffffffffffffffffffffffff1603610b50576040517f08c379a0000000000000000000000000000000000000000000000000000000008152600401610b4790614747565b60405180910390fd5b8073ffffffffffffffffffffffffffffffffffffffff16610b6f61272e565b73ffffffffffffffffffffffffffffffffffffffff161480610b9e5750610b9d81610b9861272e565b612562565b5b610bdd576040517f08c379a0000000000000000000000000000000000000000000000000000000008152600401610bd4906147d9565b60405180910390fd5b610be78383612736565b505050565b600060011515600d60003373ffffffffffffffffffffffffffffffffffffffff1673ffffffffffffffffffffffffffffffffffffffff16815260200190815260200160002060009054906101000a900460ff16151514610c81576040517f08c379a0000000000000000000000000000000000000000000000000000000008152600401610c789061486b565b60405180910390fd5b600073ffffffffffffffffffffffffffffffffffffffff168373ffffffffffffffffffffffffffffffffffffffff1603610cf0576040517f08c379a0000000000000000000000000000000000000000000000000000000008152600401610ce7906148fd565b60405180910390fd5b610cfa60086127ef565b6000610d066008612805565b9050610d128482612813565b610d1c8184612a30565b610d246137ed565b600981908060018154018082558091505060019003906000526020600020906002020160009091909190915060008201518160000160006101000a81548160ff0219169083151502179055506020820151816001015550507fbeb6ef1e252bba53ccc7403a1dbbfed2526fd6136f583a36b73c4adb67331b8a82604051610dab9190613f95565b60405180910390a1819250505092915050565b610dcf610dc961272e565b82612aa4565b610e0e576040517f08c379a0000000000000000000000000000000000000000000000000000000008152600401610e059061498f565b60405180910390fd5b610e19838383612b39565b505050565b60001515600a85604051610e3291906149e0565b908152602001604051809103902060050160009054906101000a900460ff16151514610e93576040517f08c379a0000000000000000000000000000000000000000000000000000000008152600401610e8a90614a43565b60405180910390fd5b610e9b613809565b84816000018190525083816020018190525033816040019073ffffffffffffffffffffffffffffffffffffffff16908173ffffffffffffffffffffffffffffffffffffffff168152505082816060019073ffffffffffffffffffffffffffffffffffffffff16908173ffffffffffffffffffffffffffffffffffffffff168152505081816080018190525060018160a001901515908115158152505080600a86604051610f4891906149e0565b90815260200160405180910390206000820151816000019080519060200190610f7292919061386d565b506020820151816001019080519060200190610f8f92919061386d565b5060408201518160020160006101000a81548173ffffffffffffffffffffffffffffffffffffffff021916908373ffffffffffffffffffffffffffffffffffffffff16021790555060608201518160030160006101000a81548173ffffffffffffffffffffffffffffffffffffffff021916908373ffffffffffffffffffffffffffffffffffffffff160217905550608082015181600401908051906020019061103a92919061386d565b5060a08201518160050160006101000a81548160ff021916908315150217905550905050600b8590806001815401808255809150506001900390600052602060002001600090919091909150908051906020019061109992919061386d565b507f0330abb18afb046aa53f3236d1093acb79782997597401dda81f7934c7d91f2a856040516110c99190613cb2565b60405180910390a15050505050565b6110f3838383604051806020016040528060008152506118a1565b505050565b60008061110483612e32565b9050600073ffffffffffffffffffffffffffffffffffffffff168173ffffffffffffffffffffffffffffffffffffffff1603611175576040517f08c379a000000000000000000000000000000000000000000000000000000000815260040161116c90614aaf565b60405180910390fd5b80915050919050565b60008073ffffffffffffffffffffffffffffffffffffffff168273ffffffffffffffffffffffffffffffffffffffff16036111ee576040517f08c379a00000000000000000000000000000000000000000000000000000000081526004016111e590614b41565b60405180910390fd5b600360008373ffffffffffffffffffffffffffffffffffffffff1673ffffffffffffffffffffffffffffffffffffffff168152602001908152602001600020549050919050565b3073ffffffffffffffffffffffffffffffffffffffff16636352211e826040518263ffffffff1660e01b815260040161126e9190613f95565b602060405180830381865afa15801561128b573d6000803e3d6000fd5b505050506040513d601f19601f820116820180604052508101906112af9190614b76565b73ffffffffffffffffffffffffffffffffffffffff163373ffffffffffffffffffffffffffffffffffffffff161461131c576040517f08c379a000000000000000000000000000000000000000000000000000000000815260040161131390614bef565b60405180910390fd5b600115156009828154811061133457611333614519565b5b906000526020600020906002020160000160009054906101000a900460ff16151514611395576040517f08c379a000000000000000000000000000000000000000000000000000000000815260040161138c90614c5b565b60405180910390fd5b6000600982815481106113ab576113aa614519565b5b906000526020600020906002020160000160006101000a81548160ff0219169083151502179055506000600982815481106113e9576113e8614519565b5b9060005260206000209060020201600101819055507f37b601bebae61c1dfbe5247b3812e25d3e4e8aac92c9c428eb320d5af035f5ab8160405161142d9190613f95565b60405180910390a150565b611440612e6f565b61144a6000612eed565b565b6000600760009054906101000a900473ffffffffffffffffffffffffffffffffffffffff16905090565b3373ffffffffffffffffffffffffffffffffffffffff16611496826110f8565b73ffffffffffffffffffffffffffffffffffffffff16146114ec576040517f08c379a00000000000000000000000000000000000000000000000000000000081526004016114e390614cc7565b60405180910390fd5b60011515600a8360405161150091906149e0565b908152602001604051809103902060050160009054906101000a900460ff16151514611561576040517f08c379a000000000000000000000000000000000000000000000000000000000815260040161155890614d33565b60405180910390fd5b8060016009805490506115749190614d53565b10156115b5576040517f08c379a00000000000000000000000000000000000000000000000000000000081526004016115ac90614dd3565b60405180910390fd5b600015156115c38383612fb3565b151514611605576040517f08c379a00000000000000000000000000000000000000000000000000000000081526004016115fc90614e65565b60405180910390fd5b81600c8360405161161691906149e0565b9081526020016040518091039020600001908051906020019061163a92919061386d565b50600c8260405161164b91906149e0565b90815260200160405180910390206001018190806001815401808255809150506001900390600052602060002001600090919091909150557fbb4d6b6abd8902cd59f14245efed628ddc53a2aa6a9be614a034ef8b5cd0cd4281836040516116b4929190614e85565b60405180910390a15050565b6060600180546116cf90614577565b80601f01602080910402602001604051908101604052809291908181526020018280546116fb90614577565b80156117485780601f1061171d57610100808354040283529160200191611748565b820191906000526020600020905b81548152906001019060200180831161172b57829003601f168201915b5050505050905090565b61176461175d61272e565b8383613054565b5050565b60088060000154905081565b61177c612e6f565b60011515600d60008373ffffffffffffffffffffffffffffffffffffffff1673ffffffffffffffffffffffffffffffffffffffff16815260200190815260200160002060009054906101000a900460ff1615151461180f576040517f08c379a000000000000000000000000000000000000000000000000000000000815260040161180690614f27565b60405180910390fd5b6000600d60008373ffffffffffffffffffffffffffffffffffffffff1673ffffffffffffffffffffffffffffffffffffffff16815260200190815260200160002060006101000a81548160ff0219169083151502179055507f92c90891f30af5540345fc8c8ec18f723490f6c19874f507d125a186a9e81648816040516118969190613d6e565b60405180910390a150565b6118b26118ac61272e565b83612aa4565b6118f1576040517f08c379a00000000000000000000000000000000000000000000000000000000081526004016118e89061498f565b60405180910390fd5b6118fd848484846131c0565b50505050565b3073ffffffffffffffffffffffffffffffffffffffff16636352211e836040518263ffffffff1660e01b815260040161193c9190613f95565b602060405180830381865afa158015611959573d6000803e3d6000fd5b505050506040513d601f19601f8201168201806040525081019061197d9190614b76565b73ffffffffffffffffffffffffffffffffffffffff163373ffffffffffffffffffffffffffffffffffffffff16146119ea576040517f08c379a00000000000000000000000000000000000000000000000000000000081526004016119e190614bef565b60405180910390fd5b6001151560098381548110611a0257611a01614519565b5b906000526020600020906002020160000160009054906101000a900460ff16151514611a63576040517f08c379a0000000000000000000000000000000000000000000000000000000008152600401611a5a90614c5b565b60405180910390fd5b8060098381548110611a7857611a77614519565b5b9060005260206000209060020201600101819055507f6ef7f5c0328392c4b3ccca1774f1aecaaa818eb7b2087a2f41b359b7afbf36f48282604051611abe929190614f47565b60405180910390a15050565b6060611ad5826126e3565b6000600660008481526020019081526020016000208054611af590614577565b80601f0160208091040260200160405190810160405280929190818152602001828054611b2190614577565b8015611b6e5780601f10611b4357610100808354040283529160200191611b6e565b820191906000526020600020905b815481529060010190602001808311611b5157829003601f168201915b505050505090506000611b7f61321c565b90506000815103611b94578192505050611bd7565b600082511115611bc9578082604051602001611bb1929190614f70565b60405160208183030381529060405292505050611bd7565b611bd284613233565b925050505b919050565b60098181548110611bec57600080fd5b90600052602060002090600202016000915090508060000160009054906101000a900460ff16908060010154905082565b611c25612e6f565b60001515600d60008373ffffffffffffffffffffffffffffffffffffffff1673ffffffffffffffffffffffffffffffffffffffff16815260200190815260200160002060009054906101000a900460ff16151514611cb8576040517f08c379a0000000000000000000000000000000000000000000000000000000008152600401611caf90615006565b60405180910390fd5b6001600d60008373ffffffffffffffffffffffffffffffffffffffff1673ffffffffffffffffffffffffffffffffffffffff16815260200190815260200160002060006101000a81548160ff0219169083151502179055507f621e8a3c5020fa65b50660c1e3322f1148d06a55036ec15bec3b55422c1afad481604051611d3f9190613d6e565b60405180910390a150565b60606000600b80549050905060008167ffffffffffffffff811115611d7257611d71613dff565b5b604051908082528060200260200182016040528015611dab57816020015b611d98613809565b815260200190600190039081611d905790505b50905060005b828110156120ad57600a600b8281548110611dcf57611dce614519565b5b90600052602060002001604051611de69190614647565b90815260200160405180910390206040518060c0016040529081600082018054611e0f90614577565b80601f0160208091040260200160405190810160405280929190818152602001828054611e3b90614577565b8015611e885780601f10611e5d57610100808354040283529160200191611e88565b820191906000526020600020905b815481529060010190602001808311611e6b57829003601f168201915b50505050508152602001600182018054611ea190614577565b80601f0160208091040260200160405190810160405280929190818152602001828054611ecd90614577565b8015611f1a5780601f10611eef57610100808354040283529160200191611f1a565b820191906000526020600020905b815481529060010190602001808311611efd57829003601f168201915b505050505081526020016002820160009054906101000a900473ffffffffffffffffffffffffffffffffffffffff1673ffffffffffffffffffffffffffffffffffffffff1673ffffffffffffffffffffffffffffffffffffffff1681526020016003820160009054906101000a900473ffffffffffffffffffffffffffffffffffffffff1673ffffffffffffffffffffffffffffffffffffffff1673ffffffffffffffffffffffffffffffffffffffff168152602001600482018054611fdf90614577565b80601f016020809104026020016040519081016040528092919081815260200182805461200b90614577565b80156120585780601f1061202d57610100808354040283529160200191612058565b820191906000526020600020905b81548152906001019060200180831161203b57829003601f168201915b505050505081526020016005820160009054906101000a900460ff16151515158152505082828151811061208f5761208e614519565b5b602002602001018190525080806120a59061468d565b915050611db1565b50809250505090565b6000600982815481106120cc576120cb614519565b5b906000526020600020906002020160010154905060011515600983815481106120f8576120f7614519565b5b906000526020600020906002020160000160009054906101000a900460ff16151514612159576040517f08c379a000000000000000000000000000000000000000000000000000000000815260040161215090614c5b565b60405180910390fd5b80341461219b576040517f08c379a000000000000000000000000000000000000000000000000000000000815260040161219290615098565b60405180910390fd5b60003073ffffffffffffffffffffffffffffffffffffffff16636352211e846040518263ffffffff1660e01b81526004016121d69190613f95565b602060405180830381865afa1580156121f3573d6000803e3d6000fd5b505050506040513d601f19601f820116820180604052508101906122179190614b76565b90503073ffffffffffffffffffffffffffffffffffffffff166342842e0e8233866040518463ffffffff1660e01b815260040161225693929190615117565b600060405180830381600087803b15801561227057600080fd5b505af1158015612284573d6000803e3d6000fd5b505050508073ffffffffffffffffffffffffffffffffffffffff166108fc839081150290604051600060405180830381858888f193505050501580156122ce573d6000803e3d6000fd5b506000600984815481106122e5576122e4614519565b5b906000526020600020906002020160000160006101000a81548160ff02191690831515021790555060006009848154811061232357612322614519565b5b906000526020600020906002020160010181905550505050565b3073ffffffffffffffffffffffffffffffffffffffff16636352211e836040518263ffffffff1660e01b81526004016123769190613f95565b602060405180830381865afa158015612393573d6000803e3d6000fd5b505050506040513d601f19601f820116820180604052508101906123b79190614b76565b73ffffffffffffffffffffffffffffffffffffffff163373ffffffffffffffffffffffffffffffffffffffff1614612424576040517f08c379a000000000000000000000000000000000000000000000000000000000815260040161241b90614bef565b60405180910390fd5b600015156009838154811061243c5761243b614519565b5b906000526020600020906002020160000160009054906101000a900460ff1615151461249d576040517f08c379a00000000000000000000000000000000000000000000000000000000081526004016124949061519a565b60405180910390fd5b6001600983815481106124b3576124b2614519565b5b906000526020600020906002020160000160006101000a81548160ff02191690831515021790555080600983815481106124f0576124ef614519565b5b9060005260206000209060020201600101819055507f6ef7f5c0328392c4b3ccca1774f1aecaaa818eb7b2087a2f41b359b7afbf36f48282604051612536929190614f47565b60405180910390a15050565b600d6020528060005260406000206000915054906101000a900460ff1681565b6000600560008473ffffffffffffffffffffffffffffffffffffffff1673ffffffffffffffffffffffffffffffffffffffff16815260200190815260200160002060008373ffffffffffffffffffffffffffffffffffffffff1673ffffffffffffffffffffffffffffffffffffffff16815260200190815260200160002060009054906101000a900460ff16905092915050565b6125fe612e6f565b600073ffffffffffffffffffffffffffffffffffffffff168173ffffffffffffffffffffffffffffffffffffffff160361266d576040517f08c379a00000000000000000000000000000000000000000000000000000000081526004016126649061522c565b60405180910390fd5b61267681612eed565b50565b60007f01ffc9a7000000000000000000000000000000000000000000000000000000007bffffffffffffffffffffffffffffffffffffffffffffffffffffffff1916827bffffffffffffffffffffffffffffffffffffffffffffffffffffffff1916149050919050565b6126ec8161329b565b61272b576040517f08c379a000000000000000000000000000000000000000000000000000000000815260040161272290614aaf565b60405180910390fd5b50565b600033905090565b816004600083815260200190815260200160002060006101000a81548173ffffffffffffffffffffffffffffffffffffffff021916908373ffffffffffffffffffffffffffffffffffffffff160217905550808273ffffffffffffffffffffffffffffffffffffffff166127a9836110f8565b73ffffffffffffffffffffffffffffffffffffffff167f8c5be1e5ebec7d5bd14f71427d1e84f3dd0314c0f7b2291e5b200ac8c7c3b92560405160405180910390a45050565b6001816000016000828254019250508190555050565b600081600001549050919050565b600073ffffffffffffffffffffffffffffffffffffffff168273ffffffffffffffffffffffffffffffffffffffff1603612882576040517f08c379a000000000000000000000000000000000000000000000000000000000815260040161287990615298565b60405180910390fd5b61288b8161329b565b156128cb576040517f08c379a00000000000000000000000000000000000000000000000000000000081526004016128c290615304565b60405180910390fd5b6128d96000838360016132dc565b6128e28161329b565b15612922576040517f08c379a000000000000000000000000000000000000000000000000000000000815260040161291990615304565b60405180910390fd5b6001600360008473ffffffffffffffffffffffffffffffffffffffff1673ffffffffffffffffffffffffffffffffffffffff16815260200190815260200160002060008282540192505081905550816002600083815260200190815260200160002060006101000a81548173ffffffffffffffffffffffffffffffffffffffff021916908373ffffffffffffffffffffffffffffffffffffffff160217905550808273ffffffffffffffffffffffffffffffffffffffff16600073ffffffffffffffffffffffffffffffffffffffff167fddf252ad1be2c89b69c2b068fc378daa952ba7f163c4a11628f55a4df523b3ef60405160405180910390a4612a2c600083836001613402565b5050565b612a398261329b565b612a78576040517f08c379a0000000000000000000000000000000000000000000000000000000008152600401612a6f90615396565b60405180910390fd5b80600660008481526020019081526020016000209080519060200190612a9f92919061386d565b505050565b600080612ab0836110f8565b90508073ffffffffffffffffffffffffffffffffffffffff168473ffffffffffffffffffffffffffffffffffffffff161480612af25750612af18185612562565b5b80612b3057508373ffffffffffffffffffffffffffffffffffffffff16612b1884610a8f565b73ffffffffffffffffffffffffffffffffffffffff16145b91505092915050565b8273ffffffffffffffffffffffffffffffffffffffff16612b59826110f8565b73ffffffffffffffffffffffffffffffffffffffff1614612baf576040517f08c379a0000000000000000000000000000000000000000000000000000000008152600401612ba690615428565b60405180910390fd5b600073ffffffffffffffffffffffffffffffffffffffff168273ffffffffffffffffffffffffffffffffffffffff1603612c1e576040517f08c379a0000000000000000000000000000000000000000000000000000000008152600401612c15906154ba565b60405180910390fd5b612c2b83838360016132dc565b8273ffffffffffffffffffffffffffffffffffffffff16612c4b826110f8565b73ffffffffffffffffffffffffffffffffffffffff1614612ca1576040517f08c379a0000000000000000000000000000000000000000000000000000000008152600401612c9890615428565b60405180910390fd5b6004600082815260200190815260200160002060006101000a81549073ffffffffffffffffffffffffffffffffffffffff02191690556001600360008573ffffffffffffffffffffffffffffffffffffffff1673ffffffffffffffffffffffffffffffffffffffff168152602001908152602001600020600082825403925050819055506001600360008473ffffffffffffffffffffffffffffffffffffffff1673ffffffffffffffffffffffffffffffffffffffff16815260200190815260200160002060008282540192505081905550816002600083815260200190815260200160002060006101000a81548173ffffffffffffffffffffffffffffffffffffffff021916908373ffffffffffffffffffffffffffffffffffffffff160217905550808273ffffffffffffffffffffffffffffffffffffffff168473ffffffffffffffffffffffffffffffffffffffff167fddf252ad1be2c89b69c2b068fc378daa952ba7f163c4a11628f55a4df523b3ef60405160405180910390a4612e2d8383836001613402565b505050565b60006002600083815260200190815260200160002060009054906101000a900473ffffffffffffffffffffffffffffffffffffffff169050919050565b612e7761272e565b73ffffffffffffffffffffffffffffffffffffffff16612e9561144c565b73ffffffffffffffffffffffffffffffffffffffff1614612eeb576040517f08c379a0000000000000000000000000000000000000000000000000000000008152600401612ee290615526565b60405180910390fd5b565b6000600760009054906101000a900473ffffffffffffffffffffffffffffffffffffffff16905081600760006101000a81548173ffffffffffffffffffffffffffffffffffffffff021916908373ffffffffffffffffffffffffffffffffffffffff1602179055508173ffffffffffffffffffffffffffffffffffffffff168173ffffffffffffffffffffffffffffffffffffffff167f8be0079c531659141344cd1fd0a4f28419497f9722a3daafe3b4186f6b6457e060405160405180910390a35050565b600080600090505b600c84604051612fcb91906149e0565b9081526020016040518091039020600101805490508110156130485782600c85604051612ff891906149e0565b9081526020016040518091039020600101828154811061301b5761301a614519565b5b90600052602060002001540361303557600191505061304e565b80806130409061468d565b915050612fbb565b50600090505b92915050565b8173ffffffffffffffffffffffffffffffffffffffff168373ffffffffffffffffffffffffffffffffffffffff16036130c2576040517f08c379a00000000000000000000000000000000000000000000000000000000081526004016130b990615592565b60405180910390fd5b80600560008573ffffffffffffffffffffffffffffffffffffffff1673ffffffffffffffffffffffffffffffffffffffff16815260200190815260200160002060008473ffffffffffffffffffffffffffffffffffffffff1673ffffffffffffffffffffffffffffffffffffffff16815260200190815260200160002060006101000a81548160ff0219169083151502179055508173ffffffffffffffffffffffffffffffffffffffff168373ffffffffffffffffffffffffffffffffffffffff167f17307eab39ab6107e8899845ad3d59bd9653f200f220920489ca2b5937696c31836040516131b391906139c4565b60405180910390a3505050565b6131cb848484612b39565b6131d784848484613408565b613216576040517f08c379a000000000000000000000000000000000000000000000000000000000815260040161320d90615624565b60405180910390fd5b50505050565b606060405180602001604052806000815250905090565b606061323e826126e3565b600061324861321c565b905060008151116132685760405180602001604052806000815250613293565b806132728461358f565b604051602001613283929190614f70565b6040516020818303038152906040525b915050919050565b60008073ffffffffffffffffffffffffffffffffffffffff166132bd83612e32565b73ffffffffffffffffffffffffffffffffffffffff1614159050919050565b60018111156133fc57600073ffffffffffffffffffffffffffffffffffffffff168473ffffffffffffffffffffffffffffffffffffffff16146133705780600360008673ffffffffffffffffffffffffffffffffffffffff1673ffffffffffffffffffffffffffffffffffffffff16815260200190815260200160002060008282546133689190614d53565b925050819055505b600073ffffffffffffffffffffffffffffffffffffffff168373ffffffffffffffffffffffffffffffffffffffff16146133fb5780600360008573ffffffffffffffffffffffffffffffffffffffff1673ffffffffffffffffffffffffffffffffffffffff16815260200190815260200160002060008282546133f39190615644565b925050819055505b5b50505050565b50505050565b60006134298473ffffffffffffffffffffffffffffffffffffffff1661365d565b15613582578373ffffffffffffffffffffffffffffffffffffffff1663150b7a0261345261272e565b8786866040518563ffffffff1660e01b815260040161347494939291906156ef565b6020604051808303816000875af19250505080156134b057506040513d601f19601f820116820180604052508101906134ad9190615750565b60015b613532573d80600081146134e0576040519150601f19603f3d011682016040523d82523d6000602084013e6134e5565b606091505b50600081510361352a576040517f08c379a000000000000000000000000000000000000000000000000000000000815260040161352190615624565b60405180910390fd5b805181602001fd5b63150b7a0260e01b7bffffffffffffffffffffffffffffffffffffffffffffffffffffffff1916817bffffffffffffffffffffffffffffffffffffffffffffffffffffffff191614915050613587565b600190505b949350505050565b60606000600161359e84613680565b01905060008167ffffffffffffffff8111156135bd576135bc613dff565b5b6040519080825280601f01601f1916602001820160405280156135ef5781602001600182028036833780820191505090505b509050600082602001820190505b600115613652578080600190039150507f3031323334353637383961626364656600000000000000000000000000000000600a86061a8153600a85816136465761364561577d565b5b049450600085036135fd575b819350505050919050565b6000808273ffffffffffffffffffffffffffffffffffffffff163b119050919050565b600080600090507a184f03e93ff9f4daa797ed6e38ed64bf6a1f01000000000000000083106136de577a184f03e93ff9f4daa797ed6e38ed64bf6a1f01000000000000000083816136d4576136d361577d565b5b0492506040810190505b6d04ee2d6d415b85acef8100000000831061371b576d04ee2d6d415b85acef810000000083816137115761371061577d565b5b0492506020810190505b662386f26fc10000831061374a57662386f26fc1000083816137405761373f61577d565b5b0492506010810190505b6305f5e1008310613773576305f5e10083816137695761376861577d565b5b0492506008810190505b612710831061379857612710838161378e5761378d61577d565b5b0492506004810190505b606483106137bb57606483816137b1576137b061577d565b5b0492506002810190505b600a83106137ca576001810190505b80915050919050565b604051806040016040528060608152602001606081525090565b6040518060400160405280600015158152602001600081525090565b6040518060c001604052806060815260200160608152602001600073ffffffffffffffffffffffffffffffffffffffff168152602001600073ffffffffffffffffffffffffffffffffffffffff168152602001606081526020016000151581525090565b82805461387990614577565b90600052602060002090601f01602090048101928261389b57600085556138e2565b82601f106138b457805160ff19168380011785556138e2565b828001600101855582156138e2579182015b828111156138e15782518255916020019190600101906138c6565b5b5090506138ef91906138f3565b5090565b5b8082111561390c5760008160009055506001016138f4565b5090565b6000604051905090565b600080fd5b600080fd5b60007fffffffff0000000000000000000000000000000000000000000000000000000082169050919050565b61395981613924565b811461396457600080fd5b50565b60008135905061397681613950565b92915050565b6000602082840312156139925761399161391a565b5b60006139a084828501613967565b91505092915050565b60008115159050919050565b6139be816139a9565b82525050565b60006020820190506139d960008301846139b5565b92915050565b600081519050919050565b600082825260208201905092915050565b6000819050602082019050919050565b600081519050919050565b600082825260208201905092915050565b60005b83811015613a45578082015181840152602081019050613a2a565b83811115613a54576000848401525b50505050565b6000601f19601f8301169050919050565b6000613a7682613a0b565b613a808185613a16565b9350613a90818560208601613a27565b613a9981613a5a565b840191505092915050565b600081519050919050565b600082825260208201905092915050565b6000819050602082019050919050565b6000819050919050565b613ae381613ad0565b82525050565b6000613af58383613ada565b60208301905092915050565b6000602082019050919050565b6000613b1982613aa4565b613b238185613aaf565b9350613b2e83613ac0565b8060005b83811015613b5f578151613b468882613ae9565b9750613b5183613b01565b925050600181019050613b32565b5085935050505092915050565b60006040830160008301518482036000860152613b898282613a6b565b91505060208301518482036020860152613ba38282613b0e565b9150508091505092915050565b6000613bbc8383613b6c565b905092915050565b6000602082019050919050565b6000613bdc826139df565b613be681856139ea565b935083602082028501613bf8856139fb565b8060005b85811015613c345784840389528151613c158582613bb0565b9450613c2083613bc4565b925060208a01995050600181019050613bfc565b50829750879550505050505092915050565b60006020820190508181036000830152613c608184613bd1565b905092915050565b600082825260208201905092915050565b6000613c8482613a0b565b613c8e8185613c68565b9350613c9e818560208601613a27565b613ca781613a5a565b840191505092915050565b60006020820190508181036000830152613ccc8184613c79565b905092915050565b613cdd81613ad0565b8114613ce857600080fd5b50565b600081359050613cfa81613cd4565b92915050565b600060208284031215613d1657613d1561391a565b5b6000613d2484828501613ceb565b91505092915050565b600073ffffffffffffffffffffffffffffffffffffffff82169050919050565b6000613d5882613d2d565b9050919050565b613d6881613d4d565b82525050565b6000602082019050613d836000830184613d5f565b92915050565b613d9281613d4d565b8114613d9d57600080fd5b50565b600081359050613daf81613d89565b92915050565b60008060408385031215613dcc57613dcb61391a565b5b6000613dda85828601613da0565b9250506020613deb85828601613ceb565b9150509250929050565b600080fd5b600080fd5b7f4e487b7100000000000000000000000000000000000000000000000000000000600052604160045260246000fd5b613e3782613a5a565b810181811067ffffffffffffffff82111715613e5657613e55613dff565b5b80604052505050565b6000613e69613910565b9050613e758282613e2e565b919050565b600067ffffffffffffffff821115613e9557613e94613dff565b5b613e9e82613a5a565b9050602081019050919050565b82818337600083830152505050565b6000613ecd613ec884613e7a565b613e5f565b905082815260208101848484011115613ee957613ee8613dfa565b5b613ef4848285613eab565b509392505050565b600082601f830112613f1157613f10613df5565b5b8135613f21848260208601613eba565b91505092915050565b60008060408385031215613f4157613f4061391a565b5b6000613f4f85828601613da0565b925050602083013567ffffffffffffffff811115613f7057613f6f61391f565b5b613f7c85828601613efc565b9150509250929050565b613f8f81613ad0565b82525050565b6000602082019050613faa6000830184613f86565b92915050565b600080600060608486031215613fc957613fc861391a565b5b6000613fd786828701613da0565b9350506020613fe886828701613da0565b9250506040613ff986828701613ceb565b9150509250925092565b6000806000806080858703121561401d5761401c61391a565b5b600085013567ffffffffffffffff81111561403b5761403a61391f565b5b61404787828801613efc565b945050602085013567ffffffffffffffff8111156140685761406761391f565b5b61407487828801613efc565b935050604061408587828801613da0565b925050606085013567ffffffffffffffff8111156140a6576140a561391f565b5b6140b287828801613efc565b91505092959194509250565b6000602082840312156140d4576140d361391a565b5b60006140e284828501613da0565b91505092915050565b600080604083850312156141025761410161391a565b5b600083013567ffffffffffffffff8111156141205761411f61391f565b5b61412c85828601613efc565b925050602061413d85828601613ceb565b9150509250929050565b614150816139a9565b811461415b57600080fd5b50565b60008135905061416d81614147565b92915050565b6000806040838503121561418a5761418961391a565b5b600061419885828601613da0565b92505060206141a98582860161415e565b9150509250929050565b600067ffffffffffffffff8211156141ce576141cd613dff565b5b6141d782613a5a565b9050602081019050919050565b60006141f76141f2846141b3565b613e5f565b90508281526020810184848401111561421357614212613dfa565b5b61421e848285613eab565b509392505050565b600082601f83011261423b5761423a613df5565b5b813561424b8482602086016141e4565b91505092915050565b6000806000806080858703121561426e5761426d61391a565b5b600061427c87828801613da0565b945050602061428d87828801613da0565b935050604061429e87828801613ceb565b925050606085013567ffffffffffffffff8111156142bf576142be61391f565b5b6142cb87828801614226565b91505092959194509250565b600080604083850312156142ee576142ed61391a565b5b60006142fc85828601613ceb565b925050602061430d85828601613ceb565b9150509250929050565b600060408201905061432c60008301856139b5565b6143396020830184613f86565b9392505050565b600081519050919050565b600082825260208201905092915050565b6000819050602082019050919050565b61437581613d4d565b82525050565b614384816139a9565b82525050565b600060c08301600083015184820360008601526143a78282613a6b565b915050602083015184820360208601526143c18282613a6b565b91505060408301516143d6604086018261436c565b5060608301516143e9606086018261436c565b50608083015184820360808601526144018282613a6b565b91505060a083015161441660a086018261437b565b508091505092915050565b600061442d838361438a565b905092915050565b6000602082019050919050565b600061444d82614340565b614457818561434b565b9350836020820285016144698561435c565b8060005b858110156144a557848403895281516144868582614421565b945061449183614435565b925060208a0199505060018101905061446d565b50829750879550505050505092915050565b600060208201905081810360008301526144d18184614442565b905092915050565b600080604083850312156144f0576144ef61391a565b5b60006144fe85828601613da0565b925050602061450f85828601613da0565b9150509250929050565b7f4e487b7100000000000000000000000000000000000000000000000000000000600052603260045260246000fd5b7f4e487b7100000000000000000000000000000000000000000000000000000000600052602260045260246000fd5b6000600282049050600182168061458f57607f821691505b6020821081036145a2576145a1614548565b5b50919050565b600081905092915050565b60008190508160005260206000209050919050565b600081546145d581614577565b6145df81866145a8565b945060018216600081146145fa576001811461460b5761463e565b60ff1983168652818601935061463e565b614614856145b3565b60005b8381101561463657815481890152600182019150602081019050614617565b838801955050505b50505092915050565b600061465382846145c8565b915081905092915050565b7f4e487b7100000000000000000000000000000000000000000000000000000000600052601160045260246000fd5b600061469882613ad0565b91507fffffffffffffffffffffffffffffffffffffffffffffffffffffffffffffffff82036146ca576146c961465e565b5b600182019050919050565b7f4552433732313a20617070726f76616c20746f2063757272656e74206f776e6560008201527f7200000000000000000000000000000000000000000000000000000000000000602082015250565b6000614731602183613c68565b915061473c826146d5565b604082019050919050565b6000602082019050818103600083015261476081614724565b9050919050565b7f4552433732313a20617070726f76652063616c6c6572206973206e6f7420746f60008201527f6b656e206f776e6572206f7220617070726f76656420666f7220616c6c000000602082015250565b60006147c3603d83613c68565b91506147ce82614767565b604082019050919050565b600060208201905081810360008301526147f2816147b6565b9050919050565b7f596f7520617265206e6f7420616e2065717569706d656e74206d616e7566616360008201527f74757265722e0000000000000000000000000000000000000000000000000000602082015250565b6000614855602683613c68565b9150614860826147f9565b604082019050919050565b6000602082019050818103600083015261488481614848565b9050919050565b7f4552433732312063616e6e6f74206265206d696e74656420746f20746865207a60008201527f65726f2061646472657373000000000000000000000000000000000000000000602082015250565b60006148e7602b83613c68565b91506148f28261488b565b604082019050919050565b60006020820190508181036000830152614916816148da565b9050919050565b7f4552433732313a2063616c6c6572206973206e6f7420746f6b656e206f776e6560008201527f72206f7220617070726f76656400000000000000000000000000000000000000602082015250565b6000614979602d83613c68565b91506149848261491d565b604082019050919050565b600060208201905081810360008301526149a88161496c565b9050919050565b60006149ba82613a0b565b6149c481856145a8565b93506149d4818560208601613a27565b80840191505092915050565b60006149ec82846149af565b915081905092915050565b7f546869732065717569706d656e7420616c7265616479206578697374732e0000600082015250565b6000614a2d601e83613c68565b9150614a38826149f7565b602082019050919050565b60006020820190508181036000830152614a5c81614a20565b9050919050565b7f4552433732313a20696e76616c696420746f6b656e2049440000000000000000600082015250565b6000614a99601883613c68565b9150614aa482614a63565b602082019050919050565b60006020820190508181036000830152614ac881614a8c565b9050919050565b7f4552433732313a2061646472657373207a65726f206973206e6f74206120766160008201527f6c6964206f776e65720000000000000000000000000000000000000000000000602082015250565b6000614b2b602983613c68565b9150614b3682614acf565b604082019050919050565b60006020820190508181036000830152614b5a81614b1e565b9050919050565b600081519050614b7081613d89565b92915050565b600060208284031215614b8c57614b8b61391a565b5b6000614b9a84828501614b61565b91505092915050565b7f596f7520646f6e277420706f7373657373207468697320706172742e00000000600082015250565b6000614bd9601c83613c68565b9150614be482614ba3565b602082019050919050565b60006020820190508181036000830152614c0881614bcc565b9050919050565b7f546869732070617274206973206e6f74206c69737465642e0000000000000000600082015250565b6000614c45601883613c68565b9150614c5082614c0f565b602082019050919050565b60006020820190508181036000830152614c7481614c38565b9050919050565b7f596f7520646f206e6f7420706f73736573732074686973207061727400000000600082015250565b6000614cb1601c83613c68565b9150614cbc82614c7b565b602082019050919050565b60006020820190508181036000830152614ce081614ca4565b9050919050565b7f596f7520646f206e6f74206861766520746869732065717569706d656e740000600082015250565b6000614d1d601e83613c68565b9150614d2882614ce7565b602082019050919050565b60006020820190508181036000830152614d4c81614d10565b9050919050565b6000614d5e82613ad0565b9150614d6983613ad0565b925082821015614d7c57614d7b61465e565b5b828203905092915050565b7f596f7520646f206e6f7420686176652074686973207061727400000000000000600082015250565b6000614dbd601983613c68565b9150614dc882614d87565b602082019050919050565b60006020820190508181036000830152614dec81614db0565b9050919050565b7f5061727420616c726561647920696e7374616c6c656420696e20617373656d6260008201527f6c79000000000000000000000000000000000000000000000000000000000000602082015250565b6000614e4f602283613c68565b9150614e5a82614df3565b604082019050919050565b60006020820190508181036000830152614e7e81614e42565b9050919050565b6000604082019050614e9a6000830185613f86565b8181036020830152614eac8184613c79565b90509392505050565b7f546869732061646472657373206973206e6f742072656769737465726564206160008201527f7320616e2045717569706d656e74204d616e7566616374757265722e00000000602082015250565b6000614f11603c83613c68565b9150614f1c82614eb5565b604082019050919050565b60006020820190508181036000830152614f4081614f04565b9050919050565b6000604082019050614f5c6000830185613f86565b614f696020830184613f86565b9392505050565b6000614f7c82856149af565b9150614f8882846149af565b91508190509392505050565b7f54686973206164647265737320697320616c726561647920726567697374657260008201527f656420617320616e2045717569706d656e74204d616e7566616374757265722e602082015250565b6000614ff0604083613c68565b9150614ffb82614f94565b604082019050919050565b6000602082019050818103600083015261501f81614fe3565b9050919050565b7f4d6573736167652076616c7565206973206e6f7420657175616c20746f206c6960008201527f7374656420707269636500000000000000000000000000000000000000000000602082015250565b6000615082602a83613c68565b915061508d82615026565b604082019050919050565b600060208201905081810360008301526150b181615075565b9050919050565b6000819050919050565b60006150dd6150d86150d384613d2d565b6150b8565b613d2d565b9050919050565b60006150ef826150c2565b9050919050565b6000615101826150e4565b9050919050565b615111816150f6565b82525050565b600060608201905061512c6000830186615108565b6151396020830185613d5f565b6151466040830184613f86565b949350505050565b7f54686973207061727420697320616c7265616479206c69737465642e00000000600082015250565b6000615184601c83613c68565b915061518f8261514e565b602082019050919050565b600060208201905081810360008301526151b381615177565b9050919050565b7f4f776e61626c653a206e6577206f776e657220697320746865207a65726f206160008201527f6464726573730000000000000000000000000000000000000000000000000000602082015250565b6000615216602683613c68565b9150615221826151ba565b604082019050919050565b6000602082019050818103600083015261524581615209565b9050919050565b7f4552433732313a206d696e7420746f20746865207a65726f2061646472657373600082015250565b6000615282602083613c68565b915061528d8261524c565b602082019050919050565b600060208201905081810360008301526152b181615275565b9050919050565b7f4552433732313a20746f6b656e20616c7265616479206d696e74656400000000600082015250565b60006152ee601c83613c68565b91506152f9826152b8565b602082019050919050565b6000602082019050818103600083015261531d816152e1565b9050919050565b7f45524337323155524953746f726167653a2055524920736574206f66206e6f6e60008201527f6578697374656e7420746f6b656e000000000000000000000000000000000000602082015250565b6000615380602e83613c68565b915061538b82615324565b604082019050919050565b600060208201905081810360008301526153af81615373565b9050919050565b7f4552433732313a207472616e736665722066726f6d20696e636f72726563742060008201527f6f776e6572000000000000000000000000000000000000000000000000000000602082015250565b6000615412602583613c68565b915061541d826153b6565b604082019050919050565b6000602082019050818103600083015261544181615405565b9050919050565b7f4552433732313a207472616e7366657220746f20746865207a65726f2061646460008201527f7265737300000000000000000000000000000000000000000000000000000000602082015250565b60006154a4602483613c68565b91506154af82615448565b604082019050919050565b600060208201905081810360008301526154d381615497565b9050919050565b7f4f776e61626c653a2063616c6c6572206973206e6f7420746865206f776e6572600082015250565b6000615510602083613c68565b915061551b826154da565b602082019050919050565b6000602082019050818103600083015261553f81615503565b9050919050565b7f4552433732313a20617070726f766520746f2063616c6c657200000000000000600082015250565b600061557c601983613c68565b915061558782615546565b602082019050919050565b600060208201905081810360008301526155ab8161556f565b9050919050565b7f4552433732313a207472616e7366657220746f206e6f6e20455243373231526560008201527f63656976657220696d706c656d656e7465720000000000000000000000000000602082015250565b600061560e603283613c68565b9150615619826155b2565b604082019050919050565b6000602082019050818103600083015261563d81615601565b9050919050565b600061564f82613ad0565b915061565a83613ad0565b9250827fffffffffffffffffffffffffffffffffffffffffffffffffffffffffffffffff0382111561568f5761568e61465e565b5b828201905092915050565b600081519050919050565b600082825260208201905092915050565b60006156c18261569a565b6156cb81856156a5565b93506156db818560208601613a27565b6156e481613a5a565b840191505092915050565b60006080820190506157046000830187613d5f565b6157116020830186613d5f565b61571e6040830185613f86565b818103606083015261573081846156b6565b905095945050505050565b60008151905061574a81613950565b92915050565b6000602082840312156157665761576561391a565b5b60006157748482850161573b565b91505092915050565b7f4e487b7100000000000000000000000000000000000000000000000000000000600052601260045260246000fdfea264697066735822122066074df35b75a0fc9a0a8b808e787b988757939935668bf8f0dcef3c9fc8054164736f6c634300080d0033",
  "immutableReferences": {},
  "source": "// SPDX-License-Identifier: MIT\npragma solidity 0.8.13;\n\nimport \"../node_modules/@openzeppelin/contracts/access/Ownable.sol\";\nimport \"../node_modules/@openzeppelin/contracts/token/ERC721/extensions/ERC721URIStorage.sol\";\nimport \"../node_modules/@openzeppelin/contracts/utils/Counters.sol\";\n\ncontract CycleChain is ERC721URIStorage, Ownable  {\n    using Counters for Counters.Counter;\n    Counters.Counter public _tokenIds;\n\n    // Part object\n    struct Part {\n        bool isListed;\n        uint listedPrice;\n    }\n\n    // Part array with index that will be equal to the NFT' ID\n    Part[] public parts;\n\n    // Equipment object\n    struct Equipment {\n        string serialNumber;\n        string category;\n        address manufacturer;\n        address owner;\n        string model;\n        // string photoURL; To add in V2\n        bool isValue;\n    }\n\n    // Equipment serialNumber => Equipment\n    mapping (string => Equipment) equipments;\n\n    // A table of all equipments serial numbers to make the mapping enumerable\n    string[] equipmentsSerialNumbers;\n\n\n    // An equipment can contain parts, forming an \"assembly\"\n    struct Assembly {\n        string equipmentSerialNumber;\n        uint[] partsIds;\n    }\n\n    // Equipment serialNumber => Assembly\n    mapping (string => Assembly) assemblies;\n\n    // Equipment manufacturers mapping\n    mapping (address => bool) public equipmentManufacturers;\n\n    // List of events\n    event PartCreated(uint NftId);\n    event EquipmentManufacturerRegistered(address _address);\n    event EquipmentManufacturerRemoved(address _address);\n    event PartInstalledOnEquipment(uint _partId, string _equipmentSerialNumber);\n    event PartRemovedFromEquipment(uint partId, uint equipmentId);\n    event EquipmentCreated(string equipmentId);\n    event partListed(uint partId, uint price);\n    event partDelisted(uint partId);\n\n    constructor() ERC721(\"Part\", \"CC\") {\n      // In order to have the index of parts equal to the NFT ID, we need to fill the index 0 of parts\n      Part memory part;\n      parts.push(part);\n\n      // Create fictive equipments\n      createEquipment('TD1', 'Grue', 0x59F3fcdd50315c5309d2Cc72E6CBFfaC9133418c, 'MODEL_123');\n      createEquipment('TD2', 'Grue', 0x59F3fcdd50315c5309d2Cc72E6CBFfaC9133418c, 'MODEL_123');\n      createEquipment('TD3', 'Pelleteuse', 0x59F3fcdd50315c5309d2Cc72E6CBFfaC9133418c, 'MODEL_123');\n      createEquipment('JP1', 'Grue', 0x1e3CdC405728560eebC4ab093D9c461b36E28Aa3, 'MODEL_123');\n      createEquipment('JP2', 'Pelleteuse', 0x1e3CdC405728560eebC4ab093D9c461b36E28Aa3, 'MODEL_123');\n      createEquipment('JP3', 'Pelleteuse', 0x1e3CdC405728560eebC4ab093D9c461b36E28Aa3, 'MODEL_123');\n    }\n\n    /// @notice Check if the msg.sender is an equipment manufacturer\n    modifier onlyEquipmentManufacturers() {\n        require(equipmentManufacturers[msg.sender] == true, \"You are not an equipment manufacturer.\");\n        _;\n    }\n    \n    // ::::::::::::: GETTERS ::::::::::::: //\n\n    function getAllEquipments() public view returns (Equipment[] memory) {\n        uint len = equipmentsSerialNumbers.length;\n        Equipment[] memory equipmentsArray = new Equipment[](len);\n\n        for (uint i=0; i<len; i++) {\n            equipmentsArray[i] = equipments[equipmentsSerialNumbers[i]];\n        }\n        return equipmentsArray;\n    }\n\n    function getAllAssemblies() public view returns (Assembly[] memory) {\n        uint len = equipmentsSerialNumbers.length;\n        Assembly[] memory assembliesArray = new Assembly[](len);\n\n        for (uint i=0; i<len; i++) {\n            assembliesArray[i] = assemblies[equipmentsSerialNumbers[i]];\n        }\n        return assembliesArray;\n    }\n\n\n    // ::::::::::::: FUNCTIONS ::::::::::::: //\n\n\n    /// @notice Register a new Equipment Manufacturer\n    /// @param _producer Address of the Equipment Manufacturer that will be allowed to create a Part (NFT)\n    function registerEquipmentManufacturer(address _producer) external onlyOwner {\n      require(equipmentManufacturers[_producer] == false, \"This address is already registered as an Equipment Manufacturer.\");\n\n      equipmentManufacturers[_producer] = true;\n      emit EquipmentManufacturerRegistered(_producer);\n    }\n\n    /// @notice Remove an Equipment Manufacturer\n    /// @param _producer Address of the Equipment Manufacturer that will be allowed to create a Part (NFT)\n    function removeEquipmentManufacturer(address _producer) external onlyOwner {\n      require(equipmentManufacturers[_producer] == true, \"This address is not registered as an Equipment Manufacturer.\");\n\n      equipmentManufacturers[_producer] = false;\n      emit EquipmentManufacturerRemoved(_producer);\n    }\n\n    /// TODO PUT BACK MODIFIER onlyEquipmentManufacturers\n    /// @notice Adds an equipment to the equipments mapping and update the equipmentsSerialNumbers array\n    /// @param _serialNumber Serial Number\n    /// @param _category Category\n    /// @param _owner The owner of the equipment (company name)\n    /// @param _model Equipment model\n    function createEquipment(string memory _serialNumber, string memory _category, address _owner, string memory _model) public {\n      require(equipments[_serialNumber].isValue == false, \"This equipment already exists.\");\n      Equipment memory eq;\n      eq.serialNumber = _serialNumber;\n      eq.category = _category;\n      eq.manufacturer = msg.sender;\n      eq.owner = _owner;\n      eq.model = _model;\n      eq.isValue = true;\n\n      equipments[_serialNumber] = eq;\n      equipmentsSerialNumbers.push(_serialNumber);\n\n      emit EquipmentCreated(_serialNumber);\n    }\n\n    function checkIfPartExistsInAssembly(string memory _equipmentSerialNumber, uint _partId) internal view returns(bool) {\n      for (uint i = 0; i <assemblies[_equipmentSerialNumber].partsIds.length; i++) {\n        if (assemblies[_equipmentSerialNumber].partsIds[i] == _partId) return true;\n      }\n      return false;\n    }\n\n    /// @notice Adds a part to an assembly (or creates he assembly if it doesn't exist)\n    /// @param _equipmentSerialNumber The serial number of the equipment\n    /// @param _partId The id of the part to be installed\n    function addPartToAssembly(string memory _equipmentSerialNumber, uint _partId) external {\n      require(ownerOf(_partId) == msg.sender, \"You do not possess this part\");\n      require(equipments[_equipmentSerialNumber].isValue == true, \"You do not have this equipment\");\n      require(parts.length - 1 >= _partId, \"You do not have this part\");\n      require(checkIfPartExistsInAssembly(_equipmentSerialNumber, _partId) == false, \"Part already installed in assembly\");\n\n      assemblies[_equipmentSerialNumber].equipmentSerialNumber = _equipmentSerialNumber;\n      assemblies[_equipmentSerialNumber].partsIds.push(_partId);\n      emit PartInstalledOnEquipment(_partId, _equipmentSerialNumber);\n    }\n\n    /// @notice As an equipment manufacturer, create a part NFT and transfer it to a part manufacturer\n    /// @param _forManufacturer Address of the part producer that will get the Part (NFT)\n    /// @return uint NFT's ID\n    function createPart(address _forManufacturer, string  memory _partURI) public onlyEquipmentManufacturers returns (uint256) {\n        require(_forManufacturer != address(0), \"ERC721 cannot be minted to the zero address\");\n\n        _tokenIds.increment();\n        uint256 newItemId = _tokenIds.current();\n        _mint(_forManufacturer, newItemId);\n        _setTokenURI(newItemId, _partURI);\n\n        Part memory part;\n        parts.push(part);\n\n        emit PartCreated(newItemId);\n\n        return newItemId;\n    }\n\n    /// @notice List a part\n    /// @param _nftId Part's NFT ID\n    /// @param _price Part's price\n    function listPart(uint _nftId, uint _price) external {\n      require(msg.sender == this.ownerOf(_nftId), \"You don't possess this part.\");\n      require(parts[_nftId].isListed == false, \"This part is already listed.\");\n\n      parts[_nftId].isListed = true;\n      parts[_nftId].listedPrice = _price;\n      emit partListed(_nftId, _price);\n    }\n\n    /// @notice Delist a part\n    /// @param _nftId Part's NFT ID\n    function delistPart(uint _nftId) external {\n      require(msg.sender == this.ownerOf(_nftId), \"You don't possess this part.\");\n      require(parts[_nftId].isListed == true, \"This part is not listed.\");\n\n      parts[_nftId].isListed = false;\n      parts[_nftId].listedPrice = 0;\n      emit partDelisted(_nftId);\n    }\n\n    /// @notice Update the listing price\n    /// @param _nftId Part's NFT ID\n    /// @param _price Part's price\n    function updateListingPrice(uint _nftId, uint _price) external {\n      require(msg.sender == this.ownerOf(_nftId), \"You don't possess this part.\");\n      require(parts[_nftId].isListed == true, \"This part is not listed.\");\n\n      parts[_nftId].listedPrice = _price;\n      emit partListed(_nftId, _price);\n    }\n\n\n    /// @notice Buy a part at market price\n    /// @param _nftId Part's NFT ID\n    function marketBuyPart(uint256 _nftId) public payable {\n      uint listedPrice = parts[_nftId].listedPrice;\n      require(parts[_nftId].isListed == true, \"This part is not listed.\");\n      require(msg.value == listedPrice, \"Message value is not equal to listed price\");\n\n      address payable owner = payable(this.ownerOf(_nftId));\n      this.safeTransferFrom(owner, msg.sender, _nftId);\n      payable(owner).transfer(listedPrice);\n      parts[_nftId].isListed = false;\n      parts[_nftId].listedPrice = 0;\n    }\n\n    /*\n    // This function removes a part from an assembly\n    function removePartFromAssembly(string memory _equipmentSerialNumber, string memory _partSerialNumber) public {\n      // TODO: Check if msg.sender is the owner of the part\n      // TODO: Check if equipment exists\n      // TODO: Check if part exists\n      uint len = assemblies[_equipmentSerialNumber].partsSerialNumbers.length;\n      string[] memory existingPartsArray = new string[](len);\n      existingPartsArray = assemblies[_equipmentSerialNumber].partsSerialNumbers;\n\n      bool found = false;\n      for(uint i=0; i<len; i++){\n        // Compare part with part to be deleted\n        if(keccak256(abi.encodePacked(partsArray[i])) == keccak256(abi.encodePacked(_partSerialNumber))) {\n          found = true;\n          // Replace the part to be deleted with the last part of the array\n          partsArray[i] = partsArray[len-1];\n        }\n      }\n\n      if (found) {\n        partsArray.pop();\n      }\n\n      partsArray[len] = _partSerialNumber;\n      setAssembly(_equipmentSerialNumber, partsArray);\n\n      //emit PartRemovedFromEquipment(_partSerialNumber, _equipmentSerialNumber);\n    }\n    */\n}",
  "sourcePath": "/home/student/Bureau/Alyra/Cycle-Chain/truffle/contracts/CycleChain.sol",
  "compiler": {
    "name": "solc",
    "version": "0.8.13+commit.abaa5c0e.Emscripten.clang"
  },
  "schemaVersion": "3.4.10",
  "updatedAt": "2022-12-10T18:40:35.362Z",
  "networkType": "ethereum",
  "devdoc": {
    "kind": "dev",
    "methods": {
      "addPartToAssembly(string,uint256)": {
        "params": {
          "_equipmentSerialNumber": "The serial number of the equipment",
          "_partId": "The id of the part to be installed"
        }
      },
      "approve(address,uint256)": {
        "details": "See {IERC721-approve}."
      },
      "balanceOf(address)": {
        "details": "See {IERC721-balanceOf}."
      },
      "createEquipment(string,string,address,string)": {
        "params": {
          "_category": "Category",
          "_model": "Equipment model",
          "_owner": "The owner of the equipment (company name)",
          "_serialNumber": "Serial Number"
        }
      },
      "createPart(address,string)": {
        "params": {
          "_forManufacturer": "Address of the part producer that will get the Part (NFT)"
        },
        "returns": {
          "_0": "uint NFT's ID"
        }
      },
      "delistPart(uint256)": {
        "params": {
          "_nftId": "Part's NFT ID"
        }
      },
      "getApproved(uint256)": {
        "details": "See {IERC721-getApproved}."
      },
      "isApprovedForAll(address,address)": {
        "details": "See {IERC721-isApprovedForAll}."
      },
      "listPart(uint256,uint256)": {
        "params": {
          "_nftId": "Part's NFT ID",
          "_price": "Part's price"
        }
      },
      "marketBuyPart(uint256)": {
        "params": {
          "_nftId": "Part's NFT ID"
        }
      },
      "name()": {
        "details": "See {IERC721Metadata-name}."
      },
      "owner()": {
        "details": "Returns the address of the current owner."
      },
      "ownerOf(uint256)": {
        "details": "See {IERC721-ownerOf}."
      },
      "registerEquipmentManufacturer(address)": {
        "params": {
          "_producer": "Address of the Equipment Manufacturer that will be allowed to create a Part (NFT)"
        }
      },
      "removeEquipmentManufacturer(address)": {
        "params": {
          "_producer": "Address of the Equipment Manufacturer that will be allowed to create a Part (NFT)"
        }
      },
      "renounceOwnership()": {
        "details": "Leaves the contract without owner. It will not be possible to call `onlyOwner` functions anymore. Can only be called by the current owner. NOTE: Renouncing ownership will leave the contract without an owner, thereby removing any functionality that is only available to the owner."
      },
      "safeTransferFrom(address,address,uint256)": {
        "details": "See {IERC721-safeTransferFrom}."
      },
      "safeTransferFrom(address,address,uint256,bytes)": {
        "details": "See {IERC721-safeTransferFrom}."
      },
      "setApprovalForAll(address,bool)": {
        "details": "See {IERC721-setApprovalForAll}."
      },
      "supportsInterface(bytes4)": {
        "details": "See {IERC165-supportsInterface}."
      },
      "symbol()": {
        "details": "See {IERC721Metadata-symbol}."
      },
      "tokenURI(uint256)": {
        "details": "See {IERC721Metadata-tokenURI}."
      },
      "transferFrom(address,address,uint256)": {
        "details": "See {IERC721-transferFrom}."
      },
      "transferOwnership(address)": {
        "details": "Transfers ownership of the contract to a new account (`newOwner`). Can only be called by the current owner."
      },
      "updateListingPrice(uint256,uint256)": {
        "params": {
          "_nftId": "Part's NFT ID",
          "_price": "Part's price"
        }
      }
    },
    "version": 1
  },
  "userdoc": {
    "kind": "user",
    "methods": {
      "addPartToAssembly(string,uint256)": {
        "notice": "Adds a part to an assembly (or creates he assembly if it doesn't exist)"
      },
      "createEquipment(string,string,address,string)": {
        "notice": "TODO PUT BACK MODIFIER onlyEquipmentManufacturersAdds an equipment to the equipments mapping and update the equipmentsSerialNumbers array"
      },
      "createPart(address,string)": {
        "notice": "As an equipment manufacturer, create a part NFT and transfer it to a part manufacturer"
      },
      "delistPart(uint256)": {
        "notice": "Delist a part"
      },
      "listPart(uint256,uint256)": {
        "notice": "List a part"
      },
      "marketBuyPart(uint256)": {
        "notice": "Buy a part at market price"
      },
      "registerEquipmentManufacturer(address)": {
        "notice": "Register a new Equipment Manufacturer"
      },
      "removeEquipmentManufacturer(address)": {
        "notice": "Remove an Equipment Manufacturer"
      },
      "updateListingPrice(uint256,uint256)": {
        "notice": "Update the listing price"
      }
    },
    "version": 1
  }
}