{
  "contractName": "CycleChain",
  "abi": [
    {
      "inputs": [],
      "stateMutability": "nonpayable",
      "type": "constructor"
    },
    {
      "anonymous": false,
      "inputs": [
        {
          "indexed": true,
          "internalType": "address",
          "name": "owner",
          "type": "address"
        },
        {
          "indexed": true,
          "internalType": "address",
          "name": "approved",
          "type": "address"
        },
        {
          "indexed": true,
          "internalType": "uint256",
          "name": "tokenId",
          "type": "uint256"
        }
      ],
      "name": "Approval",
      "type": "event"
    },
    {
      "anonymous": false,
      "inputs": [
        {
          "indexed": true,
          "internalType": "address",
          "name": "owner",
          "type": "address"
        },
        {
          "indexed": true,
          "internalType": "address",
          "name": "operator",
          "type": "address"
        },
        {
          "indexed": false,
          "internalType": "bool",
          "name": "approved",
          "type": "bool"
        }
      ],
      "name": "ApprovalForAll",
      "type": "event"
    },
    {
      "anonymous": false,
      "inputs": [
        {
          "indexed": false,
          "internalType": "string",
          "name": "equipmentId",
          "type": "string"
        }
      ],
      "name": "EquipmentCreated",
      "type": "event"
    },
    {
      "anonymous": false,
      "inputs": [
        {
          "indexed": false,
          "internalType": "address",
          "name": "_address",
          "type": "address"
        }
      ],
      "name": "EquipmentManufacturerRegistered",
      "type": "event"
    },
    {
      "anonymous": false,
      "inputs": [
        {
          "indexed": false,
          "internalType": "address",
          "name": "_address",
          "type": "address"
        }
      ],
      "name": "EquipmentManufacturerRemoved",
      "type": "event"
    },
    {
      "anonymous": false,
      "inputs": [
        {
          "indexed": true,
          "internalType": "address",
          "name": "previousOwner",
          "type": "address"
        },
        {
          "indexed": true,
          "internalType": "address",
          "name": "newOwner",
          "type": "address"
        }
      ],
      "name": "OwnershipTransferred",
      "type": "event"
    },
    {
      "anonymous": false,
      "inputs": [
        {
          "indexed": false,
          "internalType": "uint256",
          "name": "NftId",
          "type": "uint256"
        }
      ],
      "name": "PartCreated",
      "type": "event"
    },
    {
      "anonymous": false,
      "inputs": [
        {
          "indexed": false,
          "internalType": "uint256",
          "name": "partId",
          "type": "uint256"
        },
        {
          "indexed": false,
          "internalType": "string",
          "name": "equipmentSerialNumber",
          "type": "string"
        }
      ],
      "name": "PartInstalledOnEquipment",
      "type": "event"
    },
    {
      "anonymous": false,
      "inputs": [
        {
          "indexed": false,
          "internalType": "uint256",
          "name": "partId",
          "type": "uint256"
        },
        {
          "indexed": false,
          "internalType": "uint256",
          "name": "equipmentId",
          "type": "uint256"
        }
      ],
      "name": "PartRemovedFromEquipment",
      "type": "event"
    },
    {
      "anonymous": false,
      "inputs": [
        {
          "indexed": true,
          "internalType": "address",
          "name": "from",
          "type": "address"
        },
        {
          "indexed": true,
          "internalType": "address",
          "name": "to",
          "type": "address"
        },
        {
          "indexed": true,
          "internalType": "uint256",
          "name": "tokenId",
          "type": "uint256"
        }
      ],
      "name": "Transfer",
      "type": "event"
    },
    {
      "anonymous": false,
      "inputs": [
        {
          "indexed": false,
          "internalType": "uint256",
          "name": "partId",
          "type": "uint256"
        }
      ],
      "name": "partDelisted",
      "type": "event"
    },
    {
      "anonymous": false,
      "inputs": [
        {
          "indexed": false,
          "internalType": "uint256",
          "name": "partId",
          "type": "uint256"
        },
        {
          "indexed": false,
          "internalType": "uint256",
          "name": "price",
          "type": "uint256"
        }
      ],
      "name": "partListed",
      "type": "event"
    },
    {
      "inputs": [],
      "name": "_tokenIds",
      "outputs": [
        {
          "internalType": "uint256",
          "name": "_value",
          "type": "uint256"
        }
      ],
      "stateMutability": "view",
      "type": "function",
      "constant": true
    },
    {
      "inputs": [
        {
          "internalType": "address",
          "name": "to",
          "type": "address"
        },
        {
          "internalType": "uint256",
          "name": "tokenId",
          "type": "uint256"
        }
      ],
      "name": "approve",
      "outputs": [],
      "stateMutability": "nonpayable",
      "type": "function"
    },
    {
      "inputs": [
        {
          "internalType": "address",
          "name": "owner",
          "type": "address"
        }
      ],
      "name": "balanceOf",
      "outputs": [
        {
          "internalType": "uint256",
          "name": "",
          "type": "uint256"
        }
      ],
      "stateMutability": "view",
      "type": "function",
      "constant": true
    },
    {
      "inputs": [
        {
          "internalType": "address",
          "name": "",
          "type": "address"
        }
      ],
      "name": "equipmentManufacturers",
      "outputs": [
        {
          "internalType": "bool",
          "name": "",
          "type": "bool"
        }
      ],
      "stateMutability": "view",
      "type": "function",
      "constant": true
    },
    {
      "inputs": [
        {
          "internalType": "uint256",
          "name": "tokenId",
          "type": "uint256"
        }
      ],
      "name": "getApproved",
      "outputs": [
        {
          "internalType": "address",
          "name": "",
          "type": "address"
        }
      ],
      "stateMutability": "view",
      "type": "function",
      "constant": true
    },
    {
      "inputs": [
        {
          "internalType": "address",
          "name": "owner",
          "type": "address"
        },
        {
          "internalType": "address",
          "name": "operator",
          "type": "address"
        }
      ],
      "name": "isApprovedForAll",
      "outputs": [
        {
          "internalType": "bool",
          "name": "",
          "type": "bool"
        }
      ],
      "stateMutability": "view",
      "type": "function",
      "constant": true
    },
    {
      "inputs": [],
      "name": "name",
      "outputs": [
        {
          "internalType": "string",
          "name": "",
          "type": "string"
        }
      ],
      "stateMutability": "view",
      "type": "function",
      "constant": true
    },
    {
      "inputs": [],
      "name": "owner",
      "outputs": [
        {
          "internalType": "address",
          "name": "",
          "type": "address"
        }
      ],
      "stateMutability": "view",
      "type": "function",
      "constant": true
    },
    {
      "inputs": [
        {
          "internalType": "uint256",
          "name": "tokenId",
          "type": "uint256"
        }
      ],
      "name": "ownerOf",
      "outputs": [
        {
          "internalType": "address",
          "name": "",
          "type": "address"
        }
      ],
      "stateMutability": "view",
      "type": "function",
      "constant": true
    },
    {
      "inputs": [
        {
          "internalType": "uint256",
          "name": "",
          "type": "uint256"
        }
      ],
      "name": "parts",
      "outputs": [
        {
          "internalType": "bool",
          "name": "isListed",
          "type": "bool"
        },
        {
          "internalType": "uint256",
          "name": "listedPrice",
          "type": "uint256"
        }
      ],
      "stateMutability": "view",
      "type": "function",
      "constant": true
    },
    {
      "inputs": [],
      "name": "renounceOwnership",
      "outputs": [],
      "stateMutability": "nonpayable",
      "type": "function"
    },
    {
      "inputs": [
        {
          "internalType": "address",
          "name": "from",
          "type": "address"
        },
        {
          "internalType": "address",
          "name": "to",
          "type": "address"
        },
        {
          "internalType": "uint256",
          "name": "tokenId",
          "type": "uint256"
        }
      ],
      "name": "safeTransferFrom",
      "outputs": [],
      "stateMutability": "nonpayable",
      "type": "function"
    },
    {
      "inputs": [
        {
          "internalType": "address",
          "name": "from",
          "type": "address"
        },
        {
          "internalType": "address",
          "name": "to",
          "type": "address"
        },
        {
          "internalType": "uint256",
          "name": "tokenId",
          "type": "uint256"
        },
        {
          "internalType": "bytes",
          "name": "data",
          "type": "bytes"
        }
      ],
      "name": "safeTransferFrom",
      "outputs": [],
      "stateMutability": "nonpayable",
      "type": "function"
    },
    {
      "inputs": [
        {
          "internalType": "address",
          "name": "operator",
          "type": "address"
        },
        {
          "internalType": "bool",
          "name": "approved",
          "type": "bool"
        }
      ],
      "name": "setApprovalForAll",
      "outputs": [],
      "stateMutability": "nonpayable",
      "type": "function"
    },
    {
      "inputs": [
        {
          "internalType": "bytes4",
          "name": "interfaceId",
          "type": "bytes4"
        }
      ],
      "name": "supportsInterface",
      "outputs": [
        {
          "internalType": "bool",
          "name": "",
          "type": "bool"
        }
      ],
      "stateMutability": "view",
      "type": "function",
      "constant": true
    },
    {
      "inputs": [],
      "name": "symbol",
      "outputs": [
        {
          "internalType": "string",
          "name": "",
          "type": "string"
        }
      ],
      "stateMutability": "view",
      "type": "function",
      "constant": true
    },
    {
      "inputs": [
        {
          "internalType": "uint256",
          "name": "tokenId",
          "type": "uint256"
        }
      ],
      "name": "tokenURI",
      "outputs": [
        {
          "internalType": "string",
          "name": "",
          "type": "string"
        }
      ],
      "stateMutability": "view",
      "type": "function",
      "constant": true
    },
    {
      "inputs": [
        {
          "internalType": "address",
          "name": "from",
          "type": "address"
        },
        {
          "internalType": "address",
          "name": "to",
          "type": "address"
        },
        {
          "internalType": "uint256",
          "name": "tokenId",
          "type": "uint256"
        }
      ],
      "name": "transferFrom",
      "outputs": [],
      "stateMutability": "nonpayable",
      "type": "function"
    },
    {
      "inputs": [
        {
          "internalType": "address",
          "name": "newOwner",
          "type": "address"
        }
      ],
      "name": "transferOwnership",
      "outputs": [],
      "stateMutability": "nonpayable",
      "type": "function"
    },
    {
      "inputs": [
        {
          "internalType": "string",
          "name": "_serialNumber",
          "type": "string"
        }
      ],
      "name": "getOneEquipment",
      "outputs": [
        {
          "components": [
            {
              "internalType": "string",
              "name": "serialNumber",
              "type": "string"
            },
            {
              "internalType": "string",
              "name": "category",
              "type": "string"
            },
            {
              "internalType": "address",
              "name": "manufacturer",
              "type": "address"
            },
            {
              "internalType": "address",
              "name": "owner",
              "type": "address"
            },
            {
              "internalType": "string",
              "name": "model",
              "type": "string"
            },
            {
              "internalType": "bool",
              "name": "isValue",
              "type": "bool"
            }
          ],
          "internalType": "struct CycleChain.Equipment",
          "name": "",
          "type": "tuple"
        }
      ],
      "stateMutability": "view",
      "type": "function",
      "constant": true
    },
    {
      "inputs": [
        {
          "internalType": "string",
          "name": "_serialNumber",
          "type": "string"
        }
      ],
      "name": "getOneAssembly",
      "outputs": [
        {
          "components": [
            {
              "internalType": "string",
              "name": "equipmentSerialNumber",
              "type": "string"
            },
            {
              "internalType": "uint256[]",
              "name": "partsIds",
              "type": "uint256[]"
            }
          ],
          "internalType": "struct CycleChain.Assembly",
          "name": "",
          "type": "tuple"
        }
      ],
      "stateMutability": "view",
      "type": "function",
      "constant": true
    },
    {
      "inputs": [],
      "name": "getAllEquipments",
      "outputs": [
        {
          "components": [
            {
              "internalType": "string",
              "name": "serialNumber",
              "type": "string"
            },
            {
              "internalType": "string",
              "name": "category",
              "type": "string"
            },
            {
              "internalType": "address",
              "name": "manufacturer",
              "type": "address"
            },
            {
              "internalType": "address",
              "name": "owner",
              "type": "address"
            },
            {
              "internalType": "string",
              "name": "model",
              "type": "string"
            },
            {
              "internalType": "bool",
              "name": "isValue",
              "type": "bool"
            }
          ],
          "internalType": "struct CycleChain.Equipment[]",
          "name": "",
          "type": "tuple[]"
        }
      ],
      "stateMutability": "view",
      "type": "function",
      "constant": true
    },
    {
      "inputs": [],
      "name": "getAllAssemblies",
      "outputs": [
        {
          "components": [
            {
              "internalType": "string",
              "name": "equipmentSerialNumber",
              "type": "string"
            },
            {
              "internalType": "uint256[]",
              "name": "partsIds",
              "type": "uint256[]"
            }
          ],
          "internalType": "struct CycleChain.Assembly[]",
          "name": "",
          "type": "tuple[]"
        }
      ],
      "stateMutability": "view",
      "type": "function",
      "constant": true
    },
    {
      "inputs": [
        {
          "internalType": "address",
          "name": "_producer",
          "type": "address"
        }
      ],
      "name": "registerEquipmentManufacturer",
      "outputs": [],
      "stateMutability": "nonpayable",
      "type": "function"
    },
    {
      "inputs": [
        {
          "internalType": "address",
          "name": "_producer",
          "type": "address"
        }
      ],
      "name": "removeEquipmentManufacturer",
      "outputs": [],
      "stateMutability": "nonpayable",
      "type": "function"
    },
    {
      "inputs": [
        {
          "internalType": "string",
          "name": "_serialNumber",
          "type": "string"
        },
        {
          "internalType": "string",
          "name": "_category",
          "type": "string"
        },
        {
          "internalType": "address",
          "name": "_owner",
          "type": "address"
        },
        {
          "internalType": "string",
          "name": "_model",
          "type": "string"
        }
      ],
      "name": "createEquipment",
      "outputs": [],
      "stateMutability": "nonpayable",
      "type": "function"
    },
    {
      "inputs": [
        {
          "internalType": "string",
          "name": "_equipmentSerialNumber",
          "type": "string"
        },
        {
          "internalType": "uint256",
          "name": "_partId",
          "type": "uint256"
        }
      ],
      "name": "addPartToAssembly",
      "outputs": [],
      "stateMutability": "nonpayable",
      "type": "function"
    },
    {
      "inputs": [
        {
          "internalType": "address",
          "name": "_forManufacturer",
          "type": "address"
        },
        {
          "internalType": "string",
          "name": "_partURI",
          "type": "string"
        }
      ],
      "name": "createPart",
      "outputs": [
        {
          "internalType": "uint256",
          "name": "",
          "type": "uint256"
        }
      ],
      "stateMutability": "nonpayable",
      "type": "function"
    },
    {
      "inputs": [
        {
          "internalType": "uint256",
          "name": "_nftId",
          "type": "uint256"
        },
        {
          "internalType": "uint256",
          "name": "_price",
          "type": "uint256"
        }
      ],
      "name": "listPart",
      "outputs": [],
      "stateMutability": "nonpayable",
      "type": "function"
    },
    {
      "inputs": [
        {
          "internalType": "uint256",
          "name": "_nftId",
          "type": "uint256"
        }
      ],
      "name": "delistPart",
      "outputs": [],
      "stateMutability": "nonpayable",
      "type": "function"
    },
    {
      "inputs": [
        {
          "internalType": "uint256",
          "name": "_nftId",
          "type": "uint256"
        },
        {
          "internalType": "uint256",
          "name": "_price",
          "type": "uint256"
        }
      ],
      "name": "updateListingPrice",
      "outputs": [],
      "stateMutability": "nonpayable",
      "type": "function"
    },
    {
      "inputs": [
        {
          "internalType": "uint256",
          "name": "_nftId",
          "type": "uint256"
        }
      ],
      "name": "marketBuyPart",
      "outputs": [],
      "stateMutability": "payable",
      "type": "function",
      "payable": true
    }
  ],
  "bytecode": "0x60806040523480156200001157600080fd5b506040518060400160405280600481526020017f50617274000000000000000000000000000000000000000000000000000000008152506040518060400160405280600281526020017f434300000000000000000000000000000000000000000000000000000000000081525081600090805190602001906200009692919062000209565b508060019080519060200190620000af92919062000209565b505050620000d2620000c66200013b60201b60201c565b6200014360201b60201c565b620000dc6200029a565b600981908060018154018082558091505060019003906000526020600020906002020160009091909190915060008201518160000160006101000a81548160ff0219169083151502179055506020820151816001015550505062000339565b600033905090565b6000600760009054906101000a900473ffffffffffffffffffffffffffffffffffffffff16905081600760006101000a81548173ffffffffffffffffffffffffffffffffffffffff021916908373ffffffffffffffffffffffffffffffffffffffff1602179055508173ffffffffffffffffffffffffffffffffffffffff168173ffffffffffffffffffffffffffffffffffffffff167f8be0079c531659141344cd1fd0a4f28419497f9722a3daafe3b4186f6b6457e060405160405180910390a35050565b828054620002179062000304565b90600052602060002090601f0160209004810192826200023b576000855562000287565b82601f106200025657805160ff191683800117855562000287565b8280016001018555821562000287579182015b828111156200028657825182559160200191906001019062000269565b5b509050620002969190620002b6565b5090565b6040518060400160405280600015158152602001600081525090565b5b80821115620002d1576000816000905550600101620002b7565b5090565b7f4e487b7100000000000000000000000000000000000000000000000000000000600052602260045260246000fd5b600060028204905060018216806200031d57607f821691505b602082108103620003335762000332620002d5565b5b50919050565b615e4280620003496000396000f3fe6080604052600436106101e35760003560e01c806395d89b4111610102578063c9eb466211610095578063d8a89c4e11610064578063d8a89c4e14610706578063ddbf332e1461072f578063e985e9c51461076c578063f2fde38b146107a9576101e3565b8063c9eb466214610658578063d0ad0f4f14610696578063d2685825146106bf578063d48eee29146106ea576101e3565b8063b88d4fde116100d1578063b88d4fde1461058c578063c4604943146105b5578063c7352663146105de578063c87b56dd1461061b576101e3565b806395d89b41146104e4578063a22cb4651461050f578063aa46a40014610538578063b04cdee314610563576101e3565b806342842e0e1161017a57806370e871321161014957806370e8713214610450578063715018a6146104795780638da5cb5b1461049057806392a66f35146104bb576101e3565b806342842e0e1461037057806353219acc146103995780636352211e146103d657806370a0823114610413576101e3565b8063095ea7b3116101b6578063095ea7b3146102b85780631ae01fb2146102e157806323b872dd1461031e5780632a18a57c14610347576101e3565b806301ffc9a7146101e857806304dd15f91461022557806306fdde0314610250578063081812fc1461027b575b600080fd5b3480156101f457600080fd5b5061020f600480360381019061020a9190613e86565b6107d2565b60405161021c9190613ece565b60405180910390f35b34801561023157600080fd5b5061023a6108b4565b6040516102479190614150565b60405180910390f35b34801561025c57600080fd5b50610265610a8d565b60405161027291906141bc565b60405180910390f35b34801561028757600080fd5b506102a2600480360381019061029d919061420a565b610b1f565b6040516102af9190614278565b60405180910390f35b3480156102c457600080fd5b506102df60048036038101906102da91906142bf565b610b65565b005b3480156102ed57600080fd5b5061030860048036038101906103039190614434565b610c7c565b604051610315919061449f565b60405180910390f35b34801561032a57600080fd5b50610345600480360381019061034091906144ba565b610e4e565b005b34801561035357600080fd5b5061036e6004803603810190610369919061450d565b610eae565b005b34801561037c57600080fd5b50610397600480360381019061039291906144ba565b6111fb565b005b3480156103a557600080fd5b506103c060048036038101906103bb91906145c8565b61121b565b6040516103cd91906146c6565b60405180910390f35b3480156103e257600080fd5b506103fd60048036038101906103f8919061420a565b6114dc565b60405161040a9190614278565b60405180910390f35b34801561041f57600080fd5b5061043a600480360381019061043591906146e8565b611562565b604051610447919061449f565b60405180910390f35b34801561045c57600080fd5b506104776004803603810190610472919061420a565b611619565b005b34801561048557600080fd5b5061048e61181c565b005b34801561049c57600080fd5b506104a5611830565b6040516104b29190614278565b60405180910390f35b3480156104c757600080fd5b506104e260048036038101906104dd9190614715565b61185a565b005b3480156104f057600080fd5b506104f9611a8a565b60405161050691906141bc565b60405180910390f35b34801561051b57600080fd5b506105366004803603810190610531919061479d565b611b1c565b005b34801561054457600080fd5b5061054d611b32565b60405161055a919061449f565b60405180910390f35b34801561056f57600080fd5b5061058a600480360381019061058591906146e8565b611b3e565b005b34801561059857600080fd5b506105b360048036038101906105ae919061487e565b611c6b565b005b3480156105c157600080fd5b506105dc60048036038101906105d79190614901565b611ccd565b005b3480156105ea57600080fd5b50610605600480360381019061060091906145c8565b611e94565b6040516106129190614985565b60405180910390f35b34801561062757600080fd5b50610642600480360381019061063d919061420a565b611fc2565b60405161064f91906141bc565b60405180910390f35b34801561066457600080fd5b5061067f600480360381019061067a919061420a565b6120d4565b60405161068d9291906149a7565b60405180910390f35b3480156106a257600080fd5b506106bd60048036038101906106b891906146e8565b612115565b005b3480156106cb57600080fd5b506106d4612242565b6040516106e19190614b29565b60405180910390f35b61070460048036038101906106ff919061420a565b6125ae565b005b34801561071257600080fd5b5061072d60048036038101906107289190614901565b612847565b005b34801561073b57600080fd5b50610756600480360381019061075191906146e8565b612a4c565b6040516107639190613ece565b60405180910390f35b34801561077857600080fd5b50610793600480360381019061078e9190614b4b565b612a6c565b6040516107a09190613ece565b60405180910390f35b3480156107b557600080fd5b506107d060048036038101906107cb91906146e8565b612b00565b005b60007f80ac58cd000000000000000000000000000000000000000000000000000000007bffffffffffffffffffffffffffffffffffffffffffffffffffffffff1916827bffffffffffffffffffffffffffffffffffffffffffffffffffffffff1916148061089d57507f5b5e139f000000000000000000000000000000000000000000000000000000007bffffffffffffffffffffffffffffffffffffffffffffffffffffffff1916827bffffffffffffffffffffffffffffffffffffffffffffffffffffffff1916145b806108ad57506108ac82612b83565b5b9050919050565b60606000600b80549050905060008167ffffffffffffffff8111156108dc576108db614309565b5b60405190808252806020026020018201604052801561091557816020015b610902613cdd565b8152602001906001900390816108fa5790505b50905060005b82811015610a8457600c600b828154811061093957610938614b8b565b5b906000526020600020016040516109509190614cb9565b908152602001604051809103902060405180604001604052908160008201805461097990614be9565b80601f01602080910402602001604051908101604052809291908181526020018280546109a590614be9565b80156109f25780601f106109c7576101008083540402835291602001916109f2565b820191906000526020600020905b8154815290600101906020018083116109d557829003601f168201915b5050505050815260200160018201805480602002602001604051908101604052809291908181526020018280548015610a4a57602002820191906000526020600020905b815481526020019060010190808311610a36575b505050505081525050828281518110610a6657610a65614b8b565b5b60200260200101819052508080610a7c90614cff565b91505061091b565b50809250505090565b606060008054610a9c90614be9565b80601f0160208091040260200160405190810160405280929190818152602001828054610ac890614be9565b8015610b155780601f10610aea57610100808354040283529160200191610b15565b820191906000526020600020905b815481529060010190602001808311610af857829003601f168201915b5050505050905090565b6000610b2a82612bed565b6004600083815260200190815260200160002060009054906101000a900473ffffffffffffffffffffffffffffffffffffffff169050919050565b6000610b70826114dc565b90508073ffffffffffffffffffffffffffffffffffffffff168373ffffffffffffffffffffffffffffffffffffffff1603610be0576040517f08c379a0000000000000000000000000000000000000000000000000000000008152600401610bd790614db9565b60405180910390fd5b8073ffffffffffffffffffffffffffffffffffffffff16610bff612c38565b73ffffffffffffffffffffffffffffffffffffffff161480610c2e5750610c2d81610c28612c38565b612a6c565b5b610c6d576040517f08c379a0000000000000000000000000000000000000000000000000000000008152600401610c6490614e4b565b60405180910390fd5b610c778383612c40565b505050565b600060011515600d60003373ffffffffffffffffffffffffffffffffffffffff1673ffffffffffffffffffffffffffffffffffffffff16815260200190815260200160002060009054906101000a900460ff16151514610d11576040517f08c379a0000000000000000000000000000000000000000000000000000000008152600401610d0890614edd565b60405180910390fd5b600073ffffffffffffffffffffffffffffffffffffffff168373ffffffffffffffffffffffffffffffffffffffff1603610d80576040517f08c379a0000000000000000000000000000000000000000000000000000000008152600401610d7790614f6f565b60405180910390fd5b610d8a6008612cf9565b6000610d966008612d0f565b9050610da28482612d1d565b610dac8184612f3a565b610db4613cf7565b600981908060018154018082558091505060019003906000526020600020906002020160009091909190915060008201518160000160006101000a81548160ff0219169083151502179055506020820151816001015550507fbeb6ef1e252bba53ccc7403a1dbbfed2526fd6136f583a36b73c4adb67331b8a82604051610e3b919061449f565b60405180910390a1819250505092915050565b610e5f610e59612c38565b82612fae565b610e9e576040517f08c379a0000000000000000000000000000000000000000000000000000000008152600401610e9590615001565b60405180910390fd5b610ea9838383613043565b505050565b60011515600d60003373ffffffffffffffffffffffffffffffffffffffff1673ffffffffffffffffffffffffffffffffffffffff16815260200190815260200160002060009054906101000a900460ff16151514610f41576040517f08c379a0000000000000000000000000000000000000000000000000000000008152600401610f3890614edd565b60405180910390fd5b60001515600a85604051610f559190615052565b908152602001604051809103902060050160009054906101000a900460ff16151514610fb6576040517f08c379a0000000000000000000000000000000000000000000000000000000008152600401610fad906150b5565b60405180910390fd5b610fbe613d13565b84816000018190525083816020018190525033816040019073ffffffffffffffffffffffffffffffffffffffff16908173ffffffffffffffffffffffffffffffffffffffff168152505082816060019073ffffffffffffffffffffffffffffffffffffffff16908173ffffffffffffffffffffffffffffffffffffffff168152505081816080018190525060018160a001901515908115158152505080600a8660405161106b9190615052565b90815260200160405180910390206000820151816000019080519060200190611095929190613d77565b5060208201518160010190805190602001906110b2929190613d77565b5060408201518160020160006101000a81548173ffffffffffffffffffffffffffffffffffffffff021916908373ffffffffffffffffffffffffffffffffffffffff16021790555060608201518160030160006101000a81548173ffffffffffffffffffffffffffffffffffffffff021916908373ffffffffffffffffffffffffffffffffffffffff160217905550608082015181600401908051906020019061115d929190613d77565b5060a08201518160050160006101000a81548160ff021916908315150217905550905050600b859080600181540180825580915050600190039060005260206000200160009091909190915090805190602001906111bc929190613d77565b507f0330abb18afb046aa53f3236d1093acb79782997597401dda81f7934c7d91f2a856040516111ec91906141bc565b60405180910390a15050505050565b61121683838360405180602001604052806000815250611c6b565b505050565b611223613d13565b61122b613d13565b600a8360405161123b9190615052565b90815260200160405180910390206040518060c001604052908160008201805461126490614be9565b80601f016020809104026020016040519081016040528092919081815260200182805461129090614be9565b80156112dd5780601f106112b2576101008083540402835291602001916112dd565b820191906000526020600020905b8154815290600101906020018083116112c057829003601f168201915b505050505081526020016001820180546112f690614be9565b80601f016020809104026020016040519081016040528092919081815260200182805461132290614be9565b801561136f5780601f106113445761010080835404028352916020019161136f565b820191906000526020600020905b81548152906001019060200180831161135257829003601f168201915b505050505081526020016002820160009054906101000a900473ffffffffffffffffffffffffffffffffffffffff1673ffffffffffffffffffffffffffffffffffffffff1673ffffffffffffffffffffffffffffffffffffffff1681526020016003820160009054906101000a900473ffffffffffffffffffffffffffffffffffffffff1673ffffffffffffffffffffffffffffffffffffffff1673ffffffffffffffffffffffffffffffffffffffff16815260200160048201805461143490614be9565b80601f016020809104026020016040519081016040528092919081815260200182805461146090614be9565b80156114ad5780601f10611482576101008083540402835291602001916114ad565b820191906000526020600020905b81548152906001019060200180831161149057829003601f168201915b505050505081526020016005820160009054906101000a900460ff161515151581525050905080915050919050565b6000806114e88361333c565b9050600073ffffffffffffffffffffffffffffffffffffffff168173ffffffffffffffffffffffffffffffffffffffff1603611559576040517f08c379a000000000000000000000000000000000000000000000000000000000815260040161155090615121565b60405180910390fd5b80915050919050565b60008073ffffffffffffffffffffffffffffffffffffffff168273ffffffffffffffffffffffffffffffffffffffff16036115d2576040517f08c379a00000000000000000000000000000000000000000000000000000000081526004016115c9906151b3565b60405180910390fd5b600360008373ffffffffffffffffffffffffffffffffffffffff1673ffffffffffffffffffffffffffffffffffffffff168152602001908152602001600020549050919050565b3073ffffffffffffffffffffffffffffffffffffffff16636352211e826040518263ffffffff1660e01b8152600401611652919061449f565b602060405180830381865afa15801561166f573d6000803e3d6000fd5b505050506040513d601f19601f8201168201806040525081019061169391906151e8565b73ffffffffffffffffffffffffffffffffffffffff163373ffffffffffffffffffffffffffffffffffffffff1614611700576040517f08c379a00000000000000000000000000000000000000000000000000000000081526004016116f790615261565b60405180910390fd5b600115156009828154811061171857611717614b8b565b5b906000526020600020906002020160000160009054906101000a900460ff16151514611779576040517f08c379a0000000000000000000000000000000000000000000000000000000008152600401611770906152cd565b60405180910390fd5b60006009828154811061178f5761178e614b8b565b5b906000526020600020906002020160000160006101000a81548160ff0219169083151502179055506000600982815481106117cd576117cc614b8b565b5b9060005260206000209060020201600101819055507f37b601bebae61c1dfbe5247b3812e25d3e4e8aac92c9c428eb320d5af035f5ab81604051611811919061449f565b60405180910390a150565b611824613379565b61182e60006133f7565b565b6000600760009054906101000a900473ffffffffffffffffffffffffffffffffffffffff16905090565b3373ffffffffffffffffffffffffffffffffffffffff1661187a826114dc565b73ffffffffffffffffffffffffffffffffffffffff16146118d0576040517f08c379a00000000000000000000000000000000000000000000000000000000081526004016118c790615339565b60405180910390fd5b3373ffffffffffffffffffffffffffffffffffffffff16600a836040516118f79190615052565b908152602001604051809103902060030160009054906101000a900473ffffffffffffffffffffffffffffffffffffffff1673ffffffffffffffffffffffffffffffffffffffff161461197f576040517f08c379a0000000000000000000000000000000000000000000000000000000008152600401611976906153a5565b60405180910390fd5b6000151561198d83836134bd565b1515146119cf576040517f08c379a00000000000000000000000000000000000000000000000000000000081526004016119c690615437565b60405180910390fd5b81600c836040516119e09190615052565b90815260200160405180910390206000019080519060200190611a04929190613d77565b50600c82604051611a159190615052565b90815260200160405180910390206001018190806001815401808255809150506001900390600052602060002001600090919091909150557fbb4d6b6abd8902cd59f14245efed628ddc53a2aa6a9be614a034ef8b5cd0cd428183604051611a7e929190615457565b60405180910390a15050565b606060018054611a9990614be9565b80601f0160208091040260200160405190810160405280929190818152602001828054611ac590614be9565b8015611b125780601f10611ae757610100808354040283529160200191611b12565b820191906000526020600020905b815481529060010190602001808311611af557829003601f168201915b5050505050905090565b611b2e611b27612c38565b838361355e565b5050565b60088060000154905081565b611b46613379565b60011515600d60008373ffffffffffffffffffffffffffffffffffffffff1673ffffffffffffffffffffffffffffffffffffffff16815260200190815260200160002060009054906101000a900460ff16151514611bd9576040517f08c379a0000000000000000000000000000000000000000000000000000000008152600401611bd0906154f9565b60405180910390fd5b6000600d60008373ffffffffffffffffffffffffffffffffffffffff1673ffffffffffffffffffffffffffffffffffffffff16815260200190815260200160002060006101000a81548160ff0219169083151502179055507f92c90891f30af5540345fc8c8ec18f723490f6c19874f507d125a186a9e8164881604051611c609190614278565b60405180910390a150565b611c7c611c76612c38565b83612fae565b611cbb576040517f08c379a0000000000000000000000000000000000000000000000000000000008152600401611cb290615001565b60405180910390fd5b611cc7848484846136ca565b50505050565b3073ffffffffffffffffffffffffffffffffffffffff16636352211e836040518263ffffffff1660e01b8152600401611d06919061449f565b602060405180830381865afa158015611d23573d6000803e3d6000fd5b505050506040513d601f19601f82011682018060405250810190611d4791906151e8565b73ffffffffffffffffffffffffffffffffffffffff163373ffffffffffffffffffffffffffffffffffffffff1614611db4576040517f08c379a0000000000000000000000000000000000000000000000000000000008152600401611dab90615261565b60405180910390fd5b6001151560098381548110611dcc57611dcb614b8b565b5b906000526020600020906002020160000160009054906101000a900460ff16151514611e2d576040517f08c379a0000000000000000000000000000000000000000000000000000000008152600401611e24906152cd565b60405180910390fd5b8060098381548110611e4257611e41614b8b565b5b9060005260206000209060020201600101819055507f6ef7f5c0328392c4b3ccca1774f1aecaaa818eb7b2087a2f41b359b7afbf36f48282604051611e88929190615519565b60405180910390a15050565b611e9c613cdd565b611ea4613cdd565b600c83604051611eb49190615052565b9081526020016040518091039020604051806040016040529081600082018054611edd90614be9565b80601f0160208091040260200160405190810160405280929190818152602001828054611f0990614be9565b8015611f565780601f10611f2b57610100808354040283529160200191611f56565b820191906000526020600020905b815481529060010190602001808311611f3957829003601f168201915b5050505050815260200160018201805480602002602001604051908101604052809291908181526020018280548015611fae57602002820191906000526020600020905b815481526020019060010190808311611f9a575b505050505081525050905080915050919050565b6060611fcd82612bed565b6000600660008481526020019081526020016000208054611fed90614be9565b80601f016020809104026020016040519081016040528092919081815260200182805461201990614be9565b80156120665780601f1061203b57610100808354040283529160200191612066565b820191906000526020600020905b81548152906001019060200180831161204957829003601f168201915b505050505090506000612077613726565b9050600081510361208c5781925050506120cf565b6000825111156120c15780826040516020016120a9929190615542565b604051602081830303815290604052925050506120cf565b6120ca8461373d565b925050505b919050565b600981815481106120e457600080fd5b90600052602060002090600202016000915090508060000160009054906101000a900460ff16908060010154905082565b61211d613379565b60001515600d60008373ffffffffffffffffffffffffffffffffffffffff1673ffffffffffffffffffffffffffffffffffffffff16815260200190815260200160002060009054906101000a900460ff161515146121b0576040517f08c379a00000000000000000000000000000000000000000000000000000000081526004016121a7906155d8565b60405180910390fd5b6001600d60008373ffffffffffffffffffffffffffffffffffffffff1673ffffffffffffffffffffffffffffffffffffffff16815260200190815260200160002060006101000a81548160ff0219169083151502179055507f621e8a3c5020fa65b50660c1e3322f1148d06a55036ec15bec3b55422c1afad4816040516122379190614278565b60405180910390a150565b60606000600b80549050905060008167ffffffffffffffff81111561226a57612269614309565b5b6040519080825280602002602001820160405280156122a357816020015b612290613d13565b8152602001906001900390816122885790505b50905060005b828110156125a557600a600b82815481106122c7576122c6614b8b565b5b906000526020600020016040516122de9190614cb9565b90815260200160405180910390206040518060c001604052908160008201805461230790614be9565b80601f016020809104026020016040519081016040528092919081815260200182805461233390614be9565b80156123805780601f1061235557610100808354040283529160200191612380565b820191906000526020600020905b81548152906001019060200180831161236357829003601f168201915b5050505050815260200160018201805461239990614be9565b80601f01602080910402602001604051908101604052809291908181526020018280546123c590614be9565b80156124125780601f106123e757610100808354040283529160200191612412565b820191906000526020600020905b8154815290600101906020018083116123f557829003601f168201915b505050505081526020016002820160009054906101000a900473ffffffffffffffffffffffffffffffffffffffff1673ffffffffffffffffffffffffffffffffffffffff1673ffffffffffffffffffffffffffffffffffffffff1681526020016003820160009054906101000a900473ffffffffffffffffffffffffffffffffffffffff1673ffffffffffffffffffffffffffffffffffffffff1673ffffffffffffffffffffffffffffffffffffffff1681526020016004820180546124d790614be9565b80601f016020809104026020016040519081016040528092919081815260200182805461250390614be9565b80156125505780601f1061252557610100808354040283529160200191612550565b820191906000526020600020905b81548152906001019060200180831161253357829003601f168201915b505050505081526020016005820160009054906101000a900460ff16151515158152505082828151811061258757612586614b8b565b5b6020026020010181905250808061259d90614cff565b9150506122a9565b50809250505090565b6000662386f26fc10000600983815481106125cc576125cb614b8b565b5b9060005260206000209060020201600101546125e891906155f8565b9050600115156009838154811061260257612601614b8b565b5b906000526020600020906002020160000160009054906101000a900460ff16151514612663576040517f08c379a000000000000000000000000000000000000000000000000000000000815260040161265a906152cd565b60405180910390fd5b8034146126a5576040517f08c379a000000000000000000000000000000000000000000000000000000000815260040161269c906156c4565b60405180910390fd5b60003073ffffffffffffffffffffffffffffffffffffffff16636352211e846040518263ffffffff1660e01b81526004016126e0919061449f565b602060405180830381865afa1580156126fd573d6000803e3d6000fd5b505050506040513d601f19601f8201168201806040525081019061272191906151e8565b90503073ffffffffffffffffffffffffffffffffffffffff166342842e0e8233866040518463ffffffff1660e01b815260040161276093929190615743565b600060405180830381600087803b15801561277a57600080fd5b505af115801561278e573d6000803e3d6000fd5b505050508073ffffffffffffffffffffffffffffffffffffffff166108fc839081150290604051600060405180830381858888f193505050501580156127d8573d6000803e3d6000fd5b506000600984815481106127ef576127ee614b8b565b5b906000526020600020906002020160000160006101000a81548160ff02191690831515021790555060006009848154811061282d5761282c614b8b565b5b906000526020600020906002020160010181905550505050565b3073ffffffffffffffffffffffffffffffffffffffff16636352211e836040518263ffffffff1660e01b8152600401612880919061449f565b602060405180830381865afa15801561289d573d6000803e3d6000fd5b505050506040513d601f19601f820116820180604052508101906128c191906151e8565b73ffffffffffffffffffffffffffffffffffffffff163373ffffffffffffffffffffffffffffffffffffffff161461292e576040517f08c379a000000000000000000000000000000000000000000000000000000000815260040161292590615261565b60405180910390fd5b600015156009838154811061294657612945614b8b565b5b906000526020600020906002020160000160009054906101000a900460ff161515146129a7576040517f08c379a000000000000000000000000000000000000000000000000000000000815260040161299e906157c6565b60405180910390fd5b6001600983815481106129bd576129bc614b8b565b5b906000526020600020906002020160000160006101000a81548160ff02191690831515021790555080600983815481106129fa576129f9614b8b565b5b9060005260206000209060020201600101819055507f6ef7f5c0328392c4b3ccca1774f1aecaaa818eb7b2087a2f41b359b7afbf36f48282604051612a40929190615519565b60405180910390a15050565b600d6020528060005260406000206000915054906101000a900460ff1681565b6000600560008473ffffffffffffffffffffffffffffffffffffffff1673ffffffffffffffffffffffffffffffffffffffff16815260200190815260200160002060008373ffffffffffffffffffffffffffffffffffffffff1673ffffffffffffffffffffffffffffffffffffffff16815260200190815260200160002060009054906101000a900460ff16905092915050565b612b08613379565b600073ffffffffffffffffffffffffffffffffffffffff168173ffffffffffffffffffffffffffffffffffffffff1603612b77576040517f08c379a0000000000000000000000000000000000000000000000000000000008152600401612b6e90615858565b60405180910390fd5b612b80816133f7565b50565b60007f01ffc9a7000000000000000000000000000000000000000000000000000000007bffffffffffffffffffffffffffffffffffffffffffffffffffffffff1916827bffffffffffffffffffffffffffffffffffffffffffffffffffffffff1916149050919050565b612bf6816137a5565b612c35576040517f08c379a0000000000000000000000000000000000000000000000000000000008152600401612c2c90615121565b60405180910390fd5b50565b600033905090565b816004600083815260200190815260200160002060006101000a81548173ffffffffffffffffffffffffffffffffffffffff021916908373ffffffffffffffffffffffffffffffffffffffff160217905550808273ffffffffffffffffffffffffffffffffffffffff16612cb3836114dc565b73ffffffffffffffffffffffffffffffffffffffff167f8c5be1e5ebec7d5bd14f71427d1e84f3dd0314c0f7b2291e5b200ac8c7c3b92560405160405180910390a45050565b6001816000016000828254019250508190555050565b600081600001549050919050565b600073ffffffffffffffffffffffffffffffffffffffff168273ffffffffffffffffffffffffffffffffffffffff1603612d8c576040517f08c379a0000000000000000000000000000000000000000000000000000000008152600401612d83906158c4565b60405180910390fd5b612d95816137a5565b15612dd5576040517f08c379a0000000000000000000000000000000000000000000000000000000008152600401612dcc90615930565b60405180910390fd5b612de36000838360016137e6565b612dec816137a5565b15612e2c576040517f08c379a0000000000000000000000000000000000000000000000000000000008152600401612e2390615930565b60405180910390fd5b6001600360008473ffffffffffffffffffffffffffffffffffffffff1673ffffffffffffffffffffffffffffffffffffffff16815260200190815260200160002060008282540192505081905550816002600083815260200190815260200160002060006101000a81548173ffffffffffffffffffffffffffffffffffffffff021916908373ffffffffffffffffffffffffffffffffffffffff160217905550808273ffffffffffffffffffffffffffffffffffffffff16600073ffffffffffffffffffffffffffffffffffffffff167fddf252ad1be2c89b69c2b068fc378daa952ba7f163c4a11628f55a4df523b3ef60405160405180910390a4612f3660008383600161390c565b5050565b612f43826137a5565b612f82576040517f08c379a0000000000000000000000000000000000000000000000000000000008152600401612f79906159c2565b60405180910390fd5b80600660008481526020019081526020016000209080519060200190612fa9929190613d77565b505050565b600080612fba836114dc565b90508073ffffffffffffffffffffffffffffffffffffffff168473ffffffffffffffffffffffffffffffffffffffff161480612ffc5750612ffb8185612a6c565b5b8061303a57508373ffffffffffffffffffffffffffffffffffffffff1661302284610b1f565b73ffffffffffffffffffffffffffffffffffffffff16145b91505092915050565b8273ffffffffffffffffffffffffffffffffffffffff16613063826114dc565b73ffffffffffffffffffffffffffffffffffffffff16146130b9576040517f08c379a00000000000000000000000000000000000000000000000000000000081526004016130b090615a54565b60405180910390fd5b600073ffffffffffffffffffffffffffffffffffffffff168273ffffffffffffffffffffffffffffffffffffffff1603613128576040517f08c379a000000000000000000000000000000000000000000000000000000000815260040161311f90615ae6565b60405180910390fd5b61313583838360016137e6565b8273ffffffffffffffffffffffffffffffffffffffff16613155826114dc565b73ffffffffffffffffffffffffffffffffffffffff16146131ab576040517f08c379a00000000000000000000000000000000000000000000000000000000081526004016131a290615a54565b60405180910390fd5b6004600082815260200190815260200160002060006101000a81549073ffffffffffffffffffffffffffffffffffffffff02191690556001600360008573ffffffffffffffffffffffffffffffffffffffff1673ffffffffffffffffffffffffffffffffffffffff168152602001908152602001600020600082825403925050819055506001600360008473ffffffffffffffffffffffffffffffffffffffff1673ffffffffffffffffffffffffffffffffffffffff16815260200190815260200160002060008282540192505081905550816002600083815260200190815260200160002060006101000a81548173ffffffffffffffffffffffffffffffffffffffff021916908373ffffffffffffffffffffffffffffffffffffffff160217905550808273ffffffffffffffffffffffffffffffffffffffff168473ffffffffffffffffffffffffffffffffffffffff167fddf252ad1be2c89b69c2b068fc378daa952ba7f163c4a11628f55a4df523b3ef60405160405180910390a4613337838383600161390c565b505050565b60006002600083815260200190815260200160002060009054906101000a900473ffffffffffffffffffffffffffffffffffffffff169050919050565b613381612c38565b73ffffffffffffffffffffffffffffffffffffffff1661339f611830565b73ffffffffffffffffffffffffffffffffffffffff16146133f5576040517f08c379a00000000000000000000000000000000000000000000000000000000081526004016133ec90615b52565b60405180910390fd5b565b6000600760009054906101000a900473ffffffffffffffffffffffffffffffffffffffff16905081600760006101000a81548173ffffffffffffffffffffffffffffffffffffffff021916908373ffffffffffffffffffffffffffffffffffffffff1602179055508173ffffffffffffffffffffffffffffffffffffffff168173ffffffffffffffffffffffffffffffffffffffff167f8be0079c531659141344cd1fd0a4f28419497f9722a3daafe3b4186f6b6457e060405160405180910390a35050565b600080600090505b600c846040516134d59190615052565b9081526020016040518091039020600101805490508110156135525782600c856040516135029190615052565b9081526020016040518091039020600101828154811061352557613524614b8b565b5b90600052602060002001540361353f576001915050613558565b808061354a90614cff565b9150506134c5565b50600090505b92915050565b8173ffffffffffffffffffffffffffffffffffffffff168373ffffffffffffffffffffffffffffffffffffffff16036135cc576040517f08c379a00000000000000000000000000000000000000000000000000000000081526004016135c390615bbe565b60405180910390fd5b80600560008573ffffffffffffffffffffffffffffffffffffffff1673ffffffffffffffffffffffffffffffffffffffff16815260200190815260200160002060008473ffffffffffffffffffffffffffffffffffffffff1673ffffffffffffffffffffffffffffffffffffffff16815260200190815260200160002060006101000a81548160ff0219169083151502179055508173ffffffffffffffffffffffffffffffffffffffff168373ffffffffffffffffffffffffffffffffffffffff167f17307eab39ab6107e8899845ad3d59bd9653f200f220920489ca2b5937696c31836040516136bd9190613ece565b60405180910390a3505050565b6136d5848484613043565b6136e184848484613912565b613720576040517f08c379a000000000000000000000000000000000000000000000000000000000815260040161371790615c50565b60405180910390fd5b50505050565b606060405180602001604052806000815250905090565b606061374882612bed565b6000613752613726565b90506000815111613772576040518060200160405280600081525061379d565b8061377c84613a99565b60405160200161378d929190615542565b6040516020818303038152906040525b915050919050565b60008073ffffffffffffffffffffffffffffffffffffffff166137c78361333c565b73ffffffffffffffffffffffffffffffffffffffff1614159050919050565b600181111561390657600073ffffffffffffffffffffffffffffffffffffffff168473ffffffffffffffffffffffffffffffffffffffff161461387a5780600360008673ffffffffffffffffffffffffffffffffffffffff1673ffffffffffffffffffffffffffffffffffffffff16815260200190815260200160002060008282546138729190615c70565b925050819055505b600073ffffffffffffffffffffffffffffffffffffffff168373ffffffffffffffffffffffffffffffffffffffff16146139055780600360008573ffffffffffffffffffffffffffffffffffffffff1673ffffffffffffffffffffffffffffffffffffffff16815260200190815260200160002060008282546138fd9190615ca4565b925050819055505b5b50505050565b50505050565b60006139338473ffffffffffffffffffffffffffffffffffffffff16613b67565b15613a8c578373ffffffffffffffffffffffffffffffffffffffff1663150b7a0261395c612c38565b8786866040518563ffffffff1660e01b815260040161397e9493929190615d4f565b6020604051808303816000875af19250505080156139ba57506040513d601f19601f820116820180604052508101906139b79190615db0565b60015b613a3c573d80600081146139ea576040519150601f19603f3d011682016040523d82523d6000602084013e6139ef565b606091505b506000815103613a34576040517f08c379a0000000000000000000000000000000000000000000000000000000008152600401613a2b90615c50565b60405180910390fd5b805181602001fd5b63150b7a0260e01b7bffffffffffffffffffffffffffffffffffffffffffffffffffffffff1916817bffffffffffffffffffffffffffffffffffffffffffffffffffffffff191614915050613a91565b600190505b949350505050565b606060006001613aa884613b8a565b01905060008167ffffffffffffffff811115613ac757613ac6614309565b5b6040519080825280601f01601f191660200182016040528015613af95781602001600182028036833780820191505090505b509050600082602001820190505b600115613b5c578080600190039150507f3031323334353637383961626364656600000000000000000000000000000000600a86061a8153600a8581613b5057613b4f615ddd565b5b04945060008503613b07575b819350505050919050565b6000808273ffffffffffffffffffffffffffffffffffffffff163b119050919050565b600080600090507a184f03e93ff9f4daa797ed6e38ed64bf6a1f0100000000000000008310613be8577a184f03e93ff9f4daa797ed6e38ed64bf6a1f0100000000000000008381613bde57613bdd615ddd565b5b0492506040810190505b6d04ee2d6d415b85acef81000000008310613c25576d04ee2d6d415b85acef81000000008381613c1b57613c1a615ddd565b5b0492506020810190505b662386f26fc100008310613c5457662386f26fc100008381613c4a57613c49615ddd565b5b0492506010810190505b6305f5e1008310613c7d576305f5e1008381613c7357613c72615ddd565b5b0492506008810190505b6127108310613ca2576127108381613c9857613c97615ddd565b5b0492506004810190505b60648310613cc55760648381613cbb57613cba615ddd565b5b0492506002810190505b600a8310613cd4576001810190505b80915050919050565b604051806040016040528060608152602001606081525090565b6040518060400160405280600015158152602001600081525090565b6040518060c001604052806060815260200160608152602001600073ffffffffffffffffffffffffffffffffffffffff168152602001600073ffffffffffffffffffffffffffffffffffffffff168152602001606081526020016000151581525090565b828054613d8390614be9565b90600052602060002090601f016020900481019282613da55760008555613dec565b82601f10613dbe57805160ff1916838001178555613dec565b82800160010185558215613dec579182015b82811115613deb578251825591602001919060010190613dd0565b5b509050613df99190613dfd565b5090565b5b80821115613e16576000816000905550600101613dfe565b5090565b6000604051905090565b600080fd5b600080fd5b60007fffffffff0000000000000000000000000000000000000000000000000000000082169050919050565b613e6381613e2e565b8114613e6e57600080fd5b50565b600081359050613e8081613e5a565b92915050565b600060208284031215613e9c57613e9b613e24565b5b6000613eaa84828501613e71565b91505092915050565b60008115159050919050565b613ec881613eb3565b82525050565b6000602082019050613ee36000830184613ebf565b92915050565b600081519050919050565b600082825260208201905092915050565b6000819050602082019050919050565b600081519050919050565b600082825260208201905092915050565b60005b83811015613f4f578082015181840152602081019050613f34565b83811115613f5e576000848401525b50505050565b6000601f19601f8301169050919050565b6000613f8082613f15565b613f8a8185613f20565b9350613f9a818560208601613f31565b613fa381613f64565b840191505092915050565b600081519050919050565b600082825260208201905092915050565b6000819050602082019050919050565b6000819050919050565b613fed81613fda565b82525050565b6000613fff8383613fe4565b60208301905092915050565b6000602082019050919050565b600061402382613fae565b61402d8185613fb9565b935061403883613fca565b8060005b838110156140695781516140508882613ff3565b975061405b8361400b565b92505060018101905061403c565b5085935050505092915050565b600060408301600083015184820360008601526140938282613f75565b915050602083015184820360208601526140ad8282614018565b9150508091505092915050565b60006140c68383614076565b905092915050565b6000602082019050919050565b60006140e682613ee9565b6140f08185613ef4565b93508360208202850161410285613f05565b8060005b8581101561413e578484038952815161411f85826140ba565b945061412a836140ce565b925060208a01995050600181019050614106565b50829750879550505050505092915050565b6000602082019050818103600083015261416a81846140db565b905092915050565b600082825260208201905092915050565b600061418e82613f15565b6141988185614172565b93506141a8818560208601613f31565b6141b181613f64565b840191505092915050565b600060208201905081810360008301526141d68184614183565b905092915050565b6141e781613fda565b81146141f257600080fd5b50565b600081359050614204816141de565b92915050565b6000602082840312156142205761421f613e24565b5b600061422e848285016141f5565b91505092915050565b600073ffffffffffffffffffffffffffffffffffffffff82169050919050565b600061426282614237565b9050919050565b61427281614257565b82525050565b600060208201905061428d6000830184614269565b92915050565b61429c81614257565b81146142a757600080fd5b50565b6000813590506142b981614293565b92915050565b600080604083850312156142d6576142d5613e24565b5b60006142e4858286016142aa565b92505060206142f5858286016141f5565b9150509250929050565b600080fd5b600080fd5b7f4e487b7100000000000000000000000000000000000000000000000000000000600052604160045260246000fd5b61434182613f64565b810181811067ffffffffffffffff821117156143605761435f614309565b5b80604052505050565b6000614373613e1a565b905061437f8282614338565b919050565b600067ffffffffffffffff82111561439f5761439e614309565b5b6143a882613f64565b9050602081019050919050565b82818337600083830152505050565b60006143d76143d284614384565b614369565b9050828152602081018484840111156143f3576143f2614304565b5b6143fe8482856143b5565b509392505050565b600082601f83011261441b5761441a6142ff565b5b813561442b8482602086016143c4565b91505092915050565b6000806040838503121561444b5761444a613e24565b5b6000614459858286016142aa565b925050602083013567ffffffffffffffff81111561447a57614479613e29565b5b61448685828601614406565b9150509250929050565b61449981613fda565b82525050565b60006020820190506144b46000830184614490565b92915050565b6000806000606084860312156144d3576144d2613e24565b5b60006144e1868287016142aa565b93505060206144f2868287016142aa565b9250506040614503868287016141f5565b9150509250925092565b6000806000806080858703121561452757614526613e24565b5b600085013567ffffffffffffffff81111561454557614544613e29565b5b61455187828801614406565b945050602085013567ffffffffffffffff81111561457257614571613e29565b5b61457e87828801614406565b935050604061458f878288016142aa565b925050606085013567ffffffffffffffff8111156145b0576145af613e29565b5b6145bc87828801614406565b91505092959194509250565b6000602082840312156145de576145dd613e24565b5b600082013567ffffffffffffffff8111156145fc576145fb613e29565b5b61460884828501614406565b91505092915050565b61461a81614257565b82525050565b61462981613eb3565b82525050565b600060c083016000830151848203600086015261464c8282613f75565b915050602083015184820360208601526146668282613f75565b915050604083015161467b6040860182614611565b50606083015161468e6060860182614611565b50608083015184820360808601526146a68282613f75565b91505060a08301516146bb60a0860182614620565b508091505092915050565b600060208201905081810360008301526146e0818461462f565b905092915050565b6000602082840312156146fe576146fd613e24565b5b600061470c848285016142aa565b91505092915050565b6000806040838503121561472c5761472b613e24565b5b600083013567ffffffffffffffff81111561474a57614749613e29565b5b61475685828601614406565b9250506020614767858286016141f5565b9150509250929050565b61477a81613eb3565b811461478557600080fd5b50565b60008135905061479781614771565b92915050565b600080604083850312156147b4576147b3613e24565b5b60006147c2858286016142aa565b92505060206147d385828601614788565b9150509250929050565b600067ffffffffffffffff8211156147f8576147f7614309565b5b61480182613f64565b9050602081019050919050565b600061482161481c846147dd565b614369565b90508281526020810184848401111561483d5761483c614304565b5b6148488482856143b5565b509392505050565b600082601f830112614865576148646142ff565b5b813561487584826020860161480e565b91505092915050565b6000806000806080858703121561489857614897613e24565b5b60006148a6878288016142aa565b94505060206148b7878288016142aa565b93505060406148c8878288016141f5565b925050606085013567ffffffffffffffff8111156148e9576148e8613e29565b5b6148f587828801614850565b91505092959194509250565b6000806040838503121561491857614917613e24565b5b6000614926858286016141f5565b9250506020614937858286016141f5565b9150509250929050565b6000604083016000830151848203600086015261495e8282613f75565b915050602083015184820360208601526149788282614018565b9150508091505092915050565b6000602082019050818103600083015261499f8184614941565b905092915050565b60006040820190506149bc6000830185613ebf565b6149c96020830184614490565b9392505050565b600081519050919050565b600082825260208201905092915050565b6000819050602082019050919050565b600060c0830160008301518482036000860152614a198282613f75565b91505060208301518482036020860152614a338282613f75565b9150506040830151614a486040860182614611565b506060830151614a5b6060860182614611565b5060808301518482036080860152614a738282613f75565b91505060a0830151614a8860a0860182614620565b508091505092915050565b6000614a9f83836149fc565b905092915050565b6000602082019050919050565b6000614abf826149d0565b614ac981856149db565b935083602082028501614adb856149ec565b8060005b85811015614b175784840389528151614af88582614a93565b9450614b0383614aa7565b925060208a01995050600181019050614adf565b50829750879550505050505092915050565b60006020820190508181036000830152614b438184614ab4565b905092915050565b60008060408385031215614b6257614b61613e24565b5b6000614b70858286016142aa565b9250506020614b81858286016142aa565b9150509250929050565b7f4e487b7100000000000000000000000000000000000000000000000000000000600052603260045260246000fd5b7f4e487b7100000000000000000000000000000000000000000000000000000000600052602260045260246000fd5b60006002820490506001821680614c0157607f821691505b602082108103614c1457614c13614bba565b5b50919050565b600081905092915050565b60008190508160005260206000209050919050565b60008154614c4781614be9565b614c518186614c1a565b94506001821660008114614c6c5760018114614c7d57614cb0565b60ff19831686528186019350614cb0565b614c8685614c25565b60005b83811015614ca857815481890152600182019150602081019050614c89565b838801955050505b50505092915050565b6000614cc58284614c3a565b915081905092915050565b7f4e487b7100000000000000000000000000000000000000000000000000000000600052601160045260246000fd5b6000614d0a82613fda565b91507fffffffffffffffffffffffffffffffffffffffffffffffffffffffffffffffff8203614d3c57614d3b614cd0565b5b600182019050919050565b7f4552433732313a20617070726f76616c20746f2063757272656e74206f776e6560008201527f7200000000000000000000000000000000000000000000000000000000000000602082015250565b6000614da3602183614172565b9150614dae82614d47565b604082019050919050565b60006020820190508181036000830152614dd281614d96565b9050919050565b7f4552433732313a20617070726f76652063616c6c6572206973206e6f7420746f60008201527f6b656e206f776e6572206f7220617070726f76656420666f7220616c6c000000602082015250565b6000614e35603d83614172565b9150614e4082614dd9565b604082019050919050565b60006020820190508181036000830152614e6481614e28565b9050919050565b7f596f7520617265206e6f7420616e2065717569706d656e74206d616e7566616360008201527f74757265722e0000000000000000000000000000000000000000000000000000602082015250565b6000614ec7602683614172565b9150614ed282614e6b565b604082019050919050565b60006020820190508181036000830152614ef681614eba565b9050919050565b7f4552433732312063616e6e6f74206265206d696e74656420746f20746865207a60008201527f65726f2061646472657373000000000000000000000000000000000000000000602082015250565b6000614f59602b83614172565b9150614f6482614efd565b604082019050919050565b60006020820190508181036000830152614f8881614f4c565b9050919050565b7f4552433732313a2063616c6c6572206973206e6f7420746f6b656e206f776e6560008201527f72206f7220617070726f76656400000000000000000000000000000000000000602082015250565b6000614feb602d83614172565b9150614ff682614f8f565b604082019050919050565b6000602082019050818103600083015261501a81614fde565b9050919050565b600061502c82613f15565b6150368185614c1a565b9350615046818560208601613f31565b80840191505092915050565b600061505e8284615021565b915081905092915050565b7f546869732065717569706d656e7420616c7265616479206578697374732e0000600082015250565b600061509f601e83614172565b91506150aa82615069565b602082019050919050565b600060208201905081810360008301526150ce81615092565b9050919050565b7f4552433732313a20696e76616c696420746f6b656e2049440000000000000000600082015250565b600061510b601883614172565b9150615116826150d5565b602082019050919050565b6000602082019050818103600083015261513a816150fe565b9050919050565b7f4552433732313a2061646472657373207a65726f206973206e6f74206120766160008201527f6c6964206f776e65720000000000000000000000000000000000000000000000602082015250565b600061519d602983614172565b91506151a882615141565b604082019050919050565b600060208201905081810360008301526151cc81615190565b9050919050565b6000815190506151e281614293565b92915050565b6000602082840312156151fe576151fd613e24565b5b600061520c848285016151d3565b91505092915050565b7f596f7520646f6e277420706f7373657373207468697320706172742e00000000600082015250565b600061524b601c83614172565b915061525682615215565b602082019050919050565b6000602082019050818103600083015261527a8161523e565b9050919050565b7f546869732070617274206973206e6f74206c69737465642e0000000000000000600082015250565b60006152b7601883614172565b91506152c282615281565b602082019050919050565b600060208201905081810360008301526152e6816152aa565b9050919050565b7f596f7520646f206e6f7420706f73736573732074686973207061727400000000600082015250565b6000615323601c83614172565b915061532e826152ed565b602082019050919050565b6000602082019050818103600083015261535281615316565b9050919050565b7f596f7520646f206e6f74206861766520746869732065717569706d656e740000600082015250565b600061538f601e83614172565b915061539a82615359565b602082019050919050565b600060208201905081810360008301526153be81615382565b9050919050565b7f5061727420616c726561647920696e7374616c6c656420696e20617373656d6260008201527f6c79000000000000000000000000000000000000000000000000000000000000602082015250565b6000615421602283614172565b915061542c826153c5565b604082019050919050565b6000602082019050818103600083015261545081615414565b9050919050565b600060408201905061546c6000830185614490565b818103602083015261547e8184614183565b90509392505050565b7f546869732061646472657373206973206e6f742072656769737465726564206160008201527f7320616e2045717569706d656e74204d616e7566616374757265722e00000000602082015250565b60006154e3603c83614172565b91506154ee82615487565b604082019050919050565b60006020820190508181036000830152615512816154d6565b9050919050565b600060408201905061552e6000830185614490565b61553b6020830184614490565b9392505050565b600061554e8285615021565b915061555a8284615021565b91508190509392505050565b7f54686973206164647265737320697320616c726561647920726567697374657260008201527f656420617320616e2045717569706d656e74204d616e7566616374757265722e602082015250565b60006155c2604083614172565b91506155cd82615566565b604082019050919050565b600060208201905081810360008301526155f1816155b5565b9050919050565b600061560382613fda565b915061560e83613fda565b9250817fffffffffffffffffffffffffffffffffffffffffffffffffffffffffffffffff048311821515161561564757615646614cd0565b5b828202905092915050565b7f4d6573736167652076616c7565206973206e6f7420657175616c20746f206c6960008201527f7374656420707269636500000000000000000000000000000000000000000000602082015250565b60006156ae602a83614172565b91506156b982615652565b604082019050919050565b600060208201905081810360008301526156dd816156a1565b9050919050565b6000819050919050565b60006157096157046156ff84614237565b6156e4565b614237565b9050919050565b600061571b826156ee565b9050919050565b600061572d82615710565b9050919050565b61573d81615722565b82525050565b60006060820190506157586000830186615734565b6157656020830185614269565b6157726040830184614490565b949350505050565b7f54686973207061727420697320616c7265616479206c69737465642e00000000600082015250565b60006157b0601c83614172565b91506157bb8261577a565b602082019050919050565b600060208201905081810360008301526157df816157a3565b9050919050565b7f4f776e61626c653a206e6577206f776e657220697320746865207a65726f206160008201527f6464726573730000000000000000000000000000000000000000000000000000602082015250565b6000615842602683614172565b915061584d826157e6565b604082019050919050565b6000602082019050818103600083015261587181615835565b9050919050565b7f4552433732313a206d696e7420746f20746865207a65726f2061646472657373600082015250565b60006158ae602083614172565b91506158b982615878565b602082019050919050565b600060208201905081810360008301526158dd816158a1565b9050919050565b7f4552433732313a20746f6b656e20616c7265616479206d696e74656400000000600082015250565b600061591a601c83614172565b9150615925826158e4565b602082019050919050565b600060208201905081810360008301526159498161590d565b9050919050565b7f45524337323155524953746f726167653a2055524920736574206f66206e6f6e60008201527f6578697374656e7420746f6b656e000000000000000000000000000000000000602082015250565b60006159ac602e83614172565b91506159b782615950565b604082019050919050565b600060208201905081810360008301526159db8161599f565b9050919050565b7f4552433732313a207472616e736665722066726f6d20696e636f72726563742060008201527f6f776e6572000000000000000000000000000000000000000000000000000000602082015250565b6000615a3e602583614172565b9150615a49826159e2565b604082019050919050565b60006020820190508181036000830152615a6d81615a31565b9050919050565b7f4552433732313a207472616e7366657220746f20746865207a65726f2061646460008201527f7265737300000000000000000000000000000000000000000000000000000000602082015250565b6000615ad0602483614172565b9150615adb82615a74565b604082019050919050565b60006020820190508181036000830152615aff81615ac3565b9050919050565b7f4f776e61626c653a2063616c6c6572206973206e6f7420746865206f776e6572600082015250565b6000615b3c602083614172565b9150615b4782615b06565b602082019050919050565b60006020820190508181036000830152615b6b81615b2f565b9050919050565b7f4552433732313a20617070726f766520746f2063616c6c657200000000000000600082015250565b6000615ba8601983614172565b9150615bb382615b72565b602082019050919050565b60006020820190508181036000830152615bd781615b9b565b9050919050565b7f4552433732313a207472616e7366657220746f206e6f6e20455243373231526560008201527f63656976657220696d706c656d656e7465720000000000000000000000000000602082015250565b6000615c3a603283614172565b9150615c4582615bde565b604082019050919050565b60006020820190508181036000830152615c6981615c2d565b9050919050565b6000615c7b82613fda565b9150615c8683613fda565b925082821015615c9957615c98614cd0565b5b828203905092915050565b6000615caf82613fda565b9150615cba83613fda565b9250827fffffffffffffffffffffffffffffffffffffffffffffffffffffffffffffffff03821115615cef57615cee614cd0565b5b828201905092915050565b600081519050919050565b600082825260208201905092915050565b6000615d2182615cfa565b615d2b8185615d05565b9350615d3b818560208601613f31565b615d4481613f64565b840191505092915050565b6000608082019050615d646000830187614269565b615d716020830186614269565b615d7e6040830185614490565b8181036060830152615d908184615d16565b905095945050505050565b600081519050615daa81613e5a565b92915050565b600060208284031215615dc657615dc5613e24565b5b6000615dd484828501615d9b565b91505092915050565b7f4e487b7100000000000000000000000000000000000000000000000000000000600052601260045260246000fdfea2646970667358221220a726379857ca9d1201eb0552913dabe175b8e18f6f9ebf0cef655607d3cc9ca564736f6c634300080d0033",
  "immutableReferences": {},
  "source": "// SPDX-License-Identifier: MIT\npragma solidity 0.8.13;\n\nimport \"../node_modules/@openzeppelin/contracts/access/Ownable.sol\";\nimport \"../node_modules/@openzeppelin/contracts/token/ERC721/extensions/ERC721URIStorage.sol\";\nimport \"../node_modules/@openzeppelin/contracts/utils/Counters.sol\";\n\ncontract CycleChain is ERC721URIStorage, Ownable  {\n    using Counters for Counters.Counter;\n    Counters.Counter public _tokenIds;\n\n    // Part object\n    struct Part {\n        bool isListed;\n        uint listedPrice;\n    }\n\n    // Part array with index that will be equal to the NFT' ID\n    Part[] public parts;\n\n    // Equipment object\n    struct Equipment {\n        string serialNumber;\n        string category;\n        address manufacturer;\n        address owner;\n        string model;\n        // string photoURL; To add in V2\n        bool isValue;\n    }\n\n    // Equipment serialNumber => Equipment\n    mapping (string => Equipment) equipments;\n\n    // A table of all equipments serial numbers to make the mapping enumerable\n    string[] equipmentsSerialNumbers;\n\n\n    // An equipment can contain parts, forming an \"assembly\"\n    struct Assembly {\n        string equipmentSerialNumber;\n        uint[] partsIds;\n    }\n\n    // Equipment serialNumber => Assembly\n    mapping (string => Assembly) assemblies;\n\n    // Equipment manufacturers mapping\n    mapping (address => bool) public equipmentManufacturers;\n\n    // List of events\n    event PartCreated(uint NftId);\n    event EquipmentManufacturerRegistered(address _address);\n    event EquipmentManufacturerRemoved(address _address);\n    event PartInstalledOnEquipment(uint partId, string equipmentSerialNumber);\n    event PartRemovedFromEquipment(uint partId, uint equipmentId);\n    event EquipmentCreated(string equipmentId);\n    event partListed(uint partId, uint price);\n    event partDelisted(uint partId);\n\n    constructor() ERC721(\"Part\", \"CC\") {\n      // In order to have the index of parts equal to the NFT ID, we need to fill the index 0 of parts\n      Part memory part;\n      parts.push(part);\n    }\n\n    /// @notice Check if the msg.sender is an equipment manufacturer\n    modifier onlyEquipmentManufacturers() {\n        require(equipmentManufacturers[msg.sender] == true, \"You are not an equipment manufacturer.\");\n        _;\n    }\n    \n    // ::::::::::::: GETTERS ::::::::::::: //\n\n    function getOneEquipment(string memory _serialNumber) public view returns (Equipment memory) {\n        Equipment memory equipment;\n\n        equipment = equipments[_serialNumber];\n        return equipment;\n    }\n\n    function getOneAssembly(string memory _serialNumber) public view returns (Assembly memory) {\n        Assembly memory oneAssembly;\n\n        oneAssembly = assemblies[_serialNumber];\n        return oneAssembly;\n    }\n\n    function getAllEquipments() public view returns (Equipment[] memory) {\n        uint len = equipmentsSerialNumbers.length;\n        Equipment[] memory equipmentsArray = new Equipment[](len);\n\n        for (uint i=0; i<len; i++) {\n            equipmentsArray[i] = equipments[equipmentsSerialNumbers[i]];\n        }\n        return equipmentsArray;\n    }\n\n    function getAllAssemblies() public view returns (Assembly[] memory) {\n        uint len = equipmentsSerialNumbers.length;\n        Assembly[] memory assembliesArray = new Assembly[](len);\n\n        for (uint i=0; i<len; i++) {\n            assembliesArray[i] = assemblies[equipmentsSerialNumbers[i]];\n        }\n        return assembliesArray;\n    }\n\n\n    // ::::::::::::: FUNCTIONS ::::::::::::: //\n\n\n    /// @notice Register a new Equipment Manufacturer\n    /// @param _producer Address of the Equipment Manufacturer that will be allowed to create a Part (NFT)\n    function registerEquipmentManufacturer(address _producer) external onlyOwner {\n      require(equipmentManufacturers[_producer] == false, \"This address is already registered as an Equipment Manufacturer.\");\n\n      equipmentManufacturers[_producer] = true;\n      emit EquipmentManufacturerRegistered(_producer);\n    }\n\n    /// @notice Remove an Equipment Manufacturer\n    /// @param _producer Address of the Equipment Manufacturer that will be allowed to create a Part (NFT)\n    function removeEquipmentManufacturer(address _producer) external onlyOwner {\n      require(equipmentManufacturers[_producer] == true, \"This address is not registered as an Equipment Manufacturer.\");\n\n      equipmentManufacturers[_producer] = false;\n      emit EquipmentManufacturerRemoved(_producer);\n    }\n\n    /// @notice Adds an equipment to the equipments mapping and update the equipmentsSerialNumbers array\n    /// @param _serialNumber Serial Number\n    /// @param _category Category\n    /// @param _owner The owner of the equipment (company name)\n    /// @param _model Equipment model\n    function createEquipment(string memory _serialNumber, string memory _category, address _owner, string memory _model) public onlyEquipmentManufacturers {\n      require(equipments[_serialNumber].isValue == false, \"This equipment already exists.\");\n      Equipment memory eq;\n      eq.serialNumber = _serialNumber;\n      eq.category = _category;\n      eq.manufacturer = msg.sender;\n      eq.owner = _owner;\n      eq.model = _model;\n      eq.isValue = true;\n\n      equipments[_serialNumber] = eq;\n      equipmentsSerialNumbers.push(_serialNumber);\n\n      emit EquipmentCreated(_serialNumber);\n    }\n\n    function checkIfPartExistsInAssembly(string memory _equipmentSerialNumber, uint _partId) internal view returns(bool) {\n      for (uint i = 0; i <assemblies[_equipmentSerialNumber].partsIds.length; i++) {\n        if (assemblies[_equipmentSerialNumber].partsIds[i] == _partId) return true;\n      }\n      return false;\n    }\n\n    /// @notice Adds a part to an assembly (or creates he assembly if it doesn't exist)\n    /// @param _equipmentSerialNumber The serial number of the equipment\n    /// @param _partId The id of the part to be installed\n    function addPartToAssembly(string memory _equipmentSerialNumber, uint _partId) external {\n      require(ownerOf(_partId) == msg.sender, \"You do not possess this part\");\n      require(equipments[_equipmentSerialNumber].owner == msg.sender, \"You do not have this equipment\");\n      require(checkIfPartExistsInAssembly(_equipmentSerialNumber, _partId) == false, \"Part already installed in assembly\");\n\n      assemblies[_equipmentSerialNumber].equipmentSerialNumber = _equipmentSerialNumber;\n      assemblies[_equipmentSerialNumber].partsIds.push(_partId);\n      emit PartInstalledOnEquipment(_partId, _equipmentSerialNumber);\n    }\n\n    /// @notice As an equipment manufacturer, create a part NFT and transfer it to a part manufacturer\n    /// @param _forManufacturer Address of the part producer that will get the Part (NFT)\n    /// @return uint NFT's ID\n    function createPart(address _forManufacturer, string  memory _partURI) public onlyEquipmentManufacturers returns (uint256) {\n        require(_forManufacturer != address(0), \"ERC721 cannot be minted to the zero address\");\n\n        _tokenIds.increment();\n        uint256 newItemId = _tokenIds.current();\n        _mint(_forManufacturer, newItemId);\n        _setTokenURI(newItemId, _partURI);\n\n        Part memory part;\n        parts.push(part);\n\n        emit PartCreated(newItemId);\n\n        return newItemId;\n    }\n\n    /// @notice List a part\n    /// @param _nftId Part's NFT ID\n    /// @param _price Part's price\n    function listPart(uint _nftId, uint _price) external {\n      require(msg.sender == this.ownerOf(_nftId), \"You don't possess this part.\");\n      require(parts[_nftId].isListed == false, \"This part is already listed.\");\n\n      parts[_nftId].isListed = true;\n      parts[_nftId].listedPrice = _price;\n      emit partListed(_nftId, _price);\n    }\n\n    /// @notice Delist a part\n    /// @param _nftId Part's NFT ID\n    function delistPart(uint _nftId) external {\n      require(msg.sender == this.ownerOf(_nftId), \"You don't possess this part.\");\n      require(parts[_nftId].isListed == true, \"This part is not listed.\");\n\n      parts[_nftId].isListed = false;\n      parts[_nftId].listedPrice = 0;\n      emit partDelisted(_nftId);\n    }\n\n    /// @notice Update the listing price\n    /// @param _nftId Part's NFT ID\n    /// @param _price Part's price\n    function updateListingPrice(uint _nftId, uint _price) external {\n      require(msg.sender == this.ownerOf(_nftId), \"You don't possess this part.\");\n      require(parts[_nftId].isListed == true, \"This part is not listed.\");\n\n      parts[_nftId].listedPrice = _price;\n      emit partListed(_nftId, _price);\n    }\n\n\n    /// @notice Buy a part at market price\n    /// @param _nftId Part's NFT ID\n    function marketBuyPart(uint256 _nftId) public payable {\n      uint listedPrice = parts[_nftId].listedPrice * 10**16;\n      require(parts[_nftId].isListed == true, \"This part is not listed.\");\n      require(msg.value == listedPrice, \"Message value is not equal to listed price\");\n\n      address payable owner = payable(this.ownerOf(_nftId));\n      this.safeTransferFrom(owner, msg.sender, _nftId);\n      payable(owner).transfer(listedPrice);\n      parts[_nftId].isListed = false;\n      parts[_nftId].listedPrice = 0;\n    }\n\n    /*\n    // This function removes a part from an assembly\n    function removePartFromAssembly(string memory _equipmentSerialNumber, string memory _partSerialNumber) public {\n      // TODO: Check if msg.sender is the owner of the part\n      // TODO: Check if equipment exists\n      // TODO: Check if part exists\n      uint len = assemblies[_equipmentSerialNumber].partsSerialNumbers.length;\n      string[] memory existingPartsArray = new string[](len);\n      existingPartsArray = assemblies[_equipmentSerialNumber].partsSerialNumbers;\n\n      bool found = false;\n      for(uint i=0; i<len; i++){\n        // Compare part with part to be deleted\n        if(keccak256(abi.encodePacked(partsArray[i])) == keccak256(abi.encodePacked(_partSerialNumber))) {\n          found = true;\n          // Replace the part to be deleted with the last part of the array\n          partsArray[i] = partsArray[len-1];\n        }\n      }\n\n      if (found) {\n        partsArray.pop();\n      }\n\n      partsArray[len] = _partSerialNumber;\n      setAssembly(_equipmentSerialNumber, partsArray);\n\n      //emit PartRemovedFromEquipment(_partSerialNumber, _equipmentSerialNumber);\n    }\n    */\n}",
  "sourcePath": "/Users/thomasdouche/Documents/ProjetsPerso/Dev/Alyra/cycle-chain/Cycle-Chain/truffle/contracts/CycleChain.sol",
  "compiler": {
    "name": "solc",
    "version": "0.8.13+commit.abaa5c0e.Emscripten.clang"
  },
  "schemaVersion": "3.4.10",
  "updatedAt": "2022-12-12T08:18:58.650Z",
  "networkType": "ethereum",
  "devdoc": {
    "kind": "dev",
    "methods": {
      "addPartToAssembly(string,uint256)": {
        "params": {
          "_equipmentSerialNumber": "The serial number of the equipment",
          "_partId": "The id of the part to be installed"
        }
      },
      "approve(address,uint256)": {
        "details": "See {IERC721-approve}."
      },
      "balanceOf(address)": {
        "details": "See {IERC721-balanceOf}."
      },
      "createEquipment(string,string,address,string)": {
        "params": {
          "_category": "Category",
          "_model": "Equipment model",
          "_owner": "The owner of the equipment (company name)",
          "_serialNumber": "Serial Number"
        }
      },
      "createPart(address,string)": {
        "params": {
          "_forManufacturer": "Address of the part producer that will get the Part (NFT)"
        },
        "returns": {
          "_0": "uint NFT's ID"
        }
      },
      "delistPart(uint256)": {
        "params": {
          "_nftId": "Part's NFT ID"
        }
      },
      "getApproved(uint256)": {
        "details": "See {IERC721-getApproved}."
      },
      "isApprovedForAll(address,address)": {
        "details": "See {IERC721-isApprovedForAll}."
      },
      "listPart(uint256,uint256)": {
        "params": {
          "_nftId": "Part's NFT ID",
          "_price": "Part's price"
        }
      },
      "marketBuyPart(uint256)": {
        "params": {
          "_nftId": "Part's NFT ID"
        }
      },
      "name()": {
        "details": "See {IERC721Metadata-name}."
      },
      "owner()": {
        "details": "Returns the address of the current owner."
      },
      "ownerOf(uint256)": {
        "details": "See {IERC721-ownerOf}."
      },
      "registerEquipmentManufacturer(address)": {
        "params": {
          "_producer": "Address of the Equipment Manufacturer that will be allowed to create a Part (NFT)"
        }
      },
      "removeEquipmentManufacturer(address)": {
        "params": {
          "_producer": "Address of the Equipment Manufacturer that will be allowed to create a Part (NFT)"
        }
      },
      "renounceOwnership()": {
        "details": "Leaves the contract without owner. It will not be possible to call `onlyOwner` functions anymore. Can only be called by the current owner. NOTE: Renouncing ownership will leave the contract without an owner, thereby removing any functionality that is only available to the owner."
      },
      "safeTransferFrom(address,address,uint256)": {
        "details": "See {IERC721-safeTransferFrom}."
      },
      "safeTransferFrom(address,address,uint256,bytes)": {
        "details": "See {IERC721-safeTransferFrom}."
      },
      "setApprovalForAll(address,bool)": {
        "details": "See {IERC721-setApprovalForAll}."
      },
      "supportsInterface(bytes4)": {
        "details": "See {IERC165-supportsInterface}."
      },
      "symbol()": {
        "details": "See {IERC721Metadata-symbol}."
      },
      "tokenURI(uint256)": {
        "details": "See {IERC721Metadata-tokenURI}."
      },
      "transferFrom(address,address,uint256)": {
        "details": "See {IERC721-transferFrom}."
      },
      "transferOwnership(address)": {
        "details": "Transfers ownership of the contract to a new account (`newOwner`). Can only be called by the current owner."
      },
      "updateListingPrice(uint256,uint256)": {
        "params": {
          "_nftId": "Part's NFT ID",
          "_price": "Part's price"
        }
      }
    },
    "version": 1
  },
  "userdoc": {
    "kind": "user",
    "methods": {
      "addPartToAssembly(string,uint256)": {
        "notice": "Adds a part to an assembly (or creates he assembly if it doesn't exist)"
      },
      "createEquipment(string,string,address,string)": {
        "notice": "Adds an equipment to the equipments mapping and update the equipmentsSerialNumbers array"
      },
      "createPart(address,string)": {
        "notice": "As an equipment manufacturer, create a part NFT and transfer it to a part manufacturer"
      },
      "delistPart(uint256)": {
        "notice": "Delist a part"
      },
      "listPart(uint256,uint256)": {
        "notice": "List a part"
      },
      "marketBuyPart(uint256)": {
        "notice": "Buy a part at market price"
      },
      "registerEquipmentManufacturer(address)": {
        "notice": "Register a new Equipment Manufacturer"
      },
      "removeEquipmentManufacturer(address)": {
        "notice": "Remove an Equipment Manufacturer"
      },
      "updateListingPrice(uint256,uint256)": {
        "notice": "Update the listing price"
      }
    },
    "version": 1
  }
}