{
  "contractName": "CycleChain",
  "abi": [
    {
      "inputs": [],
      "stateMutability": "nonpayable",
      "type": "constructor"
    },
    {
      "anonymous": false,
      "inputs": [
        {
          "indexed": true,
          "internalType": "address",
          "name": "owner",
          "type": "address"
        },
        {
          "indexed": true,
          "internalType": "address",
          "name": "approved",
          "type": "address"
        },
        {
          "indexed": true,
          "internalType": "uint256",
          "name": "tokenId",
          "type": "uint256"
        }
      ],
      "name": "Approval",
      "type": "event"
    },
    {
      "anonymous": false,
      "inputs": [
        {
          "indexed": true,
          "internalType": "address",
          "name": "owner",
          "type": "address"
        },
        {
          "indexed": true,
          "internalType": "address",
          "name": "operator",
          "type": "address"
        },
        {
          "indexed": false,
          "internalType": "bool",
          "name": "approved",
          "type": "bool"
        }
      ],
      "name": "ApprovalForAll",
      "type": "event"
    },
    {
      "anonymous": false,
      "inputs": [
        {
          "indexed": false,
          "internalType": "string",
          "name": "equipmentId",
          "type": "string"
        }
      ],
      "name": "EquipmentCreated",
      "type": "event"
    },
    {
      "anonymous": false,
      "inputs": [
        {
          "indexed": false,
          "internalType": "address",
          "name": "_address",
          "type": "address"
        }
      ],
      "name": "EquipmentManufacturerRegistered",
      "type": "event"
    },
    {
      "anonymous": false,
      "inputs": [
        {
          "indexed": false,
          "internalType": "address",
          "name": "_address",
          "type": "address"
        }
      ],
      "name": "EquipmentManufacturerRemoved",
      "type": "event"
    },
    {
      "anonymous": false,
      "inputs": [
        {
          "indexed": true,
          "internalType": "address",
          "name": "previousOwner",
          "type": "address"
        },
        {
          "indexed": true,
          "internalType": "address",
          "name": "newOwner",
          "type": "address"
        }
      ],
      "name": "OwnershipTransferred",
      "type": "event"
    },
    {
      "anonymous": false,
      "inputs": [
        {
          "indexed": false,
          "internalType": "uint256",
          "name": "NftId",
          "type": "uint256"
        }
      ],
      "name": "PartCreated",
      "type": "event"
    },
    {
      "anonymous": false,
      "inputs": [
        {
          "indexed": false,
          "internalType": "uint256",
          "name": "_partId",
          "type": "uint256"
        },
        {
          "indexed": false,
          "internalType": "string",
          "name": "_equipmentSerialNumber",
          "type": "string"
        }
      ],
      "name": "PartInstalledOnEquipment",
      "type": "event"
    },
    {
      "anonymous": false,
      "inputs": [
        {
          "indexed": false,
          "internalType": "uint256",
          "name": "partId",
          "type": "uint256"
        },
        {
          "indexed": false,
          "internalType": "uint256",
          "name": "equipmentId",
          "type": "uint256"
        }
      ],
      "name": "PartRemovedFromEquipment",
      "type": "event"
    },
    {
      "anonymous": false,
      "inputs": [
        {
          "indexed": true,
          "internalType": "address",
          "name": "from",
          "type": "address"
        },
        {
          "indexed": true,
          "internalType": "address",
          "name": "to",
          "type": "address"
        },
        {
          "indexed": true,
          "internalType": "uint256",
          "name": "tokenId",
          "type": "uint256"
        }
      ],
      "name": "Transfer",
      "type": "event"
    },
    {
      "anonymous": false,
      "inputs": [
        {
          "indexed": false,
          "internalType": "uint256",
          "name": "partId",
          "type": "uint256"
        }
      ],
      "name": "partDelisted",
      "type": "event"
    },
    {
      "anonymous": false,
      "inputs": [
        {
          "indexed": false,
          "internalType": "uint256",
          "name": "partId",
          "type": "uint256"
        },
        {
          "indexed": false,
          "internalType": "uint256",
          "name": "price",
          "type": "uint256"
        }
      ],
      "name": "partListed",
      "type": "event"
    },
    {
      "inputs": [
        {
          "internalType": "address",
          "name": "to",
          "type": "address"
        },
        {
          "internalType": "uint256",
          "name": "tokenId",
          "type": "uint256"
        }
      ],
      "name": "approve",
      "outputs": [],
      "stateMutability": "nonpayable",
      "type": "function"
    },
    {
      "inputs": [
        {
          "internalType": "address",
          "name": "owner",
          "type": "address"
        }
      ],
      "name": "balanceOf",
      "outputs": [
        {
          "internalType": "uint256",
          "name": "",
          "type": "uint256"
        }
      ],
      "stateMutability": "view",
      "type": "function",
      "constant": true
    },
    {
      "inputs": [
        {
          "internalType": "address",
          "name": "",
          "type": "address"
        }
      ],
      "name": "equipmentManufacturers",
      "outputs": [
        {
          "internalType": "bool",
          "name": "",
          "type": "bool"
        }
      ],
      "stateMutability": "view",
      "type": "function",
      "constant": true
    },
    {
      "inputs": [
        {
          "internalType": "uint256",
          "name": "tokenId",
          "type": "uint256"
        }
      ],
      "name": "getApproved",
      "outputs": [
        {
          "internalType": "address",
          "name": "",
          "type": "address"
        }
      ],
      "stateMutability": "view",
      "type": "function",
      "constant": true
    },
    {
      "inputs": [
        {
          "internalType": "address",
          "name": "owner",
          "type": "address"
        },
        {
          "internalType": "address",
          "name": "operator",
          "type": "address"
        }
      ],
      "name": "isApprovedForAll",
      "outputs": [
        {
          "internalType": "bool",
          "name": "",
          "type": "bool"
        }
      ],
      "stateMutability": "view",
      "type": "function",
      "constant": true
    },
    {
      "inputs": [],
      "name": "name",
      "outputs": [
        {
          "internalType": "string",
          "name": "",
          "type": "string"
        }
      ],
      "stateMutability": "view",
      "type": "function",
      "constant": true
    },
    {
      "inputs": [],
      "name": "owner",
      "outputs": [
        {
          "internalType": "address",
          "name": "",
          "type": "address"
        }
      ],
      "stateMutability": "view",
      "type": "function",
      "constant": true
    },
    {
      "inputs": [
        {
          "internalType": "uint256",
          "name": "tokenId",
          "type": "uint256"
        }
      ],
      "name": "ownerOf",
      "outputs": [
        {
          "internalType": "address",
          "name": "",
          "type": "address"
        }
      ],
      "stateMutability": "view",
      "type": "function",
      "constant": true
    },
    {
      "inputs": [
        {
          "internalType": "uint256",
          "name": "",
          "type": "uint256"
        }
      ],
      "name": "parts",
      "outputs": [
        {
          "internalType": "bool",
          "name": "isListed",
          "type": "bool"
        },
        {
          "internalType": "uint256",
          "name": "listedPrice",
          "type": "uint256"
        }
      ],
      "stateMutability": "view",
      "type": "function",
      "constant": true
    },
    {
      "inputs": [],
      "name": "renounceOwnership",
      "outputs": [],
      "stateMutability": "nonpayable",
      "type": "function"
    },
    {
      "inputs": [
        {
          "internalType": "address",
          "name": "from",
          "type": "address"
        },
        {
          "internalType": "address",
          "name": "to",
          "type": "address"
        },
        {
          "internalType": "uint256",
          "name": "tokenId",
          "type": "uint256"
        }
      ],
      "name": "safeTransferFrom",
      "outputs": [],
      "stateMutability": "nonpayable",
      "type": "function"
    },
    {
      "inputs": [
        {
          "internalType": "address",
          "name": "from",
          "type": "address"
        },
        {
          "internalType": "address",
          "name": "to",
          "type": "address"
        },
        {
          "internalType": "uint256",
          "name": "tokenId",
          "type": "uint256"
        },
        {
          "internalType": "bytes",
          "name": "data",
          "type": "bytes"
        }
      ],
      "name": "safeTransferFrom",
      "outputs": [],
      "stateMutability": "nonpayable",
      "type": "function"
    },
    {
      "inputs": [
        {
          "internalType": "address",
          "name": "operator",
          "type": "address"
        },
        {
          "internalType": "bool",
          "name": "approved",
          "type": "bool"
        }
      ],
      "name": "setApprovalForAll",
      "outputs": [],
      "stateMutability": "nonpayable",
      "type": "function"
    },
    {
      "inputs": [
        {
          "internalType": "bytes4",
          "name": "interfaceId",
          "type": "bytes4"
        }
      ],
      "name": "supportsInterface",
      "outputs": [
        {
          "internalType": "bool",
          "name": "",
          "type": "bool"
        }
      ],
      "stateMutability": "view",
      "type": "function",
      "constant": true
    },
    {
      "inputs": [],
      "name": "symbol",
      "outputs": [
        {
          "internalType": "string",
          "name": "",
          "type": "string"
        }
      ],
      "stateMutability": "view",
      "type": "function",
      "constant": true
    },
    {
      "inputs": [
        {
          "internalType": "uint256",
          "name": "tokenId",
          "type": "uint256"
        }
      ],
      "name": "tokenURI",
      "outputs": [
        {
          "internalType": "string",
          "name": "",
          "type": "string"
        }
      ],
      "stateMutability": "view",
      "type": "function",
      "constant": true
    },
    {
      "inputs": [
        {
          "internalType": "address",
          "name": "from",
          "type": "address"
        },
        {
          "internalType": "address",
          "name": "to",
          "type": "address"
        },
        {
          "internalType": "uint256",
          "name": "tokenId",
          "type": "uint256"
        }
      ],
      "name": "transferFrom",
      "outputs": [],
      "stateMutability": "nonpayable",
      "type": "function"
    },
    {
      "inputs": [
        {
          "internalType": "address",
          "name": "newOwner",
          "type": "address"
        }
      ],
      "name": "transferOwnership",
      "outputs": [],
      "stateMutability": "nonpayable",
      "type": "function"
    },
    {
      "inputs": [],
      "name": "getAllEquipments",
      "outputs": [
        {
          "components": [
            {
              "internalType": "string",
              "name": "serialNumber",
              "type": "string"
            },
            {
              "internalType": "string",
              "name": "category",
              "type": "string"
            },
            {
              "internalType": "address",
              "name": "manufacturer",
              "type": "address"
            },
            {
              "internalType": "address",
              "name": "owner",
              "type": "address"
            },
            {
              "internalType": "string",
              "name": "model",
              "type": "string"
            },
            {
              "internalType": "bool",
              "name": "isValue",
              "type": "bool"
            }
          ],
          "internalType": "struct CycleChain.Equipment[]",
          "name": "",
          "type": "tuple[]"
        }
      ],
      "stateMutability": "view",
      "type": "function",
      "constant": true
    },
    {
      "inputs": [],
      "name": "getAllAssemblies",
      "outputs": [
        {
          "components": [
            {
              "internalType": "string",
              "name": "equipmentSerialNumber",
              "type": "string"
            },
            {
              "internalType": "uint256[]",
              "name": "partsIds",
              "type": "uint256[]"
            }
          ],
          "internalType": "struct CycleChain.Assembly[]",
          "name": "",
          "type": "tuple[]"
        }
      ],
      "stateMutability": "view",
      "type": "function",
      "constant": true
    },
    {
      "inputs": [
        {
          "internalType": "address",
          "name": "_producer",
          "type": "address"
        }
      ],
      "name": "registerEquipmentManufacturer",
      "outputs": [],
      "stateMutability": "nonpayable",
      "type": "function"
    },
    {
      "inputs": [
        {
          "internalType": "address",
          "name": "_producer",
          "type": "address"
        }
      ],
      "name": "removeEquipmentManufacturer",
      "outputs": [],
      "stateMutability": "nonpayable",
      "type": "function"
    },
    {
      "inputs": [
        {
          "internalType": "string",
          "name": "_serialNumber",
          "type": "string"
        },
        {
          "internalType": "string",
          "name": "_category",
          "type": "string"
        },
        {
          "internalType": "address",
          "name": "_owner",
          "type": "address"
        },
        {
          "internalType": "string",
          "name": "_model",
          "type": "string"
        }
      ],
      "name": "createEquipment",
      "outputs": [],
      "stateMutability": "nonpayable",
      "type": "function"
    },
    {
      "inputs": [
        {
          "internalType": "string",
          "name": "_equipmentSerialNumber",
          "type": "string"
        },
        {
          "internalType": "uint256",
          "name": "_partId",
          "type": "uint256"
        }
      ],
      "name": "addPartToAssembly",
      "outputs": [],
      "stateMutability": "nonpayable",
      "type": "function"
    },
    {
      "inputs": [
        {
          "internalType": "address",
          "name": "_forManufacturer",
          "type": "address"
        },
        {
          "internalType": "string",
          "name": "_partURI",
          "type": "string"
        }
      ],
      "name": "createPart",
      "outputs": [
        {
          "internalType": "uint256",
          "name": "",
          "type": "uint256"
        }
      ],
      "stateMutability": "nonpayable",
      "type": "function"
    },
    {
      "inputs": [
        {
          "internalType": "uint256",
          "name": "_nftId",
          "type": "uint256"
        },
        {
          "internalType": "uint256",
          "name": "_price",
          "type": "uint256"
        }
      ],
      "name": "listPart",
      "outputs": [],
      "stateMutability": "nonpayable",
      "type": "function"
    },
    {
      "inputs": [
        {
          "internalType": "uint256",
          "name": "_nftId",
          "type": "uint256"
        }
      ],
      "name": "delistPart",
      "outputs": [],
      "stateMutability": "nonpayable",
      "type": "function"
    },
    {
      "inputs": [
        {
          "internalType": "uint256",
          "name": "_nftId",
          "type": "uint256"
        },
        {
          "internalType": "uint256",
          "name": "_price",
          "type": "uint256"
        }
      ],
      "name": "updateListingPrice",
      "outputs": [],
      "stateMutability": "nonpayable",
      "type": "function"
    },
    {
      "inputs": [
        {
          "internalType": "uint256",
          "name": "_nftId",
          "type": "uint256"
        }
      ],
      "name": "marketBuyPart",
      "outputs": [],
      "stateMutability": "payable",
      "type": "function",
      "payable": true
    }
  ],
  "bytecode": "0x60806040523480156200001157600080fd5b506040518060400160405280600481526020017f50617274000000000000000000000000000000000000000000000000000000008152506040518060400160405280600281526020017f434300000000000000000000000000000000000000000000000000000000000081525081600090805190602001906200009692919062000209565b508060019080519060200190620000af92919062000209565b505050620000d2620000c66200013b60201b60201c565b6200014360201b60201c565b620000dc6200029a565b600981908060018154018082558091505060019003906000526020600020906002020160009091909190915060008201518160000160006101000a81548160ff0219169083151502179055506020820151816001015550505062000339565b600033905090565b6000600760009054906101000a900473ffffffffffffffffffffffffffffffffffffffff16905081600760006101000a81548173ffffffffffffffffffffffffffffffffffffffff021916908373ffffffffffffffffffffffffffffffffffffffff1602179055508173ffffffffffffffffffffffffffffffffffffffff168173ffffffffffffffffffffffffffffffffffffffff167f8be0079c531659141344cd1fd0a4f28419497f9722a3daafe3b4186f6b6457e060405160405180910390a35050565b828054620002179062000304565b90600052602060002090601f0160209004810192826200023b576000855562000287565b82601f106200025657805160ff191683800117855562000287565b8280016001018555821562000287579182015b828111156200028657825182559160200191906001019062000269565b5b509050620002969190620002b6565b5090565b6040518060400160405280600015158152602001600081525090565b5b80821115620002d1576000816000905550600101620002b7565b5090565b7f4e487b7100000000000000000000000000000000000000000000000000000000600052602260045260246000fd5b600060028204905060018216806200031d57607f821691505b602082108103620003335762000332620002d5565b5b50919050565b61583380620003496000396000f3fe6080604052600436106101c25760003560e01c806392a66f35116100f7578063c9eb466211610095578063d8a89c4e11610064578063d8a89c4e14610640578063ddbf332e14610669578063e985e9c5146106a6578063f2fde38b146106e3576101c2565b8063c9eb466214610592578063d0ad0f4f146105d0578063d2685825146105f9578063d48eee2914610624576101c2565b8063b04cdee3116100d1578063b04cdee3146104da578063b88d4fde14610503578063c46049431461052c578063c87b56dd14610555576101c2565b806392a66f351461045d57806395d89b4114610486578063a22cb465146104b1576101c2565b80632a18a57c1161016457806370a082311161013e57806370a08231146103b557806370e87132146103f2578063715018a61461041b5780638da5cb5b14610432576101c2565b80632a18a57c1461032657806342842e0e1461034f5780636352211e14610378576101c2565b8063081812fc116101a0578063081812fc1461025a578063095ea7b3146102975780631ae01fb2146102c057806323b872dd146102fd576101c2565b806301ffc9a7146101c757806304dd15f91461020457806306fdde031461022f575b600080fd5b3480156101d357600080fd5b506101ee60048036038101906101e991906139cd565b61070c565b6040516101fb9190613a15565b60405180910390f35b34801561021057600080fd5b506102196107ee565b6040516102269190613c97565b60405180910390f35b34801561023b57600080fd5b506102446109c7565b6040516102519190613d03565b60405180910390f35b34801561026657600080fd5b50610281600480360381019061027c9190613d51565b610a59565b60405161028e9190613dbf565b60405180910390f35b3480156102a357600080fd5b506102be60048036038101906102b99190613e06565b610a9f565b005b3480156102cc57600080fd5b506102e760048036038101906102e29190613f7b565b610bb6565b6040516102f49190613fe6565b60405180910390f35b34801561030957600080fd5b50610324600480360381019061031f9190614001565b610d88565b005b34801561033257600080fd5b5061034d60048036038101906103489190614054565b610de8565b005b34801561035b57600080fd5b5061037660048036038101906103719190614001565b611135565b005b34801561038457600080fd5b5061039f600480360381019061039a9190613d51565b611155565b6040516103ac9190613dbf565b60405180910390f35b3480156103c157600080fd5b506103dc60048036038101906103d7919061410f565b6111db565b6040516103e99190613fe6565b60405180910390f35b3480156103fe57600080fd5b5061041960048036038101906104149190613d51565b611292565b005b34801561042757600080fd5b50610430611495565b005b34801561043e57600080fd5b506104476114a9565b6040516104549190613dbf565b60405180910390f35b34801561046957600080fd5b50610484600480360381019061047f919061413c565b6114d3565b005b34801561049257600080fd5b5061049b61171d565b6040516104a89190613d03565b60405180910390f35b3480156104bd57600080fd5b506104d860048036038101906104d391906141c4565b6117af565b005b3480156104e657600080fd5b5061050160048036038101906104fc919061410f565b6117c5565b005b34801561050f57600080fd5b5061052a600480360381019061052591906142a5565b6118f2565b005b34801561053857600080fd5b50610553600480360381019061054e9190614328565b611954565b005b34801561056157600080fd5b5061057c60048036038101906105779190613d51565b611b1b565b6040516105899190613d03565b60405180910390f35b34801561059e57600080fd5b506105b960048036038101906105b49190613d51565b611c2d565b6040516105c7929190614368565b60405180910390f35b3480156105dc57600080fd5b506105f760048036038101906105f2919061410f565b611c6e565b005b34801561060557600080fd5b5061060e611d9b565b60405161061b9190614508565b60405180910390f35b61063e60048036038101906106399190613d51565b612107565b005b34801561064c57600080fd5b5061066760048036038101906106629190614328565b61238e565b005b34801561067557600080fd5b50610690600480360381019061068b919061410f565b612593565b60405161069d9190613a15565b60405180910390f35b3480156106b257600080fd5b506106cd60048036038101906106c8919061452a565b6125b3565b6040516106da9190613a15565b60405180910390f35b3480156106ef57600080fd5b5061070a6004803603810190610705919061410f565b612647565b005b60007f80ac58cd000000000000000000000000000000000000000000000000000000007bffffffffffffffffffffffffffffffffffffffffffffffffffffffff1916827bffffffffffffffffffffffffffffffffffffffffffffffffffffffff191614806107d757507f5b5e139f000000000000000000000000000000000000000000000000000000007bffffffffffffffffffffffffffffffffffffffffffffffffffffffff1916827bffffffffffffffffffffffffffffffffffffffffffffffffffffffff1916145b806107e757506107e6826126ca565b5b9050919050565b60606000600b80549050905060008167ffffffffffffffff81111561081657610815613e50565b5b60405190808252806020026020018201604052801561084f57816020015b61083c613824565b8152602001906001900390816108345790505b50905060005b828110156109be57600c600b82815481106108735761087261456a565b5b9060005260206000200160405161088a9190614698565b90815260200160405180910390206040518060400160405290816000820180546108b3906145c8565b80601f01602080910402602001604051908101604052809291908181526020018280546108df906145c8565b801561092c5780601f106109015761010080835404028352916020019161092c565b820191906000526020600020905b81548152906001019060200180831161090f57829003601f168201915b505050505081526020016001820180548060200260200160405190810160405280929190818152602001828054801561098457602002820191906000526020600020905b815481526020019060010190808311610970575b5050505050815250508282815181106109a05761099f61456a565b5b602002602001018190525080806109b6906146de565b915050610855565b50809250505090565b6060600080546109d6906145c8565b80601f0160208091040260200160405190810160405280929190818152602001828054610a02906145c8565b8015610a4f5780601f10610a2457610100808354040283529160200191610a4f565b820191906000526020600020905b815481529060010190602001808311610a3257829003601f168201915b5050505050905090565b6000610a6482612734565b6004600083815260200190815260200160002060009054906101000a900473ffffffffffffffffffffffffffffffffffffffff169050919050565b6000610aaa82611155565b90508073ffffffffffffffffffffffffffffffffffffffff168373ffffffffffffffffffffffffffffffffffffffff1603610b1a576040517f08c379a0000000000000000000000000000000000000000000000000000000008152600401610b1190614798565b60405180910390fd5b8073ffffffffffffffffffffffffffffffffffffffff16610b3961277f565b73ffffffffffffffffffffffffffffffffffffffff161480610b685750610b6781610b6261277f565b6125b3565b5b610ba7576040517f08c379a0000000000000000000000000000000000000000000000000000000008152600401610b9e9061482a565b60405180910390fd5b610bb18383612787565b505050565b600060011515600d60003373ffffffffffffffffffffffffffffffffffffffff1673ffffffffffffffffffffffffffffffffffffffff16815260200190815260200160002060009054906101000a900460ff16151514610c4b576040517f08c379a0000000000000000000000000000000000000000000000000000000008152600401610c42906148bc565b60405180910390fd5b600073ffffffffffffffffffffffffffffffffffffffff168373ffffffffffffffffffffffffffffffffffffffff1603610cba576040517f08c379a0000000000000000000000000000000000000000000000000000000008152600401610cb19061494e565b60405180910390fd5b610cc46008612840565b6000610cd06008612856565b9050610cdc8482612864565b610ce68184612a81565b610cee61383e565b600981908060018154018082558091505060019003906000526020600020906002020160009091909190915060008201518160000160006101000a81548160ff0219169083151502179055506020820151816001015550507fbeb6ef1e252bba53ccc7403a1dbbfed2526fd6136f583a36b73c4adb67331b8a82604051610d759190613fe6565b60405180910390a1819250505092915050565b610d99610d9361277f565b82612af5565b610dd8576040517f08c379a0000000000000000000000000000000000000000000000000000000008152600401610dcf906149e0565b60405180910390fd5b610de3838383612b8a565b505050565b60011515600d60003373ffffffffffffffffffffffffffffffffffffffff1673ffffffffffffffffffffffffffffffffffffffff16815260200190815260200160002060009054906101000a900460ff16151514610e7b576040517f08c379a0000000000000000000000000000000000000000000000000000000008152600401610e72906148bc565b60405180910390fd5b60001515600a85604051610e8f9190614a31565b908152602001604051809103902060050160009054906101000a900460ff16151514610ef0576040517f08c379a0000000000000000000000000000000000000000000000000000000008152600401610ee790614a94565b60405180910390fd5b610ef861385a565b84816000018190525083816020018190525033816040019073ffffffffffffffffffffffffffffffffffffffff16908173ffffffffffffffffffffffffffffffffffffffff168152505082816060019073ffffffffffffffffffffffffffffffffffffffff16908173ffffffffffffffffffffffffffffffffffffffff168152505081816080018190525060018160a001901515908115158152505080600a86604051610fa59190614a31565b90815260200160405180910390206000820151816000019080519060200190610fcf9291906138be565b506020820151816001019080519060200190610fec9291906138be565b5060408201518160020160006101000a81548173ffffffffffffffffffffffffffffffffffffffff021916908373ffffffffffffffffffffffffffffffffffffffff16021790555060608201518160030160006101000a81548173ffffffffffffffffffffffffffffffffffffffff021916908373ffffffffffffffffffffffffffffffffffffffff16021790555060808201518160040190805190602001906110979291906138be565b5060a08201518160050160006101000a81548160ff021916908315150217905550905050600b859080600181540180825580915050600190039060005260206000200160009091909190915090805190602001906110f69291906138be565b507f0330abb18afb046aa53f3236d1093acb79782997597401dda81f7934c7d91f2a856040516111269190613d03565b60405180910390a15050505050565b611150838383604051806020016040528060008152506118f2565b505050565b60008061116183612e83565b9050600073ffffffffffffffffffffffffffffffffffffffff168173ffffffffffffffffffffffffffffffffffffffff16036111d2576040517f08c379a00000000000000000000000000000000000000000000000000000000081526004016111c990614b00565b60405180910390fd5b80915050919050565b60008073ffffffffffffffffffffffffffffffffffffffff168273ffffffffffffffffffffffffffffffffffffffff160361124b576040517f08c379a000000000000000000000000000000000000000000000000000000000815260040161124290614b92565b60405180910390fd5b600360008373ffffffffffffffffffffffffffffffffffffffff1673ffffffffffffffffffffffffffffffffffffffff168152602001908152602001600020549050919050565b3073ffffffffffffffffffffffffffffffffffffffff16636352211e826040518263ffffffff1660e01b81526004016112cb9190613fe6565b602060405180830381865afa1580156112e8573d6000803e3d6000fd5b505050506040513d601f19601f8201168201806040525081019061130c9190614bc7565b73ffffffffffffffffffffffffffffffffffffffff163373ffffffffffffffffffffffffffffffffffffffff1614611379576040517f08c379a000000000000000000000000000000000000000000000000000000000815260040161137090614c40565b60405180910390fd5b60011515600982815481106113915761139061456a565b5b906000526020600020906002020160000160009054906101000a900460ff161515146113f2576040517f08c379a00000000000000000000000000000000000000000000000000000000081526004016113e990614cac565b60405180910390fd5b6000600982815481106114085761140761456a565b5b906000526020600020906002020160000160006101000a81548160ff0219169083151502179055506000600982815481106114465761144561456a565b5b9060005260206000209060020201600101819055507f37b601bebae61c1dfbe5247b3812e25d3e4e8aac92c9c428eb320d5af035f5ab8160405161148a9190613fe6565b60405180910390a150565b61149d612ec0565b6114a76000612f3e565b565b6000600760009054906101000a900473ffffffffffffffffffffffffffffffffffffffff16905090565b3373ffffffffffffffffffffffffffffffffffffffff166114f382611155565b73ffffffffffffffffffffffffffffffffffffffff1614611549576040517f08c379a000000000000000000000000000000000000000000000000000000000815260040161154090614d18565b60405180910390fd5b60011515600a8360405161155d9190614a31565b908152602001604051809103902060050160009054906101000a900460ff161515146115be576040517f08c379a00000000000000000000000000000000000000000000000000000000081526004016115b590614d84565b60405180910390fd5b8060016009805490506115d19190614da4565b1015611612576040517f08c379a000000000000000000000000000000000000000000000000000000000815260040161160990614e24565b60405180910390fd5b600015156116208383613004565b151514611662576040517f08c379a000000000000000000000000000000000000000000000000000000000815260040161165990614eb6565b60405180910390fd5b81600c836040516116739190614a31565b908152602001604051809103902060000190805190602001906116979291906138be565b50600c826040516116a89190614a31565b90815260200160405180910390206001018190806001815401808255809150506001900390600052602060002001600090919091909150557fbb4d6b6abd8902cd59f14245efed628ddc53a2aa6a9be614a034ef8b5cd0cd428183604051611711929190614ed6565b60405180910390a15050565b60606001805461172c906145c8565b80601f0160208091040260200160405190810160405280929190818152602001828054611758906145c8565b80156117a55780601f1061177a576101008083540402835291602001916117a5565b820191906000526020600020905b81548152906001019060200180831161178857829003601f168201915b5050505050905090565b6117c16117ba61277f565b83836130a5565b5050565b6117cd612ec0565b60011515600d60008373ffffffffffffffffffffffffffffffffffffffff1673ffffffffffffffffffffffffffffffffffffffff16815260200190815260200160002060009054906101000a900460ff16151514611860576040517f08c379a000000000000000000000000000000000000000000000000000000000815260040161185790614f78565b60405180910390fd5b6000600d60008373ffffffffffffffffffffffffffffffffffffffff1673ffffffffffffffffffffffffffffffffffffffff16815260200190815260200160002060006101000a81548160ff0219169083151502179055507f92c90891f30af5540345fc8c8ec18f723490f6c19874f507d125a186a9e81648816040516118e79190613dbf565b60405180910390a150565b6119036118fd61277f565b83612af5565b611942576040517f08c379a0000000000000000000000000000000000000000000000000000000008152600401611939906149e0565b60405180910390fd5b61194e84848484613211565b50505050565b3073ffffffffffffffffffffffffffffffffffffffff16636352211e836040518263ffffffff1660e01b815260040161198d9190613fe6565b602060405180830381865afa1580156119aa573d6000803e3d6000fd5b505050506040513d601f19601f820116820180604052508101906119ce9190614bc7565b73ffffffffffffffffffffffffffffffffffffffff163373ffffffffffffffffffffffffffffffffffffffff1614611a3b576040517f08c379a0000000000000000000000000000000000000000000000000000000008152600401611a3290614c40565b60405180910390fd5b6001151560098381548110611a5357611a5261456a565b5b906000526020600020906002020160000160009054906101000a900460ff16151514611ab4576040517f08c379a0000000000000000000000000000000000000000000000000000000008152600401611aab90614cac565b60405180910390fd5b8060098381548110611ac957611ac861456a565b5b9060005260206000209060020201600101819055507f6ef7f5c0328392c4b3ccca1774f1aecaaa818eb7b2087a2f41b359b7afbf36f48282604051611b0f929190614f98565b60405180910390a15050565b6060611b2682612734565b6000600660008481526020019081526020016000208054611b46906145c8565b80601f0160208091040260200160405190810160405280929190818152602001828054611b72906145c8565b8015611bbf5780601f10611b9457610100808354040283529160200191611bbf565b820191906000526020600020905b815481529060010190602001808311611ba257829003601f168201915b505050505090506000611bd061326d565b90506000815103611be5578192505050611c28565b600082511115611c1a578082604051602001611c02929190614fc1565b60405160208183030381529060405292505050611c28565b611c2384613284565b925050505b919050565b60098181548110611c3d57600080fd5b90600052602060002090600202016000915090508060000160009054906101000a900460ff16908060010154905082565b611c76612ec0565b60001515600d60008373ffffffffffffffffffffffffffffffffffffffff1673ffffffffffffffffffffffffffffffffffffffff16815260200190815260200160002060009054906101000a900460ff16151514611d09576040517f08c379a0000000000000000000000000000000000000000000000000000000008152600401611d0090615057565b60405180910390fd5b6001600d60008373ffffffffffffffffffffffffffffffffffffffff1673ffffffffffffffffffffffffffffffffffffffff16815260200190815260200160002060006101000a81548160ff0219169083151502179055507f621e8a3c5020fa65b50660c1e3322f1148d06a55036ec15bec3b55422c1afad481604051611d909190613dbf565b60405180910390a150565b60606000600b80549050905060008167ffffffffffffffff811115611dc357611dc2613e50565b5b604051908082528060200260200182016040528015611dfc57816020015b611de961385a565b815260200190600190039081611de15790505b50905060005b828110156120fe57600a600b8281548110611e2057611e1f61456a565b5b90600052602060002001604051611e379190614698565b90815260200160405180910390206040518060c0016040529081600082018054611e60906145c8565b80601f0160208091040260200160405190810160405280929190818152602001828054611e8c906145c8565b8015611ed95780601f10611eae57610100808354040283529160200191611ed9565b820191906000526020600020905b815481529060010190602001808311611ebc57829003601f168201915b50505050508152602001600182018054611ef2906145c8565b80601f0160208091040260200160405190810160405280929190818152602001828054611f1e906145c8565b8015611f6b5780601f10611f4057610100808354040283529160200191611f6b565b820191906000526020600020905b815481529060010190602001808311611f4e57829003601f168201915b505050505081526020016002820160009054906101000a900473ffffffffffffffffffffffffffffffffffffffff1673ffffffffffffffffffffffffffffffffffffffff1673ffffffffffffffffffffffffffffffffffffffff1681526020016003820160009054906101000a900473ffffffffffffffffffffffffffffffffffffffff1673ffffffffffffffffffffffffffffffffffffffff1673ffffffffffffffffffffffffffffffffffffffff168152602001600482018054612030906145c8565b80601f016020809104026020016040519081016040528092919081815260200182805461205c906145c8565b80156120a95780601f1061207e576101008083540402835291602001916120a9565b820191906000526020600020905b81548152906001019060200180831161208c57829003601f168201915b505050505081526020016005820160009054906101000a900460ff1615151515815250508282815181106120e0576120df61456a565b5b602002602001018190525080806120f6906146de565b915050611e02565b50809250505090565b60006009828154811061211d5761211c61456a565b5b906000526020600020906002020160010154905060011515600983815481106121495761214861456a565b5b906000526020600020906002020160000160009054906101000a900460ff161515146121aa576040517f08c379a00000000000000000000000000000000000000000000000000000000081526004016121a190614cac565b60405180910390fd5b8034146121ec576040517f08c379a00000000000000000000000000000000000000000000000000000000081526004016121e3906150e9565b60405180910390fd5b60003073ffffffffffffffffffffffffffffffffffffffff16636352211e846040518263ffffffff1660e01b81526004016122279190613fe6565b602060405180830381865afa158015612244573d6000803e3d6000fd5b505050506040513d601f19601f820116820180604052508101906122689190614bc7565b90503073ffffffffffffffffffffffffffffffffffffffff166342842e0e8233866040518463ffffffff1660e01b81526004016122a793929190615168565b600060405180830381600087803b1580156122c157600080fd5b505af11580156122d5573d6000803e3d6000fd5b505050508073ffffffffffffffffffffffffffffffffffffffff166108fc839081150290604051600060405180830381858888f1935050505015801561231f573d6000803e3d6000fd5b506000600984815481106123365761233561456a565b5b906000526020600020906002020160000160006101000a81548160ff0219169083151502179055506000600984815481106123745761237361456a565b5b906000526020600020906002020160010181905550505050565b3073ffffffffffffffffffffffffffffffffffffffff16636352211e836040518263ffffffff1660e01b81526004016123c79190613fe6565b602060405180830381865afa1580156123e4573d6000803e3d6000fd5b505050506040513d601f19601f820116820180604052508101906124089190614bc7565b73ffffffffffffffffffffffffffffffffffffffff163373ffffffffffffffffffffffffffffffffffffffff1614612475576040517f08c379a000000000000000000000000000000000000000000000000000000000815260040161246c90614c40565b60405180910390fd5b600015156009838154811061248d5761248c61456a565b5b906000526020600020906002020160000160009054906101000a900460ff161515146124ee576040517f08c379a00000000000000000000000000000000000000000000000000000000081526004016124e5906151eb565b60405180910390fd5b6001600983815481106125045761250361456a565b5b906000526020600020906002020160000160006101000a81548160ff02191690831515021790555080600983815481106125415761254061456a565b5b9060005260206000209060020201600101819055507f6ef7f5c0328392c4b3ccca1774f1aecaaa818eb7b2087a2f41b359b7afbf36f48282604051612587929190614f98565b60405180910390a15050565b600d6020528060005260406000206000915054906101000a900460ff1681565b6000600560008473ffffffffffffffffffffffffffffffffffffffff1673ffffffffffffffffffffffffffffffffffffffff16815260200190815260200160002060008373ffffffffffffffffffffffffffffffffffffffff1673ffffffffffffffffffffffffffffffffffffffff16815260200190815260200160002060009054906101000a900460ff16905092915050565b61264f612ec0565b600073ffffffffffffffffffffffffffffffffffffffff168173ffffffffffffffffffffffffffffffffffffffff16036126be576040517f08c379a00000000000000000000000000000000000000000000000000000000081526004016126b59061527d565b60405180910390fd5b6126c781612f3e565b50565b60007f01ffc9a7000000000000000000000000000000000000000000000000000000007bffffffffffffffffffffffffffffffffffffffffffffffffffffffff1916827bffffffffffffffffffffffffffffffffffffffffffffffffffffffff1916149050919050565b61273d816132ec565b61277c576040517f08c379a000000000000000000000000000000000000000000000000000000000815260040161277390614b00565b60405180910390fd5b50565b600033905090565b816004600083815260200190815260200160002060006101000a81548173ffffffffffffffffffffffffffffffffffffffff021916908373ffffffffffffffffffffffffffffffffffffffff160217905550808273ffffffffffffffffffffffffffffffffffffffff166127fa83611155565b73ffffffffffffffffffffffffffffffffffffffff167f8c5be1e5ebec7d5bd14f71427d1e84f3dd0314c0f7b2291e5b200ac8c7c3b92560405160405180910390a45050565b6001816000016000828254019250508190555050565b600081600001549050919050565b600073ffffffffffffffffffffffffffffffffffffffff168273ffffffffffffffffffffffffffffffffffffffff16036128d3576040517f08c379a00000000000000000000000000000000000000000000000000000000081526004016128ca906152e9565b60405180910390fd5b6128dc816132ec565b1561291c576040517f08c379a000000000000000000000000000000000000000000000000000000000815260040161291390615355565b60405180910390fd5b61292a60008383600161332d565b612933816132ec565b15612973576040517f08c379a000000000000000000000000000000000000000000000000000000000815260040161296a90615355565b60405180910390fd5b6001600360008473ffffffffffffffffffffffffffffffffffffffff1673ffffffffffffffffffffffffffffffffffffffff16815260200190815260200160002060008282540192505081905550816002600083815260200190815260200160002060006101000a81548173ffffffffffffffffffffffffffffffffffffffff021916908373ffffffffffffffffffffffffffffffffffffffff160217905550808273ffffffffffffffffffffffffffffffffffffffff16600073ffffffffffffffffffffffffffffffffffffffff167fddf252ad1be2c89b69c2b068fc378daa952ba7f163c4a11628f55a4df523b3ef60405160405180910390a4612a7d600083836001613453565b5050565b612a8a826132ec565b612ac9576040517f08c379a0000000000000000000000000000000000000000000000000000000008152600401612ac0906153e7565b60405180910390fd5b80600660008481526020019081526020016000209080519060200190612af09291906138be565b505050565b600080612b0183611155565b90508073ffffffffffffffffffffffffffffffffffffffff168473ffffffffffffffffffffffffffffffffffffffff161480612b435750612b4281856125b3565b5b80612b8157508373ffffffffffffffffffffffffffffffffffffffff16612b6984610a59565b73ffffffffffffffffffffffffffffffffffffffff16145b91505092915050565b8273ffffffffffffffffffffffffffffffffffffffff16612baa82611155565b73ffffffffffffffffffffffffffffffffffffffff1614612c00576040517f08c379a0000000000000000000000000000000000000000000000000000000008152600401612bf790615479565b60405180910390fd5b600073ffffffffffffffffffffffffffffffffffffffff168273ffffffffffffffffffffffffffffffffffffffff1603612c6f576040517f08c379a0000000000000000000000000000000000000000000000000000000008152600401612c669061550b565b60405180910390fd5b612c7c838383600161332d565b8273ffffffffffffffffffffffffffffffffffffffff16612c9c82611155565b73ffffffffffffffffffffffffffffffffffffffff1614612cf2576040517f08c379a0000000000000000000000000000000000000000000000000000000008152600401612ce990615479565b60405180910390fd5b6004600082815260200190815260200160002060006101000a81549073ffffffffffffffffffffffffffffffffffffffff02191690556001600360008573ffffffffffffffffffffffffffffffffffffffff1673ffffffffffffffffffffffffffffffffffffffff168152602001908152602001600020600082825403925050819055506001600360008473ffffffffffffffffffffffffffffffffffffffff1673ffffffffffffffffffffffffffffffffffffffff16815260200190815260200160002060008282540192505081905550816002600083815260200190815260200160002060006101000a81548173ffffffffffffffffffffffffffffffffffffffff021916908373ffffffffffffffffffffffffffffffffffffffff160217905550808273ffffffffffffffffffffffffffffffffffffffff168473ffffffffffffffffffffffffffffffffffffffff167fddf252ad1be2c89b69c2b068fc378daa952ba7f163c4a11628f55a4df523b3ef60405160405180910390a4612e7e8383836001613453565b505050565b60006002600083815260200190815260200160002060009054906101000a900473ffffffffffffffffffffffffffffffffffffffff169050919050565b612ec861277f565b73ffffffffffffffffffffffffffffffffffffffff16612ee66114a9565b73ffffffffffffffffffffffffffffffffffffffff1614612f3c576040517f08c379a0000000000000000000000000000000000000000000000000000000008152600401612f3390615577565b60405180910390fd5b565b6000600760009054906101000a900473ffffffffffffffffffffffffffffffffffffffff16905081600760006101000a81548173ffffffffffffffffffffffffffffffffffffffff021916908373ffffffffffffffffffffffffffffffffffffffff1602179055508173ffffffffffffffffffffffffffffffffffffffff168173ffffffffffffffffffffffffffffffffffffffff167f8be0079c531659141344cd1fd0a4f28419497f9722a3daafe3b4186f6b6457e060405160405180910390a35050565b600080600090505b600c8460405161301c9190614a31565b9081526020016040518091039020600101805490508110156130995782600c856040516130499190614a31565b9081526020016040518091039020600101828154811061306c5761306b61456a565b5b90600052602060002001540361308657600191505061309f565b8080613091906146de565b91505061300c565b50600090505b92915050565b8173ffffffffffffffffffffffffffffffffffffffff168373ffffffffffffffffffffffffffffffffffffffff1603613113576040517f08c379a000000000000000000000000000000000000000000000000000000000815260040161310a906155e3565b60405180910390fd5b80600560008573ffffffffffffffffffffffffffffffffffffffff1673ffffffffffffffffffffffffffffffffffffffff16815260200190815260200160002060008473ffffffffffffffffffffffffffffffffffffffff1673ffffffffffffffffffffffffffffffffffffffff16815260200190815260200160002060006101000a81548160ff0219169083151502179055508173ffffffffffffffffffffffffffffffffffffffff168373ffffffffffffffffffffffffffffffffffffffff167f17307eab39ab6107e8899845ad3d59bd9653f200f220920489ca2b5937696c31836040516132049190613a15565b60405180910390a3505050565b61321c848484612b8a565b61322884848484613459565b613267576040517f08c379a000000000000000000000000000000000000000000000000000000000815260040161325e90615675565b60405180910390fd5b50505050565b606060405180602001604052806000815250905090565b606061328f82612734565b600061329961326d565b905060008151116132b957604051806020016040528060008152506132e4565b806132c3846135e0565b6040516020016132d4929190614fc1565b6040516020818303038152906040525b915050919050565b60008073ffffffffffffffffffffffffffffffffffffffff1661330e83612e83565b73ffffffffffffffffffffffffffffffffffffffff1614159050919050565b600181111561344d57600073ffffffffffffffffffffffffffffffffffffffff168473ffffffffffffffffffffffffffffffffffffffff16146133c15780600360008673ffffffffffffffffffffffffffffffffffffffff1673ffffffffffffffffffffffffffffffffffffffff16815260200190815260200160002060008282546133b99190614da4565b925050819055505b600073ffffffffffffffffffffffffffffffffffffffff168373ffffffffffffffffffffffffffffffffffffffff161461344c5780600360008573ffffffffffffffffffffffffffffffffffffffff1673ffffffffffffffffffffffffffffffffffffffff16815260200190815260200160002060008282546134449190615695565b925050819055505b5b50505050565b50505050565b600061347a8473ffffffffffffffffffffffffffffffffffffffff166136ae565b156135d3578373ffffffffffffffffffffffffffffffffffffffff1663150b7a026134a361277f565b8786866040518563ffffffff1660e01b81526004016134c59493929190615740565b6020604051808303816000875af192505050801561350157506040513d601f19601f820116820180604052508101906134fe91906157a1565b60015b613583573d8060008114613531576040519150601f19603f3d011682016040523d82523d6000602084013e613536565b606091505b50600081510361357b576040517f08c379a000000000000000000000000000000000000000000000000000000000815260040161357290615675565b60405180910390fd5b805181602001fd5b63150b7a0260e01b7bffffffffffffffffffffffffffffffffffffffffffffffffffffffff1916817bffffffffffffffffffffffffffffffffffffffffffffffffffffffff1916149150506135d8565b600190505b949350505050565b6060600060016135ef846136d1565b01905060008167ffffffffffffffff81111561360e5761360d613e50565b5b6040519080825280601f01601f1916602001820160405280156136405781602001600182028036833780820191505090505b509050600082602001820190505b6001156136a3578080600190039150507f3031323334353637383961626364656600000000000000000000000000000000600a86061a8153600a8581613697576136966157ce565b5b0494506000850361364e575b819350505050919050565b6000808273ffffffffffffffffffffffffffffffffffffffff163b119050919050565b600080600090507a184f03e93ff9f4daa797ed6e38ed64bf6a1f010000000000000000831061372f577a184f03e93ff9f4daa797ed6e38ed64bf6a1f0100000000000000008381613725576137246157ce565b5b0492506040810190505b6d04ee2d6d415b85acef8100000000831061376c576d04ee2d6d415b85acef81000000008381613762576137616157ce565b5b0492506020810190505b662386f26fc10000831061379b57662386f26fc100008381613791576137906157ce565b5b0492506010810190505b6305f5e10083106137c4576305f5e10083816137ba576137b96157ce565b5b0492506008810190505b61271083106137e95761271083816137df576137de6157ce565b5b0492506004810190505b6064831061380c5760648381613802576138016157ce565b5b0492506002810190505b600a831061381b576001810190505b80915050919050565b604051806040016040528060608152602001606081525090565b6040518060400160405280600015158152602001600081525090565b6040518060c001604052806060815260200160608152602001600073ffffffffffffffffffffffffffffffffffffffff168152602001600073ffffffffffffffffffffffffffffffffffffffff168152602001606081526020016000151581525090565b8280546138ca906145c8565b90600052602060002090601f0160209004810192826138ec5760008555613933565b82601f1061390557805160ff1916838001178555613933565b82800160010185558215613933579182015b82811115613932578251825591602001919060010190613917565b5b5090506139409190613944565b5090565b5b8082111561395d576000816000905550600101613945565b5090565b6000604051905090565b600080fd5b600080fd5b60007fffffffff0000000000000000000000000000000000000000000000000000000082169050919050565b6139aa81613975565b81146139b557600080fd5b50565b6000813590506139c7816139a1565b92915050565b6000602082840312156139e3576139e261396b565b5b60006139f1848285016139b8565b91505092915050565b60008115159050919050565b613a0f816139fa565b82525050565b6000602082019050613a2a6000830184613a06565b92915050565b600081519050919050565b600082825260208201905092915050565b6000819050602082019050919050565b600081519050919050565b600082825260208201905092915050565b60005b83811015613a96578082015181840152602081019050613a7b565b83811115613aa5576000848401525b50505050565b6000601f19601f8301169050919050565b6000613ac782613a5c565b613ad18185613a67565b9350613ae1818560208601613a78565b613aea81613aab565b840191505092915050565b600081519050919050565b600082825260208201905092915050565b6000819050602082019050919050565b6000819050919050565b613b3481613b21565b82525050565b6000613b468383613b2b565b60208301905092915050565b6000602082019050919050565b6000613b6a82613af5565b613b748185613b00565b9350613b7f83613b11565b8060005b83811015613bb0578151613b978882613b3a565b9750613ba283613b52565b925050600181019050613b83565b5085935050505092915050565b60006040830160008301518482036000860152613bda8282613abc565b91505060208301518482036020860152613bf48282613b5f565b9150508091505092915050565b6000613c0d8383613bbd565b905092915050565b6000602082019050919050565b6000613c2d82613a30565b613c378185613a3b565b935083602082028501613c4985613a4c565b8060005b85811015613c855784840389528151613c668582613c01565b9450613c7183613c15565b925060208a01995050600181019050613c4d565b50829750879550505050505092915050565b60006020820190508181036000830152613cb18184613c22565b905092915050565b600082825260208201905092915050565b6000613cd582613a5c565b613cdf8185613cb9565b9350613cef818560208601613a78565b613cf881613aab565b840191505092915050565b60006020820190508181036000830152613d1d8184613cca565b905092915050565b613d2e81613b21565b8114613d3957600080fd5b50565b600081359050613d4b81613d25565b92915050565b600060208284031215613d6757613d6661396b565b5b6000613d7584828501613d3c565b91505092915050565b600073ffffffffffffffffffffffffffffffffffffffff82169050919050565b6000613da982613d7e565b9050919050565b613db981613d9e565b82525050565b6000602082019050613dd46000830184613db0565b92915050565b613de381613d9e565b8114613dee57600080fd5b50565b600081359050613e0081613dda565b92915050565b60008060408385031215613e1d57613e1c61396b565b5b6000613e2b85828601613df1565b9250506020613e3c85828601613d3c565b9150509250929050565b600080fd5b600080fd5b7f4e487b7100000000000000000000000000000000000000000000000000000000600052604160045260246000fd5b613e8882613aab565b810181811067ffffffffffffffff82111715613ea757613ea6613e50565b5b80604052505050565b6000613eba613961565b9050613ec68282613e7f565b919050565b600067ffffffffffffffff821115613ee657613ee5613e50565b5b613eef82613aab565b9050602081019050919050565b82818337600083830152505050565b6000613f1e613f1984613ecb565b613eb0565b905082815260208101848484011115613f3a57613f39613e4b565b5b613f45848285613efc565b509392505050565b600082601f830112613f6257613f61613e46565b5b8135613f72848260208601613f0b565b91505092915050565b60008060408385031215613f9257613f9161396b565b5b6000613fa085828601613df1565b925050602083013567ffffffffffffffff811115613fc157613fc0613970565b5b613fcd85828601613f4d565b9150509250929050565b613fe081613b21565b82525050565b6000602082019050613ffb6000830184613fd7565b92915050565b60008060006060848603121561401a5761401961396b565b5b600061402886828701613df1565b935050602061403986828701613df1565b925050604061404a86828701613d3c565b9150509250925092565b6000806000806080858703121561406e5761406d61396b565b5b600085013567ffffffffffffffff81111561408c5761408b613970565b5b61409887828801613f4d565b945050602085013567ffffffffffffffff8111156140b9576140b8613970565b5b6140c587828801613f4d565b93505060406140d687828801613df1565b925050606085013567ffffffffffffffff8111156140f7576140f6613970565b5b61410387828801613f4d565b91505092959194509250565b6000602082840312156141255761412461396b565b5b600061413384828501613df1565b91505092915050565b600080604083850312156141535761415261396b565b5b600083013567ffffffffffffffff81111561417157614170613970565b5b61417d85828601613f4d565b925050602061418e85828601613d3c565b9150509250929050565b6141a1816139fa565b81146141ac57600080fd5b50565b6000813590506141be81614198565b92915050565b600080604083850312156141db576141da61396b565b5b60006141e985828601613df1565b92505060206141fa858286016141af565b9150509250929050565b600067ffffffffffffffff82111561421f5761421e613e50565b5b61422882613aab565b9050602081019050919050565b600061424861424384614204565b613eb0565b90508281526020810184848401111561426457614263613e4b565b5b61426f848285613efc565b509392505050565b600082601f83011261428c5761428b613e46565b5b813561429c848260208601614235565b91505092915050565b600080600080608085870312156142bf576142be61396b565b5b60006142cd87828801613df1565b94505060206142de87828801613df1565b93505060406142ef87828801613d3c565b925050606085013567ffffffffffffffff8111156143105761430f613970565b5b61431c87828801614277565b91505092959194509250565b6000806040838503121561433f5761433e61396b565b5b600061434d85828601613d3c565b925050602061435e85828601613d3c565b9150509250929050565b600060408201905061437d6000830185613a06565b61438a6020830184613fd7565b9392505050565b600081519050919050565b600082825260208201905092915050565b6000819050602082019050919050565b6143c681613d9e565b82525050565b6143d5816139fa565b82525050565b600060c08301600083015184820360008601526143f88282613abc565b915050602083015184820360208601526144128282613abc565b915050604083015161442760408601826143bd565b50606083015161443a60608601826143bd565b50608083015184820360808601526144528282613abc565b91505060a083015161446760a08601826143cc565b508091505092915050565b600061447e83836143db565b905092915050565b6000602082019050919050565b600061449e82614391565b6144a8818561439c565b9350836020820285016144ba856143ad565b8060005b858110156144f657848403895281516144d78582614472565b94506144e283614486565b925060208a019950506001810190506144be565b50829750879550505050505092915050565b600060208201905081810360008301526145228184614493565b905092915050565b600080604083850312156145415761454061396b565b5b600061454f85828601613df1565b925050602061456085828601613df1565b9150509250929050565b7f4e487b7100000000000000000000000000000000000000000000000000000000600052603260045260246000fd5b7f4e487b7100000000000000000000000000000000000000000000000000000000600052602260045260246000fd5b600060028204905060018216806145e057607f821691505b6020821081036145f3576145f2614599565b5b50919050565b600081905092915050565b60008190508160005260206000209050919050565b60008154614626816145c8565b61463081866145f9565b9450600182166000811461464b576001811461465c5761468f565b60ff1983168652818601935061468f565b61466585614604565b60005b8381101561468757815481890152600182019150602081019050614668565b838801955050505b50505092915050565b60006146a48284614619565b915081905092915050565b7f4e487b7100000000000000000000000000000000000000000000000000000000600052601160045260246000fd5b60006146e982613b21565b91507fffffffffffffffffffffffffffffffffffffffffffffffffffffffffffffffff820361471b5761471a6146af565b5b600182019050919050565b7f4552433732313a20617070726f76616c20746f2063757272656e74206f776e6560008201527f7200000000000000000000000000000000000000000000000000000000000000602082015250565b6000614782602183613cb9565b915061478d82614726565b604082019050919050565b600060208201905081810360008301526147b181614775565b9050919050565b7f4552433732313a20617070726f76652063616c6c6572206973206e6f7420746f60008201527f6b656e206f776e6572206f7220617070726f76656420666f7220616c6c000000602082015250565b6000614814603d83613cb9565b915061481f826147b8565b604082019050919050565b6000602082019050818103600083015261484381614807565b9050919050565b7f596f7520617265206e6f7420616e2065717569706d656e74206d616e7566616360008201527f74757265722e0000000000000000000000000000000000000000000000000000602082015250565b60006148a6602683613cb9565b91506148b18261484a565b604082019050919050565b600060208201905081810360008301526148d581614899565b9050919050565b7f4552433732312063616e6e6f74206265206d696e74656420746f20746865207a60008201527f65726f2061646472657373000000000000000000000000000000000000000000602082015250565b6000614938602b83613cb9565b9150614943826148dc565b604082019050919050565b600060208201905081810360008301526149678161492b565b9050919050565b7f4552433732313a2063616c6c6572206973206e6f7420746f6b656e206f776e6560008201527f72206f7220617070726f76656400000000000000000000000000000000000000602082015250565b60006149ca602d83613cb9565b91506149d58261496e565b604082019050919050565b600060208201905081810360008301526149f9816149bd565b9050919050565b6000614a0b82613a5c565b614a1581856145f9565b9350614a25818560208601613a78565b80840191505092915050565b6000614a3d8284614a00565b915081905092915050565b7f546869732065717569706d656e7420616c7265616479206578697374732e0000600082015250565b6000614a7e601e83613cb9565b9150614a8982614a48565b602082019050919050565b60006020820190508181036000830152614aad81614a71565b9050919050565b7f4552433732313a20696e76616c696420746f6b656e2049440000000000000000600082015250565b6000614aea601883613cb9565b9150614af582614ab4565b602082019050919050565b60006020820190508181036000830152614b1981614add565b9050919050565b7f4552433732313a2061646472657373207a65726f206973206e6f74206120766160008201527f6c6964206f776e65720000000000000000000000000000000000000000000000602082015250565b6000614b7c602983613cb9565b9150614b8782614b20565b604082019050919050565b60006020820190508181036000830152614bab81614b6f565b9050919050565b600081519050614bc181613dda565b92915050565b600060208284031215614bdd57614bdc61396b565b5b6000614beb84828501614bb2565b91505092915050565b7f596f7520646f6e277420706f7373657373207468697320706172742e00000000600082015250565b6000614c2a601c83613cb9565b9150614c3582614bf4565b602082019050919050565b60006020820190508181036000830152614c5981614c1d565b9050919050565b7f546869732070617274206973206e6f74206c69737465642e0000000000000000600082015250565b6000614c96601883613cb9565b9150614ca182614c60565b602082019050919050565b60006020820190508181036000830152614cc581614c89565b9050919050565b7f596f7520646f206e6f7420706f73736573732074686973207061727400000000600082015250565b6000614d02601c83613cb9565b9150614d0d82614ccc565b602082019050919050565b60006020820190508181036000830152614d3181614cf5565b9050919050565b7f596f7520646f206e6f74206861766520746869732065717569706d656e740000600082015250565b6000614d6e601e83613cb9565b9150614d7982614d38565b602082019050919050565b60006020820190508181036000830152614d9d81614d61565b9050919050565b6000614daf82613b21565b9150614dba83613b21565b925082821015614dcd57614dcc6146af565b5b828203905092915050565b7f596f7520646f206e6f7420686176652074686973207061727400000000000000600082015250565b6000614e0e601983613cb9565b9150614e1982614dd8565b602082019050919050565b60006020820190508181036000830152614e3d81614e01565b9050919050565b7f5061727420616c726561647920696e7374616c6c656420696e20617373656d6260008201527f6c79000000000000000000000000000000000000000000000000000000000000602082015250565b6000614ea0602283613cb9565b9150614eab82614e44565b604082019050919050565b60006020820190508181036000830152614ecf81614e93565b9050919050565b6000604082019050614eeb6000830185613fd7565b8181036020830152614efd8184613cca565b90509392505050565b7f546869732061646472657373206973206e6f742072656769737465726564206160008201527f7320616e2045717569706d656e74204d616e7566616374757265722e00000000602082015250565b6000614f62603c83613cb9565b9150614f6d82614f06565b604082019050919050565b60006020820190508181036000830152614f9181614f55565b9050919050565b6000604082019050614fad6000830185613fd7565b614fba6020830184613fd7565b9392505050565b6000614fcd8285614a00565b9150614fd98284614a00565b91508190509392505050565b7f54686973206164647265737320697320616c726561647920726567697374657260008201527f656420617320616e2045717569706d656e74204d616e7566616374757265722e602082015250565b6000615041604083613cb9565b915061504c82614fe5565b604082019050919050565b6000602082019050818103600083015261507081615034565b9050919050565b7f4d6573736167652076616c7565206973206e6f7420657175616c20746f206c6960008201527f7374656420707269636500000000000000000000000000000000000000000000602082015250565b60006150d3602a83613cb9565b91506150de82615077565b604082019050919050565b60006020820190508181036000830152615102816150c6565b9050919050565b6000819050919050565b600061512e61512961512484613d7e565b615109565b613d7e565b9050919050565b600061514082615113565b9050919050565b600061515282615135565b9050919050565b61516281615147565b82525050565b600060608201905061517d6000830186615159565b61518a6020830185613db0565b6151976040830184613fd7565b949350505050565b7f54686973207061727420697320616c7265616479206c69737465642e00000000600082015250565b60006151d5601c83613cb9565b91506151e08261519f565b602082019050919050565b60006020820190508181036000830152615204816151c8565b9050919050565b7f4f776e61626c653a206e6577206f776e657220697320746865207a65726f206160008201527f6464726573730000000000000000000000000000000000000000000000000000602082015250565b6000615267602683613cb9565b91506152728261520b565b604082019050919050565b600060208201905081810360008301526152968161525a565b9050919050565b7f4552433732313a206d696e7420746f20746865207a65726f2061646472657373600082015250565b60006152d3602083613cb9565b91506152de8261529d565b602082019050919050565b60006020820190508181036000830152615302816152c6565b9050919050565b7f4552433732313a20746f6b656e20616c7265616479206d696e74656400000000600082015250565b600061533f601c83613cb9565b915061534a82615309565b602082019050919050565b6000602082019050818103600083015261536e81615332565b9050919050565b7f45524337323155524953746f726167653a2055524920736574206f66206e6f6e60008201527f6578697374656e7420746f6b656e000000000000000000000000000000000000602082015250565b60006153d1602e83613cb9565b91506153dc82615375565b604082019050919050565b60006020820190508181036000830152615400816153c4565b9050919050565b7f4552433732313a207472616e736665722066726f6d20696e636f72726563742060008201527f6f776e6572000000000000000000000000000000000000000000000000000000602082015250565b6000615463602583613cb9565b915061546e82615407565b604082019050919050565b6000602082019050818103600083015261549281615456565b9050919050565b7f4552433732313a207472616e7366657220746f20746865207a65726f2061646460008201527f7265737300000000000000000000000000000000000000000000000000000000602082015250565b60006154f5602483613cb9565b915061550082615499565b604082019050919050565b60006020820190508181036000830152615524816154e8565b9050919050565b7f4f776e61626c653a2063616c6c6572206973206e6f7420746865206f776e6572600082015250565b6000615561602083613cb9565b915061556c8261552b565b602082019050919050565b6000602082019050818103600083015261559081615554565b9050919050565b7f4552433732313a20617070726f766520746f2063616c6c657200000000000000600082015250565b60006155cd601983613cb9565b91506155d882615597565b602082019050919050565b600060208201905081810360008301526155fc816155c0565b9050919050565b7f4552433732313a207472616e7366657220746f206e6f6e20455243373231526560008201527f63656976657220696d706c656d656e7465720000000000000000000000000000602082015250565b600061565f603283613cb9565b915061566a82615603565b604082019050919050565b6000602082019050818103600083015261568e81615652565b9050919050565b60006156a082613b21565b91506156ab83613b21565b9250827fffffffffffffffffffffffffffffffffffffffffffffffffffffffffffffffff038211156156e0576156df6146af565b5b828201905092915050565b600081519050919050565b600082825260208201905092915050565b6000615712826156eb565b61571c81856156f6565b935061572c818560208601613a78565b61573581613aab565b840191505092915050565b60006080820190506157556000830187613db0565b6157626020830186613db0565b61576f6040830185613fd7565b81810360608301526157818184615707565b905095945050505050565b60008151905061579b816139a1565b92915050565b6000602082840312156157b7576157b661396b565b5b60006157c58482850161578c565b91505092915050565b7f4e487b7100000000000000000000000000000000000000000000000000000000600052601260045260246000fdfea26469706673582212208c688fbd2a11415504c713e61abb4d3461626d42e2fb4e5247f31351bbdc214a64736f6c634300080d0033",
  "immutableReferences": {},
  "source": "// SPDX-License-Identifier: MIT\npragma solidity 0.8.13;\n\nimport \"../node_modules/@openzeppelin/contracts/access/Ownable.sol\";\nimport \"../node_modules/@openzeppelin/contracts/token/ERC721/extensions/ERC721URIStorage.sol\";\nimport \"../node_modules/@openzeppelin/contracts/utils/Counters.sol\";\n\ncontract CycleChain is ERC721URIStorage, Ownable  {\n    using Counters for Counters.Counter;\n    Counters.Counter private _tokenIds;\n\n    // Part object\n    struct Part {\n        bool isListed;\n        uint listedPrice;\n    }\n\n    // Part array with index that will be equal to the NFT' ID\n    Part[] public parts;\n\n    // Equipment object\n    struct Equipment {\n        string serialNumber;\n        string category;\n        address manufacturer;\n        address owner;\n        string model;\n        // string photoURL; To add in V2\n        bool isValue;\n    }\n\n    // Equipment serialNumber => Equipment\n    mapping (string => Equipment) equipments;\n\n    // A table of all equipments serial numbers to make the mapping enumerable\n    string[] equipmentsSerialNumbers;\n\n\n    // An equipment can contain parts, forming an \"assembly\"\n    struct Assembly {\n        string equipmentSerialNumber;\n        uint[] partsIds;\n    }\n\n    // Equipment serialNumber => Assembly\n    mapping (string => Assembly) assemblies;\n\n    // Equipment manufacturers mapping\n    mapping (address => bool) public equipmentManufacturers;\n\n    // List of events\n    event PartCreated(uint NftId);\n    event EquipmentManufacturerRegistered(address _address);\n    event EquipmentManufacturerRemoved(address _address);\n    event PartInstalledOnEquipment(uint _partId, string _equipmentSerialNumber);\n    event PartRemovedFromEquipment(uint partId, uint equipmentId);\n    event EquipmentCreated(string equipmentId);\n    event partListed(uint partId, uint price);\n    event partDelisted(uint partId);\n\n    constructor() ERC721(\"Part\", \"CC\") {\n      // In order to have the index of parts equal to the NFT ID, we need to fill the index 0 of parts\n      Part memory part;\n      parts.push(part);\n    }\n\n    /// @notice Check if the msg.sender is an equipment manufacturer\n    modifier onlyEquipmentManufacturers() {\n        require(equipmentManufacturers[msg.sender] == true, \"You are not an equipment manufacturer.\");\n        _;\n    }\n    \n    // ::::::::::::: GETTERS ::::::::::::: //\n\n    function getAllEquipments() public view returns (Equipment[] memory) {\n        uint len = equipmentsSerialNumbers.length;\n        Equipment[] memory equipmentsArray = new Equipment[](len);\n\n        for (uint i=0; i<len; i++) {\n            equipmentsArray[i] = equipments[equipmentsSerialNumbers[i]];\n        }\n        return equipmentsArray;\n    }\n\n    function getAllAssemblies() public view returns (Assembly[] memory) {\n        uint len = equipmentsSerialNumbers.length;\n        Assembly[] memory assembliesArray = new Assembly[](len);\n\n        for (uint i=0; i<len; i++) {\n            assembliesArray[i] = assemblies[equipmentsSerialNumbers[i]];\n        }\n        return assembliesArray;\n    }\n\n\n    // ::::::::::::: FUNCTIONS ::::::::::::: //\n\n\n    /// @notice Register a new Equipment Manufacturer\n    /// @param _producer Address of the Equipment Manufacturer that will be allowed to create a Part (NFT)\n    function registerEquipmentManufacturer(address _producer) external onlyOwner {\n      require(equipmentManufacturers[_producer] == false, \"This address is already registered as an Equipment Manufacturer.\");\n\n      equipmentManufacturers[_producer] = true;\n      emit EquipmentManufacturerRegistered(_producer);\n    }\n\n    /// @notice Remove an Equipment Manufacturer\n    /// @param _producer Address of the Equipment Manufacturer that will be allowed to create a Part (NFT)\n    function removeEquipmentManufacturer(address _producer) external onlyOwner {\n      require(equipmentManufacturers[_producer] == true, \"This address is not registered as an Equipment Manufacturer.\");\n\n      equipmentManufacturers[_producer] = false;\n      emit EquipmentManufacturerRemoved(_producer);\n    }\n\n    /// @notice Adds an equipment to the equipments mapping and update the equipmentsSerialNumbers array\n    /// @param _serialNumber Serial Number\n    /// @param _category Category\n    /// @param _owner The owner of the equipment (company name)\n    /// @param _model Equipment model\n    function createEquipment(string memory _serialNumber, string memory _category, address _owner, string memory _model) public onlyEquipmentManufacturers {\n      require(equipments[_serialNumber].isValue == false, \"This equipment already exists.\");\n      Equipment memory eq;\n      eq.serialNumber = _serialNumber;\n      eq.category = _category;\n      eq.manufacturer = msg.sender;\n      eq.owner = _owner;\n      eq.model = _model;\n      eq.isValue = true;\n\n      equipments[_serialNumber] = eq;\n      equipmentsSerialNumbers.push(_serialNumber);\n\n      emit EquipmentCreated(_serialNumber);\n    }\n\n    function checkIfPartExistsInAssembly(string memory _equipmentSerialNumber, uint _partId) internal view returns(bool) {\n      for (uint i = 0; i <assemblies[_equipmentSerialNumber].partsIds.length; i++) {\n        if (assemblies[_equipmentSerialNumber].partsIds[i] == _partId) return true;\n      }\n      return false;\n    }\n\n    /// @notice Adds a part to an assembly (or creates he assembly if it doesn't exist)\n    /// @param _equipmentSerialNumber The serial number of the equipment\n    /// @param _partId The id of the part to be installed\n    function addPartToAssembly(string memory _equipmentSerialNumber, uint _partId) external {\n      require(ownerOf(_partId) == msg.sender, \"You do not possess this part\");\n      require(equipments[_equipmentSerialNumber].isValue == true, \"You do not have this equipment\");\n      require(parts.length - 1 >= _partId, \"You do not have this part\");\n      require(checkIfPartExistsInAssembly(_equipmentSerialNumber, _partId) == false, \"Part already installed in assembly\");\n\n      assemblies[_equipmentSerialNumber].equipmentSerialNumber = _equipmentSerialNumber;\n      assemblies[_equipmentSerialNumber].partsIds.push(_partId);\n      emit PartInstalledOnEquipment(_partId, _equipmentSerialNumber);\n    }\n\n    /// @notice As an equipment manufacturer, create a part NFT and transfer it to a part manufacturer\n    /// @param _forManufacturer Address of the part producer that will get the Part (NFT)\n    /// @return uint NFT's ID\n    function createPart(address _forManufacturer, string  memory _partURI) public onlyEquipmentManufacturers returns (uint256) {\n        require(_forManufacturer != address(0), \"ERC721 cannot be minted to the zero address\");\n\n        _tokenIds.increment();\n        uint256 newItemId = _tokenIds.current();\n        _mint(_forManufacturer, newItemId);\n        _setTokenURI(newItemId, _partURI);\n\n        Part memory part;\n        parts.push(part);\n\n        emit PartCreated(newItemId);\n\n        return newItemId;\n    }\n\n    /// @notice List a part\n    /// @param _nftId Part's NFT ID\n    /// @param _price Part's price\n    function listPart(uint _nftId, uint _price) external {\n      require(msg.sender == this.ownerOf(_nftId), \"You don't possess this part.\");\n      require(parts[_nftId].isListed == false, \"This part is already listed.\");\n\n      parts[_nftId].isListed = true;\n      parts[_nftId].listedPrice = _price;\n      emit partListed(_nftId, _price);\n    }\n\n    /// @notice Delist a part\n    /// @param _nftId Part's NFT ID\n    function delistPart(uint _nftId) external {\n      require(msg.sender == this.ownerOf(_nftId), \"You don't possess this part.\");\n      require(parts[_nftId].isListed == true, \"This part is not listed.\");\n\n      parts[_nftId].isListed = false;\n      parts[_nftId].listedPrice = 0;\n      emit partDelisted(_nftId);\n    }\n\n    /// @notice Update the listing price\n    /// @param _nftId Part's NFT ID\n    /// @param _price Part's price\n    function updateListingPrice(uint _nftId, uint _price) external {\n      require(msg.sender == this.ownerOf(_nftId), \"You don't possess this part.\");\n      require(parts[_nftId].isListed == true, \"This part is not listed.\");\n\n      parts[_nftId].listedPrice = _price;\n      emit partListed(_nftId, _price);\n    }\n\n\n    /// @notice Buy a part at market price\n    /// @param _nftId Part's NFT ID\n    function marketBuyPart(uint256 _nftId) public payable {\n      uint listedPrice = parts[_nftId].listedPrice;\n      require(parts[_nftId].isListed == true, \"This part is not listed.\");\n      require(msg.value == listedPrice, \"Message value is not equal to listed price\");\n\n      address payable owner = payable(this.ownerOf(_nftId));\n      this.safeTransferFrom(owner, msg.sender, _nftId);\n      payable(owner).transfer(listedPrice);\n      parts[_nftId].isListed = false;\n      parts[_nftId].listedPrice = 0;\n    }\n\n    /*\n    // This function removes a part from an assembly\n    function removePartFromAssembly(string memory _equipmentSerialNumber, string memory _partSerialNumber) public {\n      // TODO: Check if msg.sender is the owner of the part\n      // TODO: Check if equipment exists\n      // TODO: Check if part exists\n      uint len = assemblies[_equipmentSerialNumber].partsSerialNumbers.length;\n      string[] memory existingPartsArray = new string[](len);\n      existingPartsArray = assemblies[_equipmentSerialNumber].partsSerialNumbers;\n\n      bool found = false;\n      for(uint i=0; i<len; i++){\n        // Compare part with part to be deleted\n        if(keccak256(abi.encodePacked(partsArray[i])) == keccak256(abi.encodePacked(_partSerialNumber))) {\n          found = true;\n          // Replace the part to be deleted with the last part of the array\n          partsArray[i] = partsArray[len-1];\n        }\n      }\n\n      if (found) {\n        partsArray.pop();\n      }\n\n      partsArray[len] = _partSerialNumber;\n      setAssembly(_equipmentSerialNumber, partsArray);\n\n      //emit PartRemovedFromEquipment(_partSerialNumber, _equipmentSerialNumber);\n    }\n    */\n}",
  "sourcePath": "/home/student/Bureau/Alyra/Cycle-Chain/truffle/contracts/CycleChain.sol",
  "compiler": {
    "name": "solc",
    "version": "0.8.13+commit.abaa5c0e.Emscripten.clang"
  },
  "schemaVersion": "3.4.10",
  "updatedAt": "2022-12-10T15:10:50.174Z",
  "networkType": "ethereum",
  "devdoc": {
    "kind": "dev",
    "methods": {
      "addPartToAssembly(string,uint256)": {
        "params": {
          "_equipmentSerialNumber": "The serial number of the equipment",
          "_partId": "The id of the part to be installed"
        }
      },
      "approve(address,uint256)": {
        "details": "See {IERC721-approve}."
      },
      "balanceOf(address)": {
        "details": "See {IERC721-balanceOf}."
      },
      "createEquipment(string,string,address,string)": {
        "params": {
          "_category": "Category",
          "_model": "Equipment model",
          "_owner": "The owner of the equipment (company name)",
          "_serialNumber": "Serial Number"
        }
      },
      "createPart(address,string)": {
        "params": {
          "_forManufacturer": "Address of the part producer that will get the Part (NFT)"
        },
        "returns": {
          "_0": "uint NFT's ID"
        }
      },
      "delistPart(uint256)": {
        "params": {
          "_nftId": "Part's NFT ID"
        }
      },
      "getApproved(uint256)": {
        "details": "See {IERC721-getApproved}."
      },
      "isApprovedForAll(address,address)": {
        "details": "See {IERC721-isApprovedForAll}."
      },
      "listPart(uint256,uint256)": {
        "params": {
          "_nftId": "Part's NFT ID",
          "_price": "Part's price"
        }
      },
      "marketBuyPart(uint256)": {
        "params": {
          "_nftId": "Part's NFT ID"
        }
      },
      "name()": {
        "details": "See {IERC721Metadata-name}."
      },
      "owner()": {
        "details": "Returns the address of the current owner."
      },
      "ownerOf(uint256)": {
        "details": "See {IERC721-ownerOf}."
      },
      "registerEquipmentManufacturer(address)": {
        "params": {
          "_producer": "Address of the Equipment Manufacturer that will be allowed to create a Part (NFT)"
        }
      },
      "removeEquipmentManufacturer(address)": {
        "params": {
          "_producer": "Address of the Equipment Manufacturer that will be allowed to create a Part (NFT)"
        }
      },
      "renounceOwnership()": {
        "details": "Leaves the contract without owner. It will not be possible to call `onlyOwner` functions anymore. Can only be called by the current owner. NOTE: Renouncing ownership will leave the contract without an owner, thereby removing any functionality that is only available to the owner."
      },
      "safeTransferFrom(address,address,uint256)": {
        "details": "See {IERC721-safeTransferFrom}."
      },
      "safeTransferFrom(address,address,uint256,bytes)": {
        "details": "See {IERC721-safeTransferFrom}."
      },
      "setApprovalForAll(address,bool)": {
        "details": "See {IERC721-setApprovalForAll}."
      },
      "supportsInterface(bytes4)": {
        "details": "See {IERC165-supportsInterface}."
      },
      "symbol()": {
        "details": "See {IERC721Metadata-symbol}."
      },
      "tokenURI(uint256)": {
        "details": "See {IERC721Metadata-tokenURI}."
      },
      "transferFrom(address,address,uint256)": {
        "details": "See {IERC721-transferFrom}."
      },
      "transferOwnership(address)": {
        "details": "Transfers ownership of the contract to a new account (`newOwner`). Can only be called by the current owner."
      },
      "updateListingPrice(uint256,uint256)": {
        "params": {
          "_nftId": "Part's NFT ID",
          "_price": "Part's price"
        }
      }
    },
    "version": 1
  },
  "userdoc": {
    "kind": "user",
    "methods": {
      "addPartToAssembly(string,uint256)": {
        "notice": "Adds a part to an assembly (or creates he assembly if it doesn't exist)"
      },
      "createEquipment(string,string,address,string)": {
        "notice": "Adds an equipment to the equipments mapping and update the equipmentsSerialNumbers array"
      },
      "createPart(address,string)": {
        "notice": "As an equipment manufacturer, create a part NFT and transfer it to a part manufacturer"
      },
      "delistPart(uint256)": {
        "notice": "Delist a part"
      },
      "listPart(uint256,uint256)": {
        "notice": "List a part"
      },
      "marketBuyPart(uint256)": {
        "notice": "Buy a part at market price"
      },
      "registerEquipmentManufacturer(address)": {
        "notice": "Register a new Equipment Manufacturer"
      },
      "removeEquipmentManufacturer(address)": {
        "notice": "Remove an Equipment Manufacturer"
      },
      "updateListingPrice(uint256,uint256)": {
        "notice": "Update the listing price"
      }
    },
    "version": 1
  }
}